:020000040800F2
:1000000040120020ED0A00088D390008D90A0008C6
:10001000D90A0008D90A0008D90A0008000000001F
:10002000000000000000000000000000AD0B000810
:10003000D90A0008000000004D0B0008C922000882
:10004000350D0008350D0008350D0008350D000888
:10005000350D0008350D0008350D0008350D000878
:10006000350D0008350D0008350D0008350D000868
:10007000350D0008350D0008350D0008350D000858
:10008000350D0008350D0008350D0008350D000848
:10009000350D0008350D0008350D0008350D000838
:1000A000350D0008350D0008350D0008350D000828
:1000B000350D0008350D0008350D0008350D000818
:1000C000350D0008350D0008350D0008350D000808
:1000D000350D0008350D0008350D0008350D0008F8
:1000E000350D0008350D0008350D0008350D0008E8
:1000F000350D0008350D0008350D0008350D0008D8
:10010000350D0008350D0008350D0008350D0008C7
:10011000350D0008350D0008350D0008350D0008B7
:10012000350D0008350D0008350D0008350D0008A7
:10013000350D0008350D0008350D0008350D000897
:10014000350D0008350D0008350D0008350D000887
:10015000350D0008350D0008350D0008350D000877
:10016000350D0008350D0008350D0008350D000867
:10017000350D0008350D0008350D0008350D000857
:10018000350D0008350D0008350D0008350D000847
:04019000350D000821
:1001940053B94AB9002908BF00281CBF4FF0FF31EA
:1001A4004FF0FF3000F00CB8ADF1080C6DE904CE4F
:1001B40000F008F8DDF804E0DDE9022304B070473C
:1001C400704700BF2DE9F04786468C460846089ED6
:1001D400154674461946002B40F0C2808542B2FA97
:1001E40082F245D94AB1C2F1200300FA02FC2EFA88
:1001F40003F3954043EA0C0C94404FEA154EA8B221
:10020400BCFBFEF8230C0EFB18CC08FB00F943EAF8
:100214000C43994528D9EB1808F1FF3704D29945C6
:1002240002D9A8F102072B44A3EB0903A4B2B3FB40
:10023400FEFC0EFB1C330CFB00F044EA0344A0421A
:1002440014D92C190CF1FF3304D2A04202D9ACF119
:1002540002032C44241A43EA07401EB1D44000236D
:1002640034607360BDE8F0874746DDE76346F1E735
:1002740092BB431B01214FEA154EAFB2B3FBFEFC08
:10028400200C0EFB1C330CFB07F840EA0343984593
:1002940062D9EB180CF1FF3004D2984502D9ACF1C5
:1002A40002002B44A3EB0803A4B2B3FBFEFC0EFB39
:1002B4001C330CFB07F744EA0344A7424ED92C191C
:1002C4000CF1FF3304D2A74202D9ACF102032C444F
:1002D400E41B43EA0040C0E7C2F1200320FA03F123
:1002E400954090402EFA03F303434FEA154EAFB204
:1002F400B1FBFEFC0EFB1C10190C0CFB07F841EAC9
:100304000041884504FA02F422D969180CF1FF303F
:1003140004D2884502D9ACF102002944A1EB0801BA
:100324009BB2B1FBFEFC0EFB1C110CFB07F743EA6E
:1003340001439F420ED9EB180CF1FF3104D29F42C6
:1003440002D9ACF102012B44DB1B41EA004192E7E4
:100354006046E3E76146F7E76046A3E76346B7E72D
:10036400834206D916B9002108467BE7C6E900E0B6
:10037400F9E7B3FA83F78FB9834201D3724508D8FA
:10038400BEEB020460EB030301209C461EB900216E
:1003940068E73846FAE7C6E9004CF8E7C7F1200CED
:1003A400BB4022FA0CF41C432EFA0CF120FA0CF395
:1003B400B84001434FEA14490EFA07F5B3FBF9F8C4
:1003C4001FFA84FE09FB18300B0C08FB0EFA43EAF3
:1003D40000439A4502FA07F240D9E31808F1FF30C6
:1003E40004D29A4502D9A8F102002344A3EB0A03DC
:1003F40089B2B3FBF9F809FB183308FB0EFE41EA96
:1004040003418E452CD9611808F1FF3304D28E457F
:1004140002D9A8F10203214443EA0040A0FB029858
:10042400A1EB0E014145CE46434602D306D14D45CC
:1004340004D2B9EB020E68EB04030138002EA6D0F7
:10044400B5EB0E0261EB030101FA0CFC22FA07F38F
:100454004CEA0303F940C6E9003198E74046C5E792
:100464004346D9E770B586B01422002101A804F0F0
:100474002BFB01230293042304931823CDF80CD0FF
:100484008DF81430154D284604F0D4F938B91448C1
:1004940003F064FA6FF01204204606B070BDAE6833
:1004A4001049336828469847041E04DA0E4821464A
:1004B40003F054FAF0E70D4803F050FA736801A909
:1004C40028469847041E02DA09482146F0E70099B5
:1004D400084803F043FA0024DEE700BF4C4D00084F
:1004E400AE53000888000020C4530008DF530008FE
:1004F400EE53000804540008014B1B68184700BF62
:1005040000000020014B1860704700BF000000206D
:1005140030B585B004460D4610220021684604F02B
:10052400D3FA02238DF802302A46044B0193214664
:10053400684602F04BFF05B030BD00BFFD04000863
:1005440080B505460E461746984602F021FC034640
:1005540000F000FCDFF81890044649F800304246E9
:1005640030463946A84754F8090000F0D7FA00BFCE
:1005740008000000034A536823F00203536000207C
:10058400704700BF002004E0084B1A6842F4007270
:100594001A601A6842F480621A601A6842F480721F
:1005A4001A60034B034A1A60704700BF00200240E0
:1005B4007800002000093D00014B036000207047D3
:1005C400A050000808B50348034A0021121A03F09A
:1005D400D3F908BDB8000020800400200748084A69
:1005E400084908B5121A03F0C9F90748074A084927
:1005F400BDE80840121A03F0C1B900BF0000002092
:10060400B800002058590008000000200000002015
:100614005859000838B505460C4699B1D1E901236B
:100624000F48096803F09AF9D4E90423E1680D48F6
:1006340003F094F9E1690C4803F090F9A1690B48BF
:1006440003F08CF9012D05D1EFF305810848103929
:1006540003F084F921462846BDE8384001F0B2BFD2
:1006640017540008475400087754000887540008BA
:10067400B654000830BFFFF7FDBF00BF2DE9F041BD
:100684000B4EDFF8308006EB0807CC1B05463246DC
:100694000949204604F00AFAA01942460021083C00
:1006A40004F012FA2C6707F10800BDE8F08100BFDE
:1006B400000000000400000098500008054B5A692F
:1006C4009B689A421FBF044A536843F080535360A7
:1006D400704700BF5004002000ED00E02DE9F8430E
:1006E400324D804632488946174603F037F9AB6AE3
:1006F400DE0622D52F4803F031F91124AB6A1D0719
:1007040003D52D4803F02AF91224284DAB6A980723
:1007140015D52A4803F022F96E6BAB6A190642D547
:100724002748314603F01AF9B9F1000F03D0AB6A38
:1007340023F08003AB62132403E01024DEE76FF0A0
:1007440015061A4DAB6ADA0703D51E4803F006F9FD
:100754001424AB6A9B0603D51B4803F0FFF8152449
:10076400124B9A6AD50602D49A6A90070AD55B6836
:10077400190507D54146304600F094FA10B180F3CC
:1007840009880224094B9A6A920642BF5A6A22F4E3
:1007940000525A629A6A42F0FF029A6200233B7046
:1007A4002046BDE8F8836FF01506C4E700ED00E0CD
:1007B400CA540008E15400081555000829550008DA
:1007C40042550008595500087955000810B51D4CCC
:1007D4001D4803F0C3F8A36A990130D51B4803F000
:1007E400BDF81E20A36ADA0103D5194803F0B6F850
:1007F4001F20144CA36A1B0303D5164803F0AEF85C
:100804002120A36A590303D5134803F0A7F8222033
:100814000C4CA36A9A0303D5104803F09FF82320D5
:10082400A36ADB0303D50E4803F098F82420054A95
:10083400936A6FEA03436FEA1343936210BD1D206A
:10084400D0E700BF00ED00E0A9550008C25500083C
:10085400D6550008F1550008105600083656000811
:100864005156000870B5244C064624480D4603F042
:1008740075F8A36AD90435D5214803F06FF8172019
:10088400A36A1A0503D51F4803F068F818201A4C08
:10089400A36A9B050FD51C4803F060F8A16BA36AFB
:1008A400180407D5194803F059F81EB1A36A23F4B4
:1008B4000043A3621920104CA36A590503D51448B8
:1008C40003F04CF81A20A36ADA050DD5114803F099
:1008D40045F81B20084A936A43F47F43936200233C
:1008E4002B7070BD1620CBE7A36A9B04F2D50A488F
:1008F40003F034F81C20EDE700ED00E07D5600081D
:100904009456000815550008A6560008C05600085D
:10091400D6560008F2560008795500082DE9F04132
:100924005B4B5F688AB00446C7F30806002585F36D
:100934001188BFF36F8F02F07F43B3F17F4F06D16D
:1009440002F00C03082B13D1524803F007F80025DA
:100954002C464FF00008F31E8DF80780092B00F297
:100964008680DFE803F00A7A7E7684848484848235
:1009740010074CBF0C460125EBE74748444E02F0F4
:10098400EDFF8DF80780F36A9A0704D5434802F017
:10099400E5FF002330E0F36A002B01DA4048F6E774
:1009A400F36A5B00F5D53F4802F0D8FF7369A2698A
:1009B40043F480737361BFF34F8FBFF36F8F736919
:1009C40032F8022C23F480737361BFF34F8FBFF3AB
:1009D4006F8F4DF602739A4209D0B36ADBB253B3F8
:1009E4000DF1070201212046FFF778FE33E021686C
:1009F4002D4802F0B3FF23689DF80720C2B902AE68
:100A040004F1200720686168324603C20834BC42FE
:100A14001646F7D1099AB5B3C2F3080121B96FEAB2
:100A240052226FEA4222099202A91846FFF7F2FD08
:100A34000AB0BDE8F081B36A13F47F4F05D00DF11D
:100A440007010120FFF70EFF05E0B36AB3F5803F0D
:100A54009FD3FFF7BBFE0346CEE70DF1070200214B
:100A6400C1E70DF107010020ECE710488FE7104BB8
:100A74001049114817F4F87FA6F1100218BF19465F
:100A840002F06CFF85E722F4FF7222F00102CAE74C
:100A940000ED00E039570008655700087D5700084D
:100AA4009F570008AE570008CE570008EB570008C0
:100AB400205700080B57000810580008044B5A69C7
:100AC40042F010025A615A6922F008025A617047D2
:100AD40000ED00E0EFF30880EFF3098101B5724601
:100AE400FFF71CFF01BD00BF0A4880F308881020EF
:100AF40080F3118808484FF40461401880F3098892
:100B0400EFF314800221084380F31488BFF36F8F3E
:100B140000F090F84012002080040020084B9B68ED
:100B240083420BD1EFF3058343B1064B5A6842F07D
:100B340080525A605A6A22F400425A6202F02EB974
:100B44005004002000ED00E014498A684FF03000A2
:100B54001044EFF3098C80E8F01F102080F3128812
:100B6400BFF36F8F0E4F4FF000664A698A603E6094
:100B7400106F0C4C2060506F0023536780F3118872
:100B840004B5104600F0F8F8BDE8044002F1300066
:100B940090E8F01F8CF3098870470000500400208F
:100BA40004ED00E0300300201EF0040F0CBFEFF34F
:100BB4000880EFF30980816911F8021C0229FFD033
:100BC40001B5724602F0DCFE01BD00BF40B2002850
:100BD40007DB044A4109012300F01F00834042F867
:100BE4002130704700E100E040B20028A8BF00F1C6
:100BF400604001F10101B8BF064B4FEA0111ACBFDF
:100C040000F5614000F00F00C9B2B4BF195480F878
:100C14000013704714ED00E0044B054A23F07F03F2
:100C24009360BFF34F8FBFF36F8F704700000008CE
:100C340000ED00E008B5FFF7EFFF0B4AD2F888306B
:100C440023F47003C2F88830EFF3148323F0040311
:100C540083F31488BFF36F8FFFF7B4FCFFF7BEFC78
:100C640000F05AF801F076FD00ED00E042F8203C77
:100C7400009B42F81C3C0A49019B42F8183C029B29
:100C840042F8143C21F001014FF0807342F8043C17
:100C940042F8081C0023203A02654367704700BFEE
:100CA40045050008094A0346906870B113F1160F10
:100CB400006E05D0A0F140029A4205D8834203D2C7
:100CC400814228BF00207047002070475004002054
:100CD40008B515460B4A0C4B9060026F1A600E461D
:100CE40000F04AF82C4686F309880020034B984705
:100CF4002046002100220023014C2047A939000886
:100D0400450500085004002030030020014B102248
:100D14001A61704700ED00E0044800231021C21856
:100D24000133552B82F80013F9D1704700E100E03C
:100D340008B5EFF30583064A103B02EBC30152F8F2
:100D4400330049688847BDE80840FFF7B7BC00BFD7
:100D5400844D0008014800687047000030030020FB
:100D6400024B034A0348012100F076B800800220B8
:100D740000000020A0500008026E054B403A1A60A3
:100D8400044A4021C3E901121846012100F06EB85B
:100D94003403002000000B15084AC2F898000B68C1
:100DA40023F01F03034343F01003C2F89C308B6805
:100DB40043F00103C2F8A030704700BF00ED00E02B
:100DC4002DE9F043DFF8608085B00E461F460446E7
:100DD4004FF00009B14523DA6068D8B13FB1411E34
:100DE40008421BD11F2819D92368194216D1236838
:100DF400019302F0EBFDA36803430393D8F89050EA
:100E0400C5F30725D0B2013DA84207D801A9FFF7D1
:100E1400C3FF421C09F101090C34DBE76FF0150232
:100E2400104605B0BDE8F08300ED00E0044B052258
:100E3400C3F89420BFF34F8FBFF36F8F704700BF89
:100E440000ED00E0BFF35F8F024B0022C3F8942053
:100E5400704700BF00ED00E010B5034C0123227879
:100E6400FFF7AEFF207010BD7C04002008B50B4ACC
:100E740000231278FFF7A4FF10F1160F07D0084AD9
:100E84000021D2F89030C3F30723984200DB08BD59
:100E9400C2F89800C2F8A0100130F2E77C040020E8
:100EA40000ED00E02DE9F0435B4B5C4CD3F890304F
:100EB4002568C3F307239D4285B000F2A980FFF79C
:100EC400C1FF00200C2685421BD1554C554F25707F
:100ED4006846FFF771FBDFF84081DFF84C91064666
:100EE4000025AE4214D123784B490020D1F890203C
:100EF400C2F307229342C0F28580FFF797FF0020D8
:100F040045E0616806FB0011FFF746FF0130DAE7B0
:100F1400009800EB05114FEA051CCB683B40B3F584
:100F2400000F4DD00AD8B3F5001F33D0B3F5800FAE
:100F34003BD0B3F5801F13D00135D2E7B3F1007F66
:100F440047D0B3F1805F4DD0B3F1807FF4D150F836
:100F54000C3088684A6802F039FD40F0887009E076
:100F640050F80C3088684A6802F030FD40F0885030
:100F740040F43020CDE901230390D8F89030207854
:100F8400C3F30723013B984235D96FF0150005B030
:100F9400BDE8F08350F80C3088684A6802F016FD0A
:100FA40040F0885040F40020E4E750F80C308868A2
:100FB4004A6802F00BFD40F0C06040F40030D9E70D
:100FC40050F80C3088684A6802F000FD40F08270E6
:100FD400D0E750F80C3088684A6802F0F7FC40F417
:100FE4008020C7E750F80C3088684A6802F0EEFCAD
:100FF40040EA0900BEE701A9FFF7CEFE23780133DA
:10100400237099E7C1F89830C1F8A00001336DE767
:101014004FF0FF30BBE700BF00ED00E0AC5000082C
:101024007C0400200000F0FF0000021108B5024B10
:101034001B689847002008BD40030020034B044A66
:101044001860937843F002039370704740030020C4
:101054000400002008B50649064821F00701C1F143
:10106400005202F5203202F03AFC002008BD00BF15
:10107400871200204403002007B5094A92E80300C0
:101084006B4683E8030007488268126822B1194658
:10109400904703B05DF804FB6FF05700F9E700BF19
:1010A40098500008344C00083F280DD800F01F0267
:1010B40001239340054A1F2894BF5269526B9343FE
:1010C4000CBF01200020704700207047000401403D
:1010D40000F01F0201233F2803FA02F307D81F2858
:1010E400044A02D85361002070475363FBE76FF052
:1010F4001500704700040140044B184400230133D9
:10110400994200F8012BFADC704700BF90000020E0
:101114002DE9F041104F054600264FF001086B7889
:10112400F4B2A34201D8BDE8F0812B781C442046D8
:10113400FFF7BAFF68B12046FFF7CAFF57F834300B
:101144003BB107EBC40204F01F04516808FA04F031
:1011540098470136E3E700BF50030020034660B11F
:10116400B0FA80F2C2F11F02D2B205498856054A8C
:1011740011680B431360FFF729BDFF22F5E700BF99
:101184009000002000040140024A136823EA00038F
:101194001360704700040140032921D8DFE801F0FF
:1011A400020C10190F4B9A6822EA00029A60DA685E
:1011B40022EA0002DA6070470A4B9A680243F5E7B4
:1011C400084BDA680243DA609A6822EA00029A60FD
:1011D4007047044B9A6802439A60DA681043D860F7
:1011E400704700BF0004014030B5B0B1B0FA80F3DD
:1011F400C3F11F03DBB20B4850F833408C4204D1D7
:1012040000EBC3056D68954205D044B940F833102E
:1012140000EBC3004260002030BDFF23EBE76FF01A
:101224000F00F9E75003002060B1B0FA80F3C3F176
:101234001F03DBB2044A002142F8331002EBC3025D
:1012440051607047FF23F5E75003002000F00302CC
:10125400043292000F23934043EA900000F003030A
:101264000233064A52F82320030C02EA104093FA90
:10127400A3F3B3FA83F3D840704700BF00000140E2
:101284002DE9F0410446087910F01F050AD18006C3
:101294004B798A791FD543B9012A23D0022A45D034
:1012A400032A45D06FF0150089E0012B07D1022AEB
:1012B40040D0032A40D0002AF4D1602312E0022B4C
:1012C40003D1032AEED150230CE0032BEAD1022AE6
:1012D400E8D1702306E0032BE4D8DFE803F0022F03
:1012E400232580230A78093A0B2ADBD801A050F879
:1012F40022F000BF8D13000891130008A912000802
:1013040045130008A912000895130008A912000843
:101314007D130008A9120008811300088513000832
:1013240089130008A023DDE7B023DBE71023D9E706
:101334002023D7E73023D5E74023D3E79023D1E711
:10134400042260681A4390F82E300BB142F0010277
:101354004B78062BA6D801A151F823F0C713000837
:10136400A9120008A9120008A91200089B1300087A
:10137400CB130008991300080822E2E70A22E0E7E9
:101384000C22DEE70E22DCE70022DAE70222D8E7AD
:101394000622D6E78025418D184E002336F82370A7
:1013A4008F4212D1164990F82C8090F82D6011F8D4
:1013B40023702046002102F0DCFB002809DABDE896
:1013C400F081C025E7E74025E5E70133082BE5D1A7
:1013D40068E7F20042EA481202F0F80201212046CE
:1013E40002F0C7FB0028EADB47EA05020221204697
:1013F40002F0BFFB00EAE070E1E700BF8A53000897
:10140400885300082DE9F04305694468774987B09B
:101414000746002205F1080003F020FB05F1400611
:1014240001220021304603F026FA0122002105F1B1
:10143400500003F020FA0122002105F1A80003F076
:101444001AFA0122002105F1980003F014FA206829
:1014540003F0F0F920B96FF0120007B0BDE8F08393
:10146400237EA3BB206A03F0E5F90028F3D0E38CC4
:10147400206A94F8241043F48032D0F810E0D0F8B5
:10148400088013F0010F4FF0010CDEF800300CFA65
:1014940001FC14BF4CEA030323EA0C03CEF800302A
:1014A400D8F8003098470028D7DB94F82430504A05
:1014B4004FF0010909FA03F3C5E93023206A836870
:1014C400DB6905F1BC0143B96FF05700C5E7E0687B
:1014D40003F0B0F90028C5D1BDE74A469847002873
:1014E400BBDB206A94F82410E38CD0F808C00269AE
:1014F400DCF81880B8F1000FE6D0126809FA01F997
:1015040019EA020F03F040030CBF43F0B86383F001
:10151400707323F0794323F47F0323F47F4323F090
:10152400BF034FF0A072C047002896DB322003F0BF
:101534003FFAD7F8049001AB02934FF0010802ABD5
:10154400CDE9043804A906234846CDF80C808DF86B
:10155400043002F003FB0028FFF67FAF99F82C302B
:1015640099F82D2003EB43031344224A52F8230035
:101574004001323003F01CFA786805F1B80200210A
:1015840002F0C5FA98B9786805F1B902414602F04B
:10159400BEFA60B9786805F1BA02022102F0B7FA1E
:1015A40028B9786805F1BB02032102F0B0FA0028DB
:1015B400FFF653AF94F828200321384602F0D9FAF5
:1015C4000028FFF64AAF04F130013846FFF758FE11
:1015D4000028FFF642AFC82003F0EAF9AB6C13B958
:1015E400304602F072FA002037E700BFDB3A000809
:1015F400D33A000810510008024B1868C0F3802049
:10160400704700BF0010024038B52F4B18680B8894
:10161400C3F30B030C2B0D46144624D813B96FF0F7
:10162400850031E0013B0B2BF9D801A252F823F0DD
:1016340081160008BB16000865160008B7160008D6
:1016440023160008BB16000881160008811600083E
:10165400811600088F1600089F160008AB160008B4
:101664004FF4FA400AE003F6B873C3F30B03182BE4
:10167400D5D8164A22FA03F3DB07D0D520602B68AD
:10168400B3F5805F19D2002038BD00F0BBF81423F5
:1016940058430723B0FBF3F0F0E700F0B3F814234A
:1016A40058434008EAE700F0ADF814235843800893
:1016B400E4E70748E2E70020E0E7C3F3133301332C
:1016C400B0FBF3F02060DEE7780000201101110187
:1016D4000024F400F8B5474F474C00F0A9F8384609
:1016E40002F01AFC00F0CCFEA368444AC3F30313CF
:1016F4001578D35C47FA05F520FA03F6AE4202D218
:10170400284600F00BFFFFF777FF012807D0236876
:1017140043F480732360FFF76FFF0128FBD1D4F8F3
:10172400943043F00103C4F89430D4F8943099070A
:10173400FBD5A36803F00C030C2B1AD1FFF75CFF55
:10174400012807D0236843F480732360FFF754FF14
:101754000128FBD1A36823F0030343F00103A36032
:10176400A36803F00C03042BFAD1A36823F0F0035D
:10177400A360236823F08073236023689A01FCD458
:10178400E36823F4003343F06053E360E36843F415
:101794008033E360E36823F4C003E360E36843F465
:1017A4008013E36000F032F8236843F08073236011
:1017B40023689B01FCD5A36823F0F003A360A3680E
:1017C40043F00303A360A36803F00C030C2BFAD1CA
:1017D400AE4202D3284600F0A1FE094B1F60A36865
:1017E40023F4E063A360A36823F46053A3600020A0
:1017F400F8BD00BF00B4C40400100240F85800084B
:1018040078000020004870470024F400054B064986
:10181400DA681140054A0A43DA60DA6842F08072F5
:10182400DA607047001002408C80FFF90214000255
:10183400064B9A6D42F080529A659B6D82B003F01C
:1018440080530193019B02B0704700BF0010024017
:1018540008B5074802F0EEFF38B10648FFF7EEFB83
:101864000448FEF74FFE002008BD6FF01200FBE7AE
:10187400304D00087D1800080A2838B5074D044685
:1018840004D1AB680D215B6828469847AB680348D0
:101894005B68E1B29847204638BD00BF304D000870
:1018A4002DE9F843D0F80480D0F81090D8F8080057
:1018B40017460D461E4602F0E7F8B7F5001F04462A
:1018C40016D12846D8F80840FFF7C0FC84420CD152
:1018D400294602F0D9F80446FFF756FC2046FFF7E4
:1018E400A3FC00212046FFF757FC0020BDE8F88345
:1018F400B7F5800F20D0B6F1806F19D0B6F1C06F64
:1019040018D0B6F1007F1AD1022610494A46204663
:10191400FFF76AFCB0B9D8F80810284602F0B9F805
:1019240020463146FFF738FC2046FFF717FCDCE77A
:101934000126EAE70326E8E76FF08500D6E76FF0B3
:101944001500D3E76FF00F00D0E700BF8B4100080C
:1019540008B5036958604168054883681B680C3101
:101964001BB1984700EAE07008BD6FF05700F9E733
:10197400344C00082DE9F0471E4F044600EBC10625
:101984000025B44201D1002014E02068C30600F011
:101994001F0911D4656845F02005C0F3481AC0F347
:1019A4004420192823D857F82080B8F1000F0DD10E
:1019B4006FF01200BDE8F087B9F1100F04D0B9F14F
:1019C400110FEAD16568E8E73025E6E7404602F002
:1019D40031FF0028ECD04B462A460AF00F0140465E
:1019E40002F0E7FB002804F10804CADAE2E76FF02A
:1019F4001500DFE7DC510008F8B50C4603694168BF
:101A04001D682379012B16D09F1E7E427E41B602AB
:101A14006279022A9CBF484F37F81270A27988BFB6
:101A24004FF40057022A09D0042A31D0003B18BFD2
:101A340001231B0306E04FF4C066E9E7B3FA83F31E
:101A44005B091B07E2790968012A14BF4FF0000CF7
:101A54004FF4407CA5421ED10A6822F0805222F441
:101A6400B05232431A430A604B6823F440533B4359
:101A74004B6043681A68936823F4407343EA0C0389
:101A840093602968406802F036FC00EAE070F8BD13
:101A94004FF48053D6E7D1F800E00EF4C06E7645DB
:101AA4001FBFD1F800E02EF4C06E4EEA06060E60A9
:101AB40041680E68716801F440518F421FBF71681C
:101AC40021F440513943716041680E68316801F076
:101AD40010218B421FBF316821F010210B4333606A
:101AE400436819688B6803F440739C451FBF8B6877
:101AF40023F4407343EA0C038B6043681B689968C2
:101B0400490405D5032A09D09A6822F4804204E0E6
:101B1400032A03D19A6842F480429A6021682B68B0
:101B2400994206D0406802F0E6FB0028AFDB236848
:101B34002B600020ABE700BFA8530008F7B544684A
:101B440006466068216983681B68002B00F08A8060
:101B54009847002831DB606A01AA002102F03EFBAD
:101B640000282ADB019B002219791868FFF702FF7D
:101B7400002822DB756833692C681F68236823F00A
:101B840001032360A86802F055FE00286DD0D5E952
:101B940002018368DB6803B1984754E8003F43F0CF
:101BA4000C0344E80032002AF7D139463046FFF7E7
:101BB40023FF002803DA6FF0150003B0F0BD2B7E7D
:101BC4001BB1A36843F00803A3606B7E1BB1636879
:101BD40043F400436360AB7E1BB1636843F480331A
:101BE4006360EB7E1BB1636843F4003363602B7F57
:101BF40063B31F4B9C420FD0A3F574439C420BD09C
:101C040003F580639C4207D003F580639C4203D0B4
:101C140003F550539C42CED173681A68936843F419
:101C24008043936023686A7F23F0787343EA4253C6
:101C340023602368AA7F23F4F81343EA0243236052
:101C4400EB7F1BB1A36843F40043A360236843F014
:101C540001032360E3699A02FCD5E3695B02FCD5C6
:101C64000020AAE76FF05700A7E76FF01200A4E77F
:101C740000380140F8B5436891F805E01C68036931
:101C8400024608791D688B7901280E4613D1BEF1EE
:101C9400020F5DD9022B1F464FF4C0614FF4005C64
:101CA4006ED0042B67D000286FD0C31E012B64D8DC
:101CB4006FF08500F8BD02280AD1BEF1020F53D996
:101CC400022B1F464FF480610BD04FF4005CE8E711
:101CD400BEF1020F4BD9022B1F464AD100285FD018
:101CE4000021C31E012BE3D90020022703237345DF
:101CF400DED102F0BEFAB842DAD1F379A3B1012BF6
:101D040056D12D4B9C420FD0A3F574439C420BD06B
:101D140003F580639C4207D003F580639C4203D0A3
:101D240003F550539C42C3D1236823F0010323607D
:101D340031461046FFF760FE0028B9DB236843F004
:101D44000103236096E8030085E803000020B1E75F
:101D54004FF4C061194F022B37F81EC01F46A0D1A3
:101D640070B94FF0805010E04FF48061F2E7002129
:101D7400F0E70021A9E700289AD14FF4805004E04D
:101D8400C31E012B94D902270020BCF5805F0BD021
:101D9400BCF5405F0AD0BCF1000FA7D10123A6E730
:101DA40001464FF08050A1E70023A0E702239EE7FD
:101DB400032BA6D07CE700BF00380140A8530008DD
:101DC4002DE9F041436805699B6804469847284615
:101DD40002F006FC6068012102F0A2FB002802DA8E
:101DE40010F1860F48D1256964680021204602F06D
:101DF40097FB00283EDB2448216983681B68002B7D
:101E04003FD09847B0BBAC6801260834D5E902320C
:101E140003EBC203A4F10802934201D8002029E095
:101E240054F8080C02F006FD40B354F8080C14F8FA
:101E3400041C34F8023CD0F810C0D0F80880DCF858
:101E44000070DA0754BF43F4B01383F4D01323F4BF
:101E5400801206FA01FEDB074CBF47EA0E0727EAA9
:101E64000E07CCF80070D8F800309847002804F129
:101E74000804CBDA00EAE070BDE8F0816FF01200EC
:101E8400F8E76FF05700F5E7344C00082DE9F74FF9
:101E9400814605690E461F4692460AB9002B61D059
:101EA400B3889A042FD44FF0FF324FF0FF3305F17B
:101EB400100000F0E9FC6E60D9F810B0D9F8048085
:101EC400DBF80030D8F80040B2889E422DD11305CB
:101ED40040F1DE80236823F44443BAF1000F19D0A3
:101EE40043F440432360B388C3F34513082B00F243
:101EF400D5800126DAF800306B63002B00F0D8801F
:101F0400DAF80430D5E0AB69002BCCD16B689E4283
:101F1400C9D1D1E743F400432360B388C3F3451325
:101F2400082B00F2BB800126C0E0D8F81410022967
:101F3400C2F345131AD003291BD0012905D1043B50
:101F44001C2B8CBF00230123BBB96FF085072B68C2
:101F540013B19B889B0405D400236B6005F110002A
:101F640000F05EFC384603B0BDE8F08F043B0C2B58
:101F7400E7E7082B01D0102BE7D163681004AE48C3
:101F84004CBF43F0100323F0100363608368D8F858
:101F94001010DB68FBB101AA984700281BDB0198ED
:101FA400002331681A46013320FA03FC8C4515D806
:101FB4002368A24923F040032360236851F82220B8
:101FC40023F0380313432360B38899070BD42368A1
:101FD40023F002030AE06FF00407B8E7082BE0D10E
:101FE4006FF01507B3E7236843F002032360B38857
:101FF40013F0040F236814BF43F0010323F001031B
:102004002360B38813F4006F236823F4444305D09A
:10201400BAF1000F00F0E48043F440432360B38836
:1020240013F0100F236814BF43F0800323F08003E0
:102034002360236823F400532360337D23B998F885
:1020440018305A0740F1CF80236843F400732360AB
:10205400636823F004036360B388794913F0010FC4
:10206400236814BF23F4827343F482732360B28819
:102074006368C2F34512043A23F4706351F82220D2
:1020840013436360636843F480536360CBF8006078
:10209400B388C3F34513082B40F2B480102B8CBFD4
:1020A40004260226BAF1000F7FF424AF00236B63E9
:1020B4000023AB6305F14802334605F1380105F10D
:1020C400340002F0B0F96864002F40F09D80EF63A3
:1020D40000232B6405F15002334605F1400105F15C
:1020E4003C0002F0A0F90023E8642B63D9F8043023
:1020F4002668D3F800A0DAF8003043F04003CAF8A9
:102104000030D9F81090D9F8000006F4444650B1D4
:10211400037D43B10121083002F017FAD9F80030E9
:10212400186902F061FBDAF8043043F02003CAF8BE
:1021340004302FB1DAF8043043F04003CAF8043015
:10214400DAF8043043F08003CAF804304FF4FA5B41
:102154004FF00A0905F1200A0023A86B19468142B1
:1021640059D100212F6C0846B8425BD18B4238BF4D
:102174000B460BFB03F22B681B68B2FBF3F2C8326D
:10218400A2FB0923504600F07FFB002851D12F6B9E
:10219400002F7FF4DCAEB6F5404F1AD1AB6CABB96F
:1021A4002B6D9BB1D8F800301A6822F4444242F4F3
:1021B40000421A601A6842F040021A605A6842F0FB
:1021C40020025A605A6842F040025A60266806F4B7
:1021D4004446AB6C002BBFD12B6D002BBCD1B6E6B3
:1021E40043F400431AE7B38813F0010F236823F480
:1021F40000737FF42CAF43F480232360636843F0BF
:10220400040328E701264DE73B68EB63002B3FF40A
:102214005FAF7B685DE76A6B02EBC1020131526814
:1022240013449CE7EA6B02EBC0020130526811448C
:102234009AE76FF073078AE6344C00089852000856
:102244000C53000810B54FF0E0230F499C691A693C
:1022540008689B690D4902F4803234B993B9034686
:102264004AB90A681044C01A10BD002B08BF0346BF
:102274000AB9A342F5D90A6802440A604FF0E02281
:102284001269EEE70446F3E74C04002048040020FA
:10229400094B102283F82320084B4FF4FA521A609A
:1022A400074B002018604FF0E02341F63F725A615B
:1022B400072298611A61704700ED00E04C04002089
:1022C40048040020684620F007018D4619B5FFF741
:1022D400B9FF114B1149D3E900420868001942F1D2
:1022E4000002C3E900020E4A00230B60D2E9004158
:1022F4004FF4FA53001BB0FBF3F043431B1941F1B5
:102304000001C2E9003100F029FFFEF7D7F9BDE86A
:1023140019408546704700BF88010020480400200A
:10232400800100202DE9F041DFF8DC8099B1421CE6
:102334000BD14FF0E022136923F0010313614FF036
:102344007F43C8F80030BDE8F081D8F80060012868
:1023540007DC00270BE0431CD8F80060F7D14FF4EA
:10236400036040F631039842A8BF1846471EEFF3B6
:102374001185102383F31288BFF36F8FFFF762FF79
:10238400224C4FF0E0239969D4E90023801843F1EB
:102394000003C4E900031E4B00221A601D4B1A6897
:1023A400831A2ED44FF4FA5C0CFB073303F5F9536C
:1023B4001F33B3FBFCF7131A0CFB0733B3F5806F21
:1023C400154A38BF4FF48063934228BF13464FF039
:1023D400E022C8F80030013B906953610023936107
:1023E4008142A1EB0003D4E9001238BF9B195B18AA
:1023F40042F10002C4E9003285F31188BFF36F8F04
:10240400A1E74FF48063E2E74C0400208801002038
:10241400480400208001002000DCFF0038B5EFF301
:102424001185102383F31288BFF36F8F084B1C6848
:10243400084B1B68E41AFFF705FF85F31188BFF307
:102444006F8F4FF4FA532044B0FBF3F038BD00BF54
:10245400880100208001002038B5EFF31185102396
:1024640083F31288BFF36F8F044B1C68FFF7EAFEF7
:1024740085F31188BFF36F8F204438BD8801002095
:10248400224B9A68D96812F00C0205D00C2A15D197
:1024940001F00301012918D119681D48090755BF26
:1024A400D3F894101968C1F30321C1F3031150F850
:1024B400210012B10C2A09D000207047042A22D02E
:1024C400082A144818BF002070470020DA6802F078
:1024D4000302022A15D00F49032A08BF0846D96807
:1024E400DA68C2F306224243D868C0F34160C1F3FC
:1024F4000211013001314000B2FBF1F2B2FBF0F005
:1025040070470548EBE70448704700BF00100240DD
:102514004053000800127A000024F4001F4B421EAE
:102524009A4201D9012070471D4B1B6803F4C06314
:10253400B3F5007F0FD11B4B98421AD81A4B98421F
:1025440027D81A4B984226D8194B984294BF002397
:102554000123002011E0174B98420CD8A3F5F40393
:10256400A3F59053984214D8134B984213D8134BA5
:10257400EBE70423EDE70023012011490A6822F068
:1025840007021A430A600A6802F007029342C9D19B
:1025940070470323DDE70223DBE700BFFFB3C40476
:1025A400007000400090D003006CDC020048E80199
:1025B4000024F40080BA8C01001BB700808D5B00FE
:1025C4000020024038B5EFF31185102383F31288FD
:1025D400BFF36F8F064B9C6802F03FF985F31188B7
:1025E400BFF36F8F2046BDE83840FEF797BA00BFAF
:1025F4005004002038B50A4B53F82040013053F8FA
:102604002050A54200D838BD606830B1037EDB0796
:1026140001D402F0F7F80834F3E723689847FAE79F
:102624007053000870B52A4B2A4C2B4D012286B0FA
:1026340003201A70FFF7DEFF00F0C2FE0420FFF74C
:10264400D9FF2646AE4204F1300410D300F0ACFAB0
:10265400204C224EAC4226D300F0BAFAFDF702FF1A
:102664001F4A938923F00103938106B070BD54F887
:102674000C3C059354F8103C049354F8143C039315
:1026840054F8183C029354F81C3C019354F8203C31
:10269400009354E90A2354E90C0100F01BF954F89F
:1026A400303C5E65CDE7D4E90A23B3F1FF3F08BFB0
:1026B400B2F1FF3F05D052EA0301206803D100F0D4
:1026C40043FB3034C6E73146183000F0B7FCF8E776
:1026D4007D0400202C5000082C500008814900087B
:1026E4001002002070B5002386B00122CDE9042336
:1026F400134E144D01930F22CDE9023212491423D3
:1027040003FB005506EBC01604464FF4C07000FBF3
:1027140004110E4B00954FF4A072304600F0DAF825
:10272400337C0B4AEE6023F0040333744FF40463E8
:1027340004FB033313442C746B6006B070BD00BFFC
:102744009001002050040020C00C002065480008BF
:1027540080040020BFB50020FFF74CFF284B83F313
:102764000888284C284F636943F40073636100258B
:10277400F02384F82230E57725766576A57684F80B
:102784002050636A43F4E0236362FEF797F9FEF78F
:10279400BDFA4FF0FF33A362E362FEF783FBFEF75B
:1027A400DFFA1A481A4C00F0E1F8FDF7EDFE0120BB
:1027B400FFF720FF0220FFF71DFF00F03DFA154B45
:1027C40015495C61154B05930123CDE903534FF47F
:1027D40080623B46CDE901550095204600F07AF829
:1027E400227C064622F004022046227402F089F874
:1027F4002846FFF777FF3A4631462046FEF768FA47
:10280400C00C002000ED00E0292600089002002002
:102814001002002050040020400E00200859000837
:1028240070B5EFF31186102383F31288BFF36F8F13
:102834000468A0421AD0CCB1D4E9003213605A60C3
:10284400237C002523F002032374C4E90055A5600A
:1028540004F1180002F0D4F82046A56702F051F8FC
:1028640031460848BDE8704000F078B9D0E902323A
:102874009A4218BF0133836086F31188BFF36F8FC8
:1028840070BD00BF7E04002013B5EFF31181102446
:1028940084F31288BFF36F8F846844B1013C846071
:1028A40081F31188BFF36F8F002002B010BD52EA8C
:1028B400030406D181F31188BFF36F8F6FF00F000B
:1028C400F3E7CDE900230246014800F025F9ECE7DF
:1028D4007E0400202DE9F043073285B022F0070280
:1028E4000E461F461099818100F158037F32C0E9DA
:1028F40016330446002322F03F020421836001744E
:102904003F2A0F98A073C4E90633E37306F1400924
:10291400A2F1400805D883F31188BFF36F8F0846EE
:1029240002DFB51829462046FDF7A8FE07300E9BA6
:1029340020F00700A066C4E9189802930D9B019348
:102944002D1A0C9B00932A463B4631462046FEF73F
:102954008DF900236365044B9B6803B1DB6EE3666A
:10296400284605B0BDE8F083500400200123037419
:1029740083810023C0E91833C366014B9860704714
:1029840050040020094A93686FF00A0199670849C6
:1029940058674B6843F080534B60002383F31188DE
:1029A400BFF36F8F9368986F704700BF5004002087
:1029B40000ED00E070B590F91020037C002A36DBAE
:1029C400D90634D11B4C63F07F032246037452F8BA
:1029D400183FE169934207D1C0E900210860E06132
:1029E40011E09942F8D01B68002BF5D090F90E50F5
:1029F40093F90E60B542F4D0AE42F2DD5968C0E9F5
:102A0400003108605860A569954200D005B9E568B1
:102A1400A3681A7CD20604D1DA897F2A01D9AA696B
:102A240032B1AB4202D0284600F088FA656170BD2D
:102A34006361FCE75004002038B590F91020037C52
:102A4400002A014604DA03F07F03037401F01FFF38
:102A54000D4D2A46AB6852F8184F944200D004B981
:102A6400EC688B4207D01A7CD20604D1DA897F2A1B
:102A740001D9A2692AB1A34202D0204600F05EFA2D
:102A840023466B6138BD00BF50040020B3F1FF3F03
:102A940008BFB2F1FF3F03D00249183000F0CEBAAC
:102AA400704700BF8149000838B5194CA168E06936
:102AB4000B68814214BF1A46002249680B605960B2
:102AC400A368E1692AB9134AC3E900210B60E361F1
:102AD4000CE093F90E0092F90E50A84214D08542EE
:102AE40012DD5168C3E900210B605360A569094BED
:102AF4009D4200D005B9E568A3689D4202D02846EE
:102B040000F01CFA656138BD9142DCD01268D9E747
:102B14005004002068040020F8B50E4B0C46114602
:102B24000D4A98681060DDE90667EFF31182102200
:102B340082F31288BFF36F8F9D68284601F0B9FEB7
:102B4400284632463B46FFF7A1FF2046BDE8F84041
:102B5400FFF718BF500400207004002049B9EFF3B8
:102B6400058030B9054B5A699B689A4201D0FFF73A
:102B740009BF81F31188BFF36F8F704750040020A1
:102B8400034648B9EFF3058232B9064A516992689F
:102B9400914201D0FFF7F6BE83F31188BFF36F8F24
:102BA400704700BF50040020EFF31181102383F31A
:102BB4001288BFF36F8F054B9A68D37B013BD373A5
:102BC40081F31188BFF36F8F704700BF500400205A
:102BD40070B5EFF31186102383F31288BFF36F8F60
:102BE400144DAB68DA7B0132DA732A4652F8184F77
:102BF400944200D004B9EC681A7CD20604D1DA8974
:102C04007F2A01D9A2692AB1A34202D0204600F04A
:102C140095F923466B6186F31188BFF36F8FEFF349
:102C24001180102383F31288BFF36F8FBDE87040C7
:102C3400FFF7A6BF50040020024B03F11802C3E9BA
:102C4400062270475004002070B5EFF3118610235C
:102C540083F31288BFF36F8F1B4CA168E0690B6884
:102C6400814214BF1A46002249680B605960A36868
:102C7400E1692AB9154AC3E900210B60E3610CE05C
:102C840093F90E0092F90E50A84218D0854216DD31
:102C94005168C3E900210B605360A5690B4B9D4249
:102CA40000D005B9E568A3689D4202D0284600F02B
:102CB40045F965613046BDE87040FFF763BE8A425E
:102CC400D8D01268D5E700BF500400206804002063
:102CD400F8B550EA010306460C4603D1FFF7B4FFEA
:102CE4000020F8BDEFF31187102383F31288BFF39C
:102CF4006F8F124D124BA8681860FFF79DFEA868ED
:102D0400104923463246183000F098F9AA68137C1B
:102D140043F00403137404463846FFF733FEAB68EC
:102D2400D3E90A23B3F1004F08BF002AD8D101F038
:102D34008FFE201A20EAE070D3E700BF5004002081
:102D4400700400208149000838B50446EFF311856A
:102D5400102383F31288BFF36F8F037C5B070FD5B7
:102D6400183001F04DFE237C23F004032046237425
:102D7400FFF720FE29460548BDE83840FFF7EEBEC0
:102D840085F31188BFF36F8F38BD00BF7E04002028
:102D9400014B9868704700BF500400202DE9F843A8
:102DA40004468789EFF31185102383F31288BFF358
:102DB4006F8F037C190705D585F31188BFF36F8FD7
:102DC400BDE8F883D90943F008025DD10274A36811
:102DD40013B1204601F063FD04F1180001F010FE68
:102DE400A66D04F15808B04511D04FF0000976B132
:102DF400304601F054FD06F1180001F001FEC6F85A
:102E040078903046FFF7D6FDA66DB045EFD1DFF8D8
:102E1400C080D8F808309C423ED1EFF30589B9F15F
:102E2400000918BF4FF00109D8F81860294A9642E2
:102E340000D00EB9D8F80C60B34202D0304600F08E
:102E44007DF82046C8F8146000F0A9FDB9F1000F20
:102E540002D02148FFF78AFDD8F808309C4231D1CE
:102E6400EFF3058373BBA289D20718D42846FFF772
:102E740089FDFB07A4D5002383F31188BFF36F8F6B
:102E84000423184602DF9BE703F07F0343F00803A3
:102E9400037401F0FCFC9AE74FF00009C4E785F3E2
:102EA4001188BFF36F8F83F31188BFF36F8F0423EF
:102EB400184602DFEFF31180102383F31288BFF367
:102EC4006F8FD4E785F31188BFF36F8FD1E700BF0D
:102ED400500400206804002090020020027C12F0BC
:102EE4001F02034610D10A4988420DD009490868D7
:102EF40068B1D9897F2909D893F90E20064B1B683C
:102F04009A42B8BF002070470020704710467047AF
:102F1400900100207C00002074040020044BC01A9F
:102F2400044BC0105843044B01221A54704700BF8D
:102F340010030020ABAAAAAA7E04002070B50D4B92
:102F44000D4D1E7CFFF7CAFF06EB460305EBC305D8
:102F54000446284601F054FD084B00229A553CB122
:102F6400621E28460649BDE87040D31700F066B8D3
:102F740070BD00BF50040020100300207E04002018
:102F8400212F000838B5EFF31185102383F312883D
:102F9400BFF36F8F0F4B104A9C681068A04206D194
:102FA400FFF7CCFF85F31188BFF36F8F38BD002185
:102FB4001B7C1160094AD35C002BF3D02046FFF739
:102FC4008DFF0028EED0237CDB0601D1FFF76CFDDA
:102FD4002046E5E750040020700400207E04002011
:102FE400024B1868984208BF0020704780000020F8
:102FF400034B1B680BB9FFF711BA0020704700BFE1
:103004007804002030B570B10B4B5B6898420AD04D
:10301400036843B1D3E90421D0E90445121941EB13
:103024000501C3E90421D0E9003213605A6000238A
:10303400C0E9003330BD00BF80000020B3F1FF3F82
:1030440008BFB2F1FF3F2DE9F84F044699461546F3
:103054001F467AD08160EFF31188102383F312881E
:10306400BFF36F8FB9F1000FDFF8E4A020DBFFF7A7
:10307400BFFFDAE90027013549F100092D1849EBB2
:10308400E073C4E90453AD18064643EB07074FF059
:103094000109FFF7A5FFDFF8BCE0DEF804A0034652
:1030A400EBB9C4E900EACAF80040CEF8044028E0CD
:1030B400DAE900126FF001035B1A4FF0FF3161EBA4
:1030C40002025B1B62EB0902012B72F10001BCBF1F
:1030D40001230022C0E904324FF00009D9E7D3E903
:1030E400041CD4E904208A4270EB0C0B24DA891AFC
:1030F4005A686CEB0000C3E90410C4E900321460A0
:103104005C60FFF76DFF84420ED1134B1B685BB903
:10311400B9F1000F02D1FFF76BFF0646304601F00C
:1031240058FC0021FFF7FEF888F31188BFF36F8F76
:1031340028463946BDE8F88F521A60EB0C009A45D0
:10314400C4E90420ADD01B68AAE700252F46EFE7A9
:103154002803002080000020780400202DE9F04797
:10316400EFF31185102383F31288BFF36F8FDFF819
:10317400A490DFF8A480C9F80000FFF731FF00260F
:103184000027D9F80030D8E900ECD91750B1D0E9BC
:103194000442A34271EB020A1CDAE41A62EB010254
:1031A400C0E9044213EB0E034FF000044CEB0101A1
:1031B4002046C8E90031C9F8004001F00AFC214664
:1031C400FFF7B0F885F31188BFF36F8FBDE8F047C0
:1031D400FFF7D8BE14EB0E024CEBE473C0E90467AE
:1031E400C8E90023FFF70EFF85F31188BFF36F8F43
:1031F40083689847EFF31185102383F31288BFF394
:103204006F8FD9F800301B1BC9F80030FFF7E8FEB8
:10321400B7E700BF780400202803002010B5EFF3BF
:103224001184102383F31288BFF36F8FFFF7E0FE3E
:10323400054A0346D2E90001181841EBE37184F30F
:103244001188BFF36F8F10BD28030020F8B5064620
:10325400EFF31187102383F31288BFF36F8F026893
:1032640022B187F31188BFF36F8FF8BDD0E90A54F8
:10327400691C44F10003022973F1000334D3013DB6
:1032840044F1FF34002CBCBF15462C4601F0E4FB8E
:10329400013041F10001401944EB0101012871F1B1
:1032A400000149DB01F0D8FB013041F100016FF06E
:1032B4000203401944EB010183426FF000438B4148
:1032C4003FDB01F0C9FB013041F100016FF0010265
:1032D400401944EB01044FF0FF33121A63EB04036B
:1032E4001A493046FFF7AAFE336B01333363336A5E
:1032F4006BB187F31188BFF36F8F336A30469847F9
:10330400EFF31187102383F31288BFF36F8F3346D3
:1033140053F8184F9C42A4D0002CA2D0204601F0B0
:10332400FFFA0023A36787F31188BFF36F8F20464A
:10333400BDE8F84001F0E5BA6FF001024FF0FF3349
:10334400CEE700224FF00043CAE700BF5132000825
:103354002DE9F04105461C4690461F46EFF31186C1
:10336400102383F31288BFF36F8FB4F1FF3F08BFBC
:10337400B2F1FF3F05D186F31188BFF36F8FBDE82B
:10338400F081002C09DB012A74F10003BCBF012287
:10339400002412F1FF3844F1FF37284601F030FBD6
:1033A400DDE906010023C5E90A012B6342463B46D9
:1033B40028460249FFF742FEDDE700BF513200080C
:1033C400014800F0CBBA00BF0D5900082DE9F04FB9
:1033D4008DB043680293837815469A07804640F17E
:1033E4000D8100240E78002E00F00A81252E0BD0CA
:1033F4004B1C03930134029B4146304698470028F6
:10340400C0F2F6800399EDE74E788B1C252E0393CA
:10341400F0D00027B946BB46BBF11F0F38D8A6F140
:103424002003102B0AD8DFE803F02A090930090920
:10343400092109090928092D09091F00A6F13003EA
:10344400092B33D92A2E37D11BF0400F55F8043BF2
:1034540040F08280002BA7BF4BF0200B9946C3F1AC
:1034640000094BF0280B01E04BF0010B039B13F810
:10347400016B0393002ECFD130E04BF0020B4BF0E5
:10348400040BF3E74BF0080BF0E74BF0100BEDE700
:10349400BBF17F0F19D8A6F13003092BD2D81BF04A
:1034A400400F03D00A2101FB0737DFE70A2101FBA4
:1034B40009394BF0200BD9E72E2E06D11BF0400F13
:1034C40040F09E804BF0400BD0E76C2E31D02BD8CF
:1034D400682E36D06A2E3CD04C2E3AD0002F46F0BF
:1034E4002003B8BF2BF04002A3F16501BCBF1FFA53
:1034F40082FB0027022901D9612B2FD1073525F042
:103504000705DFF8ACA2083507271BF0080F66D0C3
:103514000AEB070B56465E4563D1A4EB0A0A06EB99
:103524000A02A9EB07096FE1742E9FD07A2E9DD071
:10353400D4E71BF0800F18BF4BF4007B4BF0800BDB
:1035440094E71BF4807F18BF4BF4007B4BF4807B23
:103554008CE74BF4207B89E71F4687E7A6F16301DC
:10356400122900F2F080DFE811F013004F00EE00A2
:10357400EE00EE00EE004F00EE00EE00EE00EE0076
:10358400EE00FE00E900EE00EE001B00EE00AF00CE
:1035940055F8043B8DF8183001270DF1180AB4E7EB
:1035A40055F804AB834BBAF1000F08BF9A461BF0E1
:1035B400400F14BF39464FF0FF31504601F08CFAEA
:1035C4000746A2E7029B41462020984700280FDBCC
:1035D400013EB742F6D34C44A41BB14698E74E468D
:1035E400F7E716F8010B029B41469847002892DA48
:1035F40098F8023043F0040388F802304FF0FF34A7
:1036040020460DB0BDE8F08F1BF0800F34D01BF4C2
:10361400007F2CD0073525F00705AA4669685AF8BB
:10362400080B2BF010050029ADB237DA404261EBEC
:10363400410145F480650DF1180B0A235A4601F047
:1036440057FAA0EB0B0301936B0662D5019B25F09F
:1036540001019F4289B240F3A180002E00F09980BD
:1036640015F0100240F09C80BB460D4623E0AA46AC
:103674005AF8040BC117D4E7AA461BF4807F5AF802
:10368400041B01D10846F5E71BF4007F15BF48B2BF
:1036940008B241F3C01141F3C031C2E750EA01035B
:1036A400C9D11BF0400FC6D0002FC4D12BF011029A
:1036B40095B2BB46019740F2064115EA01021CBFD0
:1036C4000BF1010B00222CE02BF010021FFA82FBFD
:1036D4000A231BF0800C49D01BF400711DBF073571
:1036E40025F00705AA46AA461ABF5AF8080B6968C6
:1036F4005AF8040B50EA010545D12BF016051BF0CE
:10370400400FADB242D0002F40D12BF0170295B23A
:10371400019715F0100248D0019B002E42D103F10D
:10372400010B29075AD4EB0706D5D9456FDD01995A
:10373400A9EB0B035F18CB465B4649E04BF0100B3B
:1037440010237826C5E7782B04D1C6F1780343F01B
:103754001003BEE7029B4146252098470028FFF648
:1037640047AF023447E608230026B2E7AA461BF413
:1037740080715AF8040BBDD01BF400711ABFC0B29B
:10378400614680B2B6E72BF0060295B20DF1180B34
:1037940054E725F01105ADB2BB468CE70D46B8E7FA
:1037A4003B460D4603F1020BBBE7DDF804B082E7AC
:1037B4004F59000848590008CDE904324146029B9C
:1037C400202098470028FFF613AF049B059A013385
:1037D4009945F1DCA4EB0B01CC189B460AB3029B80
:1037E4004146302098470028FFF602AF8EB90134D5
:1037F4002744019B391B994224DC1D465DBB019A79
:10380400A9EB0B09224455461446914435E0019F27
:1038140092E7023441463046029B98470028E7DA93
:10382400E6E640F206410D42E2D015F0020F14BF65
:103834002B20202015F4806F04F10104414618BFA9
:103844002D20E9E7029B414630209847002804F1E7
:103854000104CEDACCE606AB013D4146585D029B3D
:1038640098470028CADAC3E6029B414620209847BD
:10387400002804F10104FFF6BBAEA9EB0403002BFE
:10388400F2DCBFE5704700EBC10040884008704798
:10389400F8B50346FFF7F7FFB0FA80F0C0F11F0058
:1038A40003EB800CCA00DCF81060171D0C460632CE
:1038B4008DB256B9012101FA00F0D9680143D960EB
:1038C400CCF81040DD539D52F8BDF1000431585A34
:1038D400D85303EBC0009E52C5805D52F4E7043A0E
:1038E4002DE9F041CC1D114424F0070421F0070117
:1038F4000E1BF708B7FA87F2C2F12405AD004FF0AA
:1039040000080735C2F12002ED0804604146A760B3
:10391400C4F80C80920004F1100001F0D5F86B009B
:1039240043F00103638004EBC5027B1B5900A4F838
:1039340000805180A21924F83550A2F80280A353C4
:1039440004EBC70329465A8842F001025A802046F4
:10395400BDE8F041FFF79CBF002070470FB407B5E6
:1039640004A951F8040B0191FCF7D2FD03B05DF8F2
:1039740004EB04B07047704701F0A6B801F096B8A4
:1039840001460068FCF746BE08B5FCF773FEBDE8C7
:103994000840FCF793BE00210120FCF73BBE6FF00A
:1039A4008500704761B662B680F31188BFF36F8FEC
:1039B400704772B6002383F31188BFF36F8FBFF390
:1039C4004F8F30BF62B6BFF36F8F7047202809D97D
:1039D400B0F1004F08D80138B0FA80F0C0F11F00F0
:1039E40040007047082070473E20704708B5FDF737
:1039F4001DFB002008BD08B5062201210020FDF7AB
:103A04007BFB002211460620FDF7EEF80121084653
:103A14000722FDF771FB002211460720FDF7E4F8A9
:103A2400082201210220FDF767FB0022114608202D
:103A3400FDF7DAF8092201210320FDF75DFB0022DE
:103A440011460920FDF7D0F80A2201210420FDF7D0
:103A540053FB002211460A20FDF7C6F8052108464B
:103A64001722FDF749FB002211461720FDF7BCF889
:103A7400282206210A20FDF73FFB002211462820B8
:103A8400FDF7B2F8002008BD01F01F0101208840B5
:103A9400704700F00302043292000F23934043EA7C
:103AA400900010B500F003039B0003F1804303F57D
:103AB4008033020C9C6892FAA2F2B2FA82F224EAEF
:103AC400104091400143996010BDFEF7A9BEA1F1D9
:103AD4002400FFF7FABF10B4A0F10803BFF35B8F13
:103AE40053E8002F511C43E80014002CF8D1BFF315
:103AF4005B8F3AB9D0F88830C0F88C3010BCA03055
:103B0400FFF7E3BF6FF00F03836510BC704730B558
:103B14008BB002231446890001AACDE90423039340
:103B240041F0200102AB069304AA01238DF8001092
:103B34000146CDE908230793002351F8040BCDF87F
:103B440008D08DF80130836806AA1D6808ABA84721
:103B540010B99DF8053023700BB030BD10B40A467F
:103B6400014651F8040B83681C680023A44610BC6A
:103B7400604730B505690D4487B095F8B830934275
:103B8400144615D001AB89000293022341F0400191
:103B9400039302AB8DF80410049340688DF805205C
:103BA400012304A90593FFF7D9FF10B985F8B8409C
:103BB400002007B030BD2DE9F04FD0F810808FB051
:103BC40005460E4608F140094FF0FF334FF0FF322F
:103BD4004846FEF759FE337C2C69182B40F00481CB
:103BE4007368012B40F00081737C002B40F0FF8050
:103BF4003368002B73D09B8901339B00F2689A428F
:103C0400C0F0F880D6F808E0C4F890E0B446BCE808
:103C14000F0004F164070FC7DCF800303B60002795
:103C240027663368002B5CD00FCB04F1780686E856
:103C34000F006666A4F88870002852D0BFF35B8F2B
:103C440054E8003F44E80072002AF9D1BFF35B8FC7
:103C5400A06F633047F1000164220023FCF798FA57
:103C64000022CDE90001002304F10800FFF770FBF6
:103C740008F150030393002203980023FEF704FE87
:103C8400074628B32C6904F1A8084FF0FF324FF01F
:103C9400FF334046FEF7F8FD0022002304F19800AC
:103CA400FEF7F2FD08AB0A930126082368680B9619
:103CB4000DF1280A0CA9CDE90CA68DF82030FFF7E8
:103CC4004DFF0746A0B1276604F15000FFF7FDFE43
:103CD4004846FFF7FAFE38460FB0BDE8F08F0423DC
:103CE4008CE7C4F894E004F1A800FFF7EEFEBFE708
:103CF4002869983040F6C4120023FEF7C5FD074634
:103D04000028E0D104AB069305AA0423D4F890B0AC
:103D14000793CDE9082306ABCDE90A3608ABCDE914
:103D24000C36696810238DF8103051F8040B836841
:103D340052461E680CABB04707460028C3D19DF815
:103D440016309DF815201B0243EA02439DF8172004
:103D54001A431B0248BF42F07F42CBF80020D4F83C
:103D640090300433C4F89030636E13B904F15000FA
:103D74001BE0E36FB4F888203BB104F164012846EA
:103D84009847012814D0022826D0B4F88830B4F813
:103D940084209A4220D90133A4F88830A36F63B9F0
:103DA400D4F89030C4F894304046FFF78EFE62E7B2
:103DB400D4F89430C4F89030F0E7BFF35B8F54E844
:103DC400003F5A1E44E800210029F8D1BFF35B8F5D
:103DD400012B7FF750AFE3E7A36F002BC6D004F1AC
:103DE400080000F047FEC1E76FF0150770E76FF0B9
:103DF40085076DE76FF00B076AE70B88C3F30B03C6
:103E040003F6B872C2F30B02182A82B014D803F175
:103E1400804303F5043348681A6802431A600B8828
:103E2400C3F30B0303F1804303F5043300201B6841
:103E34000193019B02B070476FF08500FAE70B888D
:103E4400C3F30B0303F6B872C2F30B02182A9FBF25
:103E540003F1804303F5043349681A689DBF8A431C
:103E640000201A606FF0850070470C2809D841F6CD
:103E74009A73C34013F0010F14BF00206FF0850044
:103E840070476FF08500704738B50888C0F30B00A1
:103E9400FFF7EBFF002822DB4868FF281ED082B220
:103EA400C0F3415502F1804202F504320135012389
:103EB400AB401468C0F30440013B834024EA03038D
:103EC400136049688BB203F1804303F504330A0E8F
:103ED4001868C1F304418A4002431A60002038BDC7
:103EE4000888C0F30B0008B500F6B873C3F30B03DE
:103EF400182B0AD800F1804000F504304B680268A2
:103F0400934314BF0120022008BDFFF7AEFF002831
:103F140014BF01200220F7E7704743685B681B6900
:103F24000B600020704743685B68586942400A4050
:103F340042405A610020704743685B6800209961E1
:103F4400704743685B6800209962704743685B6808
:103F54005A69514059610020704710B50369986847
:103F6400F8B1884219D1DC6808689860A14200D190
:103F7400D860002008602AB19A680A60DA689960FB
:103F840002B9D960002010E0814206D1086820609F
:103F9400D8688142EDD1DC60EBE704460068002874
:103FA400F2D1002AE8D16FF0150010BDF0B54468D5
:103FB4000120676888401E46C2F3801327EA000781
:103FC4008B403B43636090FAA0F7B7FA87F7D4F8C5
:103FD40008C04FF0030E7F000EFA07F72CEA070C17
:103FE40090FAA0F7B7FA87F7C2F3C1137F00BB407A
:103FF40043EA0C03A36090FAA0F3B3FA83F3E768EF
:104004005B000EFA03F327EA030790FAA0F3B3FA6E
:1040140083F302F030055B00C2F341229A403A4335
:10402400202DE26016D107292BD890FAA0F3226A3A
:104034002BB3B3FA83F39B000F2101FA03F322EAB3
:10404400030290FAA0F3B3FA83F39B0006FA03F396
:104054001343236290FAA0F3B3FA83F3226890FA2D
:10406400A0F05B000321B0FA80F02D0901FA03F3FC
:10407400400022EA030385401D432560F0BD2B4622
:10408400D9E7030A616A93FAA3F282B1B2FA82F21F
:1040940092000F2793FAA3F3B3FA83F307FA02F219
:1040A4009B0021EA02029E4016436662D2E72A463A
:1040B400EEE712F4003CF8B50C4613461DD0960703
:1040C40014D555075CD55022D90611D542F4007297
:1040D40003F4C061B1F5806F42D0B1F5C06F19D05F
:1040E400B1F5007F18D142F0800215E01022EBE711
:1040F4009F06EDD542F48062EAE7D60305D5D506DE
:1041040005D4C2F340129202E2E73022E0E74FF412
:104114000072DDE742F4C07213F44036056908D03A
:104124002F6927FA04F1C9075FBF0121A140394370
:104134002961BCF1000F06D01F03416813D54968FB
:104144000123A3408B61406800232146FFF72EFF23
:1041540026B92B6923FA04F2D2070BD40020F8BD48
:1041640042F48072D8E75F0341BF01234968A3404A
:104174008B62E8E70122A24023EA02032B61EDE708
:104184006FF08500EBE770B50B468968054611B101
:104194005E680C6801B970BD8A682A4002D04B6819
:1041A400304698471CB1236821461C46F2E7234653
:1041B400FAE7F8B51F46044640680E461546FFF771
:1041C400F5FE112F08D1012303FA06F663685B6834
:1041D4002A054CBF9E619E620020F8BD30B503687D
:1041E40013600579046804EBC504A34202D36FF09D
:1041F400010030BD5C798C4201D00833F0E7002027
:10420400F7E74368C1F34B101B6801F01F01C05866
:1042140001238B40034214BF0123002313700020A9
:10422400704710B54368C1F34B101A6801F01F01C1
:10423400845801238B4023438350002010BD10B5C4
:104244004368C1F34B14186801F01F01235801227D
:104254008A4023EA02032350002010BD38B50446E7
:104264000D46FFF7DEFF29462046FFF7E8FF002052
:1042740038BDB0F5805F07D0B0F1805F09D1002967
:1042840014BF012002207047002914BF032004201A
:104294007047002914BF02200320704743681B683D
:1042A400D869DA69D107DA69C0F3C00048BF40F0C1
:1042B40002009207DA6948BF40F004005107DA6946
:1042C40048BF40F02000D20542BF4FF4807240F056
:1042D40008001A62C10744BF08221A62820744BF59
:1042E40001221A62410744BF02221A62820644BFB5
:1042F40004221A62704737B5034605680C4619B99B
:104304006FF0150003B030BD406819698368DB683D
:1043140093B101AA98470028F4DB2B6823F40043E7
:104324002B60019B03EB5403B3FBF4F10F29E7D992
:1043340089B2E9600020E5E76FF05700E2E710B5C5
:1043440043681B681020DA691206FCD5EFF311826A
:1043540080F31288BFF36F8FDC69240604D482F3E0
:104364001188BFF36F8FEEE7996282F31188BFF370
:104374006F8F10BD43681B68DA69100744BF0822B9
:104384001A62DA69920643BF5B6A0B7000204FF031
:10439400FF30704710B50269126812680A604268FB
:1043A4001268126802F4C062B2F5806F04460B46CC
:1043B40033D0A2F5C060424242411A716268126869
:1043C400526802F44052B2F5805F28D0B2F5405FE3
:1043D40027D0002A0CBF012203225A716268126896
:1043E4001068116800F0102001F4C061FFF741FF6C
:1043F400987162681268926802F44072A2F5407182
:104404004A424A41DA7161680968896811F4804F47
:1044140018BF0322DA71002010BD0222CDE700226A
:10442400DBE70222D9E730B50446086808B9106012
:1044340008E0206845689D4205D3B5FBF3F5156097
:104444002368186830BD08302060086801380860A7
:10445400EBE78368DA0701D5037BFAE7036823F007
:104464004003036003685B06FCD4704710B50B6817
:104474009B88C3F34513082B0C4617D9102B20D95E
:104484000423A26C8AB1013AA2642ABB626B08328B
:104494006263A26B013AA26304F1380104F1480299
:1044A40004F13400FFF7BFFF606410BD4A6C32B101
:1044B4008B6C03B11378DBB203730123E1E713467A
:1044C400F9E74A6C32B18B6C03B113889BB28381D8
:1044D4000223D6E71346F9E7626C002AE5D01A44B2
:1044E4006264E2E708B5232000220521FCF77CFB87
:1044F400BDE808402320FCF769BB0246806810F43D
:10450400B87082B00AD093685B0605D5D36801936E
:10451400019B93680193019B6FF0040002B0704704
:1045240013B5406801AA0C46FFF758FE002805DBC6
:10453400019B002219791868FDF71CFA012C02D19D
:10454400831C08BF002002B010BD03460A46006861
:104554001979012303FA01F103691B68194218BF91
:1045640082F0010212B18368DB68184783681B6913
:10457400FBE710B50B680A6D9B88C3F34513082B42
:104584000C4617D9102B1DD90423226D8AB1013A88
:104594002265FAB9E26B0832E263226C013A2264C2
:1045A40004F1400104F1500204F13C00FFF73BFF29
:1045B400E06410BD037BC96CDBB209B102B10B70BE
:1045C4000123E2E7E36CC16803B10AB90223DCE723
:1045D4001980FBE7E26C002AEBD01A44E264E8E7B6
:1045E40010B5036804464BB11A7D3AB1186900F05E
:1045F400FBF8206800210830FFF7A7FFA36933B94F
:10460400636004F11000BDE81040FEF709B910BD65
:1046140010B544680069FFF7E3FF2068FFF719FF4E
:10462400002010BD2DE9F341436806691C686368E6
:1046340023F080036360636823F04003636063686E
:1046440023F0200305460F466360A368DB0701D50A
:10465400237BFAE7236803F48273B3F5827F23D1C3
:10466400A36818060CD52368590609D5236803F4F2
:104674004443B3F5004FF3D12046FFF7EAFEEFE7DA
:10468400D5F81080D8F8002072B1137D63B19388F7
:1046940013F4805508D1106900F0A6F8D8F800008A
:1046A40029460830FFF751FFA3689A0606D5A36888
:1046B4000193019B236823F04003236033689B88A4
:1046C400DB0402D42046FFF7C4FE376306F1200062
:1046D40002B0BDE8F041FEF7A3B82DE9F041476808
:1046E40005693B7E3C6813F00108064602D0236846
:1046F400580677D52046FFF700FF014620B1304623
:10470400BDE8F041FFF78EBFAB6C0BB92A6DAAB1BF
:104714002A689288D10742D42368B8F1000F26D0C2
:1047240003F44448B8F5404F11D1A3689A0719D44B
:104734003868FFF7E2FE01460028E0D1236813F44D
:10474400444345D1AB6C002B4CD12B6D44E0A368A2
:10475400DB0703D529462046FFF70BFFB8F5004FCA
:10476400E3D1E5E729462046FFF780FEE0E703F4BE
:104774004448B8F5004F07D138688368D907FCD599
:104784002946FFF7F6FED3E7A3689807FCD5294628
:104794002046FFF76BFEB8F5404FC9D0ECE7A2689E
:1047A400920710D57BB129462046FFF75FFEA36828
:1047B400DB07BDD5EB6C002BBAD02B6D002BB7D02B
:1047C40029462046DDE7636823F080036360EEE753
:1047D400B3F5404F03D1AB6C23B900218FE7B3F598
:1047E400004FB2D0BDE8F08138B5044648B1FDF7BA
:1047F40033FE502305465C43FDF72EFE431BA342C4
:10480400FAD338BD10B5436904463BB90020E268C9
:10481400537843F001035370404210BD9847002879
:10482400F4D00028B8BF4042E368FF28A8BFFF20A7
:104834001870ECE740B1C368587810F001001EBF4F
:104844001878B0FA80F040097047EFF31183102311
:1048540083F31288BFF36F8FFEE708B5FFF7F5FF08
:1048640008B51024EFF3118384F31288BFF36F8F1C
:10487400FFF79FF8F6E73AB18A4205D3C0E902127E
:10488400C0E90000002070476FF015007047D0E9C0
:10489400003213605A600023C0E90033704708B542
:1048A400FFF7F5FF037C23F0020303740023836006
:1048B40008BD38B504460D46FEF7BEF8237C43F028
:1048C40002032374E5B1A5602B689D4209D16B688E
:1048D400C4E900531C606C6012E06A689A42F6D026
:1048E4001B68002BF3D094F90E2093F90E108A4222
:1048F400F3D09142F1DD5A68C4E9003214605C607F
:1049040038BD10B5EFF31184102383F31288BFF37D
:104914006F8FFEF74FF884F31188BFF36F8F10BDCC
:1049240008B5EFF31181102282F31288BFF36F8F61
:1049340083680BB1FFF7B3FF81F31188BFF36F8F67
:1049440008BD10B50146EFF31184102383F31288D8
:10495400BFF36F8F037C13F0280F0AD183680BB168
:10496400FFF79DFF0B7C23F004030B740846FEF74E
:1049740021F884F31188BFF36F8F10BD012118381B
:10498400FFF7DFBF08B50346EFF31181102282F36E
:104994001288BFF36F8F0068834207D008B1FFF716
:1049A4007EFF81F31188BFF36F8F08BD0020F8E705
:1049B400C117633008B54FF064024FF0000341F1B2
:1049C4000001FBF7E5FBC117FEF782F964235843A6
:1049D40008BD08B50246FEF703FB70B1D0E9043107
:1049E4009B1A61EBE272B3F1004F72F1000104DA39
:1049F400002AACBF1846002008BD6FF00040FBE75A
:104A040038B50246EFF31185102383F31288BFF300
:104A14006F8F0368CBB1FEF7E3FA04461046FEF746
:104A2400F1FA00224FF000438442C0E9042306D186
:104A3400FEF7DEFAFFF7CDFF0021FDF773FC00203F
:104A440085F31188BFF36F8F38BD6FF01500F7E75A
:104A540008B5FEF7E3FB08BDFEF7E0BB0023C0E9A1
:104A6400081200F11802C0E90622C0E9003303630A
:104A74004363704710B50446FFF7C2FFA8B9636AE1
:104A84000BB12046984704F11800FFF77BFF60B193
:104A9400FFF737FFEFF31180102383F31288BFF37E
:104AA4006F8FBDE81040FEF76BB810BD0A44914209
:104AB40000F1FF3300D1704710B511F8014B03F832
:104AC400014F9142F9D110BD02440346934200D1F3
:104AD400704703F8011BF9E710B5024601448A4206
:104AE400134603D01C780132002CF8D1181A10BDDB
:104AF400F0B5C3F137070446FFB203F01F031046B5
:104B0400082BE6B233D0102B3ED06508A40844EA43
:104B1400817445EAC1752D194FEA910242EB5102A5
:104B2400290941EA02716D1842EB1212290A41EA7D
:104B340002616D1842EB1222290C41EA02416D1800
:104B440042EB1242AD1842F10002EC0844EA42740E
:104B5400D10804EB8402A6EB4205EDB2092D0CD971
:104B64000134A5F10A0541F10001EDB212E0E408B7
:104B740044EA417406F00705C908303554EA0102D5
:104B840000F8015BBCD1F0BD240944EA017406F0CD
:104B94000F050909092D84BFED19EDB2EDE70000F9
:084BA40024B6FF7F01000000B0
:104BAC0000000000344C00087905000800000000EB
:104BBC0000000000504C000800000000DC4C000815
:104BCC0000000000144D0008000000006C4C0008B0
:104BDC0000000000C04C000800000000A44C0008BD
:104BEC0000000000884C000800000000F84C000891
:104BFC00FB3900080000000000000000304D0008E8
:104C0C005518000800000000952200080000000064
:104C1C00591000080000000000000000684D00085A
:084C2C00000000004C4D0008DF
:104C3400695800080000000068500008A400002023
:104C440000000000D916000800000000CA5800083F
:104C54004452000850500008B20000200000000038
:104C640000000000000000003358000800000000AD
:104C740000000000A0000020000000007D100008DB
:104C84000000000076580008645100082C50000809
:104C9400A6000020D00300205519000800000000E1
:104CA40084580008785100082C500008A8000020FF
:104CB400E403002055190008000000009258000881
:104CC4008C5100082C500008AA000020F803002092
:104CD4005519000800000000A0580008A051000861
:104CE4002C500008AC0000200C04002055190008CA
:104CF40000000000AE580008B45100082C50000811
:104D0400AE00002020040020551900080000000017
:104D1400BC580008C85100082C500008B0000020FE
:104D2400340400205519000800000000DB58000876
:104D34004852000884500008B400002014000020E9
:104D4400411B0008000000005F580008CC50000818
:104D540004510008A2000020B80000200914000833
:104D640000000000EB580008C05200086050000822
:104D7400B600002020000020C51D0008000000002F
:104D8400000000009B390008000000009B39000867
:104D9400000000009B390008000000009B39000857
:104DA400000000009B390008000000009B39000847
:104DB4005D580008151100085B580008151100081B
:104DC4005958000815110008575800081511000813
:104DD4005558000815110008000000009B39000810
:104DE400000000009B390008000000009B39000807
:104DF400000000009B390008000000009B390008F7
:104E0400000000009B390008000000009B390008E6
:104E1400000000009B390008000000009B390008D6
:104E2400000000009B390008000000009B390008C6
:104E3400000000009B3900085358000815110008B1
:104E4400000000009B390008000000009B390008A6
:104E5400000000009B390008000000009B39000896
:104E6400000000009B390008000000009B39000886
:104E7400000000009B390008000000009B39000876
:104E8400000000009B390008000000009B39000866
:104E9400000000009B390008684D0008DF46000848
:104EA400000000009B390008000000009B39000846
:104EB400000000009B390008000000009B39000836
:104EC4005158000815110008000000009B39000823
:104ED400000000009B390008000000009B39000816
:104EE400000000009B390008000000009B39000806
:104EF400000000009B390008000000009B390008F6
:104F0400000000009B390008000000009B390008E5
:104F1400000000009B390008000000009B390008D5
:104F2400000000009B390008000000009B390008C5
:104F3400000000009B390008000000009B390008B5
:104F4400000000009B390008000000009B390008A5
:104F5400000000009B390008000000009B39000895
:104F6400000000009B390008000000009B39000885
:104F7400000000009B390008000000009B39000875
:104F8400000000009B390008000000009B39000865
:104F9400000000009B390008000000009B39000855
:104FA400000000009B390008000000009B39000845
:104FB400000000009B390008000000009B39000835
:104FC400000000009B390008000000009B39000825
:104FD400000000009B390008000000009B39000815
:104FE400000000009B390008000000009B39000805
:104FF400000000009B390008000000009B390008F5
:10500400000000009B390008000000009B390008E4
:10501400000000009B390008000000009B390008D4
:08502400000000009B390008A8
:10502C00B74000081F3F00082B3F00083D3F000819
:10503C00473F0008513F0008A51800085F3F0008D3
:04504C000000000060
:105050000742000827420008434200086142000856
:08506000911E0008154600082E
:10506800FF3D0008433E0008000000000D16000840
:0C507800E53E0008000000008D3E00082E
:105084007943000843430008A1420008791C000842
:045094009943000834
:105098006000000001000000000000200000000087
:1050A80000000B0602000000B450000800000008D1
:1050B8002458000824000206000000202C5800088C
:1050C80022000B11684D000840420F000401000047
:1050D800F84C000806001100000000000100000064
:1050E80000000000F84C0008050001000000000066
:1050F80000000000090400000000000085120008FC
:10510800BB3B00080008000032200300508F0C0051
:1051180022900100526401001090050032B2000094
:1051280092B4000010D10200525A0000D25C000074
:1051380010720100722E00001231000010C300002E
:1051480092180000521B0000106C0000B20D000005
:10515800921000001041000052080000FFFF0000FC
:10516800001C0048070000004C0000008000000000
:10517800FFFF000000100048040000004C00000081
:1051880010000000FFFF0000000C004803000000B2
:105198004C00000008000000FFFF00000008004865
:1051A800020000004C00000004000000FFFF0000A7
:1051B80000040048010000004C000000020000004C
:1051C800FFFF000000000048000000004C00000045
:1051D80001000000144D0008F84C0008DC4C0008E1
:1051E800C04C0008A44C00080000000000000000AB
:1051F800884C0008000000000000000000000000CB
:105208000000000000000000000000000000000096
:105218000000000000000000000000000000000086
:105228000000000000000000000000000000000076
:105238000000000000000000000000000010024014
:1052480000440040344C0008504C0008110700008E
:10525800705200080100000000000000000000007B
:10526800000000007852000858000000000002000A
:105278008052000801000000885200080200000067
:105288004700000000020000670000000000000066
:1052980000000000080000001000000018000000D6
:1052A8002000000028000000300000003800000046
:1052B800F84C00080600110000300140E4520008D4
:1052C800E944000801000000DC5200080200000068
:1052D800000000006000000000100000EC52000810
:1052E80001000000F452000803000000A5000000BF
:1052F80080050000C500000080050000E5000000F2
:105308008005000000030000000400000005000004
:105318000006000000070000000800000009000067
:10532800000A0000000B0000000C0000000D000047
:10533800000E0000000F0000A0860100400D0300D1
:10534800801A060000350C0040420F0080841E00C1
:1053580000093D0000127A000024F40000366E01B6
:105368000048E801006CDC02AC4B0008AC4B0008BC
:10537800144C00081C4C0008344C0008344C00083D
:105388000000000001000A0002003200030064006F
:105398000400FA000500F4010600E8030700DC0534
:1053A800001000000030414443206465766963655D
:1053B800206E6F742072656164790A004368616EBB
:1053C8006E656C207365747570206661696C6564C0
:1053D80020282564290A0041445331323230207292
:1053E800656164790A0041444320726561642066FE
:1053F80061696C656420282564290A0041444320BA
:105408007261772076616C75653A2025640A0072AE
:10541800302F61313A2020307825303878202072BA
:10542800312F61323A2020307825303878202072A8
:10543800322F61333A20203078253038780A0072CC
:10544800332F61343A202030782530387820723173
:10545800322F69703A202030782530387820723120
:10546800342F6C723A20203078253038780A0020A2
:10547800787073723A20203078253038780A0046E0
:1054880061756C74696E6720696E73747275637484
:10549800696F6E2061646472657373202872313598
:1054A8002F7063293A203078253038780A00556EF5
:1054B80068616E646C6564204952516E3A202564B7
:1054C8000A002A2A2A2A2A204D5055204641554C9E
:1054D80054202A2A2A2A2A0A002020537461636B3E
:1054E800696E67206572726F722028636F6E7465CB
:1054F80078742061726561206D69676874206265DF
:10550800206E6F742076616C6964290A002020552A
:105518006E737461636B696E67206572726F720A6D
:1055280000202044617461204163636573732056D1
:10553800696F6C6174696F6E0A0020204D4D464199
:105548005220416464726573733A20307825780A72
:10555800002020496E737472756374696F6E204100
:1055680063636573732056696F6C6174696F6E0A43
:10557800002020466C6F6174696E672D706F696ECC
:1055880074206C617A792073746174652070726517
:10559800736572766174696F6E206572726F720AD4
:1055A800002A2A2A2A2A2055534147452046415590
:1055B8004C54202A2A2A2A2A0A002020446976697B
:1055C80073696F6E206279207A65726F0A002020F5
:1055D800556E616C69676E6564206D656D6F727973
:1055E800206163636573730A0020204E6F20636F28
:1055F80070726F636573736F7220696E73747275FE
:105608006374696F6E730A002020496C6C6567616A
:105618006C206C6F6164206F66204558435F52456B
:105628005455524E20696E746F2050430A00202052
:10563800496C6C6567616C20757365206F662074B2
:10564800686520455053520A002020417474656DE6
:10565800707420746F206578656375746520756E45
:10566800646566696E656420696E737472756374C7
:10567800696F6E0A002A2A2A2A2A20425553204690
:1056880041554C54202A2A2A2A2A0A0020205374D9
:1056980061636B696E67206572726F720A00202001
:1056A8005072656369736520646174612062757303
:1056B800206572726F720A002020424641522041D2
:1056C8006464726573733A20307825780A00202064
:1056D800496D7072656369736520646174612062E5
:1056E8007573206572726F720A002020496E737498
:1056F80072756374696F6E20627573206572726F5C
:10570800720A005265736572766564204578636530
:105718007074696F6E20280053707572696F7573A5
:1057280020696E7465727275707420284952512010
:1057380000535053454C20696E207468726561644B
:10574800206D6F646520646F6573206E6F742069C7
:105758006E646963617465205053500A002A2A2ACE
:105768002A2A2048415244204641554C54202A2A8E
:105778002A2A2A0A002020427573206661756C74F3
:10578800206F6E20766563746F72207461626C6539
:1057980020726561640A002020446562756720658F
:1057A80076656E740A0020204661756C74206573F6
:1057B80063616C6174696F6E20287365652062652A
:1057C8006C6F77290A00415243485F45584345505A
:1057D80054207769746820726561736F6E2025782C
:1057E8000A0A002A2A2A2A2A204465627567206D37
:1057F8006F6E69746F7220657863657074696F6E17
:10580800202A2A2A2A2A0A002A2A2A2A2A2025730A
:1058180020256429202A2A2A2A2A0A00464C41538C
:10582800485F30005352414D5F3000696E746572B5
:10583800727570742D636F6E74726F6C6C657240E4
:105848003430303130343030000A060505040103A5
:1058580001020101010001616473313232304030CC
:10586800007263634034303032313030300067705A
:10587800696F403438303031633030006770696F99
:10588800403438303031303030006770696F403420
:1058980038303030633030006770696F40343830EA
:1058A8003030383030006770696F4034383030300D
:1058B800343030006770696F403438303030303001
:1058C800300072657365742D636F6E74726F6C6CE3
:1058D80065720073657269616C40343030303434FD
:1058E800303000737069403430303133303030003C
:1058F8000000000000000000010203040607080978
:105908006D61696E002A2A2A20426F6F74696E677A
:10591800205A6570687972204F53206275696C64EB
:105928002076342E332E302D363237312D673865B8
:1059380036633933366533656536202A2A2A0A00E4
:10594800286E756C6C29002A666C6F61742A0000D9
:105958005D39000800000000F1390008000000006F
:10596800000000001800002000C201000001030030
:105978000000000000000000B8520008010000000C
:10598800300000203000002000000000010000006E
:10599800400000204000002000000000010000003E
:1059A80000000000000000000000000000000000EF
:1059B80000000000000000000000000000000000DF
:1059C800000000000000000000093D00C8000000C1
:1059D8008000002080000020090400000000000072
:1059E800FFFFFFFFFFFFFFFFFFFFFFFFFFFFFFFFBF
:1059F800000000000000000000000000000000009F
:085A0800000000000000000096
:045A100015E015E0A8
:0400000508000AEDF8
:00000001FF
