:020000040800F2
:10000000C0960020C520000861620008B1200008E9
:10001000B1200008B1200008B12000080000000055
:100020000000000000000000000000008521000822
:10003000B120000800000000252100085D420008F2
:100040000D2300080D2300080D2300080D230008D0
:100050000D2300080D2300080D2300080D230008C0
:100060000D2300080D2300080D2300080D230008B0
:100070000D2300080D2300080D2300080D230008A0
:100080000D2300080D2300080D2300080D23000890
:100090000D2300080D2300080D2300080D23000880
:1000A0000D2300080D2300080D2300080D23000870
:1000B0000D2300080D2300080D2300080D23000860
:1000C0000D2300080D2300080D2300080D23000850
:1000D0000D2300080D2300080D2300080D23000840
:1000E0000D2300080D2300080D2300080D23000830
:1000F0000D2300080D2300080D2300080D23000820
:100100000D2300080D2300080D2300080D2300080F
:100110000D2300080D2300080D2300080D230008FF
:100120000D2300080D2300080D2300080D230008EF
:100130000D2300080D2300080D2300080D230008DF
:100140000D2300080D2300080D2300080D230008CF
:100150000D2300080D2300080D2300080D230008BF
:100160000D2300080D2300080D2300080D230008AF
:100170000D2300080D2300080D2300080D2300089F
:0C0180000D2300080D2300080D230008CB
:10018C0080F0004002E000BF81F0004142001FBF40
:10019C005FEA410392EA030F7FEA226C7FEA236C49
:1001AC006AD04FEA1262D2EB1363C1BFD21841403E
:1001BC0048404140B8BF5B42192B88BF704710F0D4
:1001CC00004F40F4000020F07F4018BF404211F077
:1001DC00004F41F4000121F07F4118BF494292EADF
:1001EC00030F3FD0A2F1010241FA03FC10EB0C000B
:1001FC00C3F1200301FA03F100F0004302D5494298
:10020C0060EB4000B0F5000F13D3B0F1807F06D344
:10021C0040084FEA310102F10102FE2A51D2B1F13C
:10022C00004F40EBC25008BF20F0010040EA030031
:10023C007047490040EB0000013A28BFB0F5000FB1
:10024C00EDD2B0FA80FCACF1080CB2EB0C0200FA67
:10025C000CF0AABF00EBC25052421843BCBFD040B6
:10026C001843704792F0000F81F4000106BF80F430
:10027C0000000132013BB5E74FEA41037FEA226CF3
:10028C0018BF7FEA236C21D092EA030F04D092F0BE
:10029C00000F08BF0846704790EA010F1CBF0020F2
:1002AC00704712F07F4F04D1400028BF40F000404F
:1002BC00704712F100723CBF00F50000704700F06F
:1002CC00004343F0FE4040F4000070477FEA226296
:1002DC0016BF08467FEA23630146420206BF5FEA67
:1002EC00412390EA010F40F4800070474FF0000367
:1002FC0004E000BF10F0004348BF40425FEA000C2E
:10030C0008BF704743F0964301464FF000001CE0D5
:10031C0050EA010208BF70474FF000030AE000BF2B
:10032C0050EA010208BF704711F0004302D5404269
:10033C0061EB41015FEA010C02BF844601460020DB
:10034C0043F0B64308BFA3F18053A3F50003BCFAF6
:10035C008CF2083AA3EBC25310DB01FA02FC6344A3
:10036C0000FA02FCC2F12002BCF1004F20FA02F2AA
:10037C0043EB020008BF20F00100704702F120029D
:10038C0001FA02FCC2F1200250EA4C0021FA02F2FE
:10039C0043EB020008BF20EADC7070474FF0FF0C03
:1003AC001CEAD0521EBF1CEAD15392EA0C0F93EAFE
:1003BC000C0F6FD01A4480EA010C400218BF5FEAA0
:1003CC0041211ED04FF0006343EA501043EA511113
:1003DC00A0FB01310CF00040B1F5000F3EBF49000D
:1003EC0041EAD3715B0040EA010062F17F02FD2A11
:1003FC001DD8B3F1004F40EBC25008BF20F00100F4
:10040C00704790F0000F0CF0004C08BF49024CEA0A
:10041C00502040EA51207F3AC2BFD2F1FF0340EA9C
:10042C00C250704740F400004FF00003013A5DDC0D
:10043C0012F1190FDCBF00F000407047C2F100024E
:10044C00410021FA02F1C2F1200200FA02FC5FEA3B
:10045C00310040F1000053EA4C0308BF20EADC7085
:10046C00704792F0000F00F0004C02BF400010F4F7
:10047C00000F013AF9D040EA0C0093F0000F01F0A4
:10048C00004C02BF490011F4000F013BF9D041EAC6
:10049C000C018FE70CEAD15392EA0C0F18BF93EAC8
:1004AC000C0F0AD030F0004C18BF31F0004CD8D1F2
:1004BC0080EA010000F00040704790F0000F17BF79
:1004CC0090F0004F084691F0000F91F0004F14D0BF
:1004DC0092EA0C0F01D142020FD193EA0C0F03D117
:1004EC004B0218BF084608D180EA010000F000401A
:1004FC0040F0FE4040F40000704740F0FE4040F4F5
:10050C00400070474FF0FF0C1CEAD0521EBF1CEA93
:10051C00D15392EA0C0F93EA0C0F69D0A2EB0302B1
:10052C0080EA010C49024FEA402037D04FF080534B
:10053C0043EA111143EA10130CF000408B4238BF10
:10054C005B0042F17D024FF4000C8B4224BF5B1A1E
:10055C0040EA0C00B3EB510F24BFA3EB510340EA6C
:10056C005C00B3EB910F24BFA3EB910340EA9C001A
:10057C00B3EBD10F24BFA3EBD10340EADC001B018A
:10058C0018BF5FEA1C1CE0D1FD2A3FF650AF8B422E
:10059C0040EBC25008BF20F0010070470CF0004C3B
:1005AC004CEA50207F32C2BFD2F1FF0340EAC25066
:1005BC00704740F400004FF00003013A37E792F027
:1005CC00000F00F0004C02BF400010F4000F013A85
:1005DC00F9D040EA0C0093F0000F01F0004C02BF80
:1005EC00490011F4000F013BF9D041EA0C0195E7E9
:1005FC000CEAD15392EA0C0F08D142027FF47DAF82
:10060C0093EA0C0F7FF470AF084676E793EA0C0F71
:10061C0004D14B023FF44CAF08466EE730F0004C6F
:10062C0018BF31F0004CCAD130F000427FF45CAFFF
:10063C0031F000437FF43CAF5FE700BF4FEA40026C
:10064C00B2F1FE4F0FD34FF09E03B3EB12620DD9F4
:10065C004FEA002343F0004310F0004F23FA02F05E
:10066C0018BF404270474FF00000704712F1610F05
:10067C0001D1420205D110F0004008BF6FF00040DC
:10068C0070474FF00000704753B94AB9002908BFB2
:10069C0000281CBF4FF0FF314FF0FF3000F00CB8BA
:1006AC00ADF1080C6DE904CE00F010F8DDF804E0B3
:1006BC00DDE9022304B07047704700BF034613F80E
:1006CC00012B002AFBD1181A013870472DE9F0478D
:1006DC0086468C460846089E154674461946002BDD
:1006EC0040F0C2808542B2FA82F245D94AB1C2F1D9
:1006FC00200300FA02FC2EFA03F3954043EA0C0C9B
:10070C0094404FEA154EA8B2BCFBFEF8230C0EFB2E
:10071C0018CC08FB00F943EA0C43994528D9EB188F
:10072C0008F1FF3704D2994502D9A8F102072B44EE
:10073C00A3EB0903A4B2B3FBFEFC0EFB1C330CFBB6
:10074C0000F044EA0344A04214D92C190CF1FF33F5
:10075C0004D2A04202D9ACF102032C44241A43EA7D
:10076C0007401EB1D440002334607360BDE8F087AD
:10077C004746DDE76346F1E792BB431B01214FEA95
:10078C00154EAFB2B3FBFEFC200C0EFB1C330CFB66
:10079C0007F840EA0343984562D9EB180CF1FF3097
:1007AC0004D2984502D9ACF102002B44A3EB080308
:1007BC00A4B2B3FBFEFC0EFB1C330CFB07F744EAA4
:1007CC000344A7424ED92C190CF1FF3304D2A74293
:1007DC0002D9ACF102032C44E41B43EA0040C0E70D
:1007EC00C2F1200320FA03F1954090402EFA03F356
:1007FC0003434FEA154EAFB2B1FBFEFC0EFB1C10CF
:10080C00190C0CFB07F841EA0041884504FA02F484
:10081C0022D969180CF1FF3004D2884502D9ACF109
:10082C0002002944A1EB08019BB2B1FBFEFC0EFBBC
:10083C001C110CFB07F743EA01439F420ED9EB183E
:10084C000CF1FF3104D29F4202D9ACF102012B44CE
:10085C00DB1B41EA004192E76046E3E76146F7E7BC
:10086C006046A3E76346B7E7834206D916B9002171
:10087C0008467BE7C6E900E0F9E7B3FA83F78FB9DE
:10088C00834201D3724508D8BEEB020460EB03032C
:10089C0001209C461EB9002168E73846FAE7C6E9F4
:1008AC00004CF8E7C7F1200CBB4022FA0CF41C43B7
:1008BC002EFA0CF120FA0CF3B84001434FEA14491C
:1008CC000EFA07F5B3FBF9F81FFA84FE09FB183092
:1008DC000B0C08FB0EFA43EA00439A4502FA07F2A6
:1008EC0040D9E31808F1FF3004D29A4502D9A8F197
:1008FC0002002344A3EB0A0389B2B3FBF9F809FB0A
:10090C00183308FB0EFE41EA03418E452CD96118C1
:10091C0008F1FF3304D28E4502D9A8F10203214419
:10092C0043EA0040A0FB0298A1EB0E014145CE46E4
:10093C00434602D306D14D4504D2B9EB020E68EB07
:10094C0004030138002EA6D0B5EB0E0261EB0301B7
:10095C0001FA0CFC22FA07F34CEA0303F940C6E94E
:10096C00003198E74046C5E74346D9E72DE9F04109
:10097C0086B03B4D284606F02CFA20B32A69A968AC
:10098C00136823F0080313600B684FF4C022032193
:10099C0028469847334805F055F81422002101A841
:1009AC0006F08DFB01230293042304931823CDF846
:1009BC000CD08DF814302C4E304606F00AFA40B9A3
:1009CC002A4805F03FF86FF01204204606B0BDE847
:1009DC00F081B36826491B6830469847041E04DA38
:1009EC002448214605F02EF8EFE72348DFF88C80E9
:1009FC00234F244C05F026F8AB6819485B69082195
:100A0C009847B36818485B6801A99847011E03DA38
:100A1C001D4805F017F8EFE700991C4805F012F88F
:100A2C000098FFF767FC4146FFF76CFD3946FFF76E
:100A3C00B5FC2146FFF7B2FCFFF700FE144B90FB10
:100A4C00F3F103FB110080EAE072A2EBE0721148B3
:100A5C0004F0F8FF002142F2107006F085FACBE7A3
:100A6C00C4720008427A0008187300084E7A000815
:100A7C0094000020647A00087F7A0008FEFFFF4A89
:100A8C006F120340002474498E7A0008A47A00087F
:100A9C0040420F00B17A00082DE9F04F91B0840765
:100AAC00009302F004030293C2F3C20303F10103A7
:100ABC00DDF86880039205460E46059340F0BA8136
:100ACC00041D30B1072909D86FF01B0011B0BDE827
:100ADC00F08F01F007063444C6F10806009B4FF076
:100AEC000009591E4FF0040A4FF0FF330193CDF863
:100AFC0010904F46CB4653460DB1009A2260059894
:100B0C00002800F3E8809848009A824203D3974863
:100B1C008242C0F0E080039AA4EB050E92074FEAE4
:100B2C009E0000F103810F2F00F2B180002D00F028
:100B3C00058107F140020DEB020C019A0CF8200C18
:100B4C000CF8102C049801300490E7E07A285DD85A
:100B5C004B280ED8472859D829282DD8252852D0CB
:100B6C0054D820287AD02338D0F1000B4BEB000B53
:100B7C0074E04C382E2849D8DFE800F0704848481B
:100B8C0048484848484848484B48484848484848D6
:100B9C004859484B4B595959704B6D487048184B34
:100BAC00184848827F4B48484B487F0000204FF044
:100BBC00000B4FF0040A38E02A38C0B2012202FAC6
:100BCC0000F010EA0E0F49D110F0625C2FD110EA40
:100BDC00020B43D06046013C5444B4FBFAF40AFBCC
:100BEC0004F4002D61D0A3EB050CA444B4453FF6EE
:100BFC006BAF002868D1042B47D158F8043B236015
:100C0C00043404232AE0019A013A01924FF0000BBC
:100C1C0024E011F8010C6C2834D111F8023C0020AE
:100C2C006C2B8346C5D14FF0080A5346D3E708F125
:100C3C00070828F007080734F8E802AB24F007048B
:100C4C0035B106982044B0423FF63EAFC4E900AB44
:100C5C0008344FF0000B4FF0080A534611F8010FFF
:100C6C00002878D0BBF1000F7FF470AF2528F5D1A8
:100C7C00019B013301934FF0010B4FF0040AECE799
:100C8C00584694E700208346A5E7082B02D06FF066
:100C9C0015001BE708F1070828F00708F8E80223FD
:100CAC00C4E9002308340823D8E768B9042B02D11F
:100CBC0008F10408A4E7082BE9D108F1070828F08B
:100CCC00070808F10808EDE7059A013A059258F86B
:100CDC00042B009210E7039A900720D5A4EB050E85
:100CEC004FEA9E004FF0010CBEF5007FCFD20F2FC4
:100CFC00CDD8F5B107F140020DEB020EC0B2019A4E
:100D0C000EF8200C0EF8102CBCF1000F3FF41AAFAB
:100D1C0060F07F000EF8200C09F101090137C5F1D4
:100D2C000802043406924FF6DA7E97E74FF0000C77
:100D3C00DAE7BCF1000F01D00136EFE7029802367A
:100D4C000028EBD10098CDE90631FFF7B7FCDDE9BF
:100D5C0006310644E2E7631BB3F5806F97D23DB9C9
:100D6C00A6F10804E018B1E6B87100086486000822
:100D7C00029A28609B082B709DF81030C2B1EB7062
:100D8C0085F80290B9F1000F05D008A80022C5F132
:100D9C00010C97420ED1C5F101030DF120084FF063
:100DAC00000A01930DF1300B574512D1601B8DE6F3
:100DBC006B70E5E710F8013B190608D50CEB040E37
:100DCC00B64503F07F033FF67FAE04F8013B0132DA
:100DDC00DFE7B9F1000F03D098F90020002A17DBE8
:100DEC00029BD3B11AF80B2004F8012B0022019BB3
:100DFC0018191044B0423FF667AE98F8000004F89A
:100E0C00010B00990392204606F04BF9039A144407
:100E1C000AF1010A08F10108C6E798F8002055F814
:100E2C0022300093029B45F822300098FFF746FCD5
:100E3C00421CDCE76FF00D0048E600BF2DE9F04FD7
:100E4C0097B000AF90F802A0D7F880B03B62CBF31C
:100E5C00C0030446FA62BB61894641B94578007803
:100E6C000AEB800020444D4517D8A0EB0409E37829
:100E7C00FB61BAF1000F02D01BF0010F16D1FB6918
:100E8C0053BBFB6A1BB13A6A4946204698474D460C
:100E9C0028465C37BD46BDE8F08F461C3046FFF750
:100EAC000DFC0130304409F10109DCE7237862685C
:100EBC007A62FA6A9900796104EB8301002A40F0A6
:100ECC0000814D460E4601EB0A094FF000084E45D5
:100EDC004CD101EB0A0610E01BF0020FD1D02378A5
:100EEC009A007A6162687A62FA6A04EB8301002ADA
:100EFC0077D14D4601EB0A0690461BF0050F0CBF4F
:100F0C0002230123FB62FB6906EB430A0BF002038D
:100F1C00BB625645BCD016F8021B16F8013C54F8BF
:100F2C002390994B994502D3984B994536D3BB697D
:100F3C00002B40D0786A04F05EFD00283BD0E946D7
:100F4C008AB06A46924B53617B6AC2E906314FF410
:100F5C00007313848F4B42F8103F8F4800234FF4DB
:100F6C00125100F02FFC023DCD46D2E716F8013BA2
:100F7C00F96254F82300FFF7A1FBD7F88430F96A23
:100F8C0001304BB1D7F8883098453EBFD7F8843044
:100F9C0023F8180008F10108054498E7BB6923B150
:100FAC00786A04F028FD0028C9D11BF0010F05D187
:100FBC00FB6AED1AADE7BB6A002BAAD04846FFF7D7
:100FCC007DFBD7F8843053B1D7F8883098453FBFB4
:100FDC00D7F88420431C22F8183008F10108054486
:100FEC0097E7BAF1000F72D01BF0040672D0D0460E
:100FFC00002607F1480052463B61B96206F051F8F1
:10100C00B96A3B6901EB0A02BA62FA69F9695200E2
:10101C00FA60BA6A02EB41023A610BF00202BA6062
:10102C003A69B96A8A4257D162787A621BF0020F28
:10103C0032440CBF4FEA580100211BF0010FD2B211
:10104C0040F09F801BF0040F14BF40460020BB6192
:10105C006270A070E1703A6A7969FB6A2046984721
:10106C00051EFFF615AFBB6923707B6A6370FB69C5
:10107C00E37041463A6AFB6A84F802A007F1480023
:10108C009847B0F10008C0F2BB807B693A6AA9EBC3
:10109C000A01C91AFB68C91AD7E90A03984700283C
:1010AC00C0F2B080A84408EB00054FF0000B07F12C
:1010BC00380AB34572D300213A6AFB6A084698474E
:1010CC00E6E656464FF0000807F1380093E756461F
:1010DC00D04697E7B04695E7BA6A12F8021BBA6297
:1010EC0012F8015C284A54F82500904202D3274A92
:1010FC0090421ED3BA6932B1786A7B6004F07BFCF3
:10110C007B6800288CD1BA6802BB08F1280207F171
:10111C00300C08F10100944407F1580252FA80F0A7
:10112C0008F102080CF8101C5FFA88F800F8105C43
:10113C0076E7BA693AB1786A7B6004F05CFC7B684C
:10114C0000287FF46DAF1BF0010F09D006F12802C7
:10115C0007F13000711C161806F8205CCEB25FE760
:10116C001BF0040F3FF45CAF08F1280207F13000CC
:10117C0008F1010102EB000808F8105C5FFA81F835
:10118C004EE7002063E700BFB871000864860008D2
:10119C00C27A0008040000015C7600081BF80A30D3
:1011AC0087F8373054F82390D7F884302BB3D7F81E
:1011BC0088309B4521D2D7F8843033F81B803A6AAB
:1011CC00FB6A012107F13700984700281ADB054418
:1011DC00B8F1000F06D14846FFF770FA00F101088C
:1011EC001FFA88F83A6AFB6A414648469847002835
:1011FC0008DB05440BF1010B5BE74FF00008DEE761
:10120C00454645E6054643E6014B1860704700BF6E
:10121C000000002080B505460E461746984603F0A0
:10122C00ABFD034601F07EF8DFF81890044649F850
:10123C000030424630463946A84754F8090000F0C1
:10124C0055FF00BF08000000034A536823F0020357
:10125C0053600020704700BF002004E0084B1A6860
:10126C0042F400721A601A6842F480621A601A68BA
:10127C0042F480721A60034B034A1A60704700BF35
:10128C00002002408400002000093D002DE9F047B9
:10129C00DFF85880044607464FF0010914B9384668
:1012AC00BDE8F08794FAA4F5B5FA85F509FA05F3CB
:1012BC002E0108EB05156FEA030A24EA03042B7BC5
:1012CC00002BEBD058F806301B694BB9464404226E
:1012DC0073682846196807EA0A0704F06CFEDDE714
:1012EC00284698470028D9D1F0E700BFBC76000803
:1012FC0030B51049104889B0002205F0AAFE0F4DF8
:10130C000F4900220023CDE9062300240E23CDE94A
:10131C000334CDE901440B4B00944FF44072284642
:10132C0003F0ECFA0849284605F08AFD204609B07E
:10133C0030BD00BF59130008988100201001002017
:10134C00C085002075160008997B0008014803F041
:10135C002FBA00BFFC0000202DE9F0478046204842
:10136C000F4604F000FE0646002832D00025284621
:10137C00BDE8F087237B83B12368DB680BB1204683
:10138C009847636883F8069023681B69CBB9636838
:10139C0004221968204604F00EFE01361034544520
:1013AC00E8D3B8F1000FE2D0002DDFD02846FFF7CC
:1013BC006DFF0546002FF7D00021642005F0D4FD09
:1013CC00F2E7204698470028E1D009FA06F31D43BE
:1013DC00E3E7044CDFF810A005464FF00109DEE707
:1013EC0058840020BC760008CC760008014B53F8DA
:1013FC0020007047E876000808B5034608462BB174
:10140C00044A136000F074FC002008BD6FF0150056
:10141C00FBE700BF0400002010B5044C237813B97F
:10142C00034803F0C5F90123237010BDAC850020DF
:10143C00FC00002010B504460B4804F094FD5CB190
:10144C00BFF35B8F094B53E8001F013943E80012CF
:10145C00002AF8D1BFF35B8F054805F006FE05485E
:10146C00BDE8104003F0A4B950840020548400203F
:10147C0098810020FC0000200020064BBFF35B8FFE
:10148C00014653E8000F43E80012002AF9D1BFF3DC
:10149C005B8F70475084002070B5FFF7EDFF084C50
:1014AC00084E0546B44200D370BD63685B792BB11E
:1014BC0023685B6813B12946204698471034F1E73E
:1014CC00BC760008CC76000810B5044C04492046C4
:1014DC0004F0C8FB034B1C6010BD00BFC000002013
:1014EC00D4760008488400200D4A0E48002310B51D
:1014FC0013700D4A13600D4A4FF47A711360FFF7A5
:10150C007BFFFFF7E1FF0A4B0A4918468B4200D3D9
:10151C0010BD1A1A5C681211013222711033F5E7F2
:10152C00AD8500208D5F000850840020548400207D
:10153C00BC760008CC760008014600220148002346
:10154C0004F0B1BBC0000020014804F04ABC00BF4D
:10155C00C0000020024B0146186804F09DBC00BF7F
:10156C0048840020014804F0D2BC00BFC000002019
:10157C0070B5264B1878002846D0FFF7E5FF0546D6
:10158C0000283ED1224B234C1B68002B12DD05F0AA
:10159C005EFD0A220023FFF777F8D4E90032C01A67
:1015AC0040F2E93361EB0201984271F1000101D381
:1015BC00FFF772FFD4E9003213F57A7342F100029F
:1015CC00C4E90032BDE87040FFF7CCBF63685B79BB
:1015DC0023B1236829461B68204698471034B4422F
:1015EC00F4D32846FFF7B6FFBFF35B8F0A4B53E8E3
:1015FC00001F013943E80012002AF8D1BFF35B8FBA
:10160C00C0E7064C064EEAE770BD00BFAC85002073
:10161C00508400209081002054840020BC76000867
:10162C00CC76000870B50D4D297861B90120FFF713
:10163C0093FE0B4C0B4EB44206D3FFF799FF0028D8
:10164C00FBD101232B7070BD63685B791BB12368E0
:10165C0020469B6898471034EDE700BFAD8500200D
:10166C00BC760008CC76000800212DE9F04708462E
:10167C00FFF772FE044658B34FF4FA784FF00009A6
:10168C0000F050FE1B4B1C4A1B58136033B11B4B14
:10169C001B68092B02DD1A4803F08AF8194FDFF892
:1016AC0060A0002544B12046FFF7F0FD044618B9B0
:1016BC004FF0FF384FF0FF39FFF75AFF064628B9B5
:1016CC00B5B942464B46504603F0A6F83546E9E715
:1016DC004FF0FF384FF0FF39D2E72B689B691BB1F5
:1016EC0000221146284698471035BD42F5D3E8E74D
:1016FC00054DFAE7080000004C84002054840020BB
:10170C00FC000020CC760008BC76000813B5184805
:10171C0004F029FC174B1B7873B1EFF311841023E1
:10172C0083F31288BFF36F8FFFF722FF84F31188C6
:10173C00BFF36F8F02B010BD0F4B1B68002BF9D09D
:10174C0050B900220023CDE900230C4842F210725C
:10175C00002303F0F1FDEDE70928EBD1074805F074
:10176C0084FC074802B0BDE8104003F021B800BF6C
:10177C0054840020AD8500204C84002098810020EA
:10178C00FC00002010B5064B1B6804469847214608
:10179C00A060044804F006FBBDE81040FFF7B6BF9C
:1017AC0004000020C0000020044A054B9B1AB1EB3A
:1017BC00D30F34BF52F83100002070475476000824
:1017CC00BC7600082DE9F04F8FB004AFC1F34A2866
:1017DC00B8600D4691467B600C0DB8F1000F63D0DC
:1017EC00002607F114034FF0040B4FF00A0AC7F858
:1017FC000C80C7E907667E620193CDF808B0CDF87E
:10180C0000A007F11C03F96832464846FFF716FBA7
:10181C00B0F5006F03461CD36C468AB0D9F804109F
:10182C0004AB2648C3E9050140F2FF71D9611A46A1
:10183C004FF400711984224B42F8103F2148334673
:10184C004FF41251FFF7BEFFA5462C37BD46BDE83D
:10185C00F08FC0F30A0804F11700184420F00700B9
:10186C0080083B60FFF768FE68F35325044690B18F
:10187C003B68154AC7E9083600F1100107F114035B
:10188C00F961CDE900A3CDF808B0F96807F11C03A4
:10189C004846FFF7D3FA68F353257B68B9682A46A4
:1018AC00204604F0A8FBD0E704F1170020F0070055
:1018BC008008FFF741FE0446EDE700BFAE7B000851
:1018CC00040000016C760008D55F00082DE9F04F8C
:1018DC0087B0DDE91279DDE9105A0446039193468D
:1018EC009846BFB1CDF800903B46524610210020DF
:1018FC00CDF81490FFF7D0F8B0F5006F06460AD378
:10190C00184A194840F2FF73022107B0BDE8F04FA6
:10191C0004F0CABB3E4605F11700304420F0070026
:10192C0004F007048008FFF707FE0BF0070BE40038
:10193C0044EA8B1444EA462444EA0554054640B173
:10194C003FB1CDF800903B46524631461030FFF780
:10195C00A3F8039943462246284607B0BDE8F04F4A
:10196C0004F049BBED7B00086C760008406820B1A0
:10197C00034BC01A40F3CF0070474FF0FF30704755
:10198C00547600080EB403B503AB014653F8042B90
:10199C000448019300F04EFE02B05DF804EB03B076
:1019AC00704700BF17610008CA0605D48B064CBFF0
:1019BC0002490349FFF7E6BF704700BF267C0008C9
:1019CC00257C00082DE9F04F89B09B46149B0693AB
:1019DC009DF84CA0159B0593169B179E04930446EB
:1019EC000D469046BAF1000F00F09D8006F480730E
:1019FC00079304F0DEFA06F00209024600283ED0F6
:101A0C0091492046FFF7BEFF0746B9F1000F08D0F9
:101A1C0016F0440F35D18D492A462046FFF7B2FF08
:101A2C00074406F0010353B1894B8A4953F82A2025
:101A3C00894B2046002A08BF1A46FFF7A3FF06F47D
:101A4C008073002B49D006F00803002B63D1B8F14A
:101A5C00000F66D0814942462046FFF793FF0546AA
:101A6C00069B3D44002B6DD1049B002B73D1F307D7
:101A7C0000F1E48031462046FFF796FFD8E0074698
:101A8C00C3E7774B18680028CAD0764B4FF47A79A5
:101A9C001B68B5FBF3F54FF46163B5FBF0F100FB8C
:101AAC00115509FB05F54FF03C0CB1FBF3F203FBB0
:101ABC001211B5FBF0FEB1FBFCF300FB1E550CFB49
:101ACC00131109FB05F50091B5FBF0F56649CDE95D
:101ADC0001E52046FFF756FFA2E706F00803EBB13D
:101AEC00624B634953F82A202046FFF74BFF05460B
:101AFC00B8F1000F05D0594942462046FFF742FF86
:101B0C000544BBF1000FABD05A495A462046FFF7AB
:101B1C0039FF0544A4E74FF0000BE1E706F0080598
:101B2C00E6E745469CE7BBF1010F069B06D1002B6F
:101B3C0064D1049B002B7BD000250CE0002BF8D04B
:101B4C004D485CE04D48069B4D49224603F022FF70
:101B5C00049B002B68D0DFF82C81DFF82C91049FBC
:101B6C003146102F204628BF1027FFF71DFF4FF0DE
:101B7C00000B5D4545DC059B49461A782046FFF76E
:101B8C0001FF4FF0010B1BF0070F03D1414620461C
:101B9C00FFF7F8FE5F453BD9059B494613F80B2030
:101BAC002046FFF7EFFE0BF1010BBBF1100FEAD152
:101BBC00364920464FF0000BFFF7E4FE5A46059BD2
:101BCC009A5CA2F120015F2928BF2E2230492046C1
:101BDC00FFF7D8FE0BF1010BBBF1100F1DD01BF062
:101BEC00070F03D141462046FFF7CCFE5F455A460E
:101BFC00E5D841462046FFF7C5FEEBE71F485546A2
:101C0C00A1E741462046FFF7BDFE0BF1010BB0E703
:101C1C0020492046FFF7B6FEC5E7059B3B440593DC
:101C2C00049BDB1B04939AD1BAF1000F7FF41FAF16
:101C3C00204609B0BDE8F04F04F05ABA064A0549EF
:101C4C002046FFF79FFE15E72D7C0008317C00082D
:101C5C00F8760008567C0008287C0008597C00089F
:101C6C00608400205C8400203A7C00080C7700081B
:101C7C005D7C0008637C00084D610008176100085A
:101C8C0041260008707C0008687C0008727C000803
:101C9C00747C00086E7C000873B542F20F738B42A3
:101CAC0028BF0B4605680F4A04460521684603F019
:101CBC0081FB63680C495B6806460B22284604F0DE
:101CCC0009FA63683246694628465B6804F002FAF2
:101CDC00636806495B681B22284604F0FBF902B0D6
:101CEC0070BD00BF2E800008937C0008777C000834
:101CFC00074A00210123904206D8064A01B9012364
:101D0C001360054B1860704740085B000121F2E737
:101D1C0040420F005C84002060840020F8B5074F1F
:101D2C000D4604464618B44201D12846F8BD14F8B5
:101D3C00011BBB6801485B689847F4E7FC7200081C
:101D4C00014B0360002070475477000808B5034826
:101D5C00034A0021121A04F06FFA08BD100100208A
:101D6C00B48500200748084A084908B5121A04F03F
:101D7C0065FA0748074A0849BDE80840121A04F0FA
:101D8C005DBA00BF000000200C0100206486000832
:101D9C0000000020000000206486000830BFFFF720
:101DAC00FDBF00BF2DE9F0410B4EDFF8308006EB94
:101DBC000807CC1B054632460949204605F071F947
:101DCC00A01942460021083C05F079F92C6707F16F
:101DDC000800BDE8F08100BF000000000400000016
:101DEC00CC760008054B5A699B689A421FBF044A7F
:101DFC00536843F080535360704700BF80850020C8
:101E0C0000ED00E070B5264B15469A6A12F0100FE3
:101E1C009A6A14BF1124102412F0080F9A6A18BF82
:101E2C001224920706460AD5586B9A6A140634D5C2
:101E3C0019B19A6A22F080029A62132401E06FF0C1
:101E4C001500174B9A6A12F0010F9A6A18BF1424E6
:101E5C0012F0200F9A6A18BF1524D20602D49B6A7E
:101E6C009B070AD50E4B5B68190506D5314600F069
:101E7C0001FA10B180F309880224094B9A6A920680
:101E8C0042BF5A6A22F400525A629A6A42F0FF0226
:101E9C009A6200232B70204670BD6FF01500CCE7C2
:101EAC0000ED00E0134B9A6A12F0007F9A6A14BF9F
:101EBC001E201D2012F0807F9A6A18BF1F2012F47A
:101ECC00002F9A6A18BF212012F4802F9A6A18BF2B
:101EDC00222012F4003F9A6A18BF232012F4803F8C
:101EEC009A6A6FEA02426FEA12429A6218BF242081
:101EFC00704700BF00ED00E010B5194B0246986A20
:101F0C009C6A10F4805F14BF1720162014F4006F25
:101F1C009C6A18BF1820A40509D5986B986A000410
:101F2C0004D51AB19A6A22F400429A6219200C4B19
:101F3C009A6A12F4806F9A6A18BF1A20D2050CD4D0
:101F4C009B6A13F4005F18BF1C20054A936A43F484
:101F5C007F43936200230B7010BD1B20F5E700BF7D
:101F6C0000ED00E0F0B5484B5B688BB00446C3F362
:101F7C000803002585F31188BFF36F8F02F07F40B3
:101F8C00B0F17F4F11D102F00C0008280DD01007D2
:101F9C004CBF0C4601250022033B8DF80720032B78
:101FAC0005D8DFE803F0246367602C46F3E70023D1
:101FBC009DF80720CAB902AE04F1200720686168B9
:101FCC00324603C20834BC421646F7D1099A002D9A
:101FDC0054D0C2F3080121B96FEA52226FEA4222AF
:101FEC00099202A9184604F02BF90BB0F0BD264B50
:101FFC00DA6A9107DBD4DA6A002AD8DBDA6A520093
:10200C00D5D55A69A16942F480725A61BFF34F8FDA
:10201C00BFF36F8F5A6931F8021C22F480725A6137
:10202C00BFF34F8FBFF36F8F4DF6027291420AD000
:10203C009A6AD2B24AB10DF1070201212046FFF78C
:10204C00E1FE0346B4E72368B2E79A6A12F47F4FC5
:10205C0005D00DF107010120FFF74EFFF1E79B6A58
:10206C00B3F5803FA3D3FFF71DFFEAE70DF107029D
:10207C000021E3E70DF107010020EDE722F4FF72E8
:10208C0022F00102ACE700BF00ED00E0044B5A69FE
:10209C0042F010025A615A6922F008025A617047E4
:1020AC0000ED00E0EFF30880EFF3098101B5724613
:1020BC00FFF758FF01BD00BF0A4880F308881020C5
:1020CC0080F3118808484FF40461401880F30988A4
:1020DC00EFF314800221084380F31488BFF36F8F51
:1020EC0000F090F8C096002000890020084B9B68F7
:1020FC0083420BD1EFF3058343B1064B5A6842F090
:10210C0080525A605A6A22F400425A6202F03ABE75
:10211C008085002000ED00E014498A684FF0300003
:10212C001044EFF3098C80E8F01F102080F3128824
:10213C00BFF36F8F0E4F4FF000664A698A603E60A6
:10214C00106F0C4C2060506F0023536780F3118884
:10215C0004B5104600F0F8F8BDE8044002F1300078
:10216C0090E8F01F8CF309887047000080850020F0
:10217C0004ED00E0888400201EF0040F0CBFEFF388
:10218C000880EFF30980816911F8021C0229FFD045
:10219C0001B5724604F05AF801BD00BF40B20028E8
:1021AC0007DB044A4109012300F01F00834042F879
:1021BC002130704700E100E040B20028A8BF00F1D8
:1021CC00604001F10101B8BF064B4FEA0111ACBFF1
:1021DC0000F5614000F00F00C9B2B4BF195480F88B
:1021EC000013704714ED00E0044B054A23F07F0305
:1021FC009360BFF34F8FBFF36F8F704700000008E1
:10220C0000ED00E008B5FFF7EFFF0B4AD2F888307D
:10221C0023F47003C2F88830EFF3148323F0040323
:10222C0083F31488BFF36F8FFFF790FDFFF79AFDD0
:10223C0000F05AF802F054FA00ED00E042F8203CAD
:10224C00009B42F81C3C0A49019B42F8183C029B3B
:10225C0042F8143C21F001014FF0807342F8043C29
:10226C0042F8081C0023203A02654367704700BF00
:10227C0021120008094A0346906870B113F1160F39
:10228C00006E05D0A0F140029A4205D8834203D2D9
:10229C00814228BF002070470020704780850020B5
:1022AC0008B515460B4A0C4B9060026F1A600E462F
:1022BC0000F04AF82C4686F309880020034B984717
:1022CC002046002100220023014C20477D6200089B
:1022DC00211200088085002088840020014B1022E8
:1022EC001A61704700ED00E0044800231021C21869
:1022FC000133532B82F80013F9D1704700E100E051
:10230C0008B5EFF30583064A103B02EBC30152F804
:10231C00330049688847BDE80840FFF763BD00BF3C
:10232C005073000801480068704700008884002042
:10233C00024B034A0348012100F08AB80000012037
:10234C000000002054770008026E054B403A1A60DA
:10235C00044A4021C3E901121846012100F082B859
:10236C008C84002000000B1508B503461048D0F8EB
:10237C009020C2F30722013A934207D90D480E4A26
:10238C00012103F091FE6FF0150008BDC0F89830E4
:10239C000A6822F01F021A4342F01002C0F89C2077
:1023AC008A6842F00102C0F8A0201846EDE700BF91
:1023BC0000ED00E084760008DD7C0008F0B50E46E8
:1023CC0085B01F4604460025B5420DDA606810B38F
:1023DC0097B1431E18420AD0104A11482B460121CE
:1023EC0003F062FE6FF01502104605B0F0BD1F2819
:1023FC00F2D921680B42EFD12368019303F04CFF13
:10240C00A36801A90343D0B20393FFF7ADFF10F10A
:10241C00160FE7D0421C01350C34D5E7037D0008BC
:10242C0084760008044B0522C3F89420BFF34F8F29
:10243C00BFF36F8F704700BF00ED00E0BFF35F8FFD
:10244C00024B0022C3F89420704700BF00ED00E05F
:10245C0010B5034C01232278FFF7B0FF207010BD9C
:10246C00AF85002008B50B4A00231278FFF7A6FFB2
:10247C0010F1160F07D0084A0021D2F89030C3F3A0
:10248C000723984200DB08BDC2F89800C2F8A010E0
:10249C000130F2E7AF85002000ED00E02DE9F043BC
:1024AC005E485F49D0F890300D68C3F307239D4216
:1024BC0085B000F2B080FFF7C1FF49680022954259
:1024CC0001F10C011BD1574C574F25706846FFF793
:1024DC0037FCDFF85881DFF8589106460025AE42EC
:1024EC0020D123784D490020D1F89020C2F3072247
:1024FC009342C0F28A80FFF795FF00204FE0C0F8AE
:10250C00982051F80C3C23F01F03134343F01003A5
:10251C00C0F89C3051F8043C43F00103C0F8A030E3
:10252C000132CCE7009800EB05114FEA051CCB6893
:10253C003B40B3F5000F49D00AD8B3F5001F31D09A
:10254C00B3F5800F37D0B3F5801F13D00135C6E734
:10255C00B3F1007F43D0B3F1805F49D0B3F1807FFA
:10256C00F4D150F80C3088684A6803F095FE40F0BE
:10257C00887009E050F80C3088684A6803F08CFECB
:10258C0040F0885040F43020039001A92078CDE928
:10259C000123FFF7E9FE002833DA6FF0150005B0D0
:1025AC00BDE8F08350F80C3088684A6803F074FE7C
:1025BC0040EA0900E8E750F80C3088684A6803F0F4
:1025CC006BFE40F0C06040F40030DDE750F80C309A
:1025DC0088684A6803F060FE40F08270D4E750F8D7
:1025EC000C3088684A6803F057FE40F48020CBE733
:1025FC0050F80C3088684A6803F04EFE40EA080038
:10260C00C2E7237801332370A0E7C1F89830C1F8F2
:10261C00A000013368E74FF0FF30C0E700ED00E0A9
:10262C0060770008AF8500200000F0FF0000021169
:10263C0000000811F0B587B007460E46144600217D
:10264C00102268461D4604F03AFD02238DF8023034
:10265C002A46054B019321466846CDE9047602F0E3
:10266C00D3FE07B0F0BD00BFC562000808B5024B31
:10267C001B689847002008BD98840020034B044A2F
:10268C001860937843F0020393707047988400208D
:10269C001000002008B50649064821F00701C1F1D9
:1026AC00005202F5803203F038F9002008BD00BF5B
:1026BC00079700209C84002007B5094A92E8030084
:1026CC006B4683E8030007488268126822B11946FA
:1026DC00904703B05DF804FB6FF05700F9E700BFBB
:1026EC00CC7600083872000800F01F0201213F2848
:1026FC0008B501FA02F2034605D90848084A03F066
:10270C00D3FC002008BD074B1F2894BF5B695B6B93
:10271C009A430CBF01200020F4E700BF6476000848
:10272C00387D00080004014000F01F0201213F2801
:10273C0008B501FA02F2034606D90748074A03F026
:10274C00B3FC6FF0150008BD1F28054B02D85A6169
:10275C000020F8E75A63FBE764760008387D000830
:10276C0000040140044B184400230133994200F843
:10277C00012BFADC704700BF9C0000202DE9F041D2
:10278C00104F054600264FF001086B78F4B2A342B7
:10279C0001D8BDE8F0812B781C442046FFF7A4FF3C
:1027AC0068B12046FFF7C0FF57F834303BB107EB58
:1027BC00C40204F01F04516808FA04F0984701366B
:1027CC00E3E700BFA8840020034660B1B0FA80F2B2
:1027DC00C2F11F02D2B205498856054A11680B4353
:1027EC001360FFF7DBBCFF22F5E700BF9C00002065
:1027FC0000040140024A136823EA00031360704787
:10280C0000040140032921D8DFE801F0020C101963
:10281C000F4B9A6822EA00029A60DA6822EA0002F8
:10282C00DA6070470A4B9A680243F5E7084BDA689E
:10283C000243DA609A6822EA00029A607047044BFD
:10284C009A6802439A60DA681043D860704700BFF8
:10285C000004014030B5B0B1B0FA80F3C3F11F03EE
:10286C00DBB20B4850F833408C4204D100EBC3056B
:10287C006D68954205D044B940F8331000EBC300A5
:10288C004260002030BDFF23EBE76FF00F00F9E74B
:10289C00A884002060B1B0FA80F3C3F11F03DBB24F
:1028AC00044A002142F8331002EBC3025160704716
:1028BC00FF23F5E7A884002000F003020432920005
:1028CC000F23934043EA900000F003030233064ABF
:1028DC0052F82320030C02EA104093FAA3F3B3FA44
:1028EC0083F3D840704700BF000001402DE9F04150
:1028FC008AB000AF022390463A1DC7E90423FB605F
:10290C0007F10803BB6107F110020123C7E9082393
:10291C00FB618B000E4643F020034168BF603B70A7
:10292C00002305467B7051F8040B07F1200307F1D7
:10293C00180203F036FD0446C0B12B686D468AB010
:10294C006A461649D061C2E905134FF4007313842B
:10295C00134B42F8103F4FF41151124803F02DFD68
:10296C002046AD462837BD46BDE8F0817B7988F816
:10297C00003029686D468CB06A460B485061C2E93C
:10298C0008630A4840F201331385094BC2E906017A
:10299C0042F8103F4FF45451DFE700BF867D00082A
:1029AC000400000154760008BC7D00088F830008E9
:1029BC0006000001F0B587B000AF3B1D07F108021F
:1029CC00BB606E4601238AB0C7E90423FB604468F0
:1029DC000368397105466A461948506119481162F5
:1029EC00C2E9060340F201339384174B42F8103FBF
:1029FC0016484FF4345103F0E0FC2146B54651F82B
:102A0C00040B002307F1100203F0CBFC044690B139
:102A1C008AB02B686A460E49D061C2E905134FF49F
:102A2C00007313840B4B42F8103F08484FF41151BC
:102A3C0003F0C3FCB54620461C37BD46F0BD00BFB5
:102A4C00EB7D0008A5830008050000015476000802
:102A5C000A7E0008040000012DE9F04788B00369E4
:102A6C00D0F804A003EB01080C4698F8B8302849BC
:102A7C00934202AF164615D16D4688B002AA254B7B
:102A8C00D461C2E90531042342F8103F22484FF4C7
:102A9C00045103F092FCAD46002528461837BD467C
:102AAC00BDE8F087A30043F040033B713B1DBB60C6
:102ABC000223FB604FF0010907F108036D468AB051
:102ACC007A713B61C7F8149002AA144B1248C2E900
:102ADC0005310523C2E907464FF4245142F8103F53
:102AEC0003F06BFC5146AD4651F8040B002307F183
:102AFC00100203F056FC054610B988F8B860CBE715
:102B0C00074A009023460448494603F0D7FAC4E725
:102B1C00788300082D7E0008547600084E7E00084D
:102B2C006E7E00082DE9F04F83B00A79D0F804B01E
:102B3C0012F01F0802AF064689460BD0794A7A4834
:102B4C00012103F0A8FA6FF0150420460437BD46A6
:102B5C00BDE8F08F90064B79897923D53BB90129D3
:102B6C005DD002295DD003290ED1202421E0012B58
:102B7C0006D1022957D0032957D029B9602418E06F
:102B8C00022B09D1032952D0684A009166480121D1
:102B9C0003F094FA664AD2E7032BF5D10229F3D15C
:102BAC00702406E0032B30D8DFE803F002433537FE
:102BBC008024604812F0200FEA468CB05E4A02ADC9
:102BCC0018BF02465D486861C5E908235C48A962E4
:102BDC002A4640F20243AB855A4BC5E906044FF432
:102BEC00745142F8103F504803F0E7FB99F800206D
:102BFC00A2F10903D5460B2B44D8DFE803F0494B6F
:102C0C00431C4339433B433D3F414F4946481A46D9
:102C1C0003F0D6FBBEE7A024CBE7B024C9E71C46E3
:102C2C00C7E71024C5E73024C3E74024C1E750248C
:102C3C00BFE79024BDE704229BF82E3014430BB160
:102C4C0044F00104B9F8023023B1404A364802215D
:102C5C0003F021FA99F801209BF82CA09BF82D5039
:102C6C00062A36D8DFE802F0323535351A3A180024
:102C7C000622E1E70822DFE70A22DDE70C22DBE788
:102C8C000E22D9E73249284803F09AFB314A56E71D
:102C9C000022D1E70222CFE74FF08008BBF82A20B0
:102CAC002D49002331F8230090421AD12B4A0021E0
:102CBC0012F8239030462246FFF7CEFE041E15DA9A
:102CCC0027492246184803F07BFB3EE74FF0C0082B
:102CDC00E4E72449144803F073FB34E74FF0400851
:102CEC00DCE70133082BDDD11F49F3E7EA0042EAA8
:102CFC004A1202F0F80201213046FFF7ADFE041E25
:102D0C0002DA1A492246DDE749EA08020221304676
:102D1C00FFF7A2FE041E02DA15492246D2E7002470
:102D2C0013E700BF997E000854760008C77E0008A0
:102D3C00047F00088E7E0008937E0008307F000818
:102D4C006283000807000001EE7E00089D7F0008EA
:102D5C00697F00087A7F00081E7A00081C7A000838
:102D6C0015800008E47F0008FA7F00083180000815
:102D7C004D8000082DE9F04F8DB0D0F8109002AFC7
:102D8C0005460E4609F140084FF0FF334FF0FF3275
:102D9C00404601F041FD337C2C69182B10D01822D1
:102DAC000092B648B64A012103F088F96FF0150A73
:102DBC00404603F0FCFA50462C37BD46BDE8F08F78
:102DCC007168012905D00A46AC48AE4903F0F8FAFF
:102DDC00ECE7737C33B1AC4AA84803F05CF96FF0B4
:102DEC00850AE5E7336873B19A8901329200F3687A
:102DFC0093420AD2A14800920121A44A03F05EF941
:102E0C006FF00B0AD4E70422F1E7D6F808E0C4F817
:102E1C0090E0B246BAE80F0004F1640CACE80F0085
:102E2C00DAF80030CCF800304FF0000CC4F860C079
:102E3C003368002B5CD00FCB04F1780686E80F00CA
:102E4C006666A4F888C0002852D0BFF35B8F54E8A4
:102E5C00003F44E800C2002AF9D1BFF35B8FA06F9A
:102E6C0063304CF1000164220023FDF70DFC0022BD
:102E7C00CDE90001002304F1080002F05DFA002204
:102E8C00002309F1500001F0C7FC824600288FD0C6
:102E9C002C6904F1A8064FF0FF324FF0FF33304697
:102EAC0001F0BAFC0022002304F1980001F0B4FCFC
:102EBC0008212846FFF77EFD824600B329686D463F
:102ECC0088B002AA7248C2E905014FF400719183DF
:102EDC00704942F8101F69484FF4E25103F06DFA43
:102EEC00AD46C4F860A004F1500003F060FA5FE74F
:102EFC00C4F894E004F1A80003F059FABFE728697C
:102F0C00983040F6C412002301F086FC824628B1AA
:102F1C0029686D4688B002AA5F48D4E70423FA18E2
:102F2C00C7E90423FB6007F10803BB6107F110023A
:102F3C000123C7E90823FB616968BF6010233B705C
:102F4C00D4F890B051F8040B07F1200307F11802E4
:102F5C0003F027FA824638B36E468AB0296802AA73
:102F6C004E48C2F81CA0C2E905014FF400794C4947
:102F7C00A2F82090414842F8101F4FF4115103F071
:102F8C001CFAB54688B0296802AA4648A2F81C90DB
:102F9C00C2E905013F4942F8101F38484FF4E2518D
:102FAC0003F00BFAB5469CE7BB797A79F9791B02E9
:102FBC0043EA024319431B024CBF41F07F430B46CB
:102FCC00CBF80030EB468CB0286802AADFF8D8C0EA
:102FDC00C2F814C0C2E90813DFF8D0C040F20133C4
:102FEC001385334BC2E906C04FF4545142F8103FDD
:102FFC00224803F0E2F9D4F890300433C4F890304E
:10300C00636EDD46B3B3E36FB4F888203BB104F1D3
:10301C00640128469847012812D0022824D0B4F81D
:10302C008830B4F884209A421ED90133A4F8883031
:10303C00A36F53B9D4F89030C4F8943030465BE7A2
:10304C00D4F89430C4F89030F2E7BFF35B8F54E8B7
:10305C00003F5A1E44E800210029F8D1BFF35B8FD2
:10306C00012B7FF70CAFE5E7A36F1BB104F1080050
:10307C0003F0FBFF04F150003EE700BF547600085C
:10308C00698000088B800008BD800008D88000088B
:10309C00FA80000803000001208100084881000824
:1030AC0004000001708100088A8100084E8300082A
:1030BC00060000012DE9F84F814600AF456806690E
:1030CC00994A9A48032102F0E6FF9949002206F139
:1030DC00080003F0BEFF06F1400801220021404623
:1030EC0003F09CFE0122002106F1500003F096FE35
:1030FC000122002106F1A80003F090FE012200211C
:10310C0006F1980003F08AFE286803F062FEC8B945
:10311C006C4688B0D9F800306A4686498348C2E9C3
:10312C0005134FF400739383834B42F8103F4FF415
:10313C00E25103F042F9A5466FF012042046BD4659
:10314C00BDE8F88F2B7E23B1E86803F042FE00281F
:10315C00DED0286A03F03DFE28B9784A7348012175
:10316C0002F099FFE8E7EB8C286A95F8241043F4F9
:10317C008032D0F810C0D0F808E013F0010F4FF0F7
:10318C000104DCF8003004FA01F414BF2343A34318
:10319C00CCF80030DEF800309847041E05DA684998
:1031AC002246624803F00CF9C8E795F82430654ACA
:1031BC004FF0010A0AFA03F3C6E93023286A836840
:1031CC00DB6906F1BC0133B152469847041E05DA9F
:1031DC005D492246E5E76FF05704F9E7286A95F850
:1031EC002410EB8C84680269A469DCB112680AFAB9
:1031FC0001FA1AEA020F03F040030CBF43F0B86364
:10320C0083F0707323F0794323F47F0323F47F431B
:10321C0023F0BF034FF0A072A047041E05DA4B4900
:10322C002246BEE76FF05704F9E7322003F0BBFEED
:10323C006C4688B0D9F804B06A46454B53614FF0E0
:10324C00030A444B9361394842F810AF4FF4C8510C
:10325C0003F0B3F80621A5464846FFF7ABFB041E66
:10326C0007DA3D493148224603F0AAF83B49224689
:10327C0097E79BF82C309BF82D2003EB430313446A
:10328C00374A52F823004FF47A734001B0FBF3F045
:10329C00323003F088FE334A2448514602F0FBFEDC
:1032AC0006F1B80200214846FFF720FB0446B0B9EE
:1032BC0006F1B90201214846FFF718FB044670B924
:1032CC0006F1BA0202214846FFF710FB044630B95A
:1032DC0006F1BB0251464846FFF708FB0446002C9A
:1032EC0002DA214922465CE795F82820032148465A
:1032FC00FFF7B2FB041E02DA1C49224651E705F126
:10330C0030014846FFF70EFC041E02DA184922462B
:10331C0047E7C82003F047FEB36C13B9404603F0EF
:10332C0046F800240AE700BFA9810008547600087B
:10333C00D7630008C281000803000001DE81000889
:10334C00F7810008BF630008198200083982000861
:10335C0060820008BA8300087E8200089F82000801
:10336C00C4770008BA820008E88200080E830008BF
:10337C002A830008024B1868C0F38020704700BFF6
:10338C000010024038B52F4B18680B88C3F30B03A1
:10339C000C2B0D46144624D813B96FF0850031E080
:1033AC00013B0B2BF9D801A252F823F0053400088D
:1033BC003F340008E93300083B340008A733000809
:1033CC003F340008053400080534000805340008B3
:1033DC0013340008233400082F3400084FF4FA404B
:1033EC000AE003F6B873C3F30B03182BD5D8164AAF
:1033FC0022FA03F3DB07D0D520602B68B3F5805F8E
:10340C0019D2002038BD00F0BBF814235843072311
:10341C00B0FBF3F0F0E700F0B3F814235843400886
:10342C00EAE700F0ADF8142358438008E4E70748B6
:10343C00E2E70020E0E7C3F313330133B0FBF3F012
:10344C002060DEE784000020110111010024F4004B
:10345C00F8B5474F474C00F0A9F8384603F060F830
:10346C0000F0D4FFA368444AC3F303131578D35C6C
:10347C0047FA05F520FA03F6AE4202D2284601F0CF
:10348C0013F8FFF777FF012807D0236843F4807304
:10349C002360FFF76FFF0128FBD1D4F8943043F081
:1034AC000103C4F89430D4F894309907FBD5A36881
:1034BC0003F00C030C2B1AD1FFF75CFF012807D08B
:1034CC00236843F480732360FFF754FF0128FBD17A
:1034DC00A36823F0030343F00103A360A36803F084
:1034EC000C03042BFAD1A36823F0F003A360236828
:1034FC0023F08073236023689A01FCD4E36823F4DF
:10350C00003343F06053E360E36843F48033E360DB
:10351C00E36823F4C003E360E36843F48013E360DF
:10352C0000F032F8236843F08073236023689B011A
:10353C00FCD5A36823F0F003A360A36843F0030356
:10354C00A360A36803F00C030C2BFAD1AE4202D398
:10355C00284600F0A9FF094B1F60A36823F4E06321
:10356C00A360A36823F46053A3600020F8BD00BFE0
:10357C0000B4C40400100240098600088400002036
:10358C00004870470024F400054B0649DA681140E6
:10359C00054A0A43DA60DA6842F08072DA607047F2
:1035AC00001002408C80FFF902140002064B9A6D49
:1035BC0042F080529A659B6D82B003F08053019368
:1035CC00019B02B0704700BF0010024008B50748CD
:1035DC0003F0FFFB38B10648FFF750F80448FDF73D
:1035EC0013FE002008BD6FF01200FBE7FC72000810
:1035FC00013600080A2838B5074D044604D1AB68DB
:10360C000D215B6828469847AB6803485B68E1B2BC
:10361C009847204638BD00BFFC7200082DE9F843DE
:10362C00D0F80480D0F81090D8F8080017460D4652
:10363C001E4602F095FEB7F5001F044616D128462B
:10364C00D8F80840FFF738F984420CD1294602F02B
:10365C0087FE0446FFF7CEF82046FFF71BF9002142
:10366C002046FFF7CFF80020BDE8F883B7F5800FB0
:10367C0020D0B6F1806F19D0B6F1C06F18D0B6F16A
:10368C00007F1AD1022610494A462046FFF7E2F87D
:10369C00B0B9D8F80810284602F067FE204631462B
:1036AC00FFF7B0F82046FFF78FF8DCE70126EAE7D2
:1036BC000326E8E76FF08500D6E76FF01500D3E737
:1036CC006FF00F00D0E700BF9B67000808B50369D7
:1036DC0058604168054883681B680C311BB19847DA
:1036EC0000EAE07008BD6FF05700F9E73872000887
:1036FC002DE9F0471E4F044600EBC1060025B442ED
:10370C0001D1002014E02068C30600F01F0911D479
:10371C00656845F02005C0F3481AC0F34420192809
:10372C0023D857F82080B8F1000F0DD16FF012009C
:10373C00BDE8F087B9F1100F04D0B9F1110FEAD13F
:10374C006568E8E73025E6E7404603F042FB0028D1
:10375C00ECD04B462A460AF00F01404603F02DF8F8
:10376C00002804F10804CADAE2E76FF01500DFE77D
:10377C00687800082DE9F04182B0436800AF1E68FC
:10378C0080460D46002936D0586819698368DB6875
:10379C006BB13A1D9847041E0CDA1A4A1A480121DB
:1037AC0002F079FC20460837BD46BDE8F0816FF089
:1037BC005704F2E7336823F4004333607B6803EB70
:1037CC005503B3FBF5F30F2B18D86C468AB0D8F819
:1037DC0000306A460D49D561C2E905134FF40073F8
:1037EC0013840B4B42F8103F074800234FF4115140
:1037FC00FDF7E8FFA5466FF01504D3E79BB2F36025
:10380C000024CFE730840008B47600085E840008FA
:10381C0004000001F8B50C46036941681D68237962
:10382C00012B16D09F1E7E427E41B6026279022A7F
:10383C009CBF474F37F81270A27988BF4FF40057DE
:10384C00022A09D0042A30D0003B18BF01231B03E5
:10385C0006E04FF4C066E9E7B3FA83F35B091B0794
:10386C00E2790968012A14BF4FF0000C4FF4407C38
:10387C00A5421DD10A6822F0805222F4B052324384
:10388C001A430A604B6823F440533B434B60436834
:10389C001A68936823F4407343EA0C039360296815
:1038AC00FFF768FF00EAE070F8BD4FF48053D7E7EC
:1038BC00D1F800E00EF4C06E76451FBFD1F800E0E1
:1038CC002EF4C06E4EEA06060E6041680E687168F2
:1038DC0001F440518F421FBF716821F440513943AC
:1038EC00716041680E68316801F010218B421FBF76
:1038FC00316821F010210B433360436819688B68E1
:10390C0003F440739C451FBF8B6823F4407343EA58
:10391C000C038B6043681B689968490405D5032A1E
:10392C0009D09A6822F4804204E0032A03D19A68F1
:10393C0042F480429A6021682B68994205D0FFF7C7
:10394C0019FF0028B0DB23682B600020ACE700BF18
:10395C003C7A00082DE9F04182B04568064668685B
:10396C00296983681B6800AF5BB9594A5948012122
:10397C0002F091FB6FF0570420460837BD46BDE8B6
:10398C00F0819847044618BB686A3A1D002102F082
:10399C0029FF041EF0DB7B68002219791868FFF7F9
:1039AC00A7FE041EE8DB756833692C68D3F8008029
:1039BC00236823F001032360A86803F00AFA78B99E
:1039CC00454A4448012102F066FB6FF01204D3E72C
:1039DC003F4A4048012102F05EFB002CCCDBD3E7D0
:1039EC00D5E902018368DB6803B1984754E8003FCE
:1039FC0043F00C0344E80032002AF7D1414630462C
:103A0C00FFF708FF002839DB2B7E1BB1A36843F0BE
:103A1C000803A3606B7E1BB1636843F400436360CF
:103A2C00AB7E1BB1636843F480336360EB7E1BB1E8
:103A3C00636843F4003363602B7F002B3BD0274B30
:103A4C009C421ED0A3F574439C421AD003F57053CC
:103A5C009C4216D06C4688B033686A462049C2E94D
:103A6C0005134FF4007393831E4B42F8103F194813
:103A7C0000234FF4E251FDF7A5FEA5466FF01504A7
:103A8C007AE773681A68936843F4804393602368F9
:103A9C006A7F23F0787343EA425323602368AA7F3A
:103AAC0023F4F81343EA02432360EB7F1BB1A368B2
:103ABC0043F40043A360236843F001032360E369EC
:103ACC009A02FCD5E3695B02FCD5002454E700BFE5
:103ADC0075840008B476000895840008003801400D
:103AEC00B084000803000001F8B5436891F805E0C4
:103AFC001C680369024608791D688B7901280E46FB
:103B0C0013D1BEF1020F55D9022B1F464FF4C061E1
:103B1C004FF4005C66D0042B5FD0002867D0C31E26
:103B2C00012B5CD86FF08500F8BD02280AD1BEF1DC
:103B3C00020F4BD9022B1F464FF480610BD04FF470
:103B4C00005CE8E7BEF1020F43D9022B1F4642D1BD
:103B5C00002857D00021C31E012BE3D900200227D7
:103B6C0003239E45DED102F088FEB842DAD1F37908
:103B7C0063B1012B4ED1294B9C4207D0A3F5744362
:103B8C009C4203D003F570539C42CBD1236823F0A5
:103B9C000103236031461046FFF73CFE0028C1DBD1
:103BAC00236843F00103236096E8030085E80300D3
:103BBC000020B9E74FF4C061194F022B37F81EC033
:103BCC001F46A8D170B94FF0805010E04FF48061BF
:103BDC00F2E70021F0E70021B1E70028A2D14FF471
:103BEC00805004E0C31E012B9CD902270020BCF599
:103BFC00805F0BD0BCF5405F0AD0BCF1000FAFD199
:103C0C000123AEE701464FF08050A9E70023A8E757
:103C1C000223A6E7032BAED084E700BF0038014097
:103C2C003C7A0008B0B582B00446806810F4B870D5
:103C3C0000AF1FD06D468AB06A46104B5361104BD3
:103C4C00C2E906304FF4007313840E4B42F8103F58
:103C5C0000230D484FF41151FDF7B4FDA3685B062A
:103C6C00AD4605D5E3687B607B68A3687B607B68A9
:103C7C006FF004000837BD46B0BD00BFED840008EE
:103C8C00E085000804000001947600082DE9F04757
:103C9C00436805699B6800AF04469847284602F0C4
:103CAC006CFF6068012102F008FF002802DA10F1B5
:103CBC00860F16D1656826690021284602F0FDFEA4
:103CCC00041E0CDB2F48296983681B6863B1984775
:103CDC00044660B12C4A2D48012102F0DCF904EABB
:103CEC00E470BD46BDE8F0876FF05704F2E7B568A5
:103CFC004FF00108D6E9023203EBC2039D42EED22B
:103D0C00286803F066F80346C0B92A682979106858
:103D1C006C468AB06A461E4DD1614FF40071118415
:103D2C001C49C2E9055042F8101F18484FF41151B4
:103D3C00FDF748FDA5466FF01204D0E728682979F5
:103D4C00EB88D0F810E0D0F808A0DEF800C0DA0755
:103D5C0054BF43F4B01383F4D01323F4801208FA45
:103D6C0001F9DB074CBF4CEA09032CEA0903CEF836
:103D7C000030DAF800309847002801DB0835B9E745
:103D8C000446ACE738720008F88400089476000802
:103D9C0013850008040000012DE9F04F85B005697A
:103DAC0000AF82460E469846914612B9002B00F0A1
:103DBC000C82B3889A042FD44FF0FF324FF0FF33AC
:103DCC0005F1100000F028FD6E60DAF810307B6011
:103DDC001B68DAF804B0B288DBF800409E422DD1A3
:103DEC00130540F10181236823F44443B9F1000F1A
:103DFC0019D043F440432360B388C3F34513082B15
:103E0C0000F2F8800126D9F800306B63002B00F02B
:103E1C00FB80D9F80430F8E0AB69002BCCD16B688F
:103E2C009E42C9D1D1E743F400432360B388C3F366
:103E3C004513082B00F2DE800126E3E0DBF81410BA
:103E4C000229C2F345131DD003291ED001294FD1DD
:103E5C00043B1C2B8CBF00230123D3B96FF08502CC
:103E6C002B6813B19B889B0407D400237A606B608A
:103E7C0005F1100000F09CFC7A6810461437BD4622
:103E8C00BDE8F08F043B0C2BE4E7082B01D0102B82
:103E9C00E4D163681004AF484CBF43F0100323F027
:103EAC00100363608368DBF81010DB6833B307F131
:103EBC000C029847002821DBFB6800223068114671
:103ECC00013223FA02FC844520D82368A24A23F04D
:103EDC0040032360236852F8212023F03803134356
:103EEC002360B38899072AD4236823F0020329E0BE
:103EFC009A4A9B48012102F0CEF8AFE7994A9848BC
:103F0C00012102F0C8F86FF00402A9E7082AD5D104
:103F1C006C468AB06A469449C2E9051059081B0AD6
:103F2C0013620523D16142F8103F8D4800234FF4F2
:103F3C002151FDF747FC6FF01502A54690E7236869
:103F4C0043F002032360B38813F0040F236814BFFB
:103F5C0043F0010323F001032360B38813F4006FD3
:103F6C00236823F4444305D0B9F1000F00F0C78057
:103F7C0043F440432360B38813F0100F236814BF3D
:103F8C0043F0800323F080032360236823F4005361
:103F9C002360337D23B99BF818305A0740F1B28067
:103FAC00236843F400732360636823F004036360A5
:103FBC00B3886E4913F0010F236814BF23F4827386
:103FCC0043F482732360B2886368C2F34512043AE7
:103FDC0023F4706351F8222013436360636843F445
:103FEC00805363607B681E60B388C3F34513082B52
:103FFC0040F29780102B8CBF04260226B9F1000FDB
:10400C007FF401AF00236B630023AB6305F148021F
:10401C00334605F1380105F1340002F0E4FC686424
:10402C00B8F1000F7FD1C5F83C8000232B6405F15B
:10403C005002334605F1400105F13C0002F0D3FC7F
:10404C000023E8642B63DAF804302668D3F8009078
:10405C00D9F8003043F04003C9F80030DAF810A06A
:10406C00DAF8000006F4444650B1037D43B1012157
:10407C00083002F037FDDAF80030186902F083FEE0
:10408C00D9F8043043F02003C9F80430B8F1000F1C
:10409C0005D0D9F8043043F04003C9F80430D9F8FE
:1040AC00043043F08003C9F804304FF4FA584FF051
:1040BC000A0905F1200A0023A86B194681423BD15D
:1040CC000021D5F840C0084660453CD18B4238BF32
:1040DC000B4608FB03F22B681B68B2FBF3F2C832E9
:1040EC00A2FB0923504600F097FB002842D0204A3F
:1040FC001B48012101F0CFFF6FF07302B0E643F4CF
:10410C00004337E7B38813F0010F236823F40073DF
:10411C007FF449AF43F480232360636843F00403C6
:10412C0045E701266AE7D8F80030EB63002B3FF433
:10413C007CAFD8F8043079E76A6B02EBC10201312D
:10414C0052681344BAE7EA6B02EBC00201305268C2
:10415C001144B9E738720008247900083785000843
:10416C00947600085F850008B1850008A0790008E6
:10417C008B8500082A6B002A7FF472AEB6F5404F8F
:10418C001AD1AB6CABB92B6D9BB1DBF80030196855
:10419C0021F4444141F400411960196841F0400197
:1041AC001960596841F020015960596841F040018B
:1041BC005960266806F44446AB6C002B7FF47BAF49
:1041CC002B6D002B7FF477AF4AE61A4655E600BFFD
:1041DC0010B54FF0E0230F499C691A6908689B6978
:1041EC000D4902F4803234B993B903464AB90A68CE
:1041FC001044C01A10BD002B08BF03460AB9A342D5
:10420C00F5D90A6802440A604FF0E0221269EEE721
:10421C000446F3E77C85002078850020094B1022AA
:10422C0083F82320084B4FF4FA521A60074B0020F6
:10423C0018604FF0E02341F63F725A6107229861F3
:10424C001A61704700ED00E07C8500207885002025
:10425C00684620F007018D4619B5FFF7B9FF114BE1
:10426C001149D3E900420868001942F10002C3E980
:10427C0000020E4A00230B60D2E900414FF4FA53BE
:10428C00001BB0FBF3F043431B1941F10001C2E9E1
:10429C00003100F057FFFDF7A5FDBDE8194085463C
:1042AC00704700BFA08200207885002098820020F3
:1042BC002DE9F041DFF8DC8099B1421C0BD14FF0B5
:1042CC00E022136923F0010313614FF07F43C8F818
:1042DC000030BDE8F081D8F80060012807DC002729
:1042EC000BE0431CD8F80060F7D14FF4036040F6A4
:1042FC0031039842A8BF1846471EEFF311851023CF
:10430C0083F31288BFF36F8FFFF762FF224C4FF0DD
:10431C00E0239969D4E90023801843F10003C4E930
:10432C0000031E4B00221A601D4B1A68831A2ED4F0
:10433C004FF4FA5C0CFB073303F5F9531F33B3FB53
:10434C00FCF7131A0CFB0733B3F5806F154A38BF13
:10435C004FF48063934228BF13464FF0E022C8F815
:10436C000030013B90695361002393618142A1EBC2
:10437C000003D4E9001238BF9B195B1842F100020C
:10438C00C4E9003285F31188BFF36F8FA1E74FF4B6
:10439C008063E2E77C850020A082002078850020E5
:1043AC009882002000DCFF0038B5EFF31185102354
:1043BC0083F31288BFF36F8F084B1C68084B1B6884
:1043CC00E41AFFF705FF85F31188BFF36F8F4FF4E5
:1043DC00FA532044B0FBF3F038BD00BFA08200209C
:1043EC009882002038B5EFF31185102383F31288DF
:1043FC00BFF36F8F044B1C68FFF7EAFE85F311883F
:10440C00BFF36F8F204438BDA0820020224B9A68E6
:10441C00D96812F00C0205D00C2A15D101F0030159
:10442C00012918D119681D48090755BFD3F89410F4
:10443C001968C1F30321C1F3031150F8210012B123
:10444C000C2A09D000207047042A22D0082A1448CC
:10445C0018BF002070470020DA6802F00302022A1D
:10446C0015D00F49032A08BF0846D968DA68C2F389
:10447C0006224243D868C0F34160C1F302110130F7
:10448C0001314000B2FBF1F2B2FBF0F0704705488D
:10449C00EBE70448704700BF00100240D4790008D5
:1044AC0000127A000024F4001F4B421E9A4201D9DC
:1044BC00012070471D4B1B6803F4C063B3F5007FEC
:1044CC000FD11B4B98421AD81A4B984227D81A4B2B
:1044DC00984226D8194B984294BF00230123002000
:1044EC0011E0174B98420CD8A3F5F403A3F59053A5
:1044FC00984214D8134B984213D8134BEBE7042370
:10450C00EDE70023012011490A6822F007021A4343
:10451C000A600A6802F007029342C9D1704703236C
:10452C00DDE70223DBE700BFFFB3C40400700040EB
:10453C000090D003006CDC020048E8010024F40079
:10454C0080BA8C01001BB700808D5B0000200240FC
:10455C0038B5EFF31185102383F31288BFF36F8FF7
:10456C00064B9C6802F048FC85F31188BFF36F8FF3
:10457C002046BDE83840FDF7B9BD00BF808500205E
:10458C0038B50A4B53F82040013053F82050A5425F
:10459C0000D838BD606830B1037EDB0701D402F06F
:1045AC0000FC0834F3E723689847FAE7047A00081C
:1045BC0070B52A4B2A4C2B4D012286B003201A7061
:1045CC00FFF7DEFF00F0F0FE0420FFF7D9FF2646D0
:1045DC00AE4204F1300410D300F0DAFA204C224E33
:1045EC00AC4226D300F0E8FAFCF7C0F91F4A9389D5
:1045FC0023F00103938106B070BD54F80C3C059375
:10460C0054F8103C049354F8143C039354F8183C9D
:10461C00029354F81C3C019354F8203C009354E949
:10462C000A2354E90C0100F01DF954F8303C5E6586
:10463C00CDE7D4E90A23B3F1FF3F08BFB2F1FF3F46
:10464C0005D052EA0301206803D100F071FB30342D
:10465C00C6E73146183000F0E5FCF8E7B0850020DD
:10466C00E8750008E8750008416F000828830020F1
:10467C0070B5002386B00122CDE90423134E144DEE
:10468C0001930F22CDE902321249142303FB00558A
:10469C0006EBC01604464FF4C07000FB04110E4B21
:1046AC0000954FF4A072304600F0DCF8337C0B4AD6
:1046BC00EE6023F0040333744FF4046304FB033300
:1046CC0013442C746B6006B070BD00BFA882002030
:1046DC008085002040910020136E00080089002086
:1046EC00BFB50020FFF74CFF294B83F30888294CFA
:1046FC00294F636943F4007363610025F02384F848
:10470C002230E57725766576A57684F82050636AA5
:10471C0043F4E0236362FDF7B9FCFDF7DFFD4FF0D6
:10472C00FF33A362E362FDF7B9FEFDF701FEFCF770
:10473C00DBFE1A481A4C00F00DF9FCF78FFD012036
:10474C00FFF71EFF0220FFF71BFF00F069FA154B65
:10475C0015495C61154B05930123CDE903534FF4C7
:10476C0080623B46CDE901550095204600F07AF871
:10477C00227C064622F004022046227402F09DFBA5
:10478C002846FFF775FF3A4631462046FDF788FD6F
:10479C004091002000ED00E0BD450008A8830020FA
:1047AC002883002080850020C0920020907B000888
:1047BC0070B5EFF31186102383F31288BFF36F8F5C
:1047CC000468A0421AD0CCB1D4E9003213605A600C
:1047DC00237C002523F002032374C4E90055A56053
:1047EC0004F1180002F007FC2046A56702F065FBF7
:1047FC0031460848BDE8704000F0A4B9D0E9023257
:10480C009A4218BF0133836086F31188BFF36F8F10
:10481C0070BD00BFB185002013B5EFF311811024DA
:10482C0084F31288BFF36F8F846844B1013C8460B9
:10483C0081F31188BFF36F8F002002B010BD52EAD4
:10484C00030406D181F31188BFF36F8F6FF00F0053
:10485C00F3E7CDE900230246014800F051F9ECE7FB
:10486C00B18500202DE9F043073285B022F0070214
:10487C000E461F461099818100F158037F32C0E922
:10488C0016330446002322F03F0204218360017496
:10489C003F2A0F98A073C4E90633E37306F140096D
:1048AC00A2F1400805D883F31188BFF36F8F084637
:1048BC0002DFB51829462046FDF774FA07300E9B27
:1048CC0020F00700A066C4E9189802930D9B019391
:1048DC002D1A0C9B00932A463B4631462046FDF789
:1048EC00ADFC00236365044B9B6803B1DB6EE36690
:1048FC00284605B0BDE8F08380850020F0B587B070
:10490C0000250595109D04950F9D03950E9D029510
:10491C00DDE912760D9D01950C9D00950446FFF77F
:10492C00A1FFB6F1FF3F08BFB7F1FF3F05D056EA34
:10493C00070305D1204600F0FBF9204607B0F0BD77
:10494C003A46334604F11800014900F06BFBF4E7DA
:10495C00416F00080123037483810023C0E91833DD
:10496C00C366014B9860704780850020094A9368A4
:10497C006FF00A019967084958674B6843F08053F8
:10498C004B60002383F31188BFF36F8F9368986F8C
:10499C00704700BF8085002000ED00E070B590F9F5
:1049AC001020037C002A36DBD90634D11B4C63F073
:1049BC007F032246037452F8183FE169934207D1F2
:1049CC00C0E900210860E06111E09942F8D01B6851
:1049DC00002BF5D090F90E5093F90E60B542F4D03F
:1049EC00AE42F2DD5968C0E9003108605860A56933
:1049FC00954200D005B9E568A3681A7CD20604D1AB
:104A0C00DA897F2A01D9AA6932B1AB4202D0284691
:104A1C0000F088FA656170BD6361FCE78085002059
:104A2C0038B590F91020037C002A014604DA03F013
:104A3C007F03037402F007FA0D4D2A46AB6852F857
:104A4C00184F944200D004B9EC688B4207D01A7C02
:104A5C00D20604D1DA897F2A01D9A2692AB1A342EC
:104A6C0002D0204600F05EFA23466B6138BD00BFD1
:104A7C0080850020B3F1FF3F08BFB2F1FF3F03D0A8
:104A8C000249183000F0CEBA704700BF416F0008E1
:104A9C0038B5194CA168E0690B68814214BF1A46FD
:104AAC00002249680B605960A368E1692AB9134A6E
:104ABC00C3E900210B60E3610CE093F90E0092F95D
:104ACC000E50A84214D0854212DD5168C3E9002172
:104ADC000B605360A569094B9D4200D005B9E56890
:104AEC00A3689D4202D0284600F01CFA656138BDCF
:104AFC009142DCD01268D9E780850020988500208F
:104B0C00F8B50E4B0C4611460D4A98681060DDE95D
:104B1C000667EFF31182102282F31288BFF36F8FB6
:104B2C009D68284602F0A1F9284632463B46FFF71D
:104B3C00A1FF2046BDE8F840FFF718BF8085002094
:104B4C00A085002049B9EFF3058030B9054B5A69AF
:104B5C009B689A4201D0FFF709BF81F31188BFF31C
:104B6C006F8F704780850020034648B9EFF30582AC
:104B7C0032B9064A51699268914201D0FFF7F6BEEC
:104B8C0083F31188BFF36F8F704700BF80850020BF
:104B9C00EFF31181102383F31288BFF36F8F054B52
:104BAC009A68D37B013BD37381F31188BFF36F8F6A
:104BBC00704700BF8085002070B5EFF3118610237D
:104BCC0083F31288BFF36F8F144DAB68DA7B01321D
:104BDC00DA732A4652F8184F944200D004B9EC68A4
:104BEC001A7CD20604D1DA897F2A01D9A2692AB1AA
:104BFC00A34202D0204600F095F923466B6186F360
:104C0C001188BFF36F8FEFF31180102383F3128899
:104C1C00BFF36F8FBDE87040FFF7A6BF8085002003
:104C2C00024B03F11802C3E906227047808500206D
:104C3C0070B5EFF31186102383F31288BFF36F8FD7
:104C4C001B4CA168E0690B68814214BF1A46002214
:104C5C0049680B605960A368E1692AB9154AC3E930
:104C6C0000210B60E3610CE093F90E0092F90E50F9
:104C7C00A84218D0854216DD5168C3E900210B60AB
:104C8C005360A5690B4B9D4200D005B9E568A3683C
:104C9C009D4202D0284600F045F965613046BDE8DA
:104CAC007040FFF763BE8A42D8D01268D5E700BFC8
:104CBC008085002098850020F8B550EA010306464F
:104CCC000C4603D1FFF7B4FF0020F8BDEFF31187BA
:104CDC00102383F31288BFF36F8F124D124BA86809
:104CEC001860FFF79DFEA86810492346324618301D
:104CFC0000F098F9AA68137C43F00403137404467B
:104D0C003846FFF733FEAB68D3E90A23B3F1004F03
:104D1C0008BF002AD8D102F096F9201A20EAE070D8
:104D2C00D3E700BF80850020A0850020416F0008DC
:104D3C0038B50446EFF31185102383F31288BFF3C3
:104D4C006F8F037C5B070FD5183002F054F9237C6E
:104D5C0023F0040320462374FFF720FE2946054860
:104D6C00BDE83840FFF7EEBE85F31188BFF36F8FB7
:104D7C0038BD00BFB1850020014B9868704700BF5B
:104D8C00808500202DE9F84304468789EFF31185CF
:104D9C00102383F31288BFF36F8F037C190705D59B
:104DAC0085F31188BFF36F8FBDE8F883D90943F001
:104DBC0008025DD10274A36813B1204602F04BF8CF
:104DCC0004F1180002F017F9A66D04F15808B0456B
:104DDC0011D04FF0000976B1304602F03CF806F1E4
:104DEC00180002F008F9C6F878903046FFF7D6FDA7
:104DFC00A66DB045EFD1DFF8C080D8F808309C42E2
:104E0C003ED1EFF30589B9F1000918BF4FF0010944
:104E1C00D8F81860294A964200D00EB9D8F80C6020
:104E2C00B34202D0304600F07DF82046C8F814603A
:104E3C0001F01BFAB9F1000F02D02148FFF78AFDEF
:104E4C00D8F808309C4231D1EFF3058373BBA289AB
:104E5C00D20718D42846FFF789FDFB07A4D50023F9
:104E6C0083F31188BFF36F8F0423184602DF9BE78F
:104E7C0003F07F0343F00803037401F0E4FF9AE7A7
:104E8C004FF00009C4E785F31188BFF36F8F83F3EC
:104E9C001188BFF36F8F0423184602DFEFF31180E4
:104EAC00102383F31288BFF36F8FD4E785F3118837
:104EBC00BFF36F8FD1E700BF80850020988500205D
:104ECC00A8830020027C12F01F02034610D10A496D
:104EDC0088420DD00949086868B1D9897F2909D859
:104EEC0093F90E20064B1B689A42B8BF00207047FE
:104EFC000020704710467047A882002088000020D0
:104F0C00A4850020044BC01A044BC0105843044B1A
:104F1C0001221A54704700BF28840020ABAAAAAA09
:104F2C00B185002070B50D4B0D4D1E7CFFF7CAFFEF
:104F3C0006EB460305EBC3050446284602F05BF876
:104F4C00084B00229A553CB1621E28460649BDE822
:104F5C007040D31700F066B870BD00BF808500208C
:104F6C0028840020B1850020114F000838B5EFF3DC
:104F7C001185102383F31288BFF36F8F0F4B104AE8
:104F8C009C681068A04206D1FFF7CCFF85F311880E
:104F9C00BFF36F8F38BD00211B7C1160094AD35CB5
:104FAC00002BF3D02046FFF78DFF0028EED0237C9A
:104FBC00DB0601D1FFF76CFD2046E5E7808500207C
:104FCC00A0850020B1850020024B1868984208BFCC
:104FDC00002070478C000020034B1B680BB9FFF7B7
:104FEC00E3B90020704700BFA885002030B570B130
:104FFC000B4B5B6898420AD0036843B1D3E9042198
:10500C00D0E90445121941EB0501C3E90421D0E9AB
:10501C00003213605A600023C0E9003330BD00BF7A
:10502C008C000020B3F1FF3F08BFB2F1FF3F2DE928
:10503C00F84F0446994615461F467AD08160EFF327
:10504C001188102383F31288BFF36F8FB9F1000F0F
:10505C00DFF8E4A020DBFFF7BFFFDAE9002701351A
:10506C0049F100092D1849EBE073C4E90453AD185C
:10507C00064643EB07074FF00109FFF7A5FFDFF8E2
:10508C00BCE0DEF804A00346EBB9C4E900EACAF8B8
:10509C000040CEF8044028E0DAE900126FF001037A
:1050AC005B1A4FF0FF3161EB02025B1B62EB0902F2
:1050BC00012B72F10001BCBF01230022C0E90432B4
:1050CC004FF00009D9E7D3E9041CD4E904208A4243
:1050DC0070EB0C0B24DA891A5A686CEB0000C3E9EC
:1050EC000410C4E9003214605C60FFF76DFF844269
:1050FC000ED1134B1B685BB9B9F1000F02D1FFF74E
:10510C006BFF0646304601F05FFF0021FFF7D0F839
:10511C0088F31188BFF36F8F28463946BDE8F88FA6
:10512C00521A60EB0C009A45C4E90420ADD01B6800
:10513C00AAE700252F46EFE7408400208C000020D2
:10514C00A88500202DE9F047EFF31185102383F398
:10515C001288BFF36F8FDFF8A490DFF8A480C9F832
:10516C000000FFF731FF00260027D9F80030D8E9FE
:10517C0000ECD91750B1D0E90442A34271EB020AFA
:10518C001CDAE41A62EB0102C0E9044213EB0E03D1
:10519C004FF000044CEB01012046C8E90031C9F87E
:1051AC00004001F011FF2146FFF782F885F31188CA
:1051BC00BFF36F8FBDE8F047FFF7D8BE14EB0E02BC
:1051CC004CEBE473C0E90467C8E90023FFF70EFF5A
:1051DC0085F31188BFF36F8F83689847EFF31185C0
:1051EC00102383F31288BFF36F8FD9F800301B1B89
:1051FC00C9F80030FFF7E8FEB7E700BFA88500202C
:10520C004084002010B5EFF31184102383F312882F
:10521C00BFF36F8FFFF7E0FE054A0346D2E90001AA
:10522C00181841EBE37184F31188BFF36F8F10BD35
:10523C0040840020F8B50646EFF31187102383F362
:10524C001288BFF36F8F026822B187F31188BFF306
:10525C006F8FF8BDD0E90A54691C44F10003022990
:10526C0073F1000334D3013D44F1FF34002CBCBF77
:10527C0015462C4601F0EBFE013041F100014019BE
:10528C0044EB0101012871F1000149DB01F0DFFE63
:10529C00013041F100016FF00203401944EB0101B0
:1052AC0083426FF000438B413FDB01F0D0FE0130B5
:1052BC0041F100016FF00102401944EB01044FF081
:1052CC00FF33121A63EB04031A493046FFF7AAFEA8
:1052DC00336B01333363336A6BB187F31188BFF3DC
:1052EC006F8F336A30469847EFF31187102383F39F
:1052FC001288BFF36F8F334653F8184F9C42A4D0DB
:10530C00002CA2D0204601F0E7FD0023A36787F311
:10531C001188BFF36F8F2046BDE8F84001F0CDBD7A
:10532C006FF001024FF0FF33CEE700224FF0004345
:10533C00CAE700BF415200082DE9F04105461C4662
:10534C0090461F46EFF31186102383F31288BFF3A8
:10535C006F8FB4F1FF3F08BFB2F1FF3F05D186F369
:10536C001188BFF36F8FBDE8F081002C09DB012A97
:10537C0074F10003BCBF0122002412F1FF3844F188
:10538C00FF37284601F037FEDDE906010023C5E9A9
:10539C000A012B6342463B4628460249FFF742FE70
:1053AC00DDE700BF41520008014800F04BBB00BFD5
:1053BC00198600080CB430B58BB004460D4620227B
:1053CC00002102A801F07BFE02238DF80A30002D8B
:1053DC000C4B0393069412DB01D06B1E1C440FAADA
:1053EC000E99079402A8019200F00EF815B1069BD5
:1053FC0000221A700BB0BDE8304002B07047002498
:10540C00EDE700BFA17100082DE9F04F8DB04368A6
:10541C000293837815469A07804640F10D8100244B
:10542C000E78002E00F00A81252E0BD04B1C039316
:10543C000134029B4146304698470028C0F2F68062
:10544C000399EDE74E788B1C252E0393F0D00027A3
:10545C00B946BB46BBF11F0F38D8A6F12003102B61
:10546C000AD8DFE803F02A090930090909210909DA
:10547C000928092D09091F00A6F13003092B33D97E
:10548C002A2E37D11BF0400F55F8043B40F0828098
:10549C00002BA7BF4BF0200B9946C3F100094BF032
:1054AC00280B01E04BF0010B039B13F8016B0393EA
:1054BC00002ECFD130E04BF0020B4BF0040BF3E796
:1054CC004BF0080BF0E74BF0100BEDE7BBF17F0F47
:1054DC0019D8A6F13003092BD2D81BF0400F03D0FA
:1054EC000A2101FB0737DFE70A2101FB09394BF0E1
:1054FC00200BD9E72E2E06D11BF0400F40F09E80DA
:10550C004BF0400BD0E76C2E31D02BD8682E36D018
:10551C006A2E3CD04C2E3AD0002F46F02003B8BF58
:10552C002BF04002A3F16501BCBF1FFA82FB0027E0
:10553C00022901D9612B2FD1073525F00705DFF89A
:10554C00ACA2083507271BF0080F66D00AEB070B37
:10555C0056465E4563D1A4EB0A0A06EB0A02A9EB98
:10556C0007096FE1742E9FD07A2E9DD0D4E71BF0E3
:10557C00800F18BF4BF4007B4BF0800B94E71BF4AF
:10558C00807F18BF4BF4007B4BF4807B8CE74BF493
:10559C00207B89E71F4687E7A6F16301122900F2F9
:1055AC00F080DFE811F013004F00EE00EE00EE008B
:1055BC00EE004F00EE00EE00EE00EE00EE00FE00FE
:1055CC00E900EE00EE001B00EE00AF0055F8043BC6
:1055DC008DF8183001270DF1180AB4E755F804AB13
:1055EC00834BBAF1000F08BF9A461BF0400F14BF53
:1055FC0039464FF0FF31504601F069FD0746A2E7EE
:10560C00029B41462020984700280FDB013EB74201
:10561C00F6D34C44A41BB14698E74E46F7E716F870
:10562C00010B029B41469847002892DA98F8023009
:10563C0043F0040388F802304FF0FF3420460DB0DD
:10564C00BDE8F08F1BF0800F34D01BF4007F2CD002
:10565C00073525F00705AA4669685AF8080B2BF0A0
:10566C0010050029ADB237DA404261EB410145F437
:10567C0080650DF1180B0A235A4601F034FDA0EB9E
:10568C000B0301936B0662D5019B25F001019F4230
:10569C0089B240F3A180002E00F0998015F0100221
:1056AC0040F09C80BB460D4623E0AA465AF8040BFA
:1056BC00C117D4E7AA461BF4807F5AF8041B01D10A
:1056CC000846F5E71BF4007F15BF48B208B241F35A
:1056DC00C01141F3C031C2E750EA0103C9D11BF03C
:1056EC00400FC6D0002FC4D12BF0110295B2BB468F
:1056FC00019740F2064115EA01021CBF0BF1010BA8
:10570C0000222CE02BF010021FFA82FB0A231BF064
:10571C00800C49D01BF400711DBF073525F007051F
:10572C00AA46AA461ABF5AF8080B69685AF8040B1D
:10573C0050EA010545D12BF016051BF0400FADB218
:10574C0042D0002F40D12BF0170295B2019715F0E3
:10575C00100248D0019B002E42D103F1010B290706
:10576C005AD4EB0706D5D9456FDD0199A9EB0B038C
:10577C005F18CB465B4649E04BF0100B10237826A4
:10578C00C5E7782B04D1C6F1780343F01003BEE7CC
:10579C00029B4146252098470028FFF647AF02346C
:1057AC0047E608230026B2E7AA461BF480715AF894
:1057BC00040BBDD01BF400711ABFC0B2614680B29D
:1057CC00B6E72BF0060295B20DF1180B54E725F055
:1057DC001105ADB2BB468CE70D46B8E73B460D460E
:1057EC0003F1020BBBE7DDF804B082E75B8600082F
:1057FC0054860008CDE904324146029B202098478C
:10580C000028FFF613AF049B059A01339945F1DC90
:10581C00A4EB0B01CC189B460AB3029B41463020EB
:10582C0098470028FFF602AF8EB901342744019B3C
:10583C00391B994224DC1D465DBB019AA9EB0B096F
:10584C00224455461446914435E0019F92E70234B8
:10585C0041463046029B98470028E7DAE6E640F2DC
:10586C0006410D42E2D015F0020F14BF2B20202070
:10587C0015F4806F04F10104414618BF2D20E9E7AF
:10588C00029B414630209847002804F10104CEDAEF
:10589C00CCE606AB013D4146585D029B984700287B
:1058AC00CADAC3E6029B414620209847002804F13F
:1058BC000104FFF6BBAEA9EB0403002BF2DCBFE541
:1058CC00704700EBC100408840087047F8B50346AC
:1058DC00FFF7F7FFB0FA80F0C0F11F0003EB800C6C
:1058EC00CA00DCF81060171D0C4606328DB256B992
:1058FC00012101FA00F0D9680143D960CCF81040BD
:10590C00DD539D52F8BDF1000431585AD85303EBC6
:10591C00C0009E52C5805D52F4E7043A2DE9F04177
:10592C00CC1D114424F0070421F007010E1BF708CD
:10593C00B7FA87F2C2F12405AD004FF00008073525
:10594C00C2F12002ED0804604146A760C4F80C8047
:10595C00920004F1100001F0B2FB6B0043F0010364
:10596C00638004EBC5027B1B5900A4F800805180B6
:10597C00A21924F83550A2F80280A35304EBC703F4
:10598C0029465A8842F001025A802046BDE8F0416F
:10599C00FFF79CBF2DE9F04706460D461746984683
:1059AC002BB398F8004093F80190DB78A40004EB3B
:1059BC00430498F802301C4444444FF0000ACA4592
:1059CC0009D3D8F8042008F1080339463046AC4610
:1059DC00BDE8F047604714F8013B48F823402046E7
:1059EC00FAF76CFE013004440AF1010AE7E76FF0A4
:1059FC001500BDE8F08770B5002502462846144610
:105A0C0014F8013B0BB9184609E098B18D4207D147
:105A1C00702B04D0A3F140023A2A0BD8002070BDA1
:105A2C00A3F140063A2E05D853780135941C002B6F
:105A3C00E9D00020252B08BF80F001002246DEE7CC
:105A4C00002070470FB407B504A951F8040B01915D
:105A5C0000F09EFA03B05DF804EB04B0704710B58B
:105A6C000369024613F0080009D11368D4689C42FC
:105A7C0097BF126AE31AD31A01200B6010BD0023E2
:105A8C001846FAE713B501A90446FFF7E8FF20B161
:105A9C00019BE268013B13440193206A019BC01AED
:105AAC00013802B010BD10B5044650182269236AA3
:105ABC00D20702D5013B184010BD984228BFC01A2E
:105ACC00FAE710B504460A46C168FFF7ECFF2369F4
