:020000040800F2
:1000000060110020D51600082F4B0008C11600080B
:1000100000000000000000000000000000000000E0
:10002000000000000000000000000000B117000800
:1000300000000000000000004117000849320008DD
:100040000119000801190008011900080119000828
:100050000119000801190008011900080119000818
:100060000119000801190008011900080119000808
:1000700001190008011900080119000801190008F8
:1000800001190008011900080119000801190008E8
:1000900001190008011900080119000801190008D8
:1000A00001190008011900080119000801190008C8
:1000B00001190008011900080119000801190008B8
:1000C00002B4714649084900095C49008E4402BCEB
:1000D0007047C046002934D00123002210B4884262
:1000E0002CD301242407A14204D2814202D2090167
:1000F0001B01F8E7E400A14204D2814202D2490088
:100100005B00F8E7884201D3401A1A434C08A0422A
:1001100002D3001B5C0822438C08A04202D3001BC0
:100120009C082243CC08A04202D3001BDC082243D7
:10013000002803D01B0901D00909E3E7100010BC17
:10014000704701B5002000F05FF802BD0029F8D02B
:1001500003B5FFF7C1FF0EBC4243891A1847C046DA
:10016000002941D010B404004C40A44601230022D1
:10017000002900D54942002800D5404288422CD3AE
:1001800001242407A14204D2814202D209011B01A9
:10019000F8E7E400A14204D2814202D249005B00A8
:1001A000F8E7884201D3401A1A434C08A04202D310
:1001B000001B5C0822438C08A04202D3001B9C0851
:1001C0002243CC08A04202D3001BDC0822430028B3
:1001D00003D01B0901D00909E3E710006446002C95
:1001E00000D5404210BC704701B5002000F00CF86B
:1001F00002BDC0460029F7D003B5FFF7B3FF0EBC20
:100200004243891A1847C0467047C04684460800D2
:100210006146FFE71FB500F098FF002801D40021D8
:10022000C8421FBD10B500F01BFF4042013010BD99
:1002300010B500F08AFF002801DB002010BD01206E
:1002400010BDC04610B500F080FF002801DD002081
:1002500010BD012010BDC04610B500F028FF0028D9
:1002600001DC002010BD012010BDC04610B500F01B
:100270001EFF002801DA002010BD012010BDC0467D
:100280001C2101231B04984201D3000C10391B0AC6
:10029000984201D3000A08391B09984201D300098A
:1002A000043902A2105C40187047C04604030202E1
:1002B000010101010000000000000000414208406F
:1002C0001C2101231B04984201D3000C10391B0A86
:1002D000984201D3000A08391B09984201D300094A
:1002E000043902A2105C401A7047C0461B1C1D1D39
:1002F0001E1E1E1E1F1F1F1F1F1F1F1F002B15D17D
:10030000002A13D1002906DB01DC002806D00020DA
:10031000C043410802E080210906002007B40248DA
:1003200001A14018029003BDE1FEFFFF03B468463F
:1003300001B5029800F07CFE019B9E4602B00CBC09
:100340007047C046002B11D1002A0FD1002900D1DF
:10035000002802D00021C943080007B4024802A1C6
:100360004018029003BDC046A1FEFFFF03B46846DB
:1003700001B5029800F0EDFD019B9E4602B00CBC59
:100380007047C046084A43081340C01A0200074B92
:10039000800818401A40121813099B18044A05488F
:1003A00013405843000E704755555555333333337A
:1003B0000F0F0F0F010101014A02F8B5430244007B
:1003C000C50F500A84464800240E000E5F0AC90F6C
:1003D0009B099209261A8D4200D09EE0002E42DD34
:1003E0008021C90400281ED1002A0AD0661E012CD3
:1003F00005D19B1801340B4246D1013C01E0FF2C92
:1004000014D15A0704D00F221A40042A00D0043312
:100410005A0100D42EE101340026FF2C19D09D4E44
:10042000DB081E4015E0FF2CEBD00A431B2E01DD3C
:100430000133E6E72020801B11008240F140501E6E
:1004400082410A439B185A01DBD501340026FF2C58
:100450001AD1FF23E005DB057602760A1840304307
:10046000ED072843F8BD002E2ED08026011BF60490
:10047000002C14D1002B00D1F3E04C1E01290AD12D
:100480009B1802243342B8D0012283491A405B08EA
:100490000B401343B5E7FF2906D11300AEE0FF2858
:1004A00000D1E0E00C0033431B2C02DD531C0400A0
:1004B000A7E719002026E140341BA3405C1EA3419E
:1004C0000B4304009B18BEE7FE20611C01421ED1B5
:1004D000002C0DD1002B00D1C7E0002A00D190E7FD
:1004E0009B185A0100D48CE76C4A13400C0088E733
:1004F000002BD2D0FF24002A00D182E78023DB0327
:100500009F4202D39C4500D26746FB0076E00C0078
:10051000FF299ED09B185B0873E7002E25DD00287D
:100520001CD1002A00D16CE7661E012C06D19B1A53
:100530005A0100D465E79B019E0975E0FF2C00D1AC
:100540005FE701211B2E07DC2020801B1100824069
:10055000F140501E824111435B1AE9E7FF2C00D1A4
:100560004FE78021C9040A43EBE7002E25D0051B85
:10057000002C0DD1002B08D06E1E012D03D10D00D3
:10058000D31A0134D4E7FF2D08D113002C0021E049
:10059000FF286CD080242E00E404234301241B2E6A
:1005A00007DC2025AD1B1C00AB40F4405D1EAB41B9
:1005B0001C43131B0D000400BAE7FE26601C3042EA
:1005C0002DD1002C14D1002B06D125002600131E9E
:1005D00000D13EE70D0014E7002A00D111E79E1A72
:1005E000D31A7001F6D4331E00D00AE7350030E785
:1005F000002B05D1002A49D013000D00FF2400E78D
:10060000FF24002A00D1FCE68023DB039F4200D2B6
:100610007BE79C4500D378E767460D0075E79E1A97
:10062000700115D50D00D61A3000FFF729FE3300F2
:1006300005388340844210DC2022001B0130121A4E
:1006400019009340C1405A1E934100240B43D8E641
:10065000002EE9D135003400FBE6104A241A13407D
:10066000CFE6130042E7130021E71300C9E61300A9
:100670000400AFE7DE08FF2C00D0EAE6002E00D130
:10068000E7E68023DB03FF241E43E2E68026150015
:10069000F603F6E7FFFF7F1FFFFFFF7DFFFFFFFB76
:1006A000F0B5C30F85B0440245000F1C640A2D0E3F
:1006B000039302930AD0FF2D3BD08023E400DB0498
:1006C0001C4300237F3D019500930EE0012301941C
:1006D0000093002C09D02000FFF7D2FD431F9C405F
:1006E00076235B421B1A019300957D027E006D0A02
:1006F000360EFF0F002E23D0FF2E2ED08023ED00CC
:10070000DB041D4333007F3B002201980399C31A89
:10071000009879408000104301380E2823D8FFF755
:10072000CFFC4D9973999299734D4D9273616161AC
:100730005300022301950093002CD6D00133C3E768
:100740002B000122002DE0D02800FFF799FD431F68
:100750009D4076235B421B1AD6E733000222002D10
:10076000D3D00132D1E764016D01AC4228D31A2005
:100770000122641B0126270052006400002F01DBC8
:10078000A54201D8641B324301380028F3D1601E12
:100790008441144318007F30002838DD620704D0FC
:1007A0000F222240042A00D00434220103D58033D2
:1007B00018002B4A1440E508FE281DDD00250FE037
:1007C0001B200022013BD5E78023DB031C4203D022
:1007D0001D4201D12C00029780250299ED0325438B
:1007E000FF2009E00399009A022AE7D0032A2FD0BC
:1007F00000252800012ACDD16D026D0AC0052843CD
:10080000C907084305B0F0BD2C003900ECE7012210
:100810000025121A28001B2AEEDC9E3325009C407E
:10082000D540631E9C4125436B0704D00F232B400A
:10083000042B00D0043580232800DB0418401D421F
:100840000BD1ED08D8E780240023E4030293C3E72B
:100850000291C1E700252800CEE700250120CBE763
:10086000FFFFFFF7F0B5C30F85B0470244000291C8
:100870007F0A240E03930AD0FF2C71D080227F3C84
:1008800026000023FF00D204174301930CE001234C
:100890003E1E019308D03800FFF7F2FC7626431F76
:1008A0009F407642361A0194029B5C025D00DB0F8A
:1008B000640A2D0E02935AD0FF2D64D080232800A5
:1008C000E400DB041C437F3800230299039A4A406A
:1008D000811901988C46850001311D430A2D00DDE8
:1008E00078E0022D55DC013D012D63D9250CA4B221
:1008F00026003B0CB8B246435C4368436B43001987
:100900001F00330C1B189C4202D9802040023F1864
:100910001804B6B28619B401601E84411B0CB60ED1
:10092000DB1934439B011C431B0168D5012360087C
:100930001C40044308007F30002862DD630704D0B8
:100940000F232340042B00D00434230103D580312E
:1009500008003E4B1C40E508FE2833DD00254CE036
:10096000022326000193002F9ED001338DE7200043
:100970000123002CA9D0FFF783FC431F9C40762362
:100980005B42181AA0E728000223002C9DD00133F7
:100990009BE70120A840A6250600ED002E40284236
:1009A0001DD19025AD00284247D1B93DFF3D2842D9
:1009B0009CD0029A022BD1D0032B42D000252800D4
:1009C000012BB7D16D026D0AC0052843D207104331
:1009D00005B0F0BD039A0F2D04D00B2DE9D03C00DB
:1009E000019BE7E78023DB031F4203D01C4201D1B8
:1009F0002700029A8025ED033D43FF20E2E7614690
:100A000098E7012300251B1A28001B2BDADC9E31F6
:100A100025008C40DD40631E9C4125436B0704D0BC
:100A20000F232B40042B00D0043580232800DB0447
:100A300018401D4207D1ED08C4E780273200FF03AC
:100A4000D8E72700D6E700250120BBE7FFFFFFF727
:100A5000F0B54602730A85B001930393DA004B02A6
:100A60004400C50F580A02904800240E000EC90F1A
:100A70009B09FF281DD1FF277F42BC46A444002BC1
:100A80000BD00F008D4200D0D8E06146002900D184
:100A900082E0002C73D1040061E001274F40BD4289
:100AA00000D0D3E06146002976D0002CF3D0FF249B
:100AB00016E00127BC464F40211ABD4200D095E008
:100AC000002942DD8026F604002820D1002B1CD00E
:100AD000611E644517D19B18022433422ED164460F
:100AE0005A0704D00F221A40042A00D004335A01B6
:100AF00000D432E101340026FF2C00D1E4E09C4E0A
:100B0000DB081E40E0E0FF2C04D11300E8E7FF2CD7
:100B1000FBD033431B2901DD531CE1E718002026DD
:100B2000C840711A8B40591E8B4103439B185A01D0
:100B3000D6D501340026FF2C00D1C5E001228D4915
:100B40001A405B080B401343CAE7002924D0011B5D
:100B5000002C03D08024E40422430DE00C00002A82
:100B6000BED0611E012C05D19B1801345A01E5D479
:100B7000013CB5E7FF2CB3D01B2902DD0133040093
:100B8000AEE714002026CC40711A8A40511E8A41DB
:100B900022439B180400CAE7FE20611C01421ED1BB
:100BA000002C0AD1002A9BD0002BAED09B185A01F2
:100BB00096D5714A0C00134092E7FF24002A8FD08B
:100BC000002BA2D08023019ADB039A4204D3029A1D
:100BD0009A4201D23D000392039BDB0067E70C00C1
:100BE0000026FF2970D0D3185B0879E7002935DD8E
:100BF00000281CD1002B88D0611E012C07D164462F
:100C0000D31A5A0100D46BE79B019E0988E0FF2CA0
:100C100000D17AE701201B2907DC18002026C840F4
:100C2000711A8B40591E8B411843131AE9E7FF2CA8
:100C300000D16AE78020C0040343EBE76646002E3C
:100C400036D0002C19D004000D0049E76146002978
:100C50002ED0002C14D004003D0041E7002927D0FD
:100C6000061B002C1FD13D003400002A00D137E7BD
:100C7000661E012C06D19B1AC3E70D000400F4E7A1
:100C80003D00FBE7FF2C00D12AE701211B2E07DCEA
:100C90002024A41B1100A240F140541EA241114384
:100CA00004005B1AADE78021C9043D000A43ECE76C
:100CB000FE20611C01422ED1002C1DD1002A0ED134
:100CC00025002600002BC7D1FF23E005DB057602B7
:100CD0001840760A3043ED07284305B0F0BD002BDD
:100CE00000D112E7D61A710101D59B1AB4E7331E61
:100CF00000D0F5E62500E7E7002A07D13D00002BEC
:100D000000D0D4E680261D00F6032BE0002B00D097
:100D100058E71300CBE6D61A710115D53D009E1A8F
:100D20003000FFF7ADFA330005388340844210DC11
:100D30002022001B0130121A19009340C1405A1E94
:100D4000934100240B43CBE6002EE9D1350034005B
:100D5000BAE7094A241A1340C2E6DE08FF2CB3D1D1
:100D6000002EB1D08023DB03FF241E43ACE7C04636
:100D7000FFFF7F1FFFFFFF7DFFFFFFFB41024300DF
:100D8000C20F490A00201B0E7E2B03DD9D2B02DDC6
:100D9000084BD0187047802000040843952B05DDD0
:100DA000963B9840002AF5D04042F3E79621CB1AB3
:100DB000D840F7E7FFFFFF7F70B503000400051E72
:100DC0000ED0C21785185540C40F2800FFF758FAF7
:100DD0009E231B1A962B0ADC08282CD00838854045
:100DE0006A02D805520A1043E407204370BD992BCC
:100DF0001CDD05222900121AD14002001B32954049
:100E00002A00551EAA4111430D002A000B4E324004
:100E1000690704D00F212940042900D00432510170
:100E200002D59F2332401B1AD508D9E7421F052857
:100E3000EBD09540E9E79623D2E7C046FFFFFFFBE2
:100E4000002370B50400984209D0FFF719FA9E23D9
:100E50001B1A962B08DC082829D008388440640225
:100E6000D805640A204370BD992B1BDD02002100C8
:100E70001B3291400A00511E8A410521091ACC40BB
:100E8000144322000B4D2A40610704D00F2121405A
:100E9000042900D00432510102D59F232A401B1A95
:100EA000D408DCE7421F0528EBD09440E9E79623FD
:100EB000D5E7C046FFFFFFFBD0400B00D1409C466A
:100EC000203AD34018435242634693401843704738
:100ED0009140030090409C46203A9340194352426F
:100EE0006346D3401943704710B5002903D1FFF77B
:100EF000C7F9203002E00800FFF7C2F910BDC04674
:100F0000F7B5040C0D0091B20F0061438C4606004A
:100F1000019383B2100C5F43444358433B0C60443D
:100F20001B18994202D9802149026418019955433E
:100F30007143180C04191B04BFB24919D8190919B7
:100F400003B0F0BD10B5002802D0FFF7B7F90130AB
:100F500010BDF0B506000F0015001C0085B08B42D7
:100F600063D801D1824260D821002800FFF7BCFF7E
:100F7000390000903000FFF7B7FF009B21001B1ADB
:100F80001A0028000393FFF7A3FF00900191B942D4
:100F900045D801D1B04242D8009B019C01200021DC
:100FA000039AF61AA741FFF793FF04000D00039B75
:100FB000002B2BD0019B009ADB0750081843019BA4
:100FC0005908039B9C46B9422CD801D1B04229D87C
:100FD00032003B00121A8B41012692185B41002718
:100FE000B6185F4101235B429C446346002BEAD163
:100FF00030003900039AFFF75FFF039AA4197D417F
:1010000006000F00FFF764FF241A8D410A9B002B96
:1010100001D01E605F602000290005B0F0BD0024F3
:101020000025C4E7B6197F41DCE700240025EDE781
:10103000F7B517001E0004000D0000F0D6F80200FE
:101040000B000090019138003100FFF759FF241A7E
:101050008D41089B009801991C605D6003B0F0BD54
:1010600070B54A02440245004E00C30F640A0120D5
:101070002D0E520A360EC90FFF2D02D0FF2E07D1BA
:1010800070BDFF2EFCD12243FAD14B401800F7E788
:101090000120B542F4D19442F2D18B4205D0002D0B
:1010A000EED12000431E9841EAE70020E8E730B582
:1010B0004A0244024500C30F4800640A2D0E520A3A
:1010C000000EC90FFF2D0ED1002C38D1FF2804D0FF
:1010D0000120002B06D0023804E0002A2FD1100096
:1010E0008B42F5D130BDFF280BD1002A27D1002D2E
:1010F00001D1002C1FD08B42EAD1002B1DD018004B
:10110000F0E7002D0ED00028E2D08B42E0D18542DE
:10111000DEDCF2DB9442DBD800209442E2D2834250
:10112000EDD10AE00028E4D1002A02D1002CD9D068
:10113000CEE7002C06D1081ED4D1012000E0022009
:101140004042CFE78B42E5D0C2E730B54A024402C5
:101150004500C30F4800640A2D0E520A000EC90F45
:10116000FF2D0FD1002C3BD1FF2804D00120002BF4
:1011700007D0023805E00220002A02D110008B427D
:10118000F4D130BDFF280CD1FD38002AF9D1002D53
:1011900001D1002C1FD08B42E8D1002B1DD01800AC
:1011A000EFE7002D0ED00028E0D08B42DED1854243
:1011B000DCDCF2DB9442D9D800209442E1D28342B5
:1011C000EDD10AE00028E4D1002A02D1002CD8D0C9
:1011D000CCE7002C06D1081ED3D101204042D0E735
:1011E0000220CEE78B42E5D0C0E7F0B504000D0049
:1011F0001000190085B0002D11DB002B00DA82E011
:1012000026002F0014001D00BD4204D800D080E04D
:10121000B44200D87DE00020002105B0F0BD0023DD
:101220006242AB41002968DB16001F0004000D007C
:10123000BD4278D801D1B44275D801235B42290060
:1012400020000393FFF750FE390002903000FFF7B3
:101250004BFE029B29001B1A1A0020000293FFF785
:1012600037FE04000D00B94255D801D1B04252D822
:1012700001200021029AFFF72BFE361BAF410090A0
:101280000191029B002B2CD0EB0760081843029BB6
:1012900069089C4601240025B94241D801D1B042D9
:1012A0003ED832003B00121A8B4192185B41121952
:1012B0006B4116001F0001235B429C446346002BD8
:1012C000EAD1009C019D029A30003900FFF7F4FD3D
:1012D000029AFFF7FDFDA4197D41241A8D41009467
:1012E000019500980199039B002B00D195E703001D
:1012F0000C0000215842A1418FE716001F00002575
:1013000044428D4180E726002F00002544428D4154
:101310008EE7002393E70022002300920193B0E7B9
:10132000B6197F41C7E700200021E0E7F7B51D4C63
:10133000200003F064FF002804D11B4803F0DDFB0C
:101340000020FEBD8022216992010868A368024343
:101350000A6020000D211B68144A9847002801DA12
:101360001348EBE70121FA26124803F0C6FB0027D9
:1013700076012569A36801A920005B689847011ED2
:1013800009D00D4800DB0D4803F0B7FB30003900F1
:1013900002F068FDEDE72B68019959400123490BE4
:1013A0001940F0E7F4560008225C00080100010033
:1013B0003B5C0008625C00087B5C0008A25C0008E3
:1013C00010B5024B1B68984710BDC046A80000200E
:1013D000014B18607047C046A800002030B585B0AA
:1013E00004000D0010220021684604F049F86A4606
:1013F00002239370044B2A0021006846019303F0F6
:10140000ABF805B030BDC046C1130008F7B5040005
:101410000D001E00019202F065FD030000F080FA4D
:10142000054F32003B5001992800A04700F078FAA0
:10143000385800F069F9C0460800000080210220F9
:101440000A4BC9035A6B82B00A435A635A6B0A406B
:1014500007490192019A4A68824300204A605A6B08
:1014600004490A405A6302B07047C0460010024067
:1014700000580140FFFFBFFF02230A4A82B01168F3
:101480000B43136080220121074B92031A60074B24
:101490001A6B0A431A631B6B0B400193019B02B04A
:1014A0007047C04600200240D000002000100240DB
:1014B000014B036000207047A059000810B5034A93
:1014C00003480021121A03F024FB10BD5C04002025
:1014D000100100200648074A10B5121A064903F009
:1014E0001CFB064A06480749121A03F016FB10BDFA
:1014F000000000200C010020505F000800000020C8
:1015000000000020505F000870B505000C1E13D0CD
:101510008B684A680F48096803F0EFFA0E48636960
:101520002269E16803F0E9FA0C48E16903F0E5FAA1
:101530000B48A16903F0E1FA012D05D1EFF3058114
:101540000848103903F0D9FA2800210001F0BEFF45
:1015500070BDC046BC5C0008EC5C00081C5D000867
:101560002C5D00085B5D000830BFFDE7F7B50A4B56
:101570000A4D0600EF18CC1B2A00200008490193F1
:1015800003F075FF60190021019A03F079FF38001C
:10159000083C34670830FEBD040000000000000075
:1015A00098590008054B5A699B689A4205D08023D8
:1015B000034A5B0551680B43536070472C040020BD
:1015C00000ED00E0F0B52D4B04005F6889B0FD052B
:1015D000ED0D62B6BFF36F8F130EFF2B06D1F33BF9
:1015E0001340082B33D1264803F087FA0026340035
:1015F000032D32D1234803F080FAA369224A934293
:1016000002D3224A934205D3214A934230D3214A3E
:1016100093422DD2023B1A881F4B9A4228D11F4871
:10162000216803F06AFA256820222100684603F049
:101630001EFF079B002E1DD0DA0502D1184A134366
:10164000079369462800FFF75FFF09B0F0BD012648
:101650001207CDD50C000026CAE7F8235B0011491C
:101660001F4200D010492A001048103A03F045FAF2
:101670000025D9E75B0A5B02E2E7C04600ED00E027
:101680009D5D0008C95D0008C0000008B455000851
:10169000000000200000002002DF0000E15D0008E3
:1016A000FF0100006F5D0008845D0008FE5D00081A
:1016B0000821024A53698B435361704700ED00E0F3
:1016C000EFF30880EFF3098101B57246FFF77AFF67
:1016D00001BDC046094880F3088872B60848094928
:1016E000401880F30988EFF314800221084380F347
:1016F0001488BFF36F8F03F026FA000060110020FA
:10170000600400200008000010B50A4B9B6883426B
:101710000DD1EFF30583002B09D08022064B520533
:1017200059680A435A605A6A04490A405A6202F0E8
:10173000DFFB10BD2C04002000ED00E0FF7FFFFF69
:1017400015498A6815481044EFF3098CF0C04346E8
:101750004C4655465E466746F8C072B6104F114E6D
:101760004A698A603E60104C141920680F4C206052
:10177000506F00235367002800D162B6074C101940
:101780001030F8C89846A146AA46B346BC4624384D
:10179000F0C88CF3098870472C040020300000004A
:1017A00004ED00E00000000870000000B00200201E
:1017B00004207146014202D0EFF3098001D1EFF31A
:1017C00008808169023909780229FFD001B5724683
:1017D00003F0A7F901BDC04643B2000605D41F229D
:1017E0001A4001239340014A1360704700E100E072
:1017F00030B5FF2503220B00290040B20240D20081
:1018000091409B012B40C943934000280ADBC02430
:101810000A4A800880008018A40002590A40134335
:10182000035130BD0F2210400838054A800880005F
:101830008018C26911401943C161F2E700E100E07C
:1018400000ED00E0FF22044B9343044A9360BFF392
:101850004F8FBFF36F8F70470000000800ED00E06E
:1018600010B5203A1360029B01245360039B064984
:101870009360049BA143D36080235B04D361002366
:1018800091610265436710BD0D14000870B50B4BE4
:1018900015009860026F0A4B0E001A602C1C86F32C
:1018A00009880020034B9847201C002100220023B8
:1018B000014C2047634B00080D1400082C04002045
:1018C000B00200201022014B1A61704700ED00E0C9
:1018D000F0B5C02400220326FF25A40010002F002D
:1018E0003040C0008740054993089B005B18195998
:1018F0000132B9431951202AF0D1F0BD00E100E0D6
:1019000010B5EFF30583054A103BDB00D118496899
:1019100098588847FFF746FE10BDC046B8570008E4
:101920000148006870470000B002002010B5012196
:10193000024B034A034800F065F810BD0050002038
:1019400000000020A059000810B5FF240300064A3B
:1019500090600868A043184310230343D360012319
:1019600089680B43136110BD90ED00E0F0B51400E1
:1019700005000026FF2789B002910393029B9E4237
:1019800028DA6868002820D0039B002B07D0431E6C
:1019900003421DD1FF281BD92A681A4218D12B688F
:1019A0003C400593AB68019303F0E8F8019B1843B2
:1019B0000A4B07901B681B0A3B40013B9C4207D81F
:1019C000200005A9FFF7C0FF013401360C35D5E72B
:1019D00016246442200009B0F0BDC04690ED00E03E
:1019E0000522034B5A60BFF34F8FBFF36F8F7047D1
:1019F00090ED00E0BFF35F8F0022014B5A6070470B
:101A000090ED00E010B5034C01232278FFF7AEFF04
:101A1000207010BD58040020F0B5534F534E3B6862
:101A200035681B0ADBB287B09D4200D99AE0FFF708
:101A3000E1FF0024A54219D14D4E02A83570FFF7F1
:101A400037FD002301900093009A019B934216D129
:101A5000FF21002032783B681B0A0B409A4200DAD3
:101A60007CE0FFF7BDFF002007B0F0BD0C2363430F
:101A700071682000C918FFF767FF0134DAE7802199
:101A8000009B09041A01029B9B18DA68120D1205CB
:101A90008A4245D00ED8802189038A4232D08021E3
:101AA000C9038A4235D0802149038A4215D0009B60
:101AB0000133C8E7802189048A4239D08021490551
:101AC0008A423DD0802149048A42F0D198685D68FD
:101AD0001C6803F053F8882328E098685D681C6848
:101AE00003F04CF8234BFF22184305900395049410
:101AF0003B6830781B0A1340013B984227D91620D7
:101B00004042B1E798685D681C6803F037F81A4BEB
:101B1000E9E798685D681C6803F030F8174BE2E766
:101B200098685D681C6803F029F882235B04DAE793
:101B300098685D681C6803F021F88023DB02D2E717
:101B400098685D681C6803F019F80D4BCBE703A992
:101B5000FFF7FAFE337801333370A8E7BA603861D3
:101B6000013278E70120CBE790ED00E0AC590008A6
:101B70005804002000000B110000081100000206AC
:101B80000000021110B5024B1B689847002010BDE1
:101B9000B4020020034B044A1860022391780B43DF
:101BA00093707047B4020020AC000020072310B5EA
:101BB0000449054A99430548521A02F062FF002081
:101BC00010BDC0466711002000500020B802002060
:101BD00013B569460A00064B11CB11C2054883684C
:101BE0001B68002B01D0984716BD58204042FBE7E8
:101BF000985900084C560008020000201F2A08D8F7
:101C000001239340034A50691840C01A4342584187
:101C1000C0B27047000401401F22012302409340DC
:101C20001F2803D80020034A536170471620404202
:101C3000FBE7C04600040140F8B506000025012777
:101C40007378AB4200D8F8BD347864192000FFF7F0
:101C5000D3FF00280ED02000FFF7DEFF074AE10087
:101C60008B58002B06D052181F2138000C40A04082
:101C7000516898470135EDB2E2E7C046C402002042
:101C80000022052010B50C4C110020706070FFF789
:101C9000AFFD002206201100A070E070FFF7A8FD44
:101CA0000C220721054803F0EBFB0022072011005E
:101CB000FFF79EFD002010BDE0000020E4000020A2
:101CC00010B50400FF20002C05D02000FEF7D8FA44
:101CD0001F23181AC0B2044B1856044B1A68144339
:101CE0001C60FFF779FD10BDE000002000040140FA
:101CF000024A1368834313607047C04600040140E2
:101D0000020000B5080003290AD80E4BFEF7D8F9E7
:101D100002090C13996891439960D9689143D9607D
:101D200000BD99681143F7E7D9681143D9609968F4
:101D300091439960F4E7996811439960D9680A431F
:101D4000DA60EDE70004014070B5FF230D001400D8
:101D5000002804D0FEF794FA1F231B1ADBB2094AAD
:101D6000D8008358AB4203D111184968A14204D06E
:101D7000002B04D1155012185460002070BD1020A3
:101D80004042FBE7C4020020FF2310B5002804D026
:101D9000FEF776FA1F231B1ADBB20021024ADB0092
:101DA0009950D218516010BDC40200200323034093
:101DB0009B04800810B50343072900D10239FF2294
:101DC0000F241A401B0C9C409940044892001218A2
:101DD0009068A0430143916010BDC04600000140DF
:101DE000032303408008064A0230800080580F22F7
:101DF0009B009A401040D840052800D1023070471F
:101E000000000140836810B5DB0715D50424836802
:101E10000A49234207D0102382680A401343836093
:101E200083682342FCD1022382680A401343836003
:101E3000012382681A42FCD110BDC046E8FFFF7F33
:101E400070B54468230045331B78DB0602D40B7958
:101E50009B061BD40B78092B18D14B78042B15D17A
:101E60004A88002A15D01A4B9A421ED0930B032B96
:101E70000CD125000023174E30355900695A3143E3
:101E800089B28A4206D00133082BF6D1162040428F
:101E90000AE0130022004132127852B2012A06D021
:101EA00002239A43F2D1002070BD0723F2E70021FC
:101EB0000269A6325156481C01D09942E6D107204A
:101EC000216813704A69824313434B61EBE7C046B4
:101ED000FF3F000000C0FFFF0300020094300168D4
:101EE00090331B68983211605B681968034B8A68ED
:101EF0001A40042313438B607047C046E8FFFF7FFE
:101F000070B50125836804002B420FD10A260560B5
:101F10008368074A13402B43836023682B4205D113
:101F20006420013E03F045F9002EF6D170BDC04695
:101F3000E8FFFF7F73B5040045682E683000FFF7A7
:101F400061FF8022636814481B681206996801408B
:101F50000A439A609A68002AFCDB45352B789B0679
:101F60000AD40E48616883680831DB68002B0FD102
:101F70003000FFF7C5FF73BD8022636812061B683F
:101F8000996801400A439A609A68002AFCDBE8E7F6
:101F900001AA9847ECE7C046E8FFFF7F4C560008CF
:101FA000F0B5036989B0403304900391079301228F
:101FB0005242D317079801F091FC049B1E695B689D
:101FC0001B680593039B9A68330094331A60039B44
:101FD0005C683300A0331C602000FEF7D3F93300A7
:101FE0003200A43318700023A53213709C4202D132
:101FF00016246442A4E0049A546822004032127805
:10200000256852B2934200DAA0E0F1D0EA689B0062
:102010000693182713000699E26A3B4052589342F0
:1020200009D02800FFF7EEFEE26A0699EB685258E5
:10203000BB431343EB600027049B5D681B69A0331F
:102040001C68002C00D08AE02B0042331B785BB266
:10205000002B03D12B687F037F0B9F623300039A11
:10206000A4331B7812685B00002A02D092890132E7
:102070005343039AD2689A4200D2B0E0039B5D7C3E
:10208000049B5B681C680693002D00D073E02369F5
:1020900001352B4205D02000FFF7B4FE2369AB4386
:1020A0002361039B9B7C002B02D00498FFF742FF27
:1020B0000598FFF725FF1023059A13600423526843
:1020C0001343059A53603300039A643313CA13C34E
:1020D000002403CA03C3039B34661B68A34200D1D8
:1020E00079E03200783223CB23C21B6835001360BD
:1020F0003300783373661C82B36F0835A3426AD00D
:102100002100300003F0A7F921007C220023B06FEA
:10211000801859417D220023FEF714F90022009017
:1021200000232800019102F0DBF930000122524225
:10213000D317503001F0D2FB002800D03066346E47
:10214000079801F099FB200009B0F0BDA16A03983F
:10215000C95C007C884200D158E7013352E7200077
:10216000FEF7F0FE01230138C0B283408006184319
:1021700007439C4365E7082D00D939E70127236908
:102180003B4206D12000FFF73DFE2369BB431F43BE
:102190002761144BAD00EF58069B43331B785BB2AD
:1021A000012B00D07DE71C220F4BED582369134013
:1021B0009D4206D12369C532FF3213409F4200D1B0
:1021C0006FE72000FFF71EFE2369084A2F431340E4
:1021D0001F43276165E73000FFF77EFEA5E70C246B
:1021E00007E7C046605A00083C5A000803FEFFFF9C
:1021F000102270B52B4B1968114200D01A601A6872
:10220000520738D5284D1A6C2B68284C991C296028
:102210001A8022002100A5321378A4310133DBB2E9
:1022200013700978994226D100231370636E002B36
:102230002FD02200E36F88321288002B06D01C4971
:102240001C48984701280CD002281CD022002100ED
:102250008832843113880988994214D90133138054
:1022600003E0230098331B682B60A36F002B03D17E
:102270002000FFF731FE70BD0121200003F0DEF8E1
:102280000128F8DDF4E7A36F002B02D00A4803F021
:10229000AFF80123A6345B422380084801F0ECFA32
:1022A000E9E7C0460024014094000020000000201F
:1022B000640000206457000808000020500000203F
:1022C0000122F0B5036987B00193436852421E684A
:1022D0000093019B040090331860019BA6331A8081
:1022E0004568444B290003939B682F6802931B6841
:1022F0000831002B2FD003989847021E2BD12B00BA
:1023000045331B78DB071CD42B0045331B789B0718
:102310000AD52900029B18319B69002B1BD0002293
:1023200034489847002816D180212A6AC9055300ED
:102330005B088B424CD13B699B009B0813433B617C
:1023400009E02900029B10319B69002B03D0039800
:1023500098470028D8D0009B0021586A05AA02F0AF
:1023600084FD002842DB059B00221979186800F0E3
:10237000A5FA00283ADB002300994431CB56002B04
:102380000DD0B2681C4B1A4080235B051343B36029
:102390000023CB56012B02D10A2002F00AFF009B3A
:1023A0005B68002B00D098472000FFF7C3FDF3685F
:1023B000124A30001340F360FFF724FD019B9B6C31
:1023C000002B03D10198403001F056FA00200FE0B5
:1023D00080231B069A42AED009490A480B68034085
:1023E00013430B603B699B009B08A8E7831CC2D08A
:1023F00007B0F0BD4C560008E8FFFF6F3FF2FFFF4B
:1024000008270140FFFFC3FF0B8813B50C481B05CD
:102410001A0D1B181B0D0C2B0ED80A4C48681319EB
:102420001A68024300201A600B881B051B0D1B193C
:102430001B680193019B16BD86204042FBE7C04606
:10244000000040FD001002400B8809481B051A0DD2
:102450001B181B0D0C2B07D80020064B4968D318FE
:102460001A688A431A60704786204042FBE7C046DC
:10247000000040FD0010024010B50888140000055F
:10248000000D092814D8002801D1863810BD023863
:1024900004281ED8FDF714FE200319201B00124843
:1024A0008023206009685B01994217D20020EDE784
:1024B0000E4BC0180005000D0C2803D80C4BC34070
:1024C000DB0706D486204042E0E70A48E8E70A48EE
:1024D000E6E70A4B1868E3E70020E1E7090B013162
:1024E000FDF7F8FD2060E1E788900000D40F0000C0
:1024F0001111000000127A00006CDC02D0000020F4
:10250000092806D8044BC3400020DB0700D48638D6
:10251000704786204042FBE7DA03000070B5088868
:102520000C000005000DFFF7EBFF00281EDB6368C1
:10253000FF2B1AD001225802800F013082401F2049
:1025400099B21B0C0340013A9A40094E89190D6853
:1025500095430D60636899B21A0E1B0C03409A40B4
:10256000130089190C6823430B60002070BDC0461E
:10257000001002400B880A4A1B05180D9B1810B565
:102580001B0D0C2B08D8074BC018036848689843EC
:1025900043425841013010BDFFF7B2FFF8E7C04693
:1025A000000040FD00100240F0B54B4E85B000F039
:1025B000D5F8300000F0AEF800F00EFF474C484A66
:1025C000E36835001B061B0FD35CD84013780190DD
:1025D0001D41A84202D2280000F040FF802322685B
:1025E000DB0213432360802322685B0213432360D2
:1025F00080239B0222681A42FCD00123226D1343E0
:1026000023650223226D1A42FCD00123626B3549F7
:102610001A436263626B1A400392039A8022086A2B
:10262000920102430A62A2681343A3600223A268D4
:102630001A42FCD00C22E3681340934219D123685C
:10264000083A134206D1012321680B432360236813
:102650001342FCD00323E2689A43023B13430C224B
:10266000E360E3681340042BFBD1F022E36893435B
:10267000E360802723681C4ABF041340236023685B
:102680003B42FCD100F038F8802322685B041343FE
:10269000236023683B42FCD0F022E3689343E3606D
:1026A000E368ED3A1343E3600932E36813400C2B0F
:1026B000FBD1019BAB4202D3280000F0CFFE0020EB
:1026C0000A4B0B4A1E60E3681340E360E368094A63
:1026D0001340E36005B0F0BD0048E801001002407F
:1026E000EE5E000800000140FFFFFFFED00000206A
:1026F000FFF8FFFFFFC7FFFF0449054BCA681A40F8
:102700009A23DB031343CB607047C046001002409E
:10271000FFFF02FF0D490E4B0E4A88420AD8196886
:102720001140C02252010A431A6010225968114216
:10273000FCD170470849884203D8196811408022AB
:10274000F0E71968114080221201ECE740164000C2
:1027500000700040FFE7FFFF0024F40001210A4B56
:1027600082B05A6B0A435A635A6B0A408021019225
:10277000019A9A6B49050A439A639B6B0B4000933D
:10278000009B02B07047C0460010024010B50848D8
:1027900002F035FD002808D0064C2000FFF7FAF9BA
:1027A0002000FEF715FE002010BD13204042FBE77D
:1027B00048570008B927000870B50400074D0A28DB
:1027C00004D1AB680D2128005B689847AB682800EE
:1027D0005B68E1B29847200070BDC04648570008CA
:1027E000F7B547681E000369B868009201930C00B2
:1027F00002F0DAF98023009A05009B039A4215D172
:102800002000BD68FFF7ECFA85420DD121002800B9
:1028100002F0CAF90400FFF76BFA2000FFF7B4FAE0
:1028200000212000FFF76CFA0020FEBD8023009AF3
:10283000DB039A4224D08023DB049E421CD0C023B9
:10284000DB049E421AD0802316209B049E4218D19E
:10285000022628000D49019AFFF776FA002812D1C6
:102860002000B968FFF7A2FA28003100FFF748FA04
:102870002800FFF725FAD7E70126EAE70326E8E76D
:1028800086204042D1E71020FBE7C0460F4E0008EB
:1028900010B503695860416807480C3183681B68AC
:1028A000002B03D09847002803DC10BD582040427D
:1028B000FBE70020F9E7C0464C560008F7B50400D6
:1028C0000025C90043180193019B9C4201D10020BF
:1028D00035E01F271023226817401A4217D1202500
:1028E00063681D43F821530949000B40E23952093E
:1028F000FF390A401A4300921B09192B20D8114AAC
:102900009B009E58002E0AD11320404217E0102F42
:1029100003D0112FE6D16568E4E73025E2E7300007
:1029200002F06DFC0028EFD00F2300992A00194017
:1029300030003B0002F084FA08340028C4DAFEBDFF
:102940001620E2E7FC5A0008F0B5150085B00C2906
:1029500063D144680669E36967690193338D029323
:1029600023689B681889FEF76BFA03902069FEF7CD
:1029700067FA011C0398FDF793FE03902E23F05E87
:10298000FEF71AFA011C0398FDF76CFF03900298FA
:102990003841FEF711FA011C0398FEF759F8019B24
:1029A0000390606AC01AFEF707FA029B041C708D40
:1029B000C01A3841FEF700FA011C201CFDF770FE1A
:1029C000011C0398FDF74EFF041C0198FEF7F4F973
:1029D000011C201CFDF7F0FCCF210906061CFDF7A9
:1029E00027FC00281CD19E21301CC905FDF73EFCA8
:1029F000041E15D1301CFEF7C1F92860FEF7DCF982
:102A0000011C301CFEF724F80649FDF72BFFFEF7EA
:102A1000B5F96860200005B0F0BD86204042FAE7B5
:102A20002220FBE7002474494023F7B59943476807
:102A300006690C2936D13300143301930122524226
:102A4000D317019800F054FE390001C983681B6850
:102A50009847041E21D1E021144D49042B682A68AF
:102A60000B4013490A4013438022120413432B6086
:102A70000A2002F07EFC3868836831005B68984762
:102A8000041E01D1B38DF385A0212B6849042A6867
:102A90000B4007490A4013432B60019800F0A0FE49
:102AA0002000FEBD86246442FAE7C04608270140A4
:102AB000FFFF3FFEF7B5476806694C2901D02A2978
:102AC00036D133001433019301225242D3170198B7
:102AD00000F00EFE390001C983681B689847041E88
:102AE00021D1154D15492A682B680B40E021490476
:102AF0000A4013438022D20313432B600A2002F0C2
:102B000038FC3868836831005B689847041E01D13F
:102B1000B38DF385C0212B6849042A680B4007490F
:102B20000A4013432B60019800F05AFE2000FEBDBE
:102B300086246442FAE7C04608270140FFFF3FFEB3
:102B400043681B68EFF31081012282F310889868B4
:102B500002439A6081F310880A4A934202D00A4ADB
:102B6000934203D1402259680A435A60EFF310811F
:102B7000012282F310881868FF3202431A6081F341
:102B800010887047003801400044004043681B68CB
:102B9000EFF31080012181F310889A688A439A60CC
:102BA00080F310880A4A934202D00A4A934203D122
:102BB00040215A688A435A60EFF31081012282F360
:102BC000108805481A6802401A6081F3108870471F
:102BD0000038014000440040FFFEFFFF37B503000E
:102BE0000D1E046802D11620404218E040681969A1
:102BF0008368DB68002B13D001AA984700280EDBFE
:102C00002368084A680813402360019B2900C01804
:102C1000FDF760FA0F28E6D980B2E06000203EBDE3
:102C20005820E1E7FF7FFFFFF7B50C00036941681B
:102C30001D682379012B13D09A1E564272419202CD
:102C400000926679022E0ED84A4F7600F75BA6797D
:102C5000022E0BD0042E35D05E1EB3411B0308E0BC
:102C6000C022D200ECE78027BF01F0E75E4273414B
:102C70001B07E67901960026B446019E012E02D17B
:102C8000C026B600B4460968A5421ED10C683A4E6B
:102C9000009A3440224313430B604B68374A134079
:102CA0003B434B60436836491A6893680B40614662
:102CB0000B43936029684068FFF790FF002800DD10
:102CC0000020FEBD80235B01D3E7C0220E68D20046
:102CD0001640009AB24205D00E682A4A1640009A61
:102CE00016430E60C0264268B60111684A68324039
:102CF000974204D04A68214E32403A434A604268C3
:102D0000214E11680A683240934204D00A681F4E6F
:102D1000324013430B60C021436889001A689368EE
:102D20000B409C4505D0936815490B4061460B4309
:102D3000936080224368D2011B689968114206D0D3
:102D4000019A032A09D09A6811490A4004E00199BE
:102D5000032902D199680A439A6021682B68994235
:102D6000AED04068FFF73AFF0028AADB23682B604B
:102D7000A6E7C0461C5C0008FFE9FFEFFFCFFFFF9E
:102D8000FFFCFFFFFFF9FFFF00100010FFEFFFEF58
:102D9000FFBFFFFFF0B547680600786839698368B0
:102DA00085B01B68002B00D1A0E09847002800DA0E
:102DB0009AE00021786A03AA02F057F8002800DAA6
:102DC00092E0039B002219791868FFF777FD00282D
:102DD00000DA89E00122756833692C681B68019369
:102DE000236893432360A86802F009FA002800D101
:102DF0007EE0A868E9688368DB68002B00D098470C
:102E0000EFF31082012383F310880C2123680B4316
:102E1000236082F3108830000199FFF705FF002836
:102E200002DA162040425FE02B7E002B03D00823FD
:102E3000A2681343A3606B7E002B04D080226368DA
:102E4000120213436360AB7E002B04D080226368C0
:102E5000520213436360EB7E002B04D08022636830
:102E60009202134363602B7F002B2BD0214B9C429B
:102E70000BD0214B9C4208D0204B9C4205D0204BCC
:102E80009C4202D01F4B9C42CBD173681A688023AE
:102E90009168DB010B43936022686B7F1A495B05E5
:102EA0000A40134323602268AB7F18491B040A4081
:102EB00013432360EB7F002B04D08022A36812020F
:102EC0001343A360012322681343236080239B03E1
:102ED000E2691A42FCD08023DB03E2691A42FCD08B
:102EE0003000BB6A9847002005B0F0BD582099E734
:102EF000132097E70038014000440040004C004098
:102F00000050004000480040FFFF1FFCFFFFE0FFB3
:102F1000F7B5436800901C6803690D001B680193B6
:102F20004B790A799C468879012A16D1022B2ED931
:102F3000C02180230600C9009B01022800D17EE049
:102F4000042836D00020824237D08020033A400146
:102F5000012A32D886204042FEBD022A09D1022B26
:102F600023D980210600C900022857D080239B0165
:102F7000E6E7022B1BD9060000210228F6D100212A
:102F8000002A4BD180201100400503221AE0C02105
:102F9000C90066462F4B7600F35A06000228CFD1AF
:102FA000002A4CD18020400507E08021F0E7002175
:102FB000EFE7002ACED180204001802700227F0148
:102FC000BB4232D16245C5D102F00AF8B042C1D14C
:102FD000EB79002B10D0012B38D11F4B9C420BD02A
:102FE0001E4B9C4208D01E4B9C4205D01D4B9C4260
:102FF00002D01D4B9C42ADD1012623682900B3436A
:1030000000982360FFF710FE0028A3DB2368002050
:103010001E43019B266006CD06C39DE7033A012AA5
:1030200098D98023002002269B01C0270222BF01DD
:10303000BB42C7D0013A002BC4D00232C2E7033AE8
:10304000012A00D886E702260020B6E7032BC4D069
:1030500080E7C0461C5C0008003801400044004086
:10306000004C0040005000400048004070B503692B
:10307000C0221B680C001B68D2000B6080214368D3
:1030800005001B68C9001B68134002228B4204D054
:103090001C4A9B185A425341DAB2C0218020227147
:1030A0006B6889011B6800225B6840010B4083420A
:1030B00006D002328B4203D0013A002B00D00232FC
:1030C00062716B681B6818681968C023DB001940BF
:1030D0000D4B184001F084FFC022A0716B68920074
:1030E0001B689B681340094A9B185A425341DBB244
:1030F000E3716A6812689268520400D503230020C5
:10310000E37170BD00FAFFFF0010001000FDFFFF2B
:1031100070B543680D001C68C02320682168DB007F
:103120001940114B1600184001F05AFF042817D01F
:103130008023E26900201A4211D0EFF3108272B6A8
:10314000311A002906DDE169194203D0295C0130FA
:10315000A162F5E7002A02D162B6BFF36F8F70BD9E
:1031600086204042FBE7C0460010001070B543685F
:103170000D001C68C02320682168DB0019400D4B3E
:103180001600184001F02CFF042810D00020202247
:103190000823311A00290CDDE169114209D0616A66
:1031A0002954E16901301942F3D02362F1E7862006
:1031B000404270BD0010001070B580251049114BC1
:1031C0008C681B680E6810488A686D02002C08D154
:1031D000002A11D11A002E4209D100681818801A4D
:1031E00070BD002A0AD02E4201D1A242F5D904684E
:1031F000E41804600968F0E71C00F4E71A00F2E73D
:1032000010E000E0280400201C040020094A0020EF
:10321000136A1B021B0A1362FA22074B12011A607F
:10322000064B074A1860074B5A60072298601A60DD
:103230007047C04600ED00E0280400201C04002078
:103240009F0F000010E000E070B5FFF7B5FF0C4BDA
:103250000C4A186811680C4C40181060FA210022C2
:1032600025681A600901401BFCF734FFFA231B0193
:1032700043435B19236001F02FF8FEF793F970BD0B
:103280001C0400202404002020040020F0B5334D4D
:10329000334E85B0002953D0431C08D101222B683E
:1032A00093432B60FF231B06336005B0F0BD3368EA
:1032B00001930027012848DCEFF31083039372B6D3
:1032C000FFF77AFF0022AB680293264B1C68264B5F
:1032D00004191A60254B1B680093E01A90423ADBF0
:1032E000FA231B015F43224AC01919008018FCF71A
:1032F000F1FEFA231B015843009B1B1B1818802367
:10330000DB00984200D218001A4B984200D91800EE
:10331000002330600138A9686860AB60029B0298A6
:103320005B1A1A19884202D2019A9B181A190D4B7E
:103330001A60039B002BB8D162B6BFF36F8FB4E75E
:1033400033680193431CB4D10B480C4B984200DD09
:103350001800471EB0E78020C000D9E710E000E069
:1033600028040020240400201C0400202004002045
:103370009F0F0000A0EBFF00611000006210000032
:1033800070B5EFF3108572B6084A094B14681B68D4
:10339000E41AFFF711FF0019002D02D162B6BFF346
:1033A0006F8FFA210901FCF795FE70BD24040020FF
:1033B0002004002070B5EFF3108572B6054B1C6831
:1033C000FFF7FAFE2018002D02D162B6BFF36F8F0F
:1033D00070BDC046240400200C2210B5194BD968DA
:1033E0000A40082A2CD00C2A0CD0042A20D11868B4
:1033F0001023184043425841134B40421840134B8E
:10340000C01810BD12488A02120F825C0902D868E7
:10341000890F0131C00304D50E485043FCF75AFE12
:10342000EFE71B68DB0601D50848F6E70A48F4E732
:1034300080205B6800021B045B0F01339840E0E7CB
:103440000448DEE700100240001BB70000093D0001
:10345000E55E000800127A000024F400154A411EBF
:10346000030010B50120914219D8C02180241248D0
:103470004901026824010A40A24211D10F48984232
:10348000804101210E4A404213688B43034313607D
:1034900013680B40984201D013680B40584010BD90
:1034A00002680A40802149018A4201D10548E6E7C5
:1034B0000548E4E7FF47E801007000400024F400FD
:1034C0000020024000127A0080841E0070B5EFF3E5
:1034D000108572B6064B9C6801F0A2FE002D02D149
:1034E00062B6BFF36F8F2000FEF70EF970BDC046C5
:1034F0002C040020F8B501270A4E83009D590130A5
:1035000084003359AB4200D8F8BD6868002806D063
:10351000037E3B4201D101F059FE0835F1E72B68EB
:103520009847FAE7045C0008012270B5234B03209A
:1035300086B01A70FFF7DEFF01F006F80420FFF7EF
:10354000D9FF1F4C26001F4DAC420ED300F0C4FB28
:10355000AE4220D300F0D0FBFDF7E8FE01211A4A6D
:1035600093898B43938106B070BD636A0593236A88
:103570000493E3690393A369029363690193236945
:103580000093E368A2686168206800F0CDF92368C1
:103590005C653034D7E7B26AF36A511C01D1591C1B
:1035A00005D011003068194303D100F07BFC3036A0
:1035B000CEE70649183000F0FFFDF8E75904002077
:1035C000B8580008B8580008900100203D53000882
:1035D00070B501250400C6010102124880220918B5
:1035E000002086B004950E350395053565430E4BD6
:1035F0000590029001900D48F6182D180C4B3000E4
:103600000095520000F090F90422337C2C7493430F
:1036100033740134074BE402E418EE606C6006B0CA
:1036200070BDC046600C0020100100202C0400205A
:103630002752000860040020F0B5002087B0FFF793
:1036400059FF224B83F308882149224B0A6A00253F
:103650001A40C0231B0413430B62FEF729F8FEF740
:1036600031F9FEF7D9F9FEF761F91B4800F09CF932
:10367000FDF702FF0120FFF73DFF0220FFF73AFFB1
:1036800000F06AFB154C164B80225C61154B164E00
:103690000593012315490493D200330020000395BC
:1036A00002950195009500F03FF904220700237C64
:1036B00020009343237401F00BFE2800FFF788FFDE
:1036C000320039002000FEF7E1F8C046600C00200F
:1036D00000ED00E0FFFF00FF10020020900100203D
:1036E0002C040020FE5E000829350008600D002033
:1036F000F0B585B004001F000392EFF3108672B698
:10370000C368354A002B0ED080689168884217D074
:10371000039B3B431AD1002E02D162B6BFF36F8FD9
:10372000102040420AE09168897B49B20133E3608E
:1037300093682161A360002E04D0002005B0F0BD85
:103740002169F3E762B6BFF36F8FF6E70E23897B3B
:10375000C35649B2994200DD19000A007F3201DAEE
:103760007F21494200258B4202DD01F063FD050007
:103770001A4B22000293039B310002980093019799
:1037800000F0EEF90028D8D0EFF3108672B6A068EA
:10379000002819D0236821699C420BD0002B09D046
:1037A0009B7B5BB2994200DD19000B007F3301DA8D
:1037B0007F21494201F03EFD002805D031000298EA
:1037C00000F05EFA0B20ACE7002DF7D1002EF9D106
:1037D00062B6BFF36F8FF5E72C0400205A04002077
:1037E000F8B583680500002B3CD0214A92689342CB
:1037F0003BD1C368012B03D9013BC3600020F8BD56
:10380000EFF3108772B60169806801F013FD2C6830
:10381000A54208D10023AB60EB609F42EED162B6B7
:10382000BFF36F8FEAE7002CF4D0626823680026AC
:1038300013605A6002222000237C26609343237485
:103840006660A660183001F0A5FD0E23AC60E3565B
:1038500020002B61A66701F03BFD3900054800F010
:103860000FFACBE716204042C9E70120FBE7C0462C
:103870002C0400205A04002070B5EFF3108572B6B6
:103880000468A0421AD0002C18D062682368002671
:1038900013605A6002222000237C26609343237425
:1038A0006660A660183001F075FD2000A66701F083
:1038B0000FFD2900084800F0E3F970BD8268C36875
:1038C0009B1A591E8B419B188360002DF5D162B65F
:1038D000BFF36F8FF1E7C0465A04002013B5040010
:1038E000EFF3108172B68068002808D00138A0601C
:1038F000002902D162B6BFF36F8F002016BD100001
:10390000184307D1002902D162B6BFF36F8F102090
:103910004042F3E7009201932200024800F020F9B0
:10392000ECE7C0465A040020F0B589B007930300C5
:1039300058338365C365129B0727838104230025C1
:103940000732BA430374D219119BBA4383738B189D
:103950000E0085601900C5738561C561040005927C
:103960000693FDF703FE059BC0196366069BB843EB
:103970001F1A109BA066266602930F9B3A000193C4
:103980000E9B310000932000079BFDF769FF054B5C
:1039900065659B68AB4200D0DB6E3800E36609B01A
:1039A000F0BDC0462C040020012303748381002352
:1039B00003664366C366014B986070472C04002081
:1039C0000B21084A49429368996758678023064942
:1039D0005B05486803434B6062B6BFF36F8F936823
:1039E000986F70472C04002000ED00E0102370B5A4
:1039F000C356027C002B38DBD30636D180235B42D2
:103A000013431B4C0374A3691A49E2698B4207D123
:103A1000016042601060E06111E09A42F8D01B68DA
:103A2000002BF5D00E250E2645579E57B542F4D0F3
:103A3000AE42F2DD5A680360426010605860A569CA
:103A40008D4201D0002D00D1E568A3681A7CD20612
:103A500005D1DA897F2A02D9AA69002A06D0AB42A9
:103A600002D0280000F00EFB656170BD6361FCE7C9
:103A70002C04002044040020102270B5825605005A
:103A8000037C002A04DA7F221340037401F0E4FB74
:103A90000D4E0E4AB469B368944201D0002C00D197
:103AA000F468AB4208D01A7CD20605D1DA897F2AA5
:103AB00002D9A269002A05D0A34202D0200000F05A
:103AC000E1FA2300736170BD2C040020440400203F
:103AD00010B5511C01D1591C03D00249183000F017
:103AE0006BFB10BD3D53000870B51B4CA168E3692A
:103AF0000A68CB1A581E834149685B420A605160CC
:103B00001340E169A268002B05D1144B516013608A
:103B10000A60E2610CE00E200E2510565D57A842A7
:103B200015D0854213DD5968136051600A605A60F0
:103B3000A5690A4B9D4201D0002D00D1E568A3681C
:103B40009D4202D0280000F09DFA656170BD994247
:103B5000DBD01B68D7E7C0462C04002044040020BB
:103B600070B50C0011000A4A0A4B90681860EFF318
:103B7000108372B69568280001F081FB049A059BBA
:103B80002800FFF7A5FF2000FFF71AFF70BDC04611
:103B90002C0400204C040020F7B50400EFF310873C
:103BA00072B61F22037C1A4050425041C0B20190AD
:103BB0004DB2002A3CD17F3213402374200001F023
:103BC0004BFB8023227C5B4213432B4EA573237453
:103BD000B3692A498B4229D1F2692160626014607D
:103BE000F4610FE09A42F8D01B68002BF5D00E204C
:103BF00018568542F6D0A842F4DD5A682360626008
:103C000014605C60B4698C4201D0002C00D1F4686F
:103C1000B3689C4202D0200000F034FA7461002F97
:103C200002D162B6BFF36F8F0198FEBDF269DCE787
:103C30009B071FD5A668200001F00EFBA573336813
:103C40009E4209D17368266063601C607460E6E779
:103C500072689342F6D01B68002BF3D00E229A565E
:103C60009542F5D0AA42F3DD5A6823606260146081
:103C70005C60D4E7A573D2E72C0400204404002044
:103C800010B500290AD1EFF30580002807D1064BB3
:103C90009A685B699A4202D0FFF792FE10BD62B645
:103CA000BFF36F8FFAE7C0462C04002010B5002840
:103CB0000AD1EFF30580002807D1064B5A699B68AB
:103CC0009A4202D0FFF77CFE10BD62B6BFF36F8F41
:103CD000FAE7C0462C040020EFF3108172B6054BC2
:103CE0009A68D37B013BD373002902D162B6BFF33C
:103CF0006F8F70472C04002070B5EFF3108672B6FA
:103D0000134DAB68DA7B0132DA73AC69114A944225
:103D100001D0002C00D1EC681A7CD20605D1DA89DA
:103D20007F2A02D9A269002A05D0A34202D020002E
:103D300000F0A8F923006B61002E02D162B6BFF338
:103D40006F8FEFF3108072B6FFF7B0FF70BDC04603
:103D50002C04002044040020024B034A9A61DA61DB
:103D60007047C0462C0400204404002070B5EFF3D7
:103D7000108572B61C4CA168E3690A68CB1A581EFC
:103D8000834149685B420A6051601340E169A2685F
:103D9000002B05D1154B516013600A60E2610CE005
:103DA0000E200E2610569E57B04218D0864216DDC1
:103DB0005968136051600A605A60A6690B4B9E42B5
:103DC00001D0002E00D1E668A3689E4202D03000E8
:103DD00000F058F928006661FFF7F2FD70BD8B42D4
:103DE000D8D01B68D4E7C0462C040020440400202F
:103DF000F8B5030007000C000B4303D1FFF7B6FF33
:103E00000020F8BDEFF3108672B6134D134BA8686F
:103E10001860FFF731FEA86823003A0010491830F7
:103E200000F0CAF90423AA680400117C30000B4397
:103E30001374FFF7C5FDAB689A6A002AE0D18022AF
:103E4000DB6A12069342DBD101F0CAFA201AC3439F
:103E5000DB171840D5E7C0462C0400204C04002096
:103E60003D53000870B504000D00FFF7C1FF2900A5
:103E700006002000631C01D101310FD00720002172
:103E80003200F31712184B415907D0080843D908DC
:103E900003D180231B06984200D3014870BDC04661
:103EA000FFFFFF7F70B50400EFF3108572B60426A4
:103EB000037C33420DD0183001F06CFA237C2000D3
:103EC000B3432374FFF792FD29000548FFF7D8FE9E
:103ED00070BD002DFCD162B6BFF36F8FF8E7C0460E
:103EE0005A040020014B98687047C0462C040020FB
:103EF000F0B5838985B004000393EFF31083019339
:103F000072B6019B02930823027C1A4207D0019BE0
:103F1000002B02D162B6BFF36F8F05B0F0BD190060
:103F2000114348B2002857DB2174A368002B02D04C
:103F3000200001F099F920002600183001F02AFA3B
:103F40005836A56DAE4201D0002D4DD1304F002521
:103F5000BB689C4204D1EFF305856A1E9541EDB222
:103F6000BE692C4A964201D0002E00D1FE68B342B1
:103F700002D0300000F086F820007E6100F0EEFDF7
:103F8000002D02D02448FFF70FFDBB689C4238D1BA
:103F9000EFF30583002B34D1A389DB070FD5019BF9
:103FA000002B02D162B6BFF36F8F62B6BFF36F8F83
:103FB0000423181C02DFEFF3108372B602930298F9
:103FC000FFF7FEFC039BDB07A7D562B6BFF36F8F3D
:103FD0000423181C02DFA0E77F210A4013432000BE
:103FE000237401F039F9A0E7280001F03DF9280019
:103FF000183001F0CFF900232800AB67FFF7F6FC7B
:104000009FE7019B002BDDD162B6BFF36F8FD9E72D
:104010002C040020440400201002002010B5047C71
:104020001F21220003000A4000200C4210D10A493F
:1040300010008B420CD009490868002808D0D989A3
:104040007F2906D80E215956054B1B68994200DB83
:1040500010BD1000FCE7C04610010020D400002075
:10406000500400200121044B044AC01A044BC01024
:104070004343D1547047C046900200205A040020A8
:10408000ABAAAAAA70B518250B4B1E7CFFF7C6FF7A
:1040900075430A4B0400ED18280001F07BF900225B
:1040A000074B9A55944205D0621E28000549D31744
:1040B00000F082F870BDC0462C0400209002002061
:1040C0005A0400206540000870B5EFF3108572B601
:1040D000104A114B94681868A04207D1FFF7D2FF2D
:1040E000002D02D162B6BFF36F8F70BD0021196041
:1040F000127C0A4B9B5C8B42F2D02000FFF78EFFB4
:104100000028EDD0237CDB0601D1FFF7EDFC200079
:10411000E4E7C0462C0400204C0400205A04002090
:10412000024B1868984200D100207047D800002048
:1041300070B50600FFF7F4FF002810D0026943694C
:104140003400F517121BAB41002B08DC03D1802192
:1041500009068A4203D2D843C017104070BD0148F7
:10416000FCE7C046FFFFFF7F002010B5034B1B6834
:10417000834201D1FFF704F910BDC046540400206A
:1041800030B500280ED00B4B5B6898420AD001680E
:10419000002907D00A694B690469456912196B4106
:1041A0000A614B610368426813605A600023036030
:1041B000436030BDD8000020F0B5040015001E009B
:1041C00085B0531C02D1731C00D17CE0A160EFF3D9
:1041D0001083039372B6002E26DBFFF7C5FF002184
:1041E0000090012040197141009AD31712184B41D9
:1041F0003649226163610868496812184B411E0004
:10420000150001230293FFF78BFF0700304B9C46FC
:104210005B680193002F1DD163462360019B63609F
:104220001C6063465C6027E0284B186859680222CE
:104230005242D317121A8B41521BB3411100002B6B
:1042400004DC01D1002A01D1012100236361216135
:104250000023D7E73869796922696369994202DCEA
:1042600028D1904226D9801A99417B6838617961BA
:10427000636027601C607C60FFF752FF84420FD1AF
:10428000144B1B68002B0BD1029B002B02D1FFF7B4
:104290006BFF00900098FFF74BFF0021FEF7F6FF41
:1042A000039B002B02D162B6BFF36F8F2800310051
:1042B00005B0F0BD121A8B4122616361019B9F42E0
:1042C000AAD03F68A6E700250026EFE7A802002055
:1042D000D800002054040020F0B587B0EFF310831D
:1042E00072B601932F4B1860FFF71AFF2E4F040090
:1042F0003A687B68029203932A4B9C461D6800280B
:104300000FD042690669EB179A4202DC24D1AE4213
:1043100022D91900226963692800121A8B4122618F
:104320006361029803992A00EB1712184B4100248D
:104330003A607B60634620001C60FFF7F9FE2100B5
:10434000FEF7A4FF019BA34202D162B6BFF36F8FB9
:10435000FFF7BAFE07B0F0BDF31704960593049A71
:10436000059B0298039980185941002300220E4DA5
:1043700022616361286069602000FFF701FF019BF3
:10438000002B02D162B6BFF36F8F2000A36898475D
:10439000EFF3108372B6034A019313689B1B1360FB
:1043A000A2E7C04654040020A802002010B5EFF395
:1043B000108472B6FFF7D8FE02000649C3170868DA
:1043C000496880185941002C02D162B6BFF36F8F43
:1043D00010BDC046A8020020F7B50400EFF3108519
:1043E00072B603680195002B05D0002D5CD162B632
:1043F000BFF36F8F58E00122C16A806A0023121850
:104400004B41002B01D1012A33D901267642F717FF
:1044100036184F41002F01DA0026002700F0E4FF94
:10442000012200238018594180197941002902DCBA
:104430003BD1002839D000F0D7FF0023012280189B
:10444000594180197941244B994201D1033030D828
:1044500000F0CAFF01220023801859410222524273
:10446000D31780197941121A8B4120001B49FFF79D
:10447000A3FE236B01332363236A002B0BD0002D93
:1044800002D162B6BFF36F8F2000236A9847EFF323
:10449000108372B60193A5691834A54201D0002D8E
:1044A0000BD1019B002BA2D0F7BD02225242D317A1
:1044B000DBE7802300221B06D7E7280000F014FF6B
:1044C0000023AB67019B002B02D162B6BFF36F8F55
:1044D000280000F0FDFEE7E7FFFFFF7FD94300085B
:1044E000F8B5060014001D00EFF3108772B6511CDA
:1044F00007D1591C05D1002F02D162B6BFF36F8FCF
:10450000F8BD002B0DDB14001D1E05DC002B01D1B6
:10451000002A01D10124002501225242D317A418F8
:104520005D41300000F036FF069A079BB262F362ED
:1045300000232200336330002B000249FFF73CFECA
:10454000D9E7C046D943000810B5024800F0D5FAB3
:1045500010BDC046035F0008F0B5436893B00390F8
:104560000893837815009B0700D4F8E0002301939B
:104570000E78002E6AD0252E0DD04B1C0993019B7E
:10458000013301930399089BF0B29847002800DAA1
:10459000DFE00999ECE74E788B1C0993252EEED0CD
:1045A000002304211C00099A0293079309921F2CEF
:1045B0002ED83000203810280AD8FBF781FD1D09BD
:1045C00009270909091E0909091B092509091800F4
:1045D0003300303B092B29D92A2E32D108CD600671
:1045E00022D4002B29DB20200793044305E001237C
:1045F0001C4302E002231C430C43099B01321E783A
:10460000002ED3D109922DE00823F1E71023EFE724
:104610007F2C1ED83300303B092BDDD8600605D532
:104620000A20029E7043C3180293E6E70A20079E01
:104630007043C31807932023DAE75B4207932823CC
:10464000D6E72E2E05D140231C42D1D0019813B0BD
:10465000F0BD6C2E2DD027D8682E31D06A2E32D0E6
:104660004C2E30D0029B002B03DA40239C430023C6
:104670000293202333431A00653A022A01D9612BA1
:1046800024D10722EB1D934308331D00AB4F029248
:10469000240753D5019A029B16009C18B4424FD1AF
:1046A000079B029A9E1A82E1742EA6D07A2EA4D07D
:1046B000D8E780231C429BD080208000044397E7EA
:1046C00080235B00F6E7A0239B0091E7300063386E
:1046D000122800D9E3E0FBF7F3FC0A46E2E2E2E24B
:1046E00046E2E2E2E2E2F3DDE2E211E2AD0004CD15
:1046F0000CAB1A7001230CAF0293C9E780CD002FD9
:1047000000D18F4F0299630601D40121494238003C
:1047100000F0BEFE0290BBE720200399089B98475B
:10472000002816DB013C029BA342F5D3079A019BAC
:10473000944663441B1B01930794ABE7079CF2E785
:10474000019B0399FB1A985D089B98470136002846
:10475000A4DA039B9A7804231343039A93700123EA
:104760005B42019372E723063FD5A30537D50722A5
:10477000073595432F000CCF049205931023250095
:104780009D43059B002B3ADA0499059A00244B427D
:104790009441049305948023DB001D43ADB20CAC1F
:1047A0000A2304980599220000F07DFE041B6B0685
:1047B00065D501232A009A431300029AA24200DC25
:1047C000A4E0002E00D19CE01022290011400B91A2
:1047D000154200D09CE0029A1D0006921EE02F00B8
:1047E00008CF0493DB170593C8E72F0008CFE20535
:1047F000F7D5A20501D55BB2F3E71BB2F1E7049B45
:10480000059A1343CBD16306C9D5029B002BC6D1B1
:1048100011339C43029B25001C0006932A00494B40
:104820001A400B921D4277D0069B0133069300235A
:104830000B9371E010239C43063B9C46802322008F
:104840001A4006921C4242D021008133FF331940A6
:104850001C4239D00722EB1D93431F0003CB0837BE
:1048600003000B4346D1250016339D43630644D510
:10487000029B002B41D117339C432500029C10233F
:104880002A001A400B921D4256D0631C002E42D0C3
:1048900022003FE0102378269C461C43CEE7782B6D
:1048A00004D110229B1B1A439446C7E72520039985
:1048B000089B9847002800DA4BE7019B023360E62B
:1048C000082300269C46B9E72F0001CFC8E72F0038
:1048D0008022210008CF5200180011401442BFD09E
:1048E000802221009200114098B21442B8D006995B
:1048F000D8B2B5E706239C4325000CAC63462200E2
:1049000052E711239D43029B069387E71D00B6E7FC
:104910001D00029A931C06932B072AD4EB0709D596
:10492000079B069A0294934204DD9B1A1B1902937B
:10493000079B0693069B10E006946FE7455F00080F
:104940003E5F00080604000020200399089B98475A
:10495000002800DAFDE60A9B01330A930A9A079BB6
:104960009342F1DC069A019B9B1A0A9A9B180193C9
:1049700006920B9B002B25D030200399089B98476B
:10498000002800DAE5E6019B002E12D101330193E5
:10499000019E029B019A9B189B1BA34220DC2500D1
:1049A000002D25D13D00079B069AA4199E1A01945B
:1049B00031E002330193F0B20399089B9847002835
:1049C000E6DAC6E6174B1D42E2D02020AB0700D541
:1049D0000B306D0500D52D20019B01330193EBE7D2
:1049E00030200399089B013698470028D1DAB0E6B9
:1049F0000CAB013DE85C0399089B98470028CFDA8F
:104A0000A7E6019B2020013301930399089B984757
:104A1000002800DA9DE6019AA3199B1A002BF0DC0E
:104A2000B7E5C046060400007047C900401840883A
:104A300040087047F8B50D000400FFF7F6FFFBF7DC
:104A40001FFC1F21091A8A00A218EB0010691F1D04
:104A50000633E719E318AEB2002808D101308840C8
:104A6000E1680143E16015613E801E80F8BDC10030
:104A70000431625A3A80D200A2181880D680665259
:104A8000F4E70723F7B50027043ACC1D89189C43A7
:104A900099430B1BDE080460A660E76030000093BA
:104AA00001912425FBF7ECFB20222D1A121A20007D
:104AB00039009200103000F0E3FC0123AD0007350F
:104AC000ED086A001A436280711BEA00A0184B00CF
:104AD00027804380009BA552E218019B57801980D4
:104AE0000123F600A6197288290013437380200061
:104AF000FFF7A0FFF7BD002070470FB407B504A96A
:104B000001C90191FCF76AFC03B008BC04B0184766
:104B1000704710B500F0B4FC10BD10B500F0A7FC54
:104B200010BD10B501000068FCF7EEFC10BD10B51B
:104B3000FCF71AFDFCF736FD10BD10B50021012071
:104B4000FCF7E2FC10BD10B5FCF77CFEFCF7B6FCF0
:104B5000FCF7C0FCFCF7BCFEFEF76EFD8620404271
:104B60007047002802D162B6BFF36F8F7047BFF362
:104B70004F8F30BF62B6BFF36F8F7047030010B521
:104B80000820202B0AD9802236301206934205D8FD
:104B9000581EFBF775FB1F23181A400010BD10B5F7
:104BA000FCF7F0FF002010BD1F23012019408840B2
:104BB0007047002210B511000C20FCF719FE0C20E4
:104BC000FCF70AFE10BD10B50400083C01212000CE
:104BD00000F027FC002803D12000FDF77DF910BD6F
:104BE00010235B422366FAE7436800205B681B6979
:104BF0000B60704743685B68586942401140414010
:104C0000596100207047436800205B6899617047D4
:104C1000436800205B6899627047436800205B68C6
:104C20005A6951405961704710B503699868002866
:104C300021D088421BD10868DC689860A14200D16D
:104C4000D86000200860824206D09A680A60DA685C
:104C50009960002A00D1D960002010E0814206D17D
:104C600008682060D8688142EBD1DC60E9E7040085
:104C700000680028F2D1002AE7D11620404210BD7A
:104C8000F0B50126302485B002933300144001941E
:104C900094098B4034408C404068023645680327B5
:104CA0009D432C4344608468A4461C008C406643AA
:104CB000F5430395D5093D4065432F006546B5434F
:104CC0002F4387600327520A3A406243C568B543C1
:104CD0002A43C260019A202A0CD1072914D8230044
:104CE0008B408B400F215943026A8A4302994B4300
:104CF00013430362019B02681B095C43039B1A4038
:104D00001443046005B0F0BD0F211B0A5B435B43F5
:104D10005943426A8A4302994B431A434262E9E784
:104D20001300F7B580221F00920217400C00019774
:104D3000134220D09A0717D55A0765D55022D906B5
:104D400014D5802189000A43C02519008026ED0072
:104D50002940F600B1424AD0A94218D08025AD00C2
:104D6000A94217D1802114E01022E8E79906EBD57B
:104D70008021C900E7E73022D903E5D5DA0603D45C
:104D80009A06D20F9202DFE780229200DCE7C02170
:104D900049000A43C0211E0089020E4005690096A1
:104DA0000B420AD02E693100E1408C460121674652
:104DB0000F4202D1A140314329610199002906D057
:104DC00041681E0315D50123A34049688B61002368
:104DD00021004068FFF754FF009B002B05D12B6991
:104DE00001221900E14011420AD10020FEBD8021BC
:104DF000CEE75B03EBD50123A34049688B62E6E76E
:104E0000A24093432B61F0E786204042EEE770B565
:104E10000B0089680500002903D05E680C68002932
:104E200000D170BD8B681A002A402B4202D030009E
:104E30004B689847231E00D0236821001C00EEE732
:104E4000F8B5050040681F000E001400FFF718FFBA
:104E5000112F06D101236A68B3405268240502D598
:104E600093610020F8BD9362FBE730B503681360DF
:104E700005790468ED006419A34202D30220404280
:104E800030BD5C798C4201D00833F0E70020F7E7B1
:104E90004068CB0300681B0D1B181F2001401E3803
:104EA00088401B680340591E8B41002013707047D7
:104EB0004268CB0312681B0D9B181F2211401E3A3B
:104EC0008A40186802431A600020704742681F2019
:104ED000CB0301401E38884012681B0D9B181A68CE
:104EE00082431A600020704770B50D000400FFF780
:104EF000DFFF29002000FFF7E9FF002070BD70B53B
:104F0000456804692000143000F09FF9286800F01B
:104F100076F9002819D0AB6914221B88002123855B
:104F20002B6A20001B8863852B7A0125DB06DB0EAC
:104F30009D4000F0A5FA23002C33A360022300203B
:104F4000E3600A336560237470BD13204042FBE7C1
:104F500010B5140003692A2913D12E22995E002965
:104F600012D0986AFBF7FCF8FA220023C1179200CE
:104F7000FBF7C4F9FA23206000209B0053436360D1
:104F800010BD86204042FBE73D20FBE770B5456839
:104F900004692000143000F058F9286800F02FF957
:104FA00000281AD001262B7A1422DB06DB0E002102
:104FB00020009E4000F064FA23002C33A3600223FB
:104FC000E3600A33666023742B6900201A882B7E05
:104FD0001A416B695343A36270BD13204042FBE743
:104FE0008022030052010800934207D0802252051C
:104FF000934207D1434258410130704743425841E0
:105000000330FAE7434258410230F6E7012210B577
:10501000436802211B68D869DC69C008104014424B
:1050200000D00843DC6904220C4200D01043D96947
:10503000114201D0202210438022D969520011422E
:1050400002D008211A620843C20701D508221A6259
:10505000820701D501221A62420701D502221A6293
:10506000820601D504221A6210BD43681A68EFF364
:105070001081012383F3108810683F3303431360CA
:1050800081F31088704743681A68EFF31081012399
:1050900083F31088402013688343136081F31088E2
:1050A000704743681A68EFF31081012383F3108877
:1050B00010681F330343136081F3108870474368FF
:1050C0001A68EFF31081012383F3108820201368FE
:1050D0008343136081F31088704743681B68D86965
:1050E0008006C00F704701207047036959609A60BD
:1050F000704710B502695368002B01D0916898473A
:1051000010BD002210B511001C20FCF771FB1C2003
:10511000FCF762FB10BD43681B68D8694006C00FEE
:105120007047436800201B68DA69120602D51868C8
:105130004006C00F7047802210B543681B68D869CD
:105140001042FCD0EFF3108072B6DC69144205D136
:105150000028F4D162B6BFF36F8FF0E799620028A0
:1051600000D010BD62B6BFF36F8FFAE7202243680C
:105170001B68D969114203D019680120114206D178
:10518000DA690020520602D518684006C00F704741
:10519000082243681B68D869104200D01A62DA6995
:1051A000920603D500205B6A0B70704701204042D5
:1051B000FBE770B5041E08D0FEF7FCF8050064019B
:1051C000FEF7F8F8401BA042FAD370BD10B5436952
:1051D0000400002B07D100230122E1684878024334
:1051E0004A70584210BD98470028F4D0C21783185F
:1051F0005340FF2B00DDFF23E2681370ECE700282B
:1052000009D00123C26800205178194202D01078D9
:105210004242504118407047EFF3108372B6FEE7E8
:1052200010B5FFF7F9FF10B5EFF3108372B6FFF773
:105230009EFCF9E70E2210B5825600238A4202D066
:10524000FEF7AAFC0300180010BD030000209860C0
:10525000D8601B605B6070470368426813605A60E7
:10526000002303604360704710B50400FFF7F4FFAC
:105270000222237C934323740023A36010BD70B5E6
:1052800004000D00FEF7F8FB0223227C1343237475
:10529000002D1CD0A5602B689D4209D16B6825604C
:1052A00063601C606C6012E06A689A42F6D01B680A
:1052B000002BF3D00E220E21A25659568A42F3D06B
:1052C0009142F1DD5A682360626014605C6070BDD9
:1052D00010B5EFF3108472B6FEF788FB002C02D1F4
:1052E00062B6BFF36F8F10BD10B5EFF3108472B6C6
:1052F0008368002B01D0FFF7B7FF002C02D162B604
:10530000BFF36F8F10BD70B50400EFF3108572B658
:105310002823027C1A420BD18368002B01D0FFF7AF
:10532000A3FF0422237C200093432374FEF75EFB3B
:10533000002D02D162B6BFF36F8F70BD10B5012191
:105340001838FFF7E0FF10BD70B5EFF3108572B6A7
:105350000468A0420BD0002C02D02000FFF784FF8D
:10536000002D02D162B6BFF36F8F200070BD002404
:10537000F6E70200C31700217C2010B580185941C0
:1053800000237D22FAF7DEFFC117FEF731FD7D23F2
:10539000584310BD70B50400EFF3108572B6036872
:1053A000002B1AD0FEF7BCFE06002000FEF7E8FE38
:1053B000802300221B0622616361A64206D1FEF70C
:1053C000D3FEFEF7B5FE0021FDF760FF0020002DA3
:1053D00002D162B6BFF36F8F70BD16204042F6E770
:1053E00010B5FEF7E3FF10BD10B5FEF7DFFF10BDEF
:1053F00010B50400FFF7CEFF002811D1636A002B1F
:1054000001D02000984720001830FFF79DFF0028AA
:1054100006D0FFF75DFFEFF3108072B6FEF746FC93
:1054200010BD0300EFF3108272B6006841181960D6
:10543000002A02D162B6BFF36F8F70470300EFF30B
:10544000108272B60068411A1960002A02D162B651
:10545000BFF36F8F70470300EFF3108272B60068DE
:105460001960002A02D162B6BFF36F8F7047002324
:1054700010B59A4200D110BDCC5CC4540133F8E79A
:1054800003008218934200D1704719700133F9E785
:10549000030041188B4202D01A78002A01D1181A51
:1054A00070470133F6E7F0B50D003721C91A8FB008
:1054B000C9B20D911F2104000B400C930C99E3B26B
:1054C000082955D0102900D164E0E9076008084395
:1054D000690806900791A008A9070843A908089041
:1054E0000991089E099F06980799801979410E072E
:1054F000B446060900966646009F37430E0900979A
:105500000196009E019F801979410E06B4466746B8
:10551000060A3E4302960E0A0396029E039F8019D6
:1055200079410E04B4466746060C3E4304960E0CC1
:105530000596049E059F8019794100260A910B96D5
:105540000A9E0B9F801979414E07CD080521C4089A
:105550003443614349005B1ADBB2092B12D90120A5
:1055600000210A3B24184D41DBB21DE00200A5E7F3
:1055700007210B4069078C466646E008E9080643A8
:1055800034000D00303313702300501C2B43EDD139
:105590000FB0F0BD0F210B4029078C46664620094D
:1055A0002909064334000D00092BEBD90D99CB18BE
:0455B000DBB2E7E79C
:0855B4009EB9FF7F0100000019
:1055BC00000000004C5600083D14000800000000DC
:1055CC00000000006856000800000000F4560008B7
:1055DC00000000002C570008000000008456000852
:1055EC00000000001057000800000000D85600080A
:1055FC0000000000BC56000800000000A056000887
:10560C00811C000800000000000000004857000842
:10561C008D270008000000000D320008000000007B
:10562C00AD1B0008000000000000000064570008DB
:10563C000000000080570008000000009C57000884
:10564C00565E00080000000030590008F4000020ED
:10565C0000000000A925000800000000B75E00084B
:10566C00645B0008E85800080201002000000000FC
:10567C000000000000000000215E00080000000097
:10568C0000000000F000002000000000D11B00080A
:10569C0000000000635E0008845A0008C45800082B
:1056AC00F6000020440300209128000800000000B0
:1056BC00715E0008985A0008C4580008F8000020D1
:1056CC005803002091280008000000007F5E0008AD
:1056DC00AC5A0008C4580008FA0000206C030020E3
:1056EC0091280008000000008D5E0008C05A0008D8
:1056FC00C4580008FC0000208003002091280008FA
:10570C00000000009B5E0008D45A0008C458000832
:10571C00FE000020940300209128000800000000E7
:10572C00A95E0008E85A0008C458000800010020CF
:10573C00A80300209128000800000000D55E000896
:10574C00B05B00084C59000808010020BC00002088
:10575C00952D000800000000455E0008CC5900089B
:10576C00B8580008F200002000000020C1220008F8
:10577C0000000000C85E0008685B0008F8580008CC
:10578C0004010020BC030020FF4E000800000000B4
:10579C00D05E0008945B0008145900080601002034
:0C57AC00EC0300208D4F000800000000FE
:1057B800000000003B4B0008000000003B4B0008C5
:1057C800000000003B4B0008000000003B4B0008B5
:1057D800000000003B4B0008435E0008391C00082D
:1057E800415E0008391C00083F5E0008391C0008AB
:1057F800000000003B4B0008000000003B4B000885
:10580800000000003B4B0008000000003B4B000874
:1058180000000000F1210008000000003B4B0008D8
:10582800000000003B4B0008000000003B4B000854
:10583800000000003B4B0008000000003B4B000844
:10584800000000003B4B0008000000003B4B000834
:10585800000000003B4B0008000000003B4B000824
:10586800000000003B4B0008000000003B4B000814
:10587800000000003B4B0008000000003B4B000804
:10588800000000003B4B0008000000003B4B0008F4
:1058980048570008F3500008000000003B4B000880
:1058A800000000003B4B0008000000003B4B0008D4
:0C58B800411E0008A11F0008E40C0000C5
:1058C400214D0008E94B0008F54B0008074C00087F
:1058D400114C00081B4C0008E1270008294C000863
:0458E40000000000C0
:1058E800914E0008B14E0008CD4E0008E94E000860
:1058F800000000000000000000000000292A000845
:105908004929000800000000000000000000000015
:105918000000000000000000B52A0008514F0008F0
:08592800000000000000000077
:105930000924000849240008000000007924000818
:0C59400075250008000000001D2500086F
:10594C0091510008375100080D500008112F000824
:10595C006D300008113100086D3100086B500008E3
:10596C008750000823510008A3500008BF500008BE
:10597C0017510008DB500008412B00088D2B000844
:0C598C006D510008E7500008EB500008C7
:1059980034000000010000000000002000000000AA
:1059A80000000B0602000000B459000800000008BF
:1059B800125E000822000206000000201A5E00089D
:1059C8001C000B1100240140B34B000834000000F8
:1059D80000020000000000000000000000000000BD
:1059E8000000000000000080245A0008525E0008F1
:1059F800145A00080200040008000D0014002800D2
:105A08005000A10004010001010000000000000096
:105A18000800000010000000180000002C5A0008C0
:105A280001000000345A00080100000010000000C6
:105A3800000000000000000000000000040000005A
:105A4800080000000C000000100000001400000016
:105A5800180000001C0000000000000020000000EA
:105A6800400000006000000080000000A00000006E
:105A7800C0000000E000000000010000FFFF00007F
:105A8800001C0050070000002C00000080000000EF
:105A9800FFFF000000100050040000002C00000070
:105AA80010000000FFFF0000000C00500300000081
:105AB8002C00000008000000FFFF00000008005054
