:020000040800F2
:10000000001B0020652D0008F16D0008512D00082F
:10001000512D0008512D0008512D0008000000004E
:10002000000000000000000000000000192E000881
:10003000512D000800000000C52D0008C551000822
:10004000992F0008992F0008992F0008992F000870
:10005000992F0008992F0008992F0008992F000860
:10006000992F0008992F0008992F0008992F000850
:10007000992F0008992F0008992F0008992F000840
:10008000992F0008992F0008992F0008992F000830
:10009000992F0008992F0008992F0008992F000820
:1000A000992F0008992F0008992F0008992F000810
:1000B000992F0008992F0008992F0008992F000800
:1000C000992F0008992F0008992F0008992F0008F0
:1000D000992F0008992F0008992F0008992F0008E0
:1000E000992F0008992F0008992F0008992F0008D0
:1000F000992F0008992F0008992F0008992F0008C0
:10010000992F0008992F0008992F0008992F0008AF
:10011000992F0008992F0008992F0008992F00089F
:10012000992F0008992F0008992F0008992F00088F
:10013000992F0008992F0008992F0008992F00087F
:10014000992F0008992F0008992F0008992F00086F
:10015000992F0008992F0008992F0008992F00085F
:10016000992F0008992F0008992F0008992F00084F
:10017000992F0008992F0008992F0008992F00083F
:0C018000992F0008992F0008992F000803
:1001C00090F800F06DE9024520F007016FF0000C97
:1001D00010F0070491F820F040F049804FF000043F
:1001E0006FF00700D1E9002391F840F000F108001A
:1001F00082FA4CF2A4FA8CF283FA4CF3A2FA8CF352
:100200004BBBD1E9022382FA4CF200F10800A4FAB8
:100210008CF283FA4CF3A2FA8CF3E3B9D1E904230C
:1002200082FA4CF200F10800A4FA8CF283FA4CF343
:10023000A2FA8CF37BB9D1E9062301F1200182FAFD
:100240004CF200F10800A4FA8CF283FA4CF3A2FA03
:100250008CF3002BC6D0002A04BF04301A4612BA11
:10026000B2FA82F2FDE8024500EBD2007047D1E914
:10027000002304F00305C4F100004FEAC50514F0A3
:10028000040F91F840F00CFA05F562EA05021CBF74
:1002900063EA050362464FF00004A9E7844641EA99
:1002A000000313F003036DD1403A41D351F8043BEE
:1002B00040F8043B51F8043B40F8043B51F8043B40
:1002C00040F8043B51F8043B40F8043B51F8043B30
:1002D00040F8043B51F8043B40F8043B51F8043B20
:1002E00040F8043B51F8043B40F8043B51F8043B10
:1002F00040F8043B51F8043B40F8043B51F8043B00
:1003000040F8043B51F8043B40F8043B51F8043BEF
:1003100040F8043B51F8043B40F8043B51F8043BDF
:1003200040F8043B51F8043B40F8043B403ABDD24E
:10033000303211D351F8043B40F8043B51F8043BF0
:1003400040F8043B51F8043B40F8043B51F8043BAF
:1003500040F8043B103AEDD20C3205D351F8043B7F
:1003600040F8043B043AF9D2043208D0D2071CBF4B
:1003700011F8013B00F8013B01D30B880380604674
:10038000704700BF082A13D38B078DD010F00303EA
:100390008AD0C3F10403D21ADB071CBF11F8013B5A
:1003A00000F8013B80D331F8023B20F8023B7BE7A9
:1003B000043AD9D3013A11F8013B00F8013BF9D2D4
:1003C0000B7803704B7843708B788370604670476E
:1003D00080F0004002E000BF81F0004142001FBFFA
:1003E0005FEA410392EA030F7FEA226C7FEA236C03
:1003F0006AD04FEA1262D2EB1363C1BFD2184140F8
:1004000048404140B8BF5B42192B88BF704710F08D
:10041000004F40F4000020F07F4018BF404211F030
:10042000004F41F4000121F07F4118BF494292EA98
:10043000030F3FD0A2F1010241FA03FC10EB0C00C4
:10044000C3F1200301FA03F100F0004302D5494251
:1004500060EB4000B0F5000F13D3B0F1807F06D3FE
:1004600040084FEA310102F10102FE2A51D2B1F1F6
:10047000004F40EBC25008BF20F0010040EA0300EB
:100480007047490040EB0000013A28BFB0F5000F6B
:10049000EDD2B0FA80FCACF1080CB2EB0C0200FA21
:1004A0000CF0AABF00EBC25052421843BCBFD04070
:1004B0001843704792F0000F81F4000106BF80F4EA
:1004C00000000132013BB5E74FEA41037FEA226CAD
:1004D00018BF7FEA236C21D092EA030F04D092F078
:1004E000000F08BF0846704790EA010F1CBF0020AC
:1004F000704712F07F4F04D1400028BF40F0004009
:10050000704712F100723CBF00F50000704700F028
:10051000004343F0FE4040F4000070477FEA22624F
:1005200016BF08467FEA23630146420206BF5FEA20
:10053000412390EA010F40F4800070474FF0000320
:1005400004E000BF10F0004348BF40425FEA000CE7
:1005500008BF704743F0964301464FF000001CE08F
:1005600050EA010208BF70474FF000030AE000BFE5
:1005700050EA010208BF704711F0004302D5404223
:1005800061EB41015FEA010C02BF84460146002095
:1005900043F0B64308BFA3F18053A3F50003BCFAB0
:1005A0008CF2083AA3EBC25310DB01FA02FC63445D
:1005B00000FA02FCC2F12002BCF1004F20FA02F264
:1005C00043EB020008BF20F00100704702F1200257
:1005D00001FA02FCC2F1200250EA4C0021FA02F2B8
:1005E00043EB020008BF20EADC7070474FF0FF0CBD
:1005F0001CEAD0521EBF1CEAD15392EA0C0F93EAB8
:100600000C0F6FD01A4480EA010C400218BF5FEA59
:1006100041211ED04FF0006343EA501043EA5111CC
:10062000A0FB01310CF00040B1F5000F3EBF4900C6
:1006300041EAD3715B0040EA010062F17F02FD2ACA
:100640001DD8B3F1004F40EBC25008BF20F00100AD
:10065000704790F0000F0CF0004C08BF49024CEAC4
:10066000502040EA51207F3AC2BFD2F1FF0340EA56
:10067000C250704740F400004FF00003013A5DDCC7
:1006800012F1190FDCBF00F000407047C2F1000208
:10069000410021FA02F1C2F1200200FA02FC5FEAF5
:1006A000310040F1000053EA4C0308BF20EADC703F
:1006B000704792F0000F00F0004C02BF400010F4B1
:1006C000000F013AF9D040EA0C0093F0000F01F05E
:1006D000004C02BF490011F4000F013BF9D041EA80
:1006E0000C018FE70CEAD15392EA0C0F18BF93EA82
:1006F0000C0F0AD030F0004C18BF31F0004CD8D1AC
:1007000080EA010000F00040704790F0000F17BF32
:1007100090F0004F084691F0000F91F0004F14D078
:1007200092EA0C0F01D142020FD193EA0C0F03D1D0
:100730004B0218BF084608D180EA010000F00040D3
:1007400040F0FE4040F40000704740F0FE4040F4AE
:10075000400070474FF0FF0C1CEAD0521EBF1CEA4D
:10076000D15392EA0C0F93EA0C0F69D0A2EB03026B
:1007700080EA010C49024FEA402037D04FF0805305
:1007800043EA111143EA10130CF000408B4238BFCA
:100790005B0042F17D024FF4000C8B4224BF5B1AD8
:1007A00040EA0C00B3EB510F24BFA3EB510340EA26
:1007B0005C00B3EB910F24BFA3EB910340EA9C00D4
:1007C000B3EBD10F24BFA3EBD10340EADC001B0144
:1007D00018BF5FEA1C1CE0D1FD2A3FF650AF8B42E8
:1007E00040EBC25008BF20F0010070470CF0004CF5
:1007F0004CEA50207F32C2BFD2F1FF0340EAC25020
:10080000704740F400004FF00003013A37E792F0E0
:10081000000F00F0004C02BF400010F4000F013A3E
:10082000F9D040EA0C0093F0000F01F0004C02BF39
:10083000490011F4000F013BF9D041EA0C0195E7A2
:100840000CEAD15392EA0C0F08D142027FF47DAF3B
:1008500093EA0C0F7FF470AF084676E793EA0C0F2B
:1008600004D14B023FF44CAF08466EE730F0004C29
:1008700018BF31F0004CCAD130F000427FF45CAFB9
:1008800031F000437FF43CAF5FE700BF4FEA400226
:10089000B2F1FE4F0FD34FF09E03B3EB12620DD9AE
:1008A0004FEA002343F0004310F0004F23FA02F018
:1008B00018BF404270474FF00000704712F1610FBF
:1008C00001D1420205D110F0004008BF6FF0004096
:1008D00070474FF00000704753B94AB9002908BF6C
:1008E00000281CBF4FF0FF314FF0FF3000F00CB874
:1008F000ADF1080C6DE904CE00F008F8DDF804E075
:10090000DDE9022304B07047704700BF2DE9F047CE
:1009100086468C460846089E154674461946002BA6
:1009200040F0C2808542B2FA82F245D94AB1C2F1A2
:10093000200300FA02FC2EFA03F3954043EA0C0C64
:1009400094404FEA154EA8B2BCFBFEF8230C0EFBF8
:1009500018CC08FB00F943EA0C43994528D9EB1859
:1009600008F1FF3704D2994502D9A8F102072B44B8
:10097000A3EB0903A4B2B3FBFEFC0EFB1C330CFB80
:1009800000F044EA0344A04214D92C190CF1FF33BF
:1009900004D2A04202D9ACF102032C44241A43EA47
:1009A00007401EB1D440002334607360BDE8F08777
:1009B0004746DDE76346F1E792BB431B01214FEA5F
:1009C000154EAFB2B3FBFEFC200C0EFB1C330CFB30
:1009D00007F840EA0343984562D9EB180CF1FF3061
:1009E00004D2984502D9ACF102002B44A3EB0803D2
:1009F000A4B2B3FBFEFC0EFB1C330CFB07F744EA6E
:100A00000344A7424ED92C190CF1FF3304D2A7425C
:100A100002D9ACF102032C44E41B43EA0040C0E7D6
:100A2000C2F1200320FA03F1954090402EFA03F31F
:100A300003434FEA154EAFB2B1FBFEFC0EFB1C1098
:100A4000190C0CFB07F841EA0041884504FA02F44E
:100A500022D969180CF1FF3004D2884502D9ACF1D3
:100A600002002944A1EB08019BB2B1FBFEFC0EFB86
:100A70001C110CFB07F743EA01439F420ED9EB1808
:100A80000CF1FF3104D29F4202D9ACF102012B4498
:100A9000DB1B41EA004192E76046E3E76146F7E786
:100AA0006046A3E76346B7E7834206D916B900213B
:100AB00008467BE7C6E900E0F9E7B3FA83F78FB9A8
:100AC000834201D3724508D8BEEB020460EB0303F6
:100AD00001209C461EB9002168E73846FAE7C6E9BE
:100AE000004CF8E7C7F1200CBB4022FA0CF41C4381
:100AF0002EFA0CF120FA0CF3B84001434FEA1449E6
:100B00000EFA07F5B3FBF9F81FFA84FE09FB18305B
:100B10000B0C08FB0EFA43EA00439A4502FA07F26F
:100B200040D9E31808F1FF3004D29A4502D9A8F160
:100B300002002344A3EB0A0389B2B3FBF9F809FBD3
:100B4000183308FB0EFE41EA03418E452CD961188B
:100B500008F1FF3304D28E4502D9A8F102032144E3
:100B600043EA0040A0FB0298A1EB0E014145CE46AE
:100B7000434602D306D14D4504D2B9EB020E68EBD1
:100B800004030138002EA6D0B5EB0E0261EB030181
:100B900001FA0CFC22FA07F34CEA0303F940C6E918
:100BA000003198E74046C5E74346D9E72DE9F041D3
:100BB00086B03B4D284607F053F820B32A69A96850
:100BC000136823F0080313600B684FF4C02203215D
:100BD00028469847334805F0D4FC1422002101A888
:100BE00005F000FC01230293042304931823CDF89D
:100BF0000CD08DF814302C4E304607F031F840B947
:100C00002A4805F0BEFC6FF01204204606B0BDE88D
:100C1000F081B36826491B6830469847041E04DA01
:100C20002448214605F0ADFCEFE72348DFF88C802F
:100C3000234F244C05F0A5FCAB6819485B690821DB
:100C40009847B36818485B6801A99847011E03DA02
:100C50001D4805F096FCEFE700991C4805F091FC53
:100C60000098FFF76FFC4146FFF774FD3946FFF728
:100C7000BDFC2146FFF7BAFCFFF708FE144B90FBC2
:100C8000F3F103FB110080EAE072A2EBE07211487D
:100C900005F077FC002142F2107007F0A7F8CBE7CF
:100CA000448000087C890008988000088889000832
:100CB000880000209E890008B9890008FEFFFF4ACD
:100CC0006F12034000247449C8890008DE890008B7
:100CD00040420F00EB8900082DE9F04F91B08407E6
:100CE000009302F004030293C2F3C20303F1010371
:100CF000DDF86880039205460E46059340F0BA8100
:100D0000041D30B1072909D86FF01B0011B0BDE8F0
:100D1000F08F01F007063444C6F10806009B4FF03F
:100D20000009591E4FF0040A4FF0FF330193CDF82C
:100D300010904F46CB4653460DB1009A226005985D
:100D4000002800F3E8809848009A824203D397482D
:100D50008242C0F0E080039AA4EB050E92074FEAAE
:100D60009E0000F103810F2F00F2B180002D00F0F2
:100D7000058107F140020DEB020C019A0CF8200CE2
:100D80000CF8102C049801300490E7E07A285DD824
:100D90004B280ED8472859D829282DD8252852D095
:100DA00054D820287AD02338D0F1000B4BEB000B1D
:100DB00074E04C382E2849D8DFE800F070484848E5
:100DC00048484848484848484B48484848484848A0
:100DD0004859484B4B595959704B6D487048184BFE
:100DE000184848827F4B48484B487F0000204FF00E
:100DF000000B4FF0040A38E02A38C0B2012202FA90
:100E000000F010EA0E0F49D110F0625C2FD110EA09
:100E1000020B43D06046013C5444B4FBFAF40AFB95
:100E200004F4002D61D0A3EB050CA444B4453FF6B7
:100E30006BAF002868D1042B47D158F8043B2360DE
:100E4000043404232AE0019A013A01924FF0000B86
:100E500024E011F8010C6C2834D111F8023C002078
:100E60006C2B8346C5D14FF0080A5346D3E708F1EF
:100E7000070828F007080734F8E802AB24F0070455
:100E800035B106982044B0423FF63EAFC4E900AB0E
:100E900008344FF0000B4FF0080A534611F8010FC9
:100EA000002878D0BBF1000F7FF470AF2528F5D172
:100EB000019B013301934FF0010B4FF0040AECE763
:100EC000584694E700208346A5E7082B02D06FF030
:100ED00015001BE708F1070828F00708F8E80223C7
:100EE000C4E9002308340823D8E768B9042B02D1E9
:100EF00008F10408A4E7082BE9D108F1070828F055
:100F0000070808F10808EDE7059A013A059258F834
:100F1000042B009210E7039A900720D5A4EB050E4E
:100F20004FEA9E004FF0010CBEF5007FCFD20F2F8D
:100F3000CDD8F5B107F140020DEB020EC0B2019A17
:100F40000EF8200C0EF8102CBCF1000F3FF41AAF75
:100F500060F07F000EF8200C09F101090137C5F19E
:100F60000802043406924FF6DA7E97E74FF0000C41
:100F7000DAE7BCF1000F01D00136EFE70298023644
:100F80000028EBD10098CDE90631FFF719F9DDE92A
:100F900006310644E2E7631BB3F5806F97D23DB993
:100FA000A6F10804E018B1E6307F0008B89B0008FD
:100FB000029A28609B082B709DF81030C2B1EB702C
:100FC00085F80290B9F1000F05D008A80022C5F1FC
:100FD000010C97420ED1C5F101030DF120084FF02D
:100FE000000A01930DF1300B574512D1601B8DE6BD
:100FF0006B70E5E710F8013B190608D50CEB040E01
:10100000B64503F07F033FF67FAE04F8013B0132A3
:10101000DFE7B9F1000F03D098F90020002A17DBB1
:10102000029BD3B11AF80B2004F8012B0022019B7C
:1010300018191044B0423FF667AE98F8000004F863
:10104000010B009903922046FFF728F9039A1444F4
:101050000AF1010A08F10108C6E798F8002055F8DE
:1010600022300093029B45F822300098FFF7A8F841
:10107000421CDCE76FF00D0048E600BF2DE9F04FA1
:1010800097B000AF90F802A0D7F880B03B62CBF3E6
:10109000C0030446FA62BB61894641B945780078CD
:1010A0000AEB800020444D4517D8A0EB0409E378F3
:1010B000FB61BAF1000F02D01BF0010F16D1FB69E2
:1010C00053BBFB6A1BB13A6A4946204698474D46D6
:1010D00028465C37BD46BDE8F08F461C3046FFF71A
:1010E0006FF80130304409F10109DCE723786268C8
:1010F0007A62FA6A9900796104EB8301002A40F070
:1011000000814D460E4601EB0A094FF000084E459E
:101110004CD101EB0A0610E01BF0020FD1D023786E
:101120009A007A6162687A62FA6A04EB8301002AA3
:1011300077D14D4601EB0A0690461BF0050F0CBF18
:1011400002230123FB62FB6906EB430A0BF0020357
:10115000BB625645BCD016F8021B16F8013C54F889
:101160002390994B994502D3984B994536D3BB6947
:10117000002B40D0786A05F0CBF900283BD0E94637
:101180008AB06A46924B53617B6AC2E906314FF4DA
:10119000007313848F4B42F8103F8F4800234FF4A5
:1011A000125101F041F8023DCD46D2E716F8013B5D
:1011B000F96254F82300FFF703F8D7F88430F96A8E
:1011C00001304BB1D7F8883098453EBFD7F884300E
:1011D00023F8180008F10108054498E7BB6923B11A
:1011E000786A05F095F90028C9D11BF0010F05D1E7
:1011F000FB6AED1AADE7BB6A002BAAD04846FEF7A2
:10120000DFFFD7F8843053B1D7F8883098453FBF17
:10121000D7F88420431C22F8183008F1010805444F
:1012200097E7BAF1000F72D01BF0040672D0D046D7
:10123000002607F1480052463B61B962FFF72EF8DD
:10124000B96A3B6901EB0A02BA62FA69F9695200AC
:10125000FA60BA6A02EB41023A610BF00202BA602C
:101260003A69B96A8A4257D162787A621BF0020FF2
:1012700032440CBF4FEA580100211BF0010FD2B2DB
:1012800040F09F801BF0040F14BF40460020BB615C
:101290006270A070E1703A6A7969FB6A20469847EB
:1012A000051EFFF615AFBB6923707B6A6370FB698F
:1012B000E37041463A6AFB6A84F802A007F14800ED
:1012C0009847B0F10008C0F2BB807B693A6AA9EB8D
:1012D0000A01C91AFB68C91AD7E90A039847002806
:1012E000C0F2B080A84408EB00054FF0000B07F1F6
:1012F000380AB34572D300213A6AFB6A0846984718
:10130000E6E656464FF0000807F1380093E75646E8
:10131000D04697E7B04695E7BA6A12F8021BBA6260
:1013200012F8015C284A54F82500904202D3274A5B
:1013300090421ED3BA6932B1786A7B6005F0E8F852
:101340007B6800288CD1BA6802BB08F1280207F13B
:10135000300C08F10100944407F1580252FA80F071
:1013600008F102080CF8101C5FFA88F800F8105C0D
:1013700076E7BA693AB1786A7B6005F0C9F87B68AC
:1013800000287FF46DAF1BF0010F09D006F1280291
:1013900007F13000711C161806F8205CCEB25FE72A
:1013A0001BF0040F3FF45CAF08F1280207F1300096
:1013B00008F1010102EB000808F8105C5FFA81F8FF
:1013C0004EE7002063E700BF307F0008B89B0008AD
:1013D000FC89000804000001108400081BF80A3092
:1013E00087F8373054F82390D7F884302BB3D7F8E8
:1013F00088309B4521D2D7F8843033F81B803A6A75
:10140000FB6A012107F13700984700281ADB0544E1
:10141000B8F1000F06D14846FEF7D2FE00F10108F0
:101420001FFA88F83A6AFB6A4146484698470028FE
:1014300008DB05440BF1010B5BE74FF00008DEE72A
:10144000454645E6054643E6014B1860704700BF38
:101450000000002030B587B00025CDE90301044627
:10146000009503A90548059500F06EF8DDE9043004
:101470009842B8BF255407B030BD00BF5F65000873
:10148000F0B5094E016802460A2700200B460131DB
:101490001C78355D6D0701D41360F0BD07FB004378
:1014A000A3F13000F2E700BF558800082DE9F84F9E
:1014B00015469A46D378234A12F803B06F2B81461B
:1014C0000F460BF0030B2BD026D8582B0CBF102641
:1014D0000A26DDF828803246002348463946FFF7C1
:1014E000FBF9092A08F1FF38D4B21ED83034B145CF
:1014F000E4B277F1000788F8004001D3D04511D855
:101500002B789B0605D5082E15D1AB7843F0080340
:10151000AB704046BDE8F88F03F0F703702BD5E7BA
:101520000826D6E781460F46D5E7BBF1010F0CBF71
:1015300037345734DBE7102EEBD1AB7843F0100390
:10154000E6E700BF558800082DE9F04F97B08A46BE
:10155000039016461C460025307808B9284656E305
:1015600025280AD0039B514698470028C0F24F8394
:10157000731C01350493049EEEE71822002110A885
:1015800004F030FF7378252B00F0A3800023711C3A
:1015900098469E469C4618460F4611F8012B2B2A6A
:1015A00000F0C68000F2BD80202A00F0C480232A0B
:1015B00000F0C4802BB19DF8483043F040038DF813
:1015C0004830B8F1000F05D09DF8483043F02003B3
:1015D0008DF84830BEF1000F05D09DF8483043F03B
:1015E00010038DF84830BCF1000F05D09DF848304D
:1015F00043F008038DF8483028B19DF8483043F097
:1016000004038DF848309DF8483003F04401442924
:1016100003D16FF386138DF848309DF84830099751
:1016200043F080032A2A8DF8483040F08C809DF8E2
:10163000493043F001038DF849307B1C1A782E2A7B
:101640009DF849200CBF0121002161F341028DF872
:1016500049200CD15A1C09925A782A2A40F08380DA
:101660009DF8492042F004028DF8492002331A788F
:101670006C2A00F0A48000F28680682A00F08C803A
:101680006A2A00F0A5804C2A00F0AA801A4612F8B7
:10169000013B0492782B9DF849208DF84B3000F2E5
:1016A00017816D2B00F2A980692B00F21181572B55
:1016B00000F2BE80412B03D0453B022B00F2088193
:1016C0009DF84A30042262F302038DF84A30012368
:1016D000CAE08DF84B30B31C04939DF84930D9070C
:1016E00040F1FD8054F8048BB8F1000F07DA9DF843
:1016F000482042F004028DF84820C8F100085A073B
:1017000040F1F68054F804BBBBF1000F80F2F58085
:101710009DF849306FF341038DF849304FF0FF3B9E
:10172000EBE02D2A0DD0302A7FF444AF012333E7BC
:101730004FF0010C30E74FF0010E2DE74FF001089C
:101740002AE7012028E709A8FFF79AFE099BBB4278
:101750003FF474AF9DF848201390C00F60F341022E
:101760008DF848206AE709A8FFF78AFE9DF84830FF
:101770001490C3F3400242EAD07262F341038DF841
:101780004830099B73E7742A26D07A2A7FF47EAF0B
:101790009DF8492006210CE05A78682A9DF84920D6
:1017A00006D1012161F3C6028DF8492002336DE7AD
:1017B000022161F3C6028DF84920013366E75A78A9
:1017C0006C2A9DF8492001D10421EBE70321F0E7C1
:1017D0009DF849200521ECE79DF849200721E8E71D
:1017E000BDF8482022F4F04222F0020242F4804286
:1017F00042F00202ADF84820DFE76E3BD9B2012388
:101800008B4040F282410B4238D113F0240F52D169
:10181000DF075DD59DF84A30032161F302038DF89F
:101820004A3002F07803A3F14000434243411BE0F9
:10183000A3F15801C9B2012000FA01F111F4624F7D
:101840007FF43EAF40F6010739421DD111F4043F49
:101850003ED09DF84A3060F3020302F07802402A3D
:101860008DF84A3034D000239DF84820C2F340015F
:101870000B4363F341028DF848202EE79DF84A3070
:10188000022161F30203E8E79DF84A10022002F00A
:10189000780260F30201402A8DF84A1002BF9DF8D9
:1018A000481041F001018DF84810632BDBD1131E65
:1018B00018BF0123D8E79DF84A30032161F30203E2
:1018C00012F0780F8DF84A3014BF01230023CBE7C4
:1018D0009DF8483043F001038DF84830C3E79DF987
:1018E0004820002AB4BFDDF84C804FF0FF3806E7EF
:1018F0009F077FF513AFDDF850B09DF84910002326
:10190000CDE913339DF84A3003F00703012BC1F3EF
:10191000C30132D1CB1E042B04D8DFE803F02045ED
:1019200045202000236801294FEAE372CDE91032F7
:101930001BD19DF94030DA17CDE9103204349DF8FF
:10194000483013F003074FD0049B039832465146AA
:1019500004F03BFE0028C0F25A8105440BE654F81F
:10196000043BDA17CDE91032E9E70229E6D11AB2D1
:1019700043F3C033CDE91023E0E7022B24D1CB1E83
:10198000042B04D8DFE803F0181010181800012900
:1019900054F8043B4FF0000214D00229CDE9103274
:1019A000CDD19BB21093CAE7073424F00704F4E8C2
:1019B0000223CDE91023C2E754F8043B109300231F
:1019C0001193BCE7DBB2CDE7042B08D1073424F038
:1019D0000704D4E900230834CDE91023AFE7032B33
:1019E000ADD154F8043BDDE79DF84B0078283FF675
:1019F000C2AD62281ED8252850D058287FF4BBAD30
:101A00000DF13E030093DDE910010AAB12AAFFF7C6
:101A10004DFDBBF1000F814680F2C280B9F1000F8D
:101A20003FF4A9AD0DF13E06A6EB0903002F7BD0D4
:101A3000013379E0633815283FF69DAD01A252F8D5
:101A400020F000BF171B0008751B00087715000861
:101A5000771500087715000877150008751B000832
:101A60007715000877150008771500087715000826
:101A7000C31B00089B1B0008D51A00087715000837
:101A800077150008AD1A0008771500089B1B0008A1
:101A900077150008771500089B1B0008039B51462B
:101AA00098470028C0F2B380013564E5BBF1000F10
:101AB000DDF840900ADB5946484604F0E5FCB9F1F0
:101AC000000F3FF458AD09EB000620E04846FEF752
:101AD00077FBF8E71098002800F087800DF13E06AC
:101AE0000AAB009612AA0021FFF7E0FCBDF84A30CD
:101AF00003F0EF0343F4F04343F01003BBF1000F96
:101B00008146ADF84A304ADA00283FF434ADA6EBFE
:101B10000903002708E0109B8DF8283000270DF1FD
:101B200029060DF1280901239DF84A1011F0100231
:101B3000069260D00233139A059213444A0644BFBA
:101B400014995B18B8F1000F6EDDA8EB03089DF83F
:101B500048305807C3F3800B66D459065AD53FB1B5
:101B6000039B514638469847002850DB01355F46B5
:101B7000302350E01E075CBFC3F300135F01DDE9B3
:101B8000102348BF2B27002BBFF63AAF524263EB1E
:101B90004303CDE910232D2732E7002730E7002744
:101BA0009DF848100DF13E03A3EB09036FF3861176
:101BB0009B458DF848107FF631AFABEB03031393D1
:101BC0002CE7109B07293FF6D6ACDFE801F00C04A8
:101BD000060C08080C0C1D70CDE41D80CBE4EA1740
:101BE000C3E90052C7E41D60C5E4314E0746A6F1C3
:101BF0000509052398E7080748BF01339BE7184606
:101C000007935146039B98470028079B04DA17B0B7
:101C1000BDE8F08F2023C346594600290BF1FF3B56
:101C2000EDDC45446D1AD84637B1039B5146384622
:101C300098470028EBDB01359DF84A30DA0601D4DD
:101C40001B0706D5039B5146302098470028DEDB52
:101C50000135069B3BB19DF84B00039B51469847CD
:101C60000028D4DB0135059F2F4406E0039B514635
:101C7000302098470028CADB01357B1B002BF5DCA0
:101C8000039833464A46514604F09FFC0028BEDBC9
:101C90000544A844A8EB0503002B7FF76CAC039B1D
:101CA0005146202098470028B1DB0135F2E700BFFC
:101CB000B58A0008034A536823F0020353600020EA
:101CC000704700BF002004E0084B1A6842F400721D
:101CD0001A601A6842F480621A601A6842F48072CC
:101CE0001A60034B034A1A60704700BF002002408D
:101CF0007800002000093D002DE9F047DFF858800A
:101D0000044607464FF0010914B93846BDE8F0878C
:101D100094FAA4F5B5FA85F509FA05F32E0108EB56
:101D200005156FEA030A24EA03042B7B002BEBD092
:101D300058F806301B694BB946440422736828469C
:101D4000196807EA0A0704F003FFDDE72846984709
:101D50000028D9D1F0E700BF9884000830B51049B9
:101D6000104889B0002206F0B6F80F4D0F49002246
:101D70000023CDE9062300240E23CDE90334CDE969
:101D800001440B4B00944FF44072284603F0CEFD03
:101D90000849284605F094FF204609B030BD00BF31
:101DA000B91D00089005002008010020000A00204D
:101DB000D5200008D98A0008014803F01FBD00BFE4
:101DC000F40000202DE9F047804620480F4604F03B
:101DD00097FE0646002832D000252846BDE8F08749
:101DE000237B83B12368DB680BB120469847636887
:101DF00083F8069023681B69CBB9636804221968CD
:101E0000204604F0A5FE013610345445E8D3B8F15D
:101E1000000FE2D0002DDFD02846FFF76DFF05460A
:101E2000002FF7D00021642005F0E0FFF2E7204604
:101E300098470028E1D009FA06F31D43E3E7044C74
:101E4000DFF810A005464FF00109DEE7500800203A
:101E500098840008A8840008014B53F820007047BC
:101E6000C484000808B5034608462BB1044A136031
:101E700000F074FC002008BD6FF01500FBE700BF08
:101E80000400002010B5044C237813B9034803F074
:101E9000B5FC0123237010BDE4090020F4000020EC
:101EA00010B504460B4804F02BFE5CB1BFF35B8F0A
:101EB000094B53E8001F013943E80012002AF8D10A
:101EC000BFF35B8F054806F012F80548BDE81040E7
:101ED00003F094BC480800204C0800209005002026
:101EE000F40000200020064BBFF35B8F014653E84F
:101EF000000F43E80012002AF9D1BFF35B8F70474F
:101F00004808002070B5FFF7EDFF084C084E054665
:101F1000B44200D370BD63685B792BB123685B6802
:101F200013B12946204698471034F1E798840008F9
:101F3000A884000810B5044C0449204604F05FFC56
:101F4000034B1C6010BD00BFB8000020B084000827
:101F5000400800200D4A0E48002310B513700D4AAA
:101F600013600D4A4FF47A711360FFF77BFFFFF7A0
:101F7000E1FF0A4B0A4918468B4200D310BD1A1ADA
:101F80005C681211013222711033F5E7E509002077
:101F90001B6B0008480800204C08002098840008AB
:101FA000A8840008014600220148002304F048BC30
:101FB000B8000020014804F0E1BC00BFB8000020D8
:101FC000024B0146186804F034BD00BF40080020F1
:101FD000014804F069BD00BFB800002070B5264B71
:101FE0001878002846D0FFF7E5FF054600283ED1C7
:101FF000224B234C1B68002B12DD05F06AFF0A22DE
:102000000023FEF769FCD4E90032C01A40F2E9333C
:1020100061EB0201984271F1000101D3FFF772FFF9
:10202000D4E9003213F57A7342F10002C4E90032B8
:10203000BDE87040FFF7CCBF63685B7923B12368CC
:1020400029461B68204698471034B442F4D32846EA
:10205000FFF7B6FFBFF35B8F0A4B53E8001F013950
:1020600043E80012002AF8D1BFF35B8FC0E7064CAB
:10207000064EEAE770BD00BFE409002048080020D2
:10208000880500204C08002098840008A8840008D7
:1020900070B50D4D297861B90120FFF793FE0B4C07
:1020A0000B4EB44206D3FFF799FF0028FBD1012362
:1020B0002B7070BD63685B791BB1236820469B68F9
:1020C00098471034EDE700BFE50900209884000828
:1020D000A884000800212DE9F0470846FFF772FEAA
:1020E000044648B34FF4FA784FF0000903F05CFE61
:1020F0001A4B186030B11A4B1B68092B02DD1948C6
:1021000003F07CFB184FDFF85CA0002544B12046AB
:10211000FFF7F2FD044618B94FF0FF384FF0FF39D2
:10212000FFF75CFF064628B9B5B942464B46504614
:1021300003F098FB3546E9E74FF0FF384FF0FF39E1
:10214000D4E72B689B691BB10022114628469847AB
:102150001035BD42F5D3E8E7044DFAE74408002006
:102160004C080020F4000020A8840008988400088F
:1021700013B5184804F0C4FC174B1B7873B1EFF388
:102180001184102383F31288BFF36F8FFFF726FFAC
:1021900084F31188BFF36F8F02B010BD0F4B1B6823
:1021A000002BF9D050B900220023CDE900230C48C0
:1021B00042F21072002304F0D7F8EDE70928EBD1C2
:1021C000074805F094FE074802B0BDE8104003F050
:1021D00015BB00BF4C080020E50900204408002082
:1021E00090050020F400002010B5064B1B68044643
:1021F00098472146A060044804F0A1FBBDE81040C8
:10220000FFF7B6BF04000020B8000020044A054BC9
:102210009B1AB1EBD30F34BF52F831000020704746
:1022200008840008988400082DE9F04F8FB004AFAF
:10223000C1F34A28B8600D4691467B600C0DB8F199
:10224000000F63D0002607F114034FF0040B4FF08A
:102250000A0AC7F80C80C7E907667E620193CDF8C9
:1022600008B0CDF800A007F11C03F96832464846D3
:10227000FEF704FFB0F5006F03461CD36C468AB02E
:10228000D9F8041004AB2648C3E9050140F2FF71F8
:10229000D9611A464FF400711984224B42F8103F5D
:1022A000214833464FF41251FFF7BEFFA5462C37A5
:1022B000BD46BDE8F08FC0F30A0804F117001844CA
:1022C00020F0070080083B60FFF76CFE68F35325A1
:1022D000044690B13B68154AC7E9083600F1100181
:1022E00007F11403F961CDE900A3CDF808B0F9684E
:1022F00007F11C034846FEF7C1FE68F353257B68CF
:10230000B9682A46204604F043FCD0E704F11700E0
:1023100020F007008008FFF745FE0446EDE700BF08
:10232000EE8A00080400000140840008636B000886
:102330002DE9F04F87B0DDE91279DDE9105A044646
:10234000039193469846BFB1CDF800903B46524664
:1023500010210020CDF81490FEF7BEFCB0F5006F00
:1023600006460AD3184A194840F2FF73022107B003
:10237000BDE8F04F04F065BC3E4605F1170030445F
:1023800020F0070004F007048008FFF70BFE0BF0B5
:10239000070BE40044EA8B1444EA462444EA05545B
:1023A000054640B13FB1CDF800903B46524631461C
:1023B0001030FEF791FC039943462246284607B0A9
:1023C000BDE8F04F04F0E4BB2D8B0008408400080A
:1023D000406820B1034BC01A40F3CF0070474FF064
:1023E000FF307047088400080EB403B503AB014604
:1023F00053F8042B0448019304F054FC02B05DF838
:1024000004EB03B0704700BFB36C0008CA0605D4E4
:102410008B064CBF02490349FFF7E6BF704700BF78
:10242000668B0008658B00082DE9F04F89B09A464D
:10243000149B06939DF84CB0159B0593169B179E15
:10244000049304460D469046BBF1000F00F09D80BA
:1024500006F48073079304F079FB06F00209024644
:1024600000283ED092492046FFF7BEFF0746B9F14B
:10247000000F08D016F0440F35D18E492A46204669
:10248000FFF7B2FF074406F0010353B18A4B8B49B3
:1024900053F82B208A4B2046002A08BF1A46FFF724
:1024A000A3FF06F48073002B49D006F00803002B2D
:1024B00063D1B8F1000F66D0824942462046FFF74B
:1024C00093FF0546069B3D44002B6DD1049B002BDA
:1024D00073D1F30700F1E58031462046FFF796FF00
:1024E000D9E00746C3E7784B18680028CAD0774B75
:1024F0004FF47A791B68B5FBF3F54FF46163B5FBD4
:10250000F0F100FB115509FB05F54FF03C0CB1FB58
:10251000F3F203FB1211B5FBF0FEB1FBFCF300FB81
:102520001E550CFB131109FB05F50091B5FBF0F5E9
:102530006749CDE901E52046FFF756FFA2E706F01F
:102540000803EBB1634B644953F82B202046FFF797
:102550004BFF0546B8F1000F05D05A4942462046C8
:10256000FFF742FF0544BAF1000FABD05B4952467A
:102570002046FFF739FF0544A4E74FF0000AE1E7E2
:1025800006F00805E6E745469CE7BAF1010F069B11
:1025900006D1002B65D1049B002B7CD000250CE0DC
:1025A000002BF8D04E485DE04E48069B4E4922462F
:1025B00003F07DFF049B002B69D0DFF83081DFF84A
:1025C0003091049F3146102F204628BF1027FFF777
:1025D0001DFF4FF0000A554546DC059B49461A7819
:1025E0002046FFF701FF4FF0010A1AF0070F03D151
:1025F00041462046FFF7F8FE57453CD9059B494622
:1026000013F80A202046FFF7EFFE0AF1010ABAF19B
:10261000100FEAD1374920464FF0000AFFF7E4FED9
:102620005246059B9A5C344B995C11F0970F08BF9A
:102630002E2232492046FFF7D7FE0AF1010ABAF1ED
:10264000100F1DD01AF0070F03D141462046FFF7A7
:10265000CBFE57455246E4D841462046FFF7C4FE1C
:10266000EBE720485D46A0E741462046FFF7BCFE69
:102670000AF1010AAFE722492046FFF7B5FEC4E799
:10268000059B3B440593049BDB1B049399D1BBF151
:10269000000F7FF41EAF204609B0BDE8F04F04F0F4
:1026A000F4BA074A05492046FFF79EFE14E700BF2B
:1026B0006D8B0008718B0008D4840008968B00088D
:1026C000688B0008998B00085808002054080020E7
:1026D0007A8B0008E88400089D8B0008A38B000813
:1026E000E96C0008B36C0008A56C0008B08B00080A
:1026F000A88B0008B28B000855880008B48B00082E
:10270000AE8B000873B542F20F738B4228BF0B46A5
:1027100005680F4A04460521684603F03FFF6368D9
:102720000C495B6806460B22284604F0A0FA636851
:102730003246694628465B6804F099FA63680649A0
:102740005B681B22284604F092FA02B070BD00BFFD
:102750005A930008D38B0008B78B0008074A002162
:102760000123904206D8064A01B901231360054BA4
:102770001860704740085B000121F2E740420F00FB
:102780005408002058080020F8B5074F0D460446AD
:102790004618B44201D12846F8BD14F8011BBB68A5
:1027A00001485B689847F4E77C800008014B0360B0
:1027B000002070473085000808B50348034A00210F
:1027C000121A04F00DFB08BD08010020EC090020DE
:1027D0000748084A084908B5121A04F003FB0748DD
:1027E000074A0849BDE80840121A04F0FBBA00BFC6
:1027F0000000002004010020B89B00080000002019
:1028000000000020B89B00082DE9F047064600AF05
:102810000C46002936D0E9468AB0D1E90012A368F7
:102820006D462148A8464FF0050AC5E90501C5E9EE
:10283000072348F810AF1D48424600234FF42151AA
:10284000FFF7F2FCCD46D4E903126369AD461848A0
:10285000C5F810A0C5E90501C5E907231348002301
:1028600042464FF42151FFF7DFFCCD46E369114AA0
:102870000E48012104F0E5F9A3690F4A0B48012134
:1028800004F0DFF9012E07D1EFF305830B4A074867
:10289000103B314604F0D5F92146304602F022FEC5
:1028A000BD46BDE8F08700BF198C000860840008B1
:1028B000488C0008778C0008868C0008B48C0008CF
:1028C00030BFFFF7FDBF00BF054B5A699B689A42B6
:1028D0001FBF044A536843F080535360704700BFE2
:1028E000B809002000ED00E070B5294C06460D4601
:1028F0002848294904F083FAA36AD9043CD525481D
:10290000264904F07CFA1720A36A1A0504D5214849
:10291000234904F074FA18201D4CA36A9B0512D5B4
:102920001C48204904F06BFAA36BA26A100409D575
:102930001D4A1848012104F084F91EB1A36A23F44A
:102940000043A3621920124CA36A590504D511480B
:10295000164904F054FA1A20A36ADA050ED50D4878
:10296000134904F04CFA1B20094A936A43F47F434D
:10297000936200232B7070BD1620C5E7A36A9B04E9
:10298000F2D504480B4904F03AFA1C20ECE700BFEA
:1029900000ED00E060840008C78C0008DD8C0008B2
:1029A000EE8C0008018D00081A8D00082F8D00089C
:1029B0004A8D0008628D000810B5204C204921483E
:1029C00004F01DFAA36A990136D51E481E4904F089
:1029D00016FA1E20A36ADA0104D51A481B4904F02E
:1029E0000EFA1F20154CA36A1B0304D5154818497D
:1029F00004F005FA2120A36A590304D511481549AA
:102A000004F0FDF922200D4CA36A9A0304D50D4869
:102A1000114904F0F4F92320A36ADB0304D5094823
:102A20000E4904F0ECF92420044A936A6FEA034348
:102A30006FEA1343936210BD1D20CBE700ED00E069
:102A4000918D000860840008A98D0008BC8D0008E5
:102A5000D68D0008F48D0008198E0008338E00080A
:102A60002DE9F843364D80468946364836491746A3
:102A700004F0C5F9AB6ADE0627D53449314804F0C5
:102A8000BEF91124AB6A1D0704D531492D4804F065
:102A9000B6F912242A4DAB6A980718D52D49294852
:102AA00004F0ADF96E6BAB6A190646D52A4A254883
:102AB0003346012104F0C5F8B9F1000F03D0AB6A29
:102AC00023F08003AB62132403E01024DAE76FF0F5
:102AD00015061B4DAB6ADA0704D52049194804F0E6
:102AE0008EF91424AB6A9B0604D51D49154804F0E1
:102AF00086F91524124B9A6AD50602D49A6A900771
:102B00000AD55B68190507D54146304600F002FA40
:102B100010B180F309880224094B9A6A920642BFD9
:102B20005A6A22F400525A629A6A42F0FF029A628A
:102B300000233B702046BDE8F8836FF01506C2E71E
:102B400000ED00E0608400085E8E0008748E0008CE
:102B5000EE8C0008A78E0008BF8E0008D58E0008F6
:102B6000628D00082DE9F041664B8AB0D3F80480ED
:102B700000AF0446C8F30805002686F31188BFF3AA
:102B80006F8F02F07F43B3F17F4F07D102F00C0348
:102B9000082B12D15C495D4804F031F90026344617
:102BA0000023FB71EB1E092B00F28A80DFE803F0A3
:102BB0000A80837C88888888888610074CBF0C46EA
:102BC0000126EDE7524951484E4D04F018F9002313
:102BD000FB71EB6A9A0705D54E494C4804F00FF992
:102BE000002332E0EB6A002B01DA4B49F5E7EB6A90
:102BF0005B00F5D54949454804F001F96B69A269C4
:102C000043F480736B61BFF34F8FBFF36F8F6B69BA
:102C100032F8022C23F480736B61BFF34F8FBFF344
:102C20006F8F4DF602739A4208D0AB6ADBB273B372
:102C3000FA1D01212046FFF713FF37E02368384AC9
:102C40003248012103F0FDFF2368FA79DAB907F170
:102C5000080504F1200C206861682A4603C2083484
:102C600064451546F7D17A6A002E45D0C2F30801B3
:102C700021B96FEA52226FEA42227A6207F1080113
:102C80001846FFF7C1FD2837BD46BDE8F081AB6AA5
:102C900013F47F4F04D0F91D0120FFF725FE05E056
:102CA000AB6AB3F5803F9BD3FFF786FE0346CCE7C4
:102CB000FA1D0021BEE7F91D0020EEE719498CE757
:102CC000194A1A4B18F4F87FE8468AB018BF134621
:102CD0006A461749C2E905134FF400731384103D87
:102CE000144BD56142F8103F084800234FF41151AE
:102CF000FFF79AFAC54673E722F4FF7222F0010249
:102D0000BBE700BF00ED00E0228F000860840008F0
:102D10004D8F0008648F0008858F0008938F00088E
:102D2000B28F0008CE8F0008098F0008F48E0008CB
:102D3000F28F000804000001044B5A6942F01002AF
:102D40005A615A6922F008025A61704700ED00E0AA
:102D5000EFF30880EFF3098101B57246FFF702FF38
:102D600001BD00BF0A4880F30888102080F3118855
:102D700008484FF40461401880F30988EFF3148089
:102D80000221084380F31488BFF36F8F00F08AF8A4
:102D9000001B0020400D0020084B9B6883420BD194
:102DA000EFF3058343B1064B5A6842F080525A60F4
:102DB0005A6A22F400425A6202F0FCBFB8090020AD
:102DC00000ED00E012498A684FF030001044EFF344
:102DD000098C80E8F01F102080F31288BFF36F8FFA
:102DE0000C4F4FF000664A698A603E60506F0023C6
:102DF000536780F3118804B5104600F0EBF8BDE886
:102E0000044002F1300090E8F01F8CF3098870470D
:102E1000B809002004ED00E01EF0040F0CBFEFF332
:102E20000880EFF30980816911F8021C0229FFD0A4
:102E300001B5724603F0D8FF01BD00BF40B20028C3
:102E400007DB044A4109012300F01F00834042F8D8
:102E50002130704700E100E040B20028A8BF00F137
:102E6000604001F10101B8BF064B4FEA0111ACBF50
:102E700000F5614000F00F00C9B2B4BF195480F8EA
:102E80000013704714ED00E0044B054A23F07F0364
:102E90009360BFF34F8FBFF36F8F70470000000840
:102EA00000ED00E008B5FFF7EFFF0B4AD2F88830DD
:102EB00023F47003C2F88830EFF3148323F0040383
:102EC00083F31488BFF36F8FFFF776FCFFF780FC66
:102ED00000F056F802F02AFC00ED00E042F8203C39
:102EE000009B42F81C3C0A49019B42F8183C029B9B
:102EF00042F8143C21F001014FF0807342F8043C89
:102F000042F8081C0023203A02654367704700BF5F
:102F1000B7650008094A0346906870B113F1160FAF
:102F2000406E05D0A0F140029A4205D8834203D2F8
:102F3000814228BF0020704700207047B809002058
:102F400008B50B4B0E461546986000F043F82C462A
:102F500086F309880020044B984720460021002270
:102F60000023024C20470000156E0008B7650008DA
:102F7000B8090020014B10221A61704700ED00E0F3
:102F8000044800231021C2180133532B82F8001388
:102F9000F9D1704700E100E008B5EFF30583064A78
:102FA000103B02EBC30152F8330049688847BDE883
:102FB0000840FFF789BC00BFEC800008024B034AC1
:102FC0000348012100F08AB8000001200000002021
:102FD00030850008426E054B403A1A60044A402191
:102FE000C3E901121846012100F082B880080020D0
:102FF00000000B1508B503461048D0F89020C2F326
:103000000722013A934207D90D480E4A012103F0E5
:1030100018FE6FF0150008BDC0F898300A6822F05D
:103020001F021A4342F01002C0F89C208A6842F046
:103030000102C0F8A0201846EDE700BF00ED00E057
:103040005884000809900008F0B50E4685B01F4668
:1030500004460025B5420DDA606810B397B1431EEF
:1030600018420AD0104A11482B46012103F0E9FD0D
:103070006FF01502104605B0F0BD1F28F2D9216887
:103080000B42EFD12368019303F0D8FEA36801A996
:103090000343D0B20393FFF7ADFF10F1160FE7D053
:1030A000421C01350C34D5E72F90000858840008E5
:1030B000044B0522C3F89420BFF34F8FBFF36F8FEB
:1030C000704700BF00ED00E0BFF35F8F024B0022AE
:1030D000C3F89420704700BF00ED00E010B5034C2A
:1030E00001232278FFF7B0FF207010BDE709002010
:1030F00008B50B4A00231278FFF7A6FF10F1160F50
:1031000007D0084A0021D2F89030C3F30723984231
:1031100000DB08BDC2F89800C2F8A0100130F2E749
:10312000E709002000ED00E02DE9F0435E485F492B
:10313000D0F890300D68C3F307239D4285B000F2AC
:10314000B080FFF7C1FF49680022954201F10C01F0
:103150001BD1574C574F25706846FFF727FBDFF808
:103160005881DFF8589106460025AE4220D12378D9
:103170004D490020D1F89020C2F307229342C0F2BB
:103180008A80FFF795FF00204FE0C0F8982051F8A3
:103190000C3C23F01F03134343F01003C0F89C3092
:1031A00051F8043C43F00103C0F8A0300132CCE7F1
:1031B000009800EB05114FEA051CCB683B40B3F5C6
:1031C000000F49D00AD8B3F5001F31D0B3F5800FF6
:1031D00037D0B3F5801F13D00135C6E7B3F1007FB8
:1031E00043D0B3F1805F49D0B3F1807FF4D150F880
:1031F0000C3088684A6803F021FE40F0887009E0CE
:1032000050F80C3088684A6803F018FE40F0885087
:1032100040F43020039001A92078CDE90123FFF785
:10322000E9FE002833DA6FF0150005B0BDE8F08341
:1032300050F80C3088684A6803F000FE40EA090044
:10324000E8E750F80C3088684A6803F0F7FD40F072
:10325000C06040F40030DDE750F80C3088684A6800
:1032600003F0ECFD40F08270D4E750F80C30886831
:103270004A6803F0E3FD40F48020CBE750F80C30BF
:1032800088684A6803F0DAFD40EA0800C2E723785C
:1032900001332370A0E7C1F89830C1F8A0000133D2
:1032A00068E74FF0FF30C0E700ED00E03C85000824
:1032B000E70900200000F0FF0000021100000811E3
:1032C000014B1860704700BF1000002007B5094A85
:1032D00092E803006B4683E803000748826812689F
:1032E00022B11946904703B05DF804FB6FF0570018
:1032F000F9E700BFA8840008B87F000800F01F02AB
:1033000001213F2808B501FA02F2034605D9084811
:10331000084A03F096FC002008BD074B1F2894BF05
:103320005B695B6B9A430CBF01200020F4E700BF90
:1033300018840008649000080004014000F01F0297
:1033400001213F2808B501FA02F2034606D90748D1
:10335000074A03F076FC6FF0150008BD1F28054BE7
:1033600002D85A610020F8E75A63FBE71884000886
:103370006490000800040140044B1844002301330A
:10338000994200F8012BFADC704700BF9000002042
:103390002DE9F041104F054600264FF001086B78EB
:1033A000F4B2A34201D8BDE8F0812B781C4420463A
:1033B000FFF7A4FF68B12046FFF7C0FF57F834308D
:1033C0003BB107EBC40204F01F04516808FA04F093
:1033D00098470136E3E700BF8C080020034660B140
:1033E000B0FA80F2C2F11F02D2B205498856054AEE
:1033F00011680B431360FFF721BDFF22F5E700BF03
:103400009000002000040140024A136823EA0003F0
:103410001360704700040140032921D8DFE801F060
:10342000020C10190F4B9A6822EA00029A60DA68BF
:1034300022EA0002DA6070470A4B9A680243F5E715
:10344000084BDA680243DA609A6822EA00029A605E
:103450007047044B9A6802439A60DA681043D86058
:10346000704700BF0004014030B5B0B1B0FA80F33E
:10347000C3F11F03DBB20B4850F833408C4204D138
:1034800000EBC3056D68954205D044B940F8331090
:1034900000EBC3004260002030BDFF23EBE76FF07C
:1034A0000F00F9E78C08002060B1B0FA80F3C3F197
:1034B0001F03DBB2044A002142F8331002EBC302BF
:1034C00051607047FF23F5E78C08002000F00302ED
:1034D000043292000F23934043EA900000F003036C
:1034E0000233064A52F82320030C02EA104093FAF2
:1034F000A3F3B3FA83F3D840704700BF0000014044
:103500002DE9F0418AB000AF022390463A1DC7E989
:103510000423FB6007F10803BB6107F110020123DC
:10352000C7E90823FB618B000E4643F02003416886
:10353000BF603B70002305467B7051F8040B07F118
:10354000200307F1180203F0F8FC0446C0B12B6811
:103550006D468AB06A461649D061C2E905134FF438
:1035600000731384134B42F8103F4FF4115112486B
:1035700003F0EFFC2046AD462837BD46BDE8F0819C
:103580007B7988F8003029686D468CB06A460B4814
:103590005061C2E908630A4840F201331385094BC0
:1035A000C2E9060142F8103F4FF45451DFE700BF73
:1035B000B29000080400000108840008E8900008A8
:1035C000BB96000806000001F0B587B000AF3B1DB8
:1035D00007F10802BB606E4601238AB0C7E90423E5
:1035E000FB6044680368397105466A4619485061B2
:1035F00019481162C2E9060340F201339384174B64
:1036000042F8103F16484FF4345103F0A2FC214613
:10361000B54651F8040B002307F1100203F08DFCAE
:10362000044690B18AB02B686A460E49D061C2E95F
:1036300005134FF4007313840B4B42F8103F0848F6
:103640004FF4115103F085FCB54620461C37BD46AA
:10365000F0BD00BF17910008D196000805000001D9
:103660000884000836910008040000012DE9F047A5
:1036700088B00369D0F804A003EB01080C4698F861
:10368000B8302849934202AF164615D16D4688B02E
:1036900002AA254BD461C2E90531042342F8103F48
:1036A00022484FF4045103F054FCAD46002528464F
:1036B0001837BD46BDE8F087A30043F040033B71D7
:1036C0003B1DBB600223FB604FF0010907F10803BB
:1036D0006D468AB07A713B61C7F8149002AA144B08
:1036E0001248C2E905310523C2E907464FF42451C7
:1036F00042F8103F03F02DFC5146AD4651F8040B43
:10370000002307F1100203F018FC054610B988F8F1
:10371000B860CBE7074A009023460448494603F0C7
:103720009AFAC4E7A4960008599100080884000892
:103730007A9100089A9100082DE9F04F83B00A7938
:10374000D0F804B012F01F0802AF064689460BD02D
:10375000794A7A48012103F06BFA6FF0150420468C
:103760000437BD46BDE8F08F90064B79897923D5A3
:103770003BB901295DD002295DD003290ED1202457
:1037800021E0012B06D1022957D0032957D029B9AE
:10379000602418E0022B09D1032952D0684A009115
:1037A0006648012103F057FA664AD2E7032BF5D1A8
:1037B0000229F3D1702406E0032B30D8DFE803F0B0
:1037C000024335378024604812F0200FEA468CB05F
:1037D0005E4A02AD18BF02465D486861C5E908232C
:1037E0005C48A9622A4640F20243AB855A4BC5E9C0
:1037F00006044FF4745142F8103F504803F0A9FBFF
:1038000099F80020A2F10903D5460B2B44D8DFE834
:1038100003F0494B431C4339433B433D3F414F4930
:1038200046481A4603F098FBBEE7A024CBE7B02435
:10383000C9E71C46C7E71024C5E73024C3E7402486
:10384000C1E75024BFE79024BDE704229BF82E3047
:1038500014430BB144F00104B9F8023023B1404ADB
:103860003648022103F0E4F999F801209BF82CA0D6
:103870009BF82D50062A36D8DFE802F03235353570
:103880001A3A18000622E1E70822DFE70A22DDE7FC
:103890000C22DBE70E22D9E73249284803F05CFB13
:1038A000314A56E70022D1E70222CFE74FF08008E5
:1038B000BBF82A202D49002331F8230090421AD169
:1038C0002B4A002112F8239030462246FFF7CEFE05
:1038D000041E15DA27492246184803F03DFB3EE74F
:1038E0004FF0C008E4E72449144803F035FB34E7FF
:1038F0004FF04008DCE70133082BDDD11F49F3E727
:10390000EA0042EA4A1202F0F80201213046FFF7CB
:10391000ADFE041E02DA1A492246DDE749EA080232
:1039200002213046FFF7A2FE041E02DA15492246A4
:10393000D2E7002413E700BFC591000808840008FF
:10394000F391000830920008BA910008BF91000876
:103950005C9200088E960008070000011A92000889
:10396000C992000895920008A6920008588900089C
:103970005689000841930008109300082693000818
:103980005D930008799300082DE9F04F8DB0D0F8D1
:10399000109002AF05460E4609F140084FF0FF3384
:1039A0004FF0FF32404601F05DFF337C2C69182B4D
:1039B00010D018220092B648B64A012103F04BF904
:1039C0006FF0150A404603F0BEFA50462C37BD464C
:1039D000BDE8F08F7168012905D00A46AC48AE49B0
:1039E00003F0BAFAECE7737C33B1AC4AA84803F0B1
:1039F0001FF96FF0850AE5E7336873B19A890132E0
:103A00009200F36893420AD2A14800920121A44A8D
:103A100003F021F96FF00B0AD4E70422F1E7D6F89E
:103A200008E0C4F890E0B246BAE80F0004F1640C74
:103A3000ACE80F00DAF80030CCF800304FF0000CA2
:103A4000C4F860C03368002B5CD00FCB04F178065B
:103A500086E80F006666A4F888C0002852D0BFF33D
:103A60005B8F54E8003F44E800C2002AF9D1BFF35D
:103A70005B8FA06F63304CF1000164220023FCF7E0
:103A80002BFF0022CDE90001002304F1080002F021
:103A90006BFC0022002309F1500001F0E3FE824696
:103AA00000288FD02C6904F1A8064FF0FF324FF0A8
:103AB000FF33304601F0D6FE0022002304F19800C7
:103AC00001F0D0FE08212846FFF77EFD824600B3B4
:103AD00029686D4688B002AA7248C2E905014FF410
:103AE00000719183704942F8101F69484FF4E25108
:103AF00003F02FFAAD46C4F860A004F1500003F0C3
:103B000022FA5FE7C4F894E004F1A80003F01BFA7E
:103B1000BFE72869983040F6C412002301F0A2FEE6
:103B2000824628B129686D4688B002AA5F48D4E76A
:103B30000423FA18C7E90423FB6007F10803BB61FB
:103B400007F110020123C7E90823FB616968BF6020
:103B500010233B70D4F890B051F8040B07F1200308
:103B600007F1180203F0E9F9824638B36E468AB0CD
:103B7000296802AA4E48C2F81CA0C2E905014FF408
:103B800000794C49A2F82090414842F8101F4FF4A8
:103B9000115103F0DEF9B54688B0296802AA4648FB
:103BA000A2F81C90C2E905013F4942F8101F3848AD
:103BB0004FF4E25103F0CDF9B5469CE7BB797A7931
:103BC000F9791B0243EA024319431B024CBF41F03F
:103BD0007F430B46CBF80030EB468CB0286802AA36
:103BE000DFF8D8C0C2F814C0C2E90813DFF8D0C0AB
:103BF00040F201331385334BC2E906C04FF45451F0
:103C000042F8103F224803F0A4F9D4F8903004336E
:103C1000C4F89030636EDD46B3B3E36FB4F8882028
:103C20003BB104F1640128469847012812D00228CC
:103C300024D0B4F88830B4F884209A421ED90133D5
:103C4000A4F88830A36F53B9D4F89030C4F89430F6
:103C500030465BE7D4F89430C4F89030F2E7BFF315
:103C60005B8F54E8003F5A1E44E800210029F8D138
:103C7000BFF35B8F012B7FF70CAFE5E7A36F1BB1A1
:103C800004F1080004F033F904F150003EE700BFEE
:103C90000884000895930008B7930008E99300088A
:103CA0000494000826940008030000014C940008C6
:103CB00074940008040000019C940008B694000865
:103CC0007A960008060000012DE9F84F814600AF02
:103CD00045680669994A9A48032102F0A9FF994963
:103CE000002206F1080004F0F6F806F1400801226F
:103CF0000021404603F0D2FF0122002106F15000CE
:103D000003F0CCFF0122002106F1A80003F0C6FF5A
:103D10000122002106F1980003F0C0FF286803F09B
:103D20009FFFC8B96C4688B0D9F800306A4686490A
:103D30008348C2E905134FF400739383834B42F821
:103D4000103F4FF4E25103F004F9A5466FF012045E
:103D50002046BD46BDE8F88F2B7E23B1E86803F00E
:103D60007FFF0028DED0286A03F07AFF28B9784A5E
:103D70007348012102F05CFFE8E7EB8C286A95F8B4
:103D8000241043F48032D0F810C0D0F808E013F0CB
:103D9000010F4FF00104DCF8003004FA01F414BF05
:103DA0002343A343CCF80030DEF800309847041ECC
:103DB00005DA68492246624803F0CEF8C8E795F86C
:103DC0002430654A4FF0010A0AFA03F3C6E93023AA
:103DD000286A8368DB6906F1BC0133B15246984713
:103DE000041E05DA5D492246E5E76FF05704F9E75E
:103DF000286A95F82410EB8C84680269A469DCB108
:103E000012680AFA01FA1AEA020F03F040030CBF23
:103E100043F0B86383F0707323F0794323F47F0396
:103E200023F47F4323F0BF034FF0A072A047041E8A
:103E300005DA4B492246BEE76FF05704F9E7322016
:103E400003F0F3FF6C4688B0D9F804B06A46454BDE
:103E500053614FF0030A444B9361394842F810AF65
:103E60004FF4C85103F075F80621A5464846FFF700
:103E7000ABFB041E07DA3D493148224603F06CF8DB
:103E80003B49224697E79BF82C309BF82D2003EB0B
:103E900043031344374A52F823004FF47A73400126
:103EA000B0FBF3F0323003F0C0FF334A24485146F0
:103EB00002F0BEFE06F1B80200214846FFF720FBE3
:103EC0000446B0B906F1B90201214846FFF718FBD4
:103ED000044670B906F1BA0202214846FFF710FB0A
:103EE000044630B906F1BB0251464846FFF708FBCD
:103EF0000446002C02DA214922465CE795F8282086
:103F000003214846FFF7B2FB041E02DA1C49224691
:103F100051E705F130014846FFF70EFC041E02DAB6
:103F20001849224647E7C82003F07FFFB36C13B956
:103F3000404603F008F800240AE700BFD5940008C3
:103F400008840008636F0008EE9400080300000175
:103F50000A950008239500084B6F00084595000856
:103F6000659500088C950008E6960008AA9500085B
:103F7000CB950008A0850008E69500081496000877
:103F80003A96000856960008024B1868C0F3802045
:103F9000704700BF0010024038B52F4B18680B88DF
:103FA000C3F30B030C2B0D46144624D813B96FF042
:103FB000850031E0013B0B2BF9D801A252F823F028
:103FC0000D40000847400008F13F0008434000084A
:103FD000AF3F0008474000080D4000080D400008B2
:103FE0000D4000081B4000082B4000083740000827
:103FF0004FF4FA400AE003F6B873C3F30B03182B2F
:10400000D5D8164A22FA03F3DB07D0D520602B68F7
:10401000B3F5805F19D2002038BD00F0BBF814233F
:1040200058430723B0FBF3F0F0E700F0B3F8142394
:1040300058434008EAE700F0ADF8142358438008DD
:10404000E4E70748E2E70020E0E7C3F31333013376
:10405000B0FBF3F02060DEE77800002011011101D1
:104060000024F400F8B5474F474C00F0A9F8384653
:1040700003F022F801F084F9A368444AC3F3031360
:104080001578D35C47FA05F520FA03F6AE4202D262
:10409000284601F0C3F9FFF777FF012807D023680E
:1040A00043F480732360FFF76FFF0128FBD1D4F83E
:1040B000943043F00103C4F89430D4F89430990755
:1040C000FBD5A36803F00C030C2B1AD1FFF75CFFA0
:1040D000012807D0236843F480732360FFF754FF5F
:1040E0000128FBD1A36823F0030343F00103A3607D
:1040F000A36803F00C03042BFAD1A36823F0F003A8
:10410000A360236823F08073236023689A01FCD4A2
:10411000E36823F4003343F06053E360E36843F45F
:104120008033E360E36823F4C003E360E36843F4AF
:104130008013E36000F032F8236843F0807323605B
:1041400023689B01FCD5A36823F0F003A360A36858
:1041500043F00303A360A36803F00C030C2BFAD114
:10416000AE4202D3284601F059F9094B1F60A368FB
:1041700023F4E063A360A36823F46053A3600020EA
:10418000F8BD00BF00B4C40400100240989A0008B3
:1041900078000020004870470024F400054B0649D1
:1041A000DA681140054A0A43DA60DA6842F0807240
:1041B000DA607047001002408C80FFF902140002A0
:1041C000064B9A6D42F080529A659B6D82B003F067
:1041D00080530193019B02B0704700BF0010024062
:1041E00008B5074803F03CFD38B10648FFF768F80A
:1041F0000448FDF729F9002008BD6FF01200FBE725
:104200007C800008094200080A2838B5074D04469A
:1042100004D1AB680D215B6828469847AB6803481A
:104220005B68E1B29847204638BD00BF7C8000083B
:104230002DE9F843D0F80480D0F81090D8F80800A1
:1042400017460D461E4602F057FEB7F5001F0446FE
:1042500016D12846D8F80840FFF738F984420CD127
:10426000294602F049FE0446FFF7CEF82046FFF744
:104270001BF900212046FFF7CFF80020BDE8F883A6
:10428000B7F5800F20D0B6F1806F19D0B6F1C06FAE
:1042900018D0B6F1007F1AD1022610494A462046AE
:1042A000FFF7E2F8B0B9D8F80810284602F029FE66
:1042B00020463146FFF7B0F82046FFF78FF8DCE7DD
:1042C0000126EAE70326E8E76FF08500D6E76FF0FE
:1042D0001500D3E76FF00F00D0E700BF2773000889
:1042E00008B5036958604168054883681B680C314C
:1042F0001BB1984700EAE07008BD6FF05700F9E77E
:10430000B87F000808B5044A0448012102F090FC77
:104310006FF0040008BD00BF4F9700083884000804
:1043200098B542680369D26883F8521000AF29B982
:10433000136823F440131360BD4698BD6C468AB0E1
:1043400003686A460848D161C2E905034FF4007367
:104350001384064B42F8103F054800234FF41151D7
:10436000FDF762FFA546E7E76D970008040000012E
:1043700038840008F7B50446436806691C48DD68C0
:104380000F4659688368DB68002201924BB9194ACD
:104390001948012102F04CFC6FF00404204603B0E0
:1043A000F0BD01AA98470028F1DB376206F110073B
:1043B0004FF0FF324FF0FF33384601F053FA2B68CD
:1043C00023F001032B60204696F85210FFF7A8FF58
:1043D0002046019900F0A0F896F8513004461BB130
:1043E0002B6843F001032B60384601F007FAD5E74C
:1043F000B87F0008819700083884000870B504462B
:10440000466805694FF0FF320021284603F046FC5C
:10441000336820469847002385F8503085F852309D
:104420000122114605F1100003F038FC204600F08F
:104430003FF83169184B994222D015D8174B994251
:1044400020D0174BCB1A594259418900204641F0E0
:104450001001FFF78FFF041E18DA124A12480121DB
:1044600002F0E6FB204670BD104B99420CD003F5DC
:10447000C31303F5206399420CBF0A210021E5E72D
:104480000621E3E70221E1E70821DFE7012385F8C0
:1044900050300024E6E700BF40420F00A086010034
:1044A000801A0600AF9700083884000840E1330006
:1044B00037B5456801AA6869002103F0DAF8041EDF
:1044C00007DB019B00221979186800F0CBF8041E65
:1044D00008DA0D4A0D482346012102F0B2FB2046BE
:1044E00003B030BD0A48696883681B683BB9094A54
:1044F0000648012102F09CFB6FF00404EFE79847A7
:1045000004460028EBD0F2E7E09700082884000872
:10451000B87F0008FE9700082DE9F74F446803694B
:104520000193E568E369DFF81881DFF81891DFF897
:1045300018A1DFF818B100930020009B8342019B73
:104540001A6A0DD1C2F34202012A3BD0022A68D076
:104550003F4A4048012102F06BFB6FF015001FE05D
:104560000C23D4F818C0DFF8F0E003FB00F70CEBE5
:104570000706736873451DD015D853451CD05B459D
:1045800014BF002301239B00C2F34202B2EB530F7E
:1045900016D15CF807308B4212D1B3682B61002032
:1045A00003B0BDE8F08F434508D04B450CBF0A234C
:1045B0000023E9E70623E7E70223E5E70823E3E72B
:1045C0000130BAE741F25C2E4FF47A6C40F2E247D8
:1045D0004FF4FA76214B0220421EB1FBF2F2B3FBFC
:1045E000F2F2BCFBF2F4013CFF2C23D8BEFBF2F844
:1045F00008F1FF38B8F1FF0F1CD8B6FBF2F9B9F19A
:104600000F0F17D8B7FBF2F2013A0F2A12D802386F
:1046100048EA094343EA007343EA025343EA0423A6
:10462000BCE740F2145E4FF4167C4FF4FA7740F288
:104630007716CFE701301128CED1094A89E700BFAC
:1046400040E13300404B4C00A0860100801A060078
:104650002E9800083084000840420F0000CA9A3BA0
:10466000A99800082DE9F0471E4F044600EBC1064B
:104670000025B44201D1002014E02068C30600F0F8
:104680001F0911D4656845F02005C0F3481AC0F32E
:104690004420192823D857F82080B8F1000F0DD1F5
:1046A0006FF01200BDE8F087B9F1100F04D0B9F136
:1046B000110FEAD16568E8E73025E6E7404603F0E8
:1046C000CFFA0028ECD04B462A460AF00F014046AC
:1046D00002F03FFE002804F10804CADAE2E76FF0B6
:1046E0001500DFE78C8600082DE9F04182B04368B1
:1046F00000AF1E6880460D46002936D058681969FB
:104700008368DB686BB13A1D9847041E0CDA1A4ABD
:104710001A48012102F08CFA20460837BD46BDE850
:10472000F0816FF05704F2E7336823F400433360FD
:104730007B6803EB5503B3FBF5F30F2B18D86C46DE
:104740008AB0D8F800306A460D49D561C2E9051330
:104750004FF4007313840B4B42F8103F07480023BB
:104760004FF41151FDF760FDA5466FF01504D3E736
:104770009BB2F3600024CFE7819700089084000883
:10478000ED98000804000001F8B50C460369416883
:104790001D682379012B16D09F1E7E427E41B602F2
:1047A0006279022A9CBF474F37F81270A27988BFFE
:1047B0004FF40057022A09D0042A30D0003B18BF1A
:1047C00001231B0306E04FF4C066E9E7B3FA83F365
:1047D0005B091B07E2790968012A14BF4FF0000C3E
:1047E0004FF4407CA5421DD10A6822F0805222F489
:1047F000B05232431A430A604B6823F440533B43A0
:104800004B6043681A68936823F4407343EA0C03CF
:1048100093602968FFF768FF00EAE070F8BD4FF485
:104820008053D7E7D1F800E00EF4C06E76451FBF85
:10483000D1F800E02EF4C06E4EEA06060E60416824
:104840000E68716801F440518F421FBF716821F4F6
:1048500040513943716041680E68316801F01021A0
:104860008B421FBF316821F010210B433360436836
:1048700019688B6803F440739C451FBF8B6823F451
:10488000407343EA0C038B6043681B6899684904D2
:1048900005D5032A09D09A6822F4804204E0032A4D
:1048A00003D19A6842F480429A6021682B68994249
:1048B00005D0FFF719FF0028B0DB23682B6000202C
:1048C000ACE700BF768900082DE9F04182B0456869
:1048D00006466868296983681B6800AF5BB9594A56
:1048E0005948012102F0A4F96FF057042046083717
:1048F000BD46BDE8F0819847044618BB686A3A1D7A
:10490000002102F0B6FE041EF0DB7B68002219795C
:104910001868FFF7A7FE041EE8DB756833692C688A
:10492000D3F80080236823F001032360A86803F014
:1049300097F978B9454A4448012102F079F96FF0B6
:104940001204D3E73F4A4048012102F071F9002CDC
:10495000CCDBD3E7D5E902018368DB6803B1984774
:1049600054E8003F43F00C0344E80032002AF7D13A
:1049700041463046FFF708FF002839DB2B7E1BB18C
:10498000A36843F00803A3606B7E1BB1636843F424
:1049900000436360AB7E1BB1636843F480336360A4
:1049A000EB7E1BB1636843F4003363602B7F002B05
:1049B0003BD0274B9C421ED0A3F574439C421AD097
:1049C00003F570539C4216D06C4688B033686A4633
:1049D0002049C2E905134FF4007393831E4B42F83C
:1049E000103F194800234FF4E251FDF71DFCA54686
:1049F0006FF015047AE773681A68936843F480438C
:104A0000936023686A7F23F0787343EA42532360FC
:104A10002368AA7F23F4F81343EA02432360EB7F61
:104A20001BB1A36843F40043A360236843F0010370
:104A30002360E3699A02FCD5E3695B02FCD500249C
:104A400054E700BF049900089084000824990008E6
:104A5000003801403F99000803000001F8B54368A1
:104A600091F805E01C680369024608791D688B7996
:104A700001280E4613D1BEF1020F55D9022B1F4655
:104A80004FF4C0614FF4005C66D0042B5FD0002867
:104A900067D0C31E012B5CD86FF08500F8BD0228DB
:104AA0000AD1BEF1020F4BD9022B1F464FF4806191
:104AB0000BD04FF4005CE8E7BEF1020F43D9022BA4
:104AC0001F4642D1002857D00021C31E012BE3D935
:104AD0000020022703239E45DED102F015FEB842D6
:104AE000DAD1F37963B1012B4ED1294B9C4207D027
:104AF000A3F574439C4203D003F570539C42CBD181
:104B0000236823F00103236031461046FFF73CFE83
:104B10000028C1DB236843F00103236096E803000B
:104B200085E803000020B9E74FF4C061194F022B5C
:104B300037F81EC01F46A8D170B94FF0805010E062
:104B40004FF48061F2E70021F0E70021B1E700288F
:104B5000A2D14FF4805004E0C31E012B9CD9022740
:104B60000020BCF5805F0BD0BCF5405F0AD0BCF1E3
:104B7000000FAFD10123AEE701464FF08050A9E707
:104B80000023A8E70223A6E7032BAED084E700BFEB
:104B90000038014076890008B0B582B004468068CC
:104BA00010F4B87000AF1FD06D468AB06A46104B43
:104BB0005361104BC2E906304FF4007313840E4B5F
:104BC00042F8103F00230D484FF41151FDF72CFB24
:104BD000A3685B06AD4605D5E3687B607B68A36888
:104BE0007B607B686FF004000837BD46B0BD00BF36
:104BF0007C9900086F9A0008040000017084000886
:104C00002DE9F047436805699B6800AF0446984763
:104C1000284602F0F9FE6068012102F095FE0028A6
:104C200002DA10F1860F16D1656826690021284640
:104C300002F08AFE041E0CDB2F48296983681B687A
:104C400063B19847044660B12C4A2D48012101F018
:104C5000EFFF04EAE470BD46BDE8F0876FF057044B
:104C6000F2E7B5684FF00108D6E9023203EBC20360
:104C70009D42EED2286802F0F3FF0346C0B92A68CD
:104C8000297910686C468AB06A461E4DD1614FF48E
:104C9000007111841C49C2E9055042F8101F1848E0
:104CA0004FF41151FDF7C0FAA5466FF01204D0E79A
:104CB00028682979EB88D0F810E0D0F808A0DEF851
:104CC00000C0DA0754BF43F4B01383F4D01323F4C5
:104CD000801208FA01F9DB074CBF4CEA09032CEA01
:104CE0000903CEF80030DAF800309847002801DBDD
:104CF0000835B9E70446ACE7B87F00088799000893
:104D000070840008A2990008040000012DE9F04F0A
:104D100085B0056900AF82460E469846914612B9A5
:104D2000002B00F00C82B3889A042FD44FF0FF328E
:104D30004FF0FF3305F1100000F094FD6E60DAF8DB
:104D400010307B601B68DAF804B0B288DBF80040F2
:104D50009E422DD1130540F10181236823F4444381
:104D6000B9F1000F19D043F440432360B388C3F373
:104D70004513082B00F2F8800126D9F800306B6348
:104D8000002B00F0FB80D9F80430F8E0AB69002B71
:104D9000CCD16B689E42C9D1D1E743F40043236074
:104DA000B388C3F34513082B00F2DE800126E3E04D
:104DB000DBF814100229C2F345131DD003291ED0BD
:104DC00001294FD1043B1C2B8CBF00230123D3B9F5
:104DD0006FF085022B6813B19B889B0407D40023D6
:104DE0007A606B6005F1100000F008FD7A681046EB
:104DF0001437BD46BDE8F08F043B0C2BE4E7082BCD
:104E000001D0102BE4D163681004AF484CBF43F0CD
:104E1000100323F0100363608368DBF81010DB6875
:104E200033B307F10C029847002821DBFB6800220E
:104E300030681146013223FA02FC844520D82368E9
:104E4000A24A23F040032360236852F8212023F074
:104E5000380313432360B38899072AD4236823F0C7
:104E6000020329E09A4A9B48012101F0E1FEAFE7E5
:104E7000994A9848012101F0DBFE6FF00402A9E78E
:104E8000082AD5D16C468AB06A469449C2E9051011
:104E900059081B0A13620523D16142F8103F8D485F
:104EA00000234FF42151FDF7BFF96FF01502A5461D
:104EB00090E7236843F002032360B38813F0040FE4
:104EC000236814BF43F0010323F001032360B38878
:104ED00013F4006F236823F4444305D0B9F1000FA5
:104EE00000F0C78043F440432360B38813F0100FF1
:104EF000236814BF43F0800323F0800323602368FA
:104F000023F400532360337D23B99BF818305A07EC
:104F100040F1B280236843F400732360636823F098
:104F200004036360B3886E4913F0010F236814BF54
:104F300023F4827343F482732360B2886368C2F3FC
:104F40004512043A23F4706351F82220134363603E
:104F5000636843F4805363607B681E60B388C3F367
:104F60004513082B40F29780102B8CBF0426022695
:104F7000B9F1000F7FF401AF00236B630023AB6333
:104F800005F14802334605F1380105F1340002F01D
:104F900071FC6864B8F1000F7FD1C5F83C80002334
:104FA0002B6405F15002334605F1400105F13C0048
:104FB00002F060FC0023E8642B63DAF80430266812
:104FC000D3F80090D9F8003043F04003C9F800301E
:104FD000DAF810A0DAF8000006F4444650B1037D78
:104FE00043B10121083002F0C4FCDAF8003018693E
:104FF00002F010FED9F8043043F02003C9F8043061
:10500000B8F1000F05D0D9F8043043F04003C9F8D7
:105010000430D9F8043043F08003C9F804304FF469
:10502000FA584FF00A0905F1200A0023A86B194627
:1050300081423BD10021D5F840C0084660453CD1B3
:105040008B4238BF0B4608FB03F22B681B68B2FB90
:10505000F3F2C832A2FB0923504600F003FC0028FB
:1050600042D0204A1B48012101F0E2FD6FF073029B
:10507000B0E643F4004337E7B38813F0010F236829
:1050800023F400737FF449AF43F480232360636803
:1050900043F0040345E701266AE7D8F80030EB63E4
:1050A000002B3FF47CAFD8F8043079E76A6B02EB51
:1050B000C102013152681344BAE7EA6B02EBC00245
:1050C000013052681144B9E7B87F000848870008EA
:1050D000C699000870840008EE990008409A0008FC
:1050E000C48700081A9A00082A6B002A7FF472AE5F
:1050F000B6F5404F1AD1AB6CABB92B6D9BB1DBF859
:105100000030196821F4444141F4004119601968E4
:1051100041F040011960596841F020015960596817
:1051200041F040015960266806F44446AB6C002B00
:105130007FF47BAF2B6D002B7FF477AF4AE61A46E6
:1051400055E600BF10B54FF0E0230F499C691A697E
:1051500008689B690D4902F4803234B993B903465B
:105160004AB90A681044C01A10BD002B08BF034694
:105170000AB9A342F5D90A6802440A604FF0E02256
:105180001269EEE70446F3E7B4090020B0090020F5
:10519000094B102283F82320084B4FF4FA521A606F
:1051A000074B002018604FF0E02341F63F725A6130
:1051B000072298611A61704700ED00E0B4090020F1
:1051C000B0090020684620F007018D4619B5FFF7A9
:1051D000B9FF114B1149D3E900420868001942F1A7
:1051E0000002C3E900020E4A00230B60D2E900412D
:1051F0004FF4FA53001BB0FBF3F043431B1941F18A
:105200000001C2E9003100F0B5FFFDF75DFBBDE82C
:1052100019408546704700BF98060020B00900205D
:10522000900600202DE9F041DFF8DC8099B1421CA6
:105230000BD14FF0E022136923F0010313614FF00B
:105240007F43C8F80030BDE8F081D8F8006001283D
:1052500007DC00270BE0431CD8F80060F7D14FF4BF
:10526000036040F631039842A8BF1846471EEFF38B
:105270001185102383F31288BFF36F8FFFF762FF4E
:10528000224C4FF0E0239969D4E90023801843F1C0
:105290000003C4E900031E4B00221A601D4B1A686C
:1052A000831A2ED44FF4FA5C0CFB073303F5F95341
:1052B0001F33B3FBFCF7131A0CFB0733B3F5806FF6
:1052C000154A38BF4FF48063934228BF13464FF00E
:1052D000E022C8F80030013B9069536100239361DC
:1052E0008142A1EB0003D4E9001238BF9B195B187F
:1052F00042F10002C4E9003285F31188BFF36F8FD9
:10530000A1E74FF48063E2E7B4090020980600208B
:10531000B00900209006002000DCFF0038B5EFF354
:105320001185102383F31288BFF36F8F084B1C681D
:10533000084B1B68E41AFFF705FF85F31188BFF3DC
:105340006F8F4FF4FA532044B0FBF3F038BD00BF29
:10535000980600209006002038B5EFF31185102341
:1053600083F31288BFF36F8F044B1C68FFF7EAFECC
:1053700085F31188BFF36F8F204438BD9806002055
:10538000224B9A68D96812F00C0205D00C2A15D16C
:1053900001F00301012918D119681D48090755BFFB
:1053A000D3F894101968C1F30321C1F3031150F825
:1053B000210012B10C2A09D000207047042A22D003
:1053C000082A144818BF002070470020DA6802F04D
:1053D0000302022A15D00F49032A08BF0846D968DC
:1053E000DA68C2F306224243D868C0F34160C1F3D1
:1053F0000211013001314000B2FBF1F2B2FBF0F0DA
:1054000070470548EBE70448704700BF00100240B2
:10541000F887000800127A000024F4001F4B421E97
:105420009A4201D9012070471D4B1B6803F4C063E9
:10543000B3F5007F0FD11B4B98421AD81A4B9842F4
:1054400027D81A4B984226D8194B984294BF00236C
:105450000123002011E0174B98420CD8A3F5F40368
:10546000A3F59053984214D8134B984213D8134B7A
:10547000EBE70423EDE70023012011490A6822F03D
:1054800007021A430A600A6802F007029342C9D170
:1054900070470323DDE70223DBE700BFFFB3C4044B
:1054A000007000400090D003006CDC020048E8016E
:1054B0000024F40080BA8C01001BB700808D5B00D3
:1054C0000020024010B50446FCF7E2FD0348044A00
:1054D000012101F0ADFB204602F0CDFB6084000805
:1054E000A89A00082DE9F843044600AF0D46EFF3F3
:1054F0001188102383F31288BFF36F8F0428294A81
:1055000098BF294B9668117C94BF53F82030274BE5
:10551000E9468AB06A462648C2E9073140F20133BB
:105520009384244BC2E9050442F8103F224800232B
:105530004FF43151FCF778FECD4645B1EB69C3F32A
:10554000080323B11D4A1C48012101F071FB2EB153
:10555000304602F0B8FB08B1037803B91848E946B1
:105560008AB06A46174BD061C2E9053640F2013372
:105570001384154B42F8103F00230F484FF411518C
:10558000FCF752FE2946CD462046FFF79BFF88F3E5
:105590001188BFF36F8F3046FDF7FEFBBD46BDE8B7
:1055A000F88300BFB809002028880008B79A0008CF
:1055B000CD9A00080500000160840008F59A0008F3
:1055C000C59A0008169B00080400000138B50A4B74
:1055D00053F82040013053F82050A54200D838BD80
:1055E000606830B1037EDB0701D402F021FB083490
:1055F000F3E723689847FAE73C88000870B52A4B20
:105600002A4C2B4D012286B003201A70FFF7DEFFD3
:1056100000F0E2FE0420FFF7D9FF2646AE4204F177
:10562000300410D300F0CCFA204C224EAC4226D3EA
:1056300000F0DAFAFBF7BAFA1F4A938923F0010364
:10564000938106B070BD54F80C3C059354F8103C9F
:10565000049354F8143C039354F8183C029354F800
:105660001C3C019354F8203C009354E90A2354E96C
:105670000C0100F01DF954F8303C5E65CDE7D4E92B
:105680000A23B3F1FF3F08BFB2F1FF3F05D052EA52
:105690000301206803D100F063FB3034C6E73146D4
:1056A000183000F0D7FCF8E7E809002084830008F0
:1056B00084830008B97D00082007002070B500230E
:1056C00086B00122CDE90423134E144D01930F221D
:1056D000CDE902321249142303FB005506EBC01634
:1056E00004464FF4C07000FB04110E4B00954FF4BC
:1056F000A072304600F0DCF8337C0B4AEE6023F0F9
:10570000040333744FF4046304FB033313442C7415
:105710006B6006B070BD00BFA0060020B809002075
:1057200080150020877C0008400D0020BFB50020B8
:10573000FFF74CFF294B83F30888294C294F6369F5
:1057400043F4007363610025F02384F82230E57789
:1057500025766576A57684F82050636A43F4E023C5
:105760006362FDF7E9FAFDF705FC4FF0FF33A36232
:10577000E362FDF7D9FCFDF721FCFCF7EBFB1A48CF
:105780001A4C00F0FFF8FCF79FFA0120FFF71EFF0C
:105790000220FFF71BFF00F05BFA154B15495C6117
:1057A000154B05930123CDE903534FF480623B462B
:1057B000CDE901550095204600F07AF8227C064696
:1057C00022F004022046227402F0B9FA2846FFF7BC
:1057D00075FF3A4631462046FDF7B2FB80150020A2
:1057E00000ED00E0FD550008A00700202007002084
:1057F000B809002000170020D08A000870B5EFF328
:105800001186102383F31288BFF36F8F0468A042C0
:105810001AD0CCB1D4E9003213605A60237C002541
:1058200023F002032374C4E90055A56004F11800B5
:1058300002F023FB2046A56702F081FA31460848B2
:10584000BDE8704000F096B9D0E902329A4218BF24
:105850000133836086F31188BFF36F8F70BD00BF83
:10586000E909002013B5EFF31181102484F31288A5
:10587000BFF36F8F846844B1013C846081F3118869
:10588000BFF36F8F002002B010BD52EA030406D1AF
:1058900081F31188BFF36F8F6FF00F00F3E7CDE94D
:1058A00000230246014800F043F9ECE7E909002033
:1058B000F0B5073285B022F0070204467F320E9D14
:1058C0000D9EA581583022F03F02C4E91600042540
:1058D00000203F2AA673C4E90600A0602574E07387
:1058E00001F14007A2F1400605D880F31188BFF30B
:1058F0006F8F284602DFC4E919768D1800260C9AAE
:10590000E66602920B9A01920A9A009220462A4673
:10591000FDF7E4FA044B66659B6803B11B6F2367D0
:10592000284605B0F0BD00BFB8090020F0B587B02B
:1059300000250595109D04950F9D03950E9D0295DC
:10594000DDE912760D9D01950C9D00950446FFF74B
:10595000AFFFB6F1FF3F08BFB7F1FF3F05D056EAF2
:10596000070305D1204600F0FBF9204607B0F0BD43
:105970003A46334604F11800014900F06BFBF4E7A6
:10598000B97D00080123037483810023C0E9193322
:105990000367014B98607047B8090020094A936873
:1059A0006FF00A019967084958674B6843F08053C4
:1059B0004B60002383F31188BFF36F8F9368986F58
:1059C000704700BFB809002000ED00E070B590F905
:1059D0001020037C002A36DBD90634D11B4C63F03F
:1059E0007F032246037452F8183FE169934207D1BE
:1059F000C0E900210860E06111E09942F8D01B681D
:105A0000002BF5D090F90E5093F90E60B542F4D00A
:105A1000AE42F2DD5968C0E9003108605860A569FE
:105A2000954200D005B9E568A3681A7CD20604D176
:105A3000DA897F2A01D9AA6932B1AB4202D028465D
:105A400000F088FA656170BD6361FCE7B809002069
:105A500038B590F91020037C002A014604DA03F0DF
:105A60007F03037402F031F90D4D2A46AB6852F8FA
:105A7000184F944200D004B9EC688B4207D01A7CCE
:105A8000D20604D1DA897F2A01D9A2692AB1A342B8
:105A900002D0204600F05EFA23466B6138BD00BF9D
:105AA000B8090020B3F1FF3F08BFB2F1FF3F03D0B8
:105AB0000249183000F0CEBA704700BFB97D000827
:105AC00038B5194CA168E0690B68814214BF1A46C9
:105AD000002249680B605960A368E1692AB9134A3A
:105AE000C3E900210B60E3610CE093F90E0092F929
:105AF0000E50A84214D0854212DD5168C3E900213E
:105B00000B605360A569094B9D4200D005B9E5685B
