:020000040800F2
:10000000C0960020852C0008E9690008712C0008C2
:10001000712C0008712C0008712C000800000000F1
:10002000000000000000000000000000392D000862
:10003000712C000800000000E52C0008854D000828
:10004000B92E0008B92E0008B92E0008B92E0008F4
:10005000B92E0008B92E0008B92E0008B92E0008E4
:10006000B92E0008B92E0008B92E0008B92E0008D4
:10007000B92E0008B92E0008B92E0008B92E0008C4
:10008000B92E0008B92E0008B92E0008B92E0008B4
:10009000B92E0008B92E0008B92E0008B92E0008A4
:1000A000B92E0008B92E0008B92E0008B92E000894
:1000B000B92E0008B92E0008B92E0008B92E000884
:1000C000B92E0008B92E0008B92E0008B92E000874
:1000D000B92E0008B92E0008B92E0008B92E000864
:1000E000B92E0008B92E0008B92E0008B92E000854
:1000F000B92E0008B92E0008B92E0008B92E000844
:10010000B92E0008B92E0008B92E0008B92E000833
:10011000B92E0008B92E0008B92E0008B92E000823
:10012000B92E0008B92E0008B92E0008B92E000813
:10013000B92E0008B92E0008B92E0008B92E000803
:10014000B92E0008B92E0008B92E0008B92E0008F3
:10015000B92E0008B92E0008B92E0008B92E0008E3
:10016000B92E0008B92E0008B92E0008B92E0008D3
:10017000B92E0008B92E0008B92E0008B92E0008C3
:0C018000B92E0008B92E0008B92E0008A6
:1001C00090F800F06DE9024520F007016FF0000C97
:1001D00010F0070491F820F040F049804FF000043F
:1001E0006FF00700D1E9002391F840F000F108001A
:1001F00082FA4CF2A4FA8CF283FA4CF3A2FA8CF352
:100200004BBBD1E9022382FA4CF200F10800A4FAB8
:100210008CF283FA4CF3A2FA8CF3E3B9D1E904230C
:1002200082FA4CF200F10800A4FA8CF283FA4CF343
:10023000A2FA8CF37BB9D1E9062301F1200182FAFD
:100240004CF200F10800A4FA8CF283FA4CF3A2FA03
:100250008CF3002BC6D0002A04BF04301A4612BA11
:10026000B2FA82F2FDE8024500EBD2007047D1E914
:10027000002304F00305C4F100004FEAC50514F0A3
:10028000040F91F840F00CFA05F562EA05021CBF74
:1002900063EA050362464FF00004A9E7844641EA99
:1002A000000313F003036DD1403A41D351F8043BEE
:1002B00040F8043B51F8043B40F8043B51F8043B40
:1002C00040F8043B51F8043B40F8043B51F8043B30
:1002D00040F8043B51F8043B40F8043B51F8043B20
:1002E00040F8043B51F8043B40F8043B51F8043B10
:1002F00040F8043B51F8043B40F8043B51F8043B00
:1003000040F8043B51F8043B40F8043B51F8043BEF
:1003100040F8043B51F8043B40F8043B51F8043BDF
:1003200040F8043B51F8043B40F8043B403ABDD24E
:10033000303211D351F8043B40F8043B51F8043BF0
:1003400040F8043B51F8043B40F8043B51F8043BAF
:1003500040F8043B103AEDD20C3205D351F8043B7F
:1003600040F8043B043AF9D2043208D0D2071CBF4B
:1003700011F8013B00F8013B01D30B880380604674
:10038000704700BF082A13D38B078DD010F00303EA
:100390008AD0C3F10403D21ADB071CBF11F8013B5A
:1003A00000F8013B80D331F8023B20F8023B7BE7A9
:1003B000043AD9D3013A11F8013B00F8013BF9D2D4
:1003C0000B7803704B7843708B788370604670476E
:1003D00080F0004002E000BF81F0004142001FBFFA
:1003E0005FEA410392EA030F7FEA226C7FEA236C03
:1003F0006AD04FEA1262D2EB1363C1BFD2184140F8
:1004000048404140B8BF5B42192B88BF704710F08D
:10041000004F40F4000020F07F4018BF404211F030
:10042000004F41F4000121F07F4118BF494292EA98
:10043000030F3FD0A2F1010241FA03FC10EB0C00C4
:10044000C3F1200301FA03F100F0004302D5494251
:1004500060EB4000B0F5000F13D3B0F1807F06D3FE
:1004600040084FEA310102F10102FE2A51D2B1F1F6
:10047000004F40EBC25008BF20F0010040EA0300EB
:100480007047490040EB0000013A28BFB0F5000F6B
:10049000EDD2B0FA80FCACF1080CB2EB0C0200FA21
:1004A0000CF0AABF00EBC25052421843BCBFD04070
:1004B0001843704792F0000F81F4000106BF80F4EA
:1004C00000000132013BB5E74FEA41037FEA226CAD
:1004D00018BF7FEA236C21D092EA030F04D092F078
:1004E000000F08BF0846704790EA010F1CBF0020AC
:1004F000704712F07F4F04D1400028BF40F0004009
:10050000704712F100723CBF00F50000704700F028
:10051000004343F0FE4040F4000070477FEA22624F
:1005200016BF08467FEA23630146420206BF5FEA20
:10053000412390EA010F40F4800070474FF0000320
:1005400004E000BF10F0004348BF40425FEA000CE7
:1005500008BF704743F0964301464FF000001CE08F
:1005600050EA010208BF70474FF000030AE000BFE5
:1005700050EA010208BF704711F0004302D5404223
:1005800061EB41015FEA010C02BF84460146002095
:1005900043F0B64308BFA3F18053A3F50003BCFAB0
:1005A0008CF2083AA3EBC25310DB01FA02FC63445D
:1005B00000FA02FCC2F12002BCF1004F20FA02F264
:1005C00043EB020008BF20F00100704702F1200257
:1005D00001FA02FCC2F1200250EA4C0021FA02F2B8
:1005E00043EB020008BF20EADC7070474FF0FF0CBD
:1005F0001CEAD0521EBF1CEAD15392EA0C0F93EAB8
:100600000C0F6FD01A4480EA010C400218BF5FEA59
:1006100041211ED04FF0006343EA501043EA5111CC
:10062000A0FB01310CF00040B1F5000F3EBF4900C6
:1006300041EAD3715B0040EA010062F17F02FD2ACA
:100640001DD8B3F1004F40EBC25008BF20F00100AD
:10065000704790F0000F0CF0004C08BF49024CEAC4
:10066000502040EA51207F3AC2BFD2F1FF0340EA56
:10067000C250704740F400004FF00003013A5DDCC7
:1006800012F1190FDCBF00F000407047C2F1000208
:10069000410021FA02F1C2F1200200FA02FC5FEAF5
:1006A000310040F1000053EA4C0308BF20EADC703F
:1006B000704792F0000F00F0004C02BF400010F4B1
:1006C000000F013AF9D040EA0C0093F0000F01F05E
:1006D000004C02BF490011F4000F013BF9D041EA80
:1006E0000C018FE70CEAD15392EA0C0F18BF93EA82
:1006F0000C0F0AD030F0004C18BF31F0004CD8D1AC
:1007000080EA010000F00040704790F0000F17BF32
:1007100090F0004F084691F0000F91F0004F14D078
:1007200092EA0C0F01D142020FD193EA0C0F03D1D0
:100730004B0218BF084608D180EA010000F00040D3
:1007400040F0FE4040F40000704740F0FE4040F4AE
:10075000400070474FF0FF0C1CEAD0521EBF1CEA4D
:10076000D15392EA0C0F93EA0C0F69D0A2EB03026B
:1007700080EA010C49024FEA402037D04FF0805305
:1007800043EA111143EA10130CF000408B4238BFCA
:100790005B0042F17D024FF4000C8B4224BF5B1AD8
:1007A00040EA0C00B3EB510F24BFA3EB510340EA26
:1007B0005C00B3EB910F24BFA3EB910340EA9C00D4
:1007C000B3EBD10F24BFA3EBD10340EADC001B0144
:1007D00018BF5FEA1C1CE0D1FD2A3FF650AF8B42E8
:1007E00040EBC25008BF20F0010070470CF0004CF5
:1007F0004CEA50207F32C2BFD2F1FF0340EAC25020
:10080000704740F400004FF00003013A37E792F0E0
:10081000000F00F0004C02BF400010F4000F013A3E
:10082000F9D040EA0C0093F0000F01F0004C02BF39
:10083000490011F4000F013BF9D041EA0C0195E7A2
:100840000CEAD15392EA0C0F08D142027FF47DAF3B
:1008500093EA0C0F7FF470AF084676E793EA0C0F2B
:1008600004D14B023FF44CAF08466EE730F0004C29
:1008700018BF31F0004CCAD130F000427FF45CAFB9
:1008800031F000437FF43CAF5FE700BF4FF0FF3C27
:1008900006E000BF4FF0010C02E000BF4FF0010C7A
:1008A0004DF804CD4FEA40024FEA41037FEA226C43
:1008B00018BF7FEA236C11D001B052EA530C18BF65
:1008C00090EA010F58BFB2EB030088BFC81738BFCA
:1008D0006FEAE17018BF40F0010070477FEA226CB8
:1008E00002D15FEA402C05D17FEA236CE4D15FEAB4
:1008F000412CE1D05DF8040B704700BF84460846E8
:100900006146FFE70FB5FFF7C9FF002848BF10F1A8
:10091000000F0FBD4DF808EDFFF7F4FF0CBF0120ED
:1009200000205DF808FB00BF4DF808EDFFF7EAFF77
:1009300034BF012000205DF808FB00BF4DF808ED32
:10094000FFF7E0FF94BF012000205DF808FB00BF27
:100950004DF808EDFFF7D2FF94BF012000205DF8AD
:1009600008FB00BF4DF808EDFFF7C8FF34BF0120BA
:1009700000205DF808FB00BF4FEA40024FEA410348
:100980007FEA226C02D15FEA402C08D17FEA236C17
:1009900002D15FEA412C02D14FF0000070474FF0C6
:1009A000010070474FEA4002B2F1FE4F0FD34FF003
:1009B0009E03B3EB12620DD94FEA002343F00043CC
:1009C00010F0004F23FA02F018BF404270474FF07A
:1009D0000000704712F1610F01D1420205D110F001
:1009E000004008BF6FF0004070474FF000007047B4
:1009F00053B94AB9002908BF00281CBF4FF0FF3186
:100A00004FF0FF3000F00CB8ADF1080C6DE904CEEA
:100A100000F008F8DDF804E0DDE9022304B07047D7
:100A2000704700BF2DE9F04786468C460846089E71
:100A3000154674461946002B40F0C2808542B2FA32
:100A400082F245D94AB1C2F1200300FA02FC2EFA23
:100A500003F3954043EA0C0C94404FEA154EA8B2BC
:100A6000BCFBFEF8230C0EFB18CC08FB00F943EA94
:100A70000C43994528D9EB1808F1FF3704D2994562
:100A800002D9A8F102072B44A3EB0903A4B2B3FBDC
:100A9000FEFC0EFB1C330CFB00F044EA0344A042B6
:100AA00014D92C190CF1FF3304D2A04202D9ACF1B5
:100AB00002032C44241A43EA07401EB1D440002309
:100AC00034607360BDE8F0874746DDE76346F1E7D1
:100AD00092BB431B01214FEA154EAFB2B3FBFEFCA4
:100AE000200C0EFB1C330CFB07F840EA034398452F
:100AF00062D9EB180CF1FF3004D2984502D9ACF161
:100B000002002B44A3EB0803A4B2B3FBFEFC0EFBD4
:100B10001C330CFB07F744EA0344A7424ED92C19B7
:100B20000CF1FF3304D2A74202D9ACF102032C44EA
:100B3000E41B43EA0040C0E7C2F1200320FA03F1BE
:100B4000954090402EFA03F303434FEA154EAFB29F
:100B5000B1FBFEFC0EFB1C10190C0CFB07F841EA64
:100B60000041884504FA02F422D969180CF1FF30DB
:100B700004D2884502D9ACF102002944A1EB080156
:100B80009BB2B1FBFEFC0EFB1C110CFB07F743EA0A
:100B900001439F420ED9EB180CF1FF3104D29F4262
:100BA00002D9ACF102012B44DB1B41EA004192E780
:100BB0006046E3E76146F7E76046A3E76346B7E7C9
:100BC000834206D916B9002108467BE7C6E900E052
:100BD000F9E7B3FA83F78FB9834201D3724508D896
:100BE000BEEB020460EB030301209C461EB900210A
:100BF00068E73846FAE7C6E9004CF8E7C7F1200C89
:100C0000BB4022FA0CF41C432EFA0CF120FA0CF330
:100C1000B84001434FEA14490EFA07F5B3FBF9F85F
:100C20001FFA84FE09FB18300B0C08FB0EFA43EA8E
:100C300000439A4502FA07F240D9E31808F1FF3061
:100C400004D29A4502D9A8F102002344A3EB0A0377
:100C500089B2B3FBF9F809FB183308FB0EFE41EA31
:100C600003418E452CD9611808F1FF3304D28E451B
:100C700002D9A8F10203214443EA0040A0FB0298F4
:100C8000A1EB0E014145CE46434602D306D14D4568
:100C900004D2B9EB020E68EB04030138002EA6D093
:100CA000B5EB0E0261EB030101FA0CFC22FA07F32B
:100CB0004CEA0303F940C6E9003198E74046C5E72E
:100CC0004346D9E72DE9F04387B0564C204606F05D
:100CD00046FC18B32269A168136823F00803136067
:100CE0000B684FF4C0220321204698474E4805F078
:100CF0003EFA1422002101A805F06AF901230293AB
:100D0000042304931823CDF80CD08DF814304748F1
:100D100006F025FC38B9464805F029FA6FF01200B4
:100D200007B0BDE8F0834348434D444F444E05F0BF
:100D30001EFAA3683B485B69082198473B488368D3
:100D400001A95B689847011E03DA3E4805F00FFAD7
:100D5000EFE700993C4805F00AFA0098FFF7F2FB2C
:100D60002946FFF7F7FC3946FFF740FC3146FFF70D
:100D70003DFCFFF717FE354B90FBF3F103FB110031
:100D800080EAE072A2EBE072314805F0F0F90098D9
:100D9000FFF7D8FB2F49FFF729FC2F49FFF726FC67
:100DA0002946FFF7D7FC2D498146FFF71FFCFFF7C7
:100DB000F9FD4FF47A7890FBF8F108FB1102002A54
:100DC000B8BF5242264805F0D2F924494846FFF7F9
:100DD000C1FC01464FF07E50FFF7FEFA2149FFF7B4
:100DE00005FC2149FFF7FAFA05F076F81F49FFF7ED
:100DF000F3FA1F49FFF7AEFC1849FFF7F7FBFFF7BF
:100E0000D1FD90FBF8F108FB110080EAE072A2EB43
:100E1000E072184805F0ABF9002142F2107006F0BC
:100E200069FC86E744790008C481000898790008C5
:100E3000D0810008E6810008FEFFFF4A6F12033FE1
:100E400000247449F58100080B82000840420F001D
:100E50001882000800E89E45000080BE00007A4429
:100E6000298200087F051B36662280373211803BBD
:100E70007F059BB53F8200082DE9F04F91B08407B4
:100E8000009302F004030293C2F3C20303F10103CF
:100E9000DDF86880039205460E46059340F0BA815E
:100EA000041D30B1072909D86FF01B0011B0BDE84F
:100EB000F08F01F007063444C6F10806009B4FF09E
:100EC0000009591E4FF0040A4FF0FF330193CDF88B
:100ED00010904F46CB4653460DB1009A22600598BC
:100EE000002800F3E8809848009A824203D397488C
:100EF0008242C0F0E080039AA4EB050E92074FEA0D
:100F00009E0000F103810F2F00F2B180002D00F050
:100F1000058107F140020DEB020C019A0CF8200C40
:100F20000CF8102C049801300490E7E07A285DD882
:100F30004B280ED8472859D829282DD8252852D0F3
:100F400054D820287AD02338D0F1000B4BEB000B7B
:100F500074E04C382E2849D8DFE800F07048484843
:100F600048484848484848484B48484848484848FE
:100F70004859484B4B595959704B6D487048184B5C
:100F8000184848827F4B48484B487F0000204FF06C
:100F9000000B4FF0040A38E02A38C0B2012202FAEE
:100FA00000F010EA0E0F49D110F0625C2FD110EA68
:100FB000020B43D06046013C5444B4FBFAF40AFBF4
:100FC00004F4002D61D0A3EB050CA444B4453FF616
:100FD0006BAF002868D1042B47D158F8043B23603D
:100FE000043404232AE0019A013A01924FF0000BE5
:100FF00024E011F8010C6C2834D111F8023C0020D7
:101000006C2B8346C5D14FF0080A5346D3E708F14D
:10101000070828F007080734F8E802AB24F00704B3
:1010200035B106982044B0423FF63EAFC4E900AB6C
:1010300008344FF0000B4FF0080A534611F8010F27
:10104000002878D0BBF1000F7FF470AF2528F5D1D0
:10105000019B013301934FF0010B4FF0040AECE7C1
:10106000584694E700208346A5E7082B02D06FF08E
:1010700015001BE708F1070828F00708F8E8022325
:10108000C4E9002308340823D8E768B9042B02D147
:1010900008F10408A4E7082BE9D108F1070828F0B3
:1010A000070808F10808EDE7059A013A059258F893
:1010B000042B009210E7039A900720D5A4EB050EAD
:1010C0004FEA9E004FF0010CBEF5007FCFD20F2FEC
:1010D000CDD8F5B107F140020DEB020EC0B2019A76
:1010E0000EF8200C0EF8102CBCF1000F3FF41AAFD4
:1010F00060F07F000EF8200C09F101090137C5F1FD
:101100000802043406924FF6DA7E97E74FF0000C9F
:10111000DAE7BCF1000F01D00136EFE702980236A2
:101120000028EBD10098CDE90631FFF749F8DDE959
:1011300006310644E2E7631BB3F5806F97D23DB9F1
:10114000A6F10804E018B1E638780008EC8D000834
:10115000029A28609B082B709DF81030C2B1EB708A
:1011600085F80290B9F1000F05D008A80022C5F15A
:10117000010C97420ED1C5F101030DF120084FF08B
:10118000000A01930DF1300B574512D1601B8DE61B
:101190006B70E5E710F8013B190608D50CEB040E5F
:1011A000B64503F07F033FF67FAE04F8013B013202
:1011B000DFE7B9F1000F03D098F90020002A17DB10
:1011C000029BD3B11AF80B2004F8012B0022019BDB
:1011D00018191044B0423FF667AE98F8000004F8C2
:1011E000010B009903922046FFF758F8039A144424
:1011F0000AF1010A08F10108C6E798F8002055F83D
:1012000022300093029B45F822300098FEF7D8FF69
:10121000421CDCE76FF00D0048E600BF2DE9F04FFF
:1012200097B000AF90F802A0D7F880B03B62CBF344
:10123000C0030446FA62BB61894641B9457800782B
:101240000AEB800020444D4517D8A0EB0409E37851
:10125000FB61BAF1000F02D01BF0010F16D1FB6940
:1012600053BBFB6A1BB13A6A4946204698474D4634
:1012700028465C37BD46BDE8F08F461C3046FEF779
:101280009FFF0130304409F10109DCE723786268EF
:101290007A62FA6A9900796104EB8301002A40F0CE
:1012A00000814D460E4601EB0A094FF000084E45FD
:1012B0004CD101EB0A0610E01BF0020FD1D02378CD
:1012C0009A007A6162687A62FA6A04EB8301002A02
:1012D00077D14D4601EB0A0690461BF0050F0CBF77
:1012E00002230123FB62FB6906EB430A0BF00203B6
:1012F000BB625645BCD016F8021B16F8013C54F8E8
:101300002390994B994502D3984B994536D3BB69A5
:10131000002B40D0786A04F0F1FE00283BD0E9466B
:101320008AB06A46924B53617B6AC2E906314FF438
:10133000007313848F4B42F8103F8F4800234FF403
:10134000125101F041F8023DCD46D2E716F8013BBB
:10135000F96254F82300FEF733FFD7F88430F96AB6
:1013600001304BB1D7F8883098453EBFD7F884306C
:1013700023F8180008F10108054498E7BB6923B178
:10138000786A04F0BBFE0028C9D11BF0010F05D11B
:10139000FB6AED1AADE7BB6A002BAAD04846FEF700
:1013A0000FFFD7F8843053B1D7F8883098453FBF46
:1013B000D7F88420431C22F8183008F101080544AE
:1013C00097E7BAF1000F72D01BF0040672D0D04636
:1013D000002607F1480052463B61B962FEF75EFF06
:1013E000B96A3B6901EB0A02BA62FA69F96952000B
:1013F000FA60BA6A02EB41023A610BF00202BA608B
:101400003A69B96A8A4257D162787A621BF0020F50
:1014100032440CBF4FEA580100211BF0010FD2B239
:1014200040F09F801BF0040F14BF40460020BB61BA
:101430006270A070E1703A6A7969FB6A2046984749
:10144000051EFFF615AFBB6923707B6A6370FB69ED
:10145000E37041463A6AFB6A84F802A007F148004B
:101460009847B0F10008C0F2BB807B693A6AA9EBEB
:101470000A01C91AFB68C91AD7E90A039847002864
:10148000C0F2B080A84408EB00054FF0000B07F154
:10149000380AB34572D300213A6AFB6A0846984776
:1014A000E6E656464FF0000807F1380093E7564647
:1014B000D04697E7B04695E7BA6A12F8021BBA62BF
:1014C00012F8015C284A54F82500904202D3274ABA
:1014D00090421ED3BA6932B1786A7B6004F00EFE86
:1014E0007B6800288CD1BA6802BB08F1280207F19A
:1014F000300C08F10100944407F1580252FA80F0D0
:1015000008F102080CF8101C5FFA88F800F8105C6B
:1015100076E7BA693AB1786A7B6004F0EFFD7B68E0
:1015200000287FF46DAF1BF0010F09D006F12802EF
:1015300007F13000711C161806F8205CCEB25FE788
:101540001BF0040F3FF45CAF08F1280207F13000F4
:1015500008F1010102EB000808F8105C5FFA81F85D
:101560004EE7002063E700BF38780008EC8D0008E4
:101570005282000804000001DC7C00081BF80A30DD
:1015800087F8373054F82390D7F884302BB3D7F846
:1015900088309B4521D2D7F8843033F81B803A6AD3
:1015A000FB6A012107F13700984700281ADB054440
:1015B000B8F1000F06D14846FEF702FE00F101081F
:1015C0001FFA88F83A6AFB6A41464846984700285D
:1015D00008DB05440BF1010B5BE74FF00008DEE789
:1015E000454645E6054643E6014B1860704700BF97
:1015F0000000002030B587B00025CDE90301044686
:10160000009503A90548059500F06EF8DDE9043062
:101610009842B8BF255407B030BD00BF4B610008E9
:10162000F0B5094E016802460A2700200B46013139
:101630001C78355D6D0701D41360F0BD07FB0043D6
:10164000A3F13000F2E700BF9D8000082DE9F84FBC
:1016500015469A46D378234A12F803B06F2B814679
:101660000F460BF0030B2BD026D8582B0CBF10269F
:101670000A26DDF828803246002348463946FFF71F
:10168000B7F9092A08F1FF38D4B21ED83034B14571
:10169000E4B277F1000788F8004001D3D04511D8B3
:1016A0002B789B0605D5082E15D1AB7843F008039F
:1016B000AB704046BDE8F88F03F0F703702BD5E719
:1016C0000826D6E781460F46D5E7BBF1010F0CBFD0
:1016D00037345734DBE7102EEBD1AB7843F01003EF
:1016E000E6E700BF9D8000082DE9F04F97B08A46DD
:1016F000039016461C460025307808B9284656E364
:1017000025280AD0039B514698470028C0F24F83F2
:10171000731C01350493049EEEE71822002110A8E3
:1017200004F056FC7378252B00F0A3800023711C75
:1017300098469E469C4618460F4611F8012B2B2AC8
:1017400000F0C68000F2BD80202A00F0C480232A69
:1017500000F0C4802BB19DF8483043F040038DF871
:101760004830B8F1000F05D09DF8483043F0200311
:101770008DF84830BEF1000F05D09DF8483043F099
:1017800010038DF84830BCF1000F05D09DF84830AB
:1017900043F008038DF8483028B19DF8483043F0F5
:1017A00004038DF848309DF8483003F04401442983
:1017B00003D16FF386138DF848309DF848300997B0
:1017C00043F080032A2A8DF8483040F08C809DF841
:1017D000493043F001038DF849307B1C1A782E2ADA
:1017E0009DF849200CBF0121002161F341028DF8D1
:1017F00049200CD15A1C09925A782A2A40F0838039
:101800009DF8492042F004028DF8492002331A78ED
:101810006C2A00F0A48000F28680682A00F08C8098
:101820006A2A00F0A5804C2A00F0AA801A4612F815
:10183000013B0492782B9DF849208DF84B3000F243
:1018400017816D2B00F2A980692B00F21181572BB3
:1018500000F2BE80412B03D0453B022B00F20881F1
:101860009DF84A30042262F302038DF84A300123C6
:10187000CAE08DF84B30B31C04939DF84930D9076A
:1018800040F1FD8054F8048BB8F1000F07DA9DF8A1
:10189000482042F004028DF84820C8F100085A0799
:1018A00040F1F68054F804BBBBF1000F80F2F580E4
:1018B0009DF849306FF341038DF849304FF0FF3BFD
:1018C000EBE02D2A0DD0302A7FF444AF012333E71B
:1018D0004FF0010C30E74FF0010E2DE74FF00108FB
:1018E0002AE7012028E709A8FFF79AFE099BBB42D7
:1018F0003FF474AF9DF848201390C00F60F341028D
:101900008DF848206AE709A8FFF78AFE9DF848305D
:101910001490C3F3400242EAD07262F341038DF89F
:101920004830099B73E7742A26D07A2A7FF47EAF69
:101930009DF8492006210CE05A78682A9DF8492034
:1019400006D1012161F3C6028DF8492002336DE70B
:10195000022161F3C6028DF84920013366E75A7807
:101960006C2A9DF8492001D10421EBE70321F0E71F
:101970009DF849200521ECE79DF849200721E8E77B
:10198000BDF8482022F4F04222F0020242F48042E4
:1019900042F00202ADF84820DFE76E3BD9B20123E6
:1019A0008B4040F282410B4238D113F0240F52D1C8
:1019B000DF075DD59DF84A30032161F302038DF8FE
:1019C0004A3002F07803A3F14000434243411BE058
:1019D000A3F15801C9B2012000FA01F111F4624FDC
:1019E0007FF43EAF40F6010739421DD111F4043FA8
:1019F0003ED09DF84A3060F3020302F07802402A9C
:101A00008DF84A3034D000239DF84820C2F34001BD
:101A10000B4363F341028DF848202EE79DF84A30CE
:101A2000022161F30203E8E79DF84A10022002F068
:101A3000780260F30201402A8DF84A1002BF9DF837
:101A4000481041F001018DF84810632BDBD1131EC3
:101A500018BF0123D8E79DF84A30032161F3020340
:101A600012F0780F8DF84A3014BF01230023CBE722
:101A70009DF8483043F001038DF84830C3E79DF9E5
:101A80004820002AB4BFDDF84C804FF0FF3806E74D
:101A90009F077FF513AFDDF850B09DF84910002384
:101AA000CDE913339DF84A3003F00703012BC1F34E
:101AB000C30132D1CB1E042B04D8DFE803F020454C
:101AC00045202000236801294FEAE372CDE9103256
:101AD0001BD19DF94030DA17CDE9103204349DF85E
:101AE000483013F003074FD0049B03983246514609
:101AF00004F061FB0028C0F25A8105440BE654F85B
:101B0000043BDA17CDE91032E9E70229E6D11AB22F
:101B100043F3C033CDE91023E0E7022B24D1CB1EE1
:101B2000042B04D8DFE803F018101018180001295E
:101B300054F8043B4FF0000214D00229CDE91032D2
:101B4000CDD19BB21093CAE7073424F00704F4E820
:101B50000223CDE91023C2E754F8043B109300237D
:101B60001193BCE7DBB2CDE7042B08D1073424F096
:101B70000704D4E900230834CDE91023AFE7032B91
:101B8000ADD154F8043BDDE79DF84B0078283FF6D3
:101B9000C2AD62281ED8252850D058287FF4BBAD8E
:101BA0000DF13E030093DDE910010AAB12AAFFF725
:101BB0004DFDBBF1000F814680F2C280B9F1000FEC
:101BC0003FF4A9AD0DF13E06A6EB0903002F7BD033
:101BD000013379E0633815283FF69DAD01A252F834
:101BE00020F000BFB71C0008151D000817170008DB
:101BF000171700081717000817170008151D000809
:101C000017170008171700081717000817170008FC
:101C1000631D00083B1D0008751C0008171700080D
:101C2000171700084D1C0008171700083B1D000877
:101C300017170008171700083B1D0008039B5146A3
:101C400098470028C0F2B380013564E5BBF1000F6E
:101C5000DDF840900ADB5946484604F00BFAB9F12A
:101C6000000F3FF458AD09EB000620E04846FEF7B0
:101C7000A7FAF8E71098002800F087800DF13E06DB
:101C80000AAB009612AA0021FFF7E0FCBDF84A302B
:101C900003F0EF0343F4F04343F01003BBF1000FF4
:101CA0008146ADF84A304ADA00283FF434ADA6EB5D
:101CB0000903002708E0109B8DF8283000270DF15C
:101CC00029060DF1280901239DF84A1011F0100290
:101CD000069260D00233139A059213444A0644BF19
:101CE00014995B18B8F1000F6EDDA8EB03089DF89E
:101CF00048305807C3F3800B66D459065AD53FB114
:101D0000039B514638469847002850DB01355F4613
:101D1000302350E01E075CBFC3F300135F01DDE911
:101D2000102348BF2B27002BBFF63AAF524263EB7C
:101D30004303CDE910232D2732E7002730E70027A2
:101D40009DF848100DF13E03A3EB09036FF38611D4
:101D50009B458DF848107FF631AFABEB030313932F
:101D60002CE7109B07293FF6D6ACDFE801F00C0406
:101D7000060C08080C0C1D70CDE41D80CBE4EA179E
:101D8000C3E90052C7E41D60C5E4314E0746A6F121
:101D90000509052398E7080748BF01339BE7184664
:101DA00007935146039B98470028079B04DA17B016
:101DB000BDE8F08F2023C346594600290BF1FF3BB5
:101DC000EDDC45446D1AD84637B1039B5146384681
:101DD00098470028EBDB01359DF84A30DA0601D43C
:101DE0001B0706D5039B5146302098470028DEDBB1
:101DF0000135069B3BB19DF84B00039B514698472C
:101E00000028D4DB0135059F2F4406E0039B514693
:101E1000302098470028CADB01357B1B002BF5DCFE
:101E2000039833464A46514604F0C5F90028BEDB04
:101E30000544A844A8EB0503002B7FF76CAC039B7B
:101E40005146202098470028B1DB0135F2E700BF5A
:101E50000B830008034A536823F0020353600020F9
:101E6000704700BF002004E0084B1A6842F400727B
:101E70001A601A6842F480621A601A6842F480722A
:101E80001A60034B034A1A60704700BF00200240EB
:101E90007800002000093D002DE9F047DFF8588068
:101EA000044607464FF0010914B93846BDE8F087EB
:101EB00094FAA4F5B5FA85F509FA05F32E0108EBB5
:101EC00005156FEA030A24EA03042B7B002BEBD0F1
:101ED00058F806301B694BB94644042273682846FB
:101EE000196807EA0A0704F029FCDDE72846984745
:101EF0000028D9D1F0E700BF3C7D000830B510497B
:101F0000104889B0002205F06AFC0F4D0F490022ED
:101F10000023CDE9062300240E23CDE90334CDE9C7
:101F200001440B4B00944FF44072284603F078FABA
:101F30000849284605F04AFB204609B030BD00BFDD
:101F4000591F00088881002000010020C085002062
:101F5000752200082F830008014803F0C9B900BFAB
:101F6000EC0000202DE9F047804620480F4604F0A1
:101F7000BDFB0646002832D000252846BDE8F08784
:101F8000237B83B12368DB680BB1204698476368E5
:101F900083F8069023681B69CBB96368042219682B
:101FA000204604F0CBFB013610345445E8D3B8F199
:101FB000000FE2D0002DDFD02846FFF76DFF054669
:101FC000002FF7D00021642005F094FBF2E72046B3
:101FD00098470028E1D009FA06F31D43E3E7044CD3
:101FE000DFF810A005464FF00109DEE74884002025
:101FF0003C7D00084C7D0008014B53F820007047E1
:10200000687D000808B5034608462BB1044A1360F2
:1020100000F074FC002008BD6FF01500FBE700BF66
:102020000400002010B5044C237813B9034803F0D2
:102030005FF90123237010BD88850020EC0000208B
:1020400010B504460B4804F051FB5CB1BFF35B8F45
:10205000094B53E8001F013943E80012002AF8D168
:10206000BFF35B8F054805F0C6FB0548BDE810408F
:1020700003F03EB940840020448400208881002081
:10208000EC0000200020064BBFF35B8F014653E8B5
:10209000000F43E80012002AF9D1BFF35B8F7047AD
:1020A0004084002070B5FFF7EDFF084C084E054650
:1020B000B44200D370BD63685B792BB123685B6861
:1020C00013B12946204698471034F1E73C7D0008BB
:1020D0004C7D000810B5044C0449204604F085F9F5
:1020E000034B1C6010BD00BFB0000020547D0008F1
:1020F000388400200D4A0E48002310B513700D4A95
:1021000013600D4A4FF47A711360FFF77BFFFFF7FE
:10211000E1FF0A4B0A4918468B4200D310BD1A1A38
:102120005C681211013222711033F5E789850020B5
:102130000767000840840020448400203C7D00089C
:102140004C7D0008014600220148002304F06EB9CE
:10215000B0000020014804F007BA00BFB000002022
:10216000024B0146186804F05ABA00BF38840020B8
:10217000014804F08FBA00BFB000002070B5264BB4
:102180001878002846D0FFF7E5FF054600283ED125
:10219000224B234C1B68002B12DD05F01EFB0A228C
:1021A0000023FEF725FCD4E90032C01A40F2E933DF
:1021B00061EB0201984271F1000101D3FFF772FF58
:1021C000D4E9003213F57A7342F10002C4E9003217
:1021D000BDE87040FFF7CCBF63685B7923B123682B
:1021E00029461B68204698471034B442F4D3284649
:1021F000FFF7B6FFBFF35B8F0A4B53E8001F0139AF
:1022000043E80012002AF8D1BFF35B8FC0E7064C09
:10221000064EEAE770BD00BF88850020408400209C
:1022200080810020448400203C7D00084C7D000813
:1022300070B50D4D297861B90120FFF793FE0B4C65
:102240000B4EB44206D3FFF799FF0028FBD10123C0
:102250002B7070BD63685B791BB1236820469B6857
:1022600098471034EDE700BF898500203C7D0008C9
:102270004C7D000800212DE9F0470846FFF772FE6B
:10228000044648B34FF4FA784FF0000903F006FB18
:102290001A4B186030B11A4B1B68092B02DD194824
:1022A00003F026F8184FDFF85CA0002544B1204663
:1022B000FFF7F2FD044618B94FF0FF384FF0FF3931
:1022C000FFF75CFF064628B9B5B942464B46504673
:1022D00003F042F83546E9E74FF0FF384FF0FF3999
:1022E000D4E72B689B691BB100221146284698470A
:1022F0001035BD42F5D3E8E7044DFAE73C840020F1
:1023000044840020EC0000204C7D00083C7D000847
:1023100013B5184804F0EAF9174B1B7873B1EFF3C3
:102320001184102383F31288BFF36F8FFFF726FF0A
:1023300084F31188BFF36F8F02B010BD0F4B1B6881
:10234000002BF9D050B900220023CDE900230C481E
:1023500042F21072002303F081FDEDE70928EBD172
:10236000074805F048FA074802B0BDE8104002F0FF
:10237000BFBF00BF44840020898500203C8400202A
:1023800088810020EC00002010B5064B1B68044635
:1023900098472146A060044804F0C7F8BDE8104003
:1023A000FFF7B6BF04000020B0000020044A054B30
:1023B0009B1AB1EBD30F34BF52F8310000207047A5
:1023C000D47C00083C7D00082DE9F04F8FB004AFAD
:1023D000C1F34A28B8600D4691467B600C0DB8F1F8
:1023E000000F63D0002607F114034FF0040B4FF0E9
:1023F0000A0AC7F80C80C7E907667E620193CDF828
:1024000008B0CDF800A007F11C03F9683246484631
:10241000FEF704FFB0F5006F03461CD36C468AB08C
:10242000D9F8041004AB2648C3E9050140F2FF7156
:10243000D9611A464FF400711984224B42F8103FBB
:10244000214833464FF41251FFF7BEFFA5462C3703
:10245000BD46BDE8F08FC0F30A0804F11700184428
:1024600020F0070080083B60FFF76CFE68F35325FF
:10247000044690B13B68154AC7E9083600F11001DF
:1024800007F11403F961CDE900A3CDF808B0F968AC
:1024900007F11C034846FEF7C1FE68F353257B682D
:1024A000B9682A46204604F069F9D0E704F117001C
:1024B00020F007008008FFF745FE0446EDE700BF67
:1024C0004483000804000001EC7C00084F6700080A
:1024D0002DE9F04F87B0DDE91279DDE9105A0446A5
:1024E000039193469846BFB1CDF800903B465246C3
:1024F00010210020CDF81490FEF7BEFCB0F5006F5F
:1025000006460AD3184A194840F2FF73022107B061
:10251000BDE8F04F04F08BB93E4605F1170030449A
:1025200020F0070004F007048008FFF70BFE0BF013
:10253000070BE40044EA8B1444EA462444EA0554B9
:10254000054640B13FB1CDF800903B46524631467A
:102550001030FEF791FC039943462246284607B007
:10256000BDE8F04F04F00AB983830008EC7C000852
:10257000406820B1034BC01A40F3CF0070474FF0C2
:10258000FF307047D47C00080EB403B503AB01469E
:1025900053F8042B0448019304F07AF902B05DF873
:1025A00004EB03B0704700BF9F680008CA0605D45B
:1025B0008B064CBF02490349FFF7E6BF704700BFD7
:1025C00050820008BB8300082DE9F04F89B09A467D
:1025D000149B06939DF84CB0159B0593169B179E74
:1025E000049304460D469046BBF1000F00F09D8019
:1025F00006F48073079304F09FF806F00209024680
:1026000000283ED092492046FFF7BEFF0746B9F1A9
:10261000000F08D016F0440F35D18E492A462046C7
:10262000FFF7B2FF074406F0010353B18A4B8B4911
:1026300053F82B208A4B2046002A08BF1A46FFF782
:10264000A3FF06F48073002B49D006F00803002B8B
:1026500063D1B8F1000F66D0824942462046FFF7A9
:1026600093FF0546069B3D44002B6DD1049B002B38
:1026700073D1F30700F1E58031462046FFF796FF5E
:10268000D9E00746C3E7784B18680028CAD0774BD3
:102690004FF47A791B68B5FBF3F54FF46163B5FB32
:1026A000F0F100FB115509FB05F54FF03C0CB1FBB7
:1026B000F3F203FB1211B5FBF0FEB1FBFCF300FBE0
:1026C0001E550CFB131109FB05F50091B5FBF0F548
:1026D0006749CDE901E52046FFF756FFA2E706F07E
:1026E0000803EBB1634B644953F82B202046FFF7F6
:1026F0004BFF0546B8F1000F05D05A494246204627
:10270000FFF742FF0544BAF1000FABD05B495246D8
:102710002046FFF739FF0544A4E74FF0000AE1E740
:1027200006F00805E6E745469CE7BAF1010F069B6F
:1027300006D1002B65D1049B002B7CD000250CE03A
:10274000002BF8D04E485DE04E48069B4E4922468D
:1027500003F0A3FC049B002B69D0DFF83081DFF885
:102760003091049F3146102F204628BF1027FFF7D5
:102770001DFF4FF0000A554546DC059B49461A7877
:102780002046FFF701FF4FF0010A1AF0070F03D1AF
:1027900041462046FFF7F8FE57453CD9059B494680
:1027A00013F80A202046FFF7EFFE0AF1010ABAF1FA
:1027B000100FEAD1374920464FF0000AFFF7E4FE38
:1027C0005246059B9A5C344B995C11F0970F08BFF9
:1027D0002E2232492046FFF7D7FE0AF1010ABAF14C
:1027E000100F1DD01AF0070F03D141462046FFF706
:1027F000CBFE57455246E4D841462046FFF7C4FE7B
:10280000EBE720485D46A0E741462046FFF7BCFEC7
:102810000AF1010AAFE722492046FFF7B5FEC4E7F7
:10282000059B3B440593049BDB1B049399D1BBF1AF
:10283000000F7FF41EAF204609B0BDE8F04F04F052
:102840001AB8074A05492046FFF79EFE14E700BF65
:10285000C3830008C7830008787D0008EC83000864
:10286000BE830008EF830008508400204C840020C1
:10287000D08300088C7D0008F3830008F9830008EA
:10288000D56800089F680008916800080684000861
:10289000FE830008088400089D8000080A84000860
:1028A0000484000873B542F20F738B4228BF0B46B5
:1028B00005680F4A04460521684603F065FC636815
:1028C0000C495B6806460B22284603F0C6FF636886
:1028D0003246694628465B6803F0BFFF63680649D5
:1028E0005B681B22284603F0B8FF02B070BD00BF32
:1028F000C4870008298400080D840008074A0021C5
:102900000123904206D8064A01B901231360054B02
:102910001860704740085B000121F2E740420F0059
:102920004C84002050840020F8B5074F0D46044623
:102930004618B44201D12846F8BD14F8011BBB6803
:1029400001485B689847F4E77C790008014B036015
:1029500000207047D47D000808B50348034A0021D1
:10296000121A04F033F808BD000100209085002001
:102970000748084A084908B5121A04F029F8074818
:10298000074A0849BDE80840121A04F021B800BF00
:1029900000000020FC000020EC8D0008000000205A
:1029A00000000020EC8D000830BFFFF7FDBF00BF26
:1029B000054B5A699B689A421FBF044A536843F00B
:1029C00080535360704700BF5C85002000ED00E03D
:1029D00070B5264B15469A6A12F0100F9A6A14BF0A
:1029E0001124102412F0080F9A6A18BF12249207BB
:1029F00006460AD5586B9A6A140634D519B19A6AF4
:102A000022F080029A62132401E06FF01500174B48
:102A10009A6A12F0010F9A6A18BF142412F0200F5C
:102A20009A6A18BF1524D20602D49B6A9B070AD55E
:102A30000E4B5B68190506D5314600F0FBF910B165
:102A400080F309880224094B9A6A920642BF5A6AA7
:102A500022F400525A629A6A42F0FF029A620023FC
:102A60002B70204670BD6FF01500CCE700ED00E044
:102A7000134B9A6A12F0007F9A6A14BF1E201D2021
:102A800012F0807F9A6A18BF1F2012F4002F9A6AF2
:102A900018BF212012F4802F9A6A18BF222012F446
:102AA000003F9A6A18BF232012F4803F9A6A6FEAA7
:102AB00002426FEA12429A6218BF2420704700BF98
:102AC00000ED00E010B5194B0246986A9C6A10F4BC
:102AD000805F14BF1720162014F4006F9C6A18BF83
:102AE0001820A40509D5986B986A000404D51AB17A
:102AF0009A6A22F400429A6219200C4B9A6A12F4E4
:102B0000806F9A6A18BF1A20D2050CD49B6A13F4FE
:102B1000005F18BF1C20054A936A43F47F43936209
:102B200000230B7010BD1B20F5E700BF00ED00E097
:102B3000F0B5484B5B688BB00446C3F3080300252F
:102B400085F31188BFF36F8F02F07F40B0F17F4FA4
:102B500011D102F00C0008280DD010074CBF0C4614
:102B600001250022033B8DF80720032B05D8DFE861
:102B700003F0246367602C46F3E700239DF80720E9
:102B8000CAB902AE04F1200720686168324603C268
:102B90000834BC421646F7D1099A002D54D0C2F32E
:102BA000080121B96FEA52226FEA4222099202A972
:102BB000184603F00FFF0BB0F0BD264BDA6A910701
:102BC000DBD4DA6A002AD8DBDA6A5200D5D55A6932
:102BD000A16942F480725A61BFF34F8FBFF36F8FC8
:102BE0005A6931F8021C22F480725A61BFF34F8F88
:102BF000BFF36F8F4DF6027291420AD09A6AD2B239
:102C00004AB10DF1070201212046FFF7E1FE03461C
:102C1000B4E72368B2E79A6A12F47F4F05D00DF14A
:102C200007010120FFF74EFFF1E79B6AB3F5803FF4
:102C3000A3D3FFF71DFFEAE70DF107020021E3E749
:102C40000DF107010020EDE722F4FF7222F00102EE
:102C5000ACE700BF00ED00E0044B5A6942F01002FF
:102C60005A615A6922F008025A61704700ED00E08B
:102C7000EFF30880EFF3098101B57246FFF758FFC3
:102C800001BD00BF0A4880F30888102080F3118836
:102C900008484FF40461401880F30988EFF314806A
:102CA0000221084380F31488BFF36F8F00F08AF885
:102CB000C096002000890020084B9B6883420BD1FE
:102CC000EFF3058343B1064B5A6842F080525A60D5
:102CD0005A6A22F400425A6202F0E6BD5C85002086
:102CE00000ED00E012498A684FF030001044EFF325
:102CF000098C80E8F01F102080F31288BFF36F8FDB
:102D00000C4F4FF000664A698A603E60506F0023A6
:102D1000536780F3118804B5104600F0EBF8BDE866
:102D2000044002F1300090E8F01F8CF309887047EE
:102D30005C85002004ED00E01EF0040F0CBFEFF3F3
:102D40000880EFF30980816911F8021C0229FFD085
:102D500001B5724603F044FE01BD00BF40B2002839
:102D600007DB044A4109012300F01F00834042F8B9
:102D70002130704700E100E040B20028A8BF00F118
:102D8000604001F10101B8BF064B4FEA0111ACBF31
:102D900000F5614000F00F00C9B2B4BF195480F8CB
:102DA0000013704714ED00E0044B054A23F07F0345
:102DB0009360BFF34F8FBFF36F8F70470000000821
:102DC00000ED00E008B5FFF7EFFF0B4AD2F88830BE
:102DD00023F47003C2F88830EFF3148323F0040364
:102DE00083F31488BFF36F8FFFF7B6FDFFF7C0FDC5
:102DF00000F056F802F014FA00ED00E042F8203C32
:102E0000009B42F81C3C0A49019B42F8183C029B7B
:102E100042F8143C21F001014FF0807342F8043C69
:102E200042F8081C0023203A02654367704700BF40
:102E3000A3610008094A0346906870B113F1160FA8
:102E4000406E05D0A0F140029A4205D8834203D2D9
:102E5000814228BF00207047002070475C85002019
:102E600008B50B4B0E461546986000F043F82C460B
:102E700086F309880020044B984720460021002251
:102E80000023024C20470000056A0008A3610008E7
:102E90005C850020014B10221A61704700ED00E0B4
:102EA000044800231021C2180133532B82F8001369
:102EB000F9D1704700E100E008B5EFF30583064A59
:102EC000103B02EBC30152F8330049688847BDE864
:102ED0000840FFF76DBD00BFD0790008024B034AE0
:102EE0000348012100F08AB8000001200000002002
:102EF000D47D0008426E054B403A1A60044A4021D6
:102F0000C3E901121846012100F082B8788400203C
:102F100000000B1508B503461048D0F89020C2F306
:102F20000722013A934207D90D480E4A012103F0C6
:102F30007EFC6FF0150008BDC0F898300A6822F0DA
:102F40001F021A4342F01002C0F89C208A6842F027
:102F50000102C0F8A0201846EDE700BF00ED00E038
:102F6000047D000873840008F0B50E4685B01F4646
:102F700004460025B5420DDA606810B397B1431ED0
:102F800018420AD0104A11482B46012103F04FFC89
:102F90006FF01502104605B0F0BD1F28F2D9216868
:102FA0000B42EFD12368019303F040FDA36801A910
:102FB0000343D0B20393FFF7ADFF10F1160FE7D034
:102FC000421C01350C34D5E799840008047D0008C3
:102FD000044B0522C3F89420BFF34F8FBFF36F8FCC
:102FE000704700BF00ED00E0BFF35F8F024B00228F
:102FF000C3F89420704700BF00ED00E010B5034C0B
:1030000001232278FFF7B0FF207010BD8B850020D0
:1030100008B50B4A00231278FFF7A6FF10F1160F30
:1030200007D0084A0021D2F89030C3F30723984212
:1030300000DB08BDC2F89800C2F8A0100130F2E72A
:103040008B85002000ED00E02DE9F0435E485F49EC
:10305000D0F890300D68C3F307239D4285B000F28D
:10306000B080FFF7C1FF49680022954201F10C01D1
:103070001BD1574C574F25706846FFF767FCDFF8A8
:103080005881DFF8589106460025AE4220D12378BA
:103090004D490020D1F89020C2F307229342C0F29C
:1030A0008A80FFF795FF00204FE0C0F8982051F884
:1030B0000C3C23F01F03134343F01003C0F89C3073
:1030C00051F8043C43F00103C0F8A0300132CCE7D2
:1030D000009800EB05114FEA051CCB683B40B3F5A7
:1030E000000F49D00AD8B3F5001F31D0B3F5800FD7
:1030F00037D0B3F5801F13D00135C6E7B3F1007F99
:1031000043D0B3F1805F49D0B3F1807FF4D150F860
:103110000C3088684A6803F089FC40F0887009E048
:1031200050F80C3088684A6803F080FC40F0885002
:1031300040F43020039001A92078CDE90123FFF766
:10314000E9FE002833DA6FF0150005B0BDE8F08322
:1031500050F80C3088684A6803F068FC40EA0900BF
:10316000E8E750F80C3088684A6803F05FFC40F0EC
:10317000C06040F40030DDE750F80C3088684A68E1
:1031800003F054FC40F08270D4E750F80C308868AB
:103190004A6803F04BFC40F48020CBE750F80C3039
:1031A00088684A6803F042FC40EA0800C2E72378D6
:1031B00001332370A0E7C1F89830C1F8A0000133B3
:1031C00068E74FF0FF30C0E700ED00E0E07D000869
:1031D0008B8500200000F0FF0000021100000811A4
:1031E000014B1860704700BF1000002007B5094A66
:1031F00092E803006B4683E8030007488268126880
:1032000022B11946904703B05DF804FB6FF05700F8
:10321000F9E700BF4C7D0008B878000800F01F02F5
:1032200001213F2808B501FA02F2034605D90848F2
:10323000084A03F0FCFA002008BD074B1F2894BF82
:103240005B695B6B9A430CBF01200020F4E700BF71
:10325000E47C0008CE8400080004014000F01F0256
:1032600001213F2808B501FA02F2034606D90748B2
:10327000074A03F0DCFA6FF0150008BD1F28054B64
:1032800002D85A610020F8E75A63FBE7E47C0008A3
:10329000CE84000800040140044B1844002301338D
:1032A000994200F8012BFADC704700BF880000202B
:1032B0002DE9F041104F054600264FF001086B78CC
:1032C000F4B2A34201D8BDE8F0812B781C4420461B
:1032D000FFF7A4FF68B12046FFF7C0FF57F834306E
:1032E0003BB107EBC40204F01F04516808FA04F074
:1032F00098470136E3E700BF84840020034660B1AD
:10330000B0FA80F2C2F11F02D2B205498856054ACE
:1033100011680B431360FFF721BDFF22F5E700BFE3
:103320008800002000040140024A136823EA0003D9
:103330001360704700040140032921D8DFE801F041
:10334000020C10190F4B9A6822EA00029A60DA68A0
:1033500022EA0002DA6070470A4B9A680243F5E7F6
:10336000084BDA680243DA609A6822EA00029A603F
:103370007047044B9A6802439A60DA681043D86039
:10338000704700BF0004014030B5B0B1B0FA80F31F
:10339000C3F11F03DBB20B4850F833408C4204D119
:1033A00000EBC3056D68954205D044B940F8331071
:1033B00000EBC3004260002030BDFF23EBE76FF05D
:1033C0000F00F9E78484002060B1B0FA80F3C3F104
:1033D0001F03DBB2044A002142F8331002EBC302A0
:1033E00051607047FF23F5E78484002000F003025A
:1033F000043292000F23934043EA900000F003034D
:103400000233064A52F82320030C02EA104093FAD2
:10341000A3F3B3FA83F3D840704700BF0000014024
:103420002DE9F0418AB000AF022390463A1DC7E96A
:103430000423FB6007F10803BB6107F110020123BD
:10344000C7E90823FB618B000E4643F02003416867
:10345000BF603B70002305467B7051F8040B07F1F9
:10346000200307F1180203F062FB0446C0B12B6889
:103470006D468AB06A461649D061C2E905134FF419
:1034800000731384134B42F8103F4FF4115112484C
:1034900003F059FB2046AD462837BD46BDE8F08114
:1034A0007B7988F8003029686D468CB06A460B48F5
:1034B0005061C2E908630A4840F201331385094BA1
:1034C000C2E9060142F8103F4FF45451DFE700BF54
:1034D0001C85000804000001D47C00085285000807
:1034E000258B000806000001F0B587B000AF3B1D3A
:1034F00007F10802BB606E4601238AB0C7E90423C6
:10350000FB6044680368397105466A461948506192
:1035100019481162C2E9060340F201339384174B44
:1035200042F8103F16484FF4345103F00CFB21468B
:10353000B54651F8040B002307F1100203F0F7FA27
:10354000044690B18AB02B686A460E49D061C2E940
:1035500005134FF4007313840B4B42F8103F0848D7
:103560004FF4115103F0EFFAB54620461C37BD4623
:10357000F0BD00BF818500083B8B000805000001FD
:10358000D47C0008A0850008040000012DE9F04764
:1035900088B00369D0F804A003EB01080C4698F842
:1035A000B8302849934202AF164615D16D4688B00F
:1035B00002AA254BD461C2E90531042342F8103F29
:1035C00022484FF4045103F0BEFAAD4600252846C8
:1035D0001837BD46BDE8F087A30043F040033B71B8
:1035E0003B1DBB600223FB604FF0010907F108039C
:1035F0006D468AB07A713B61C7F8149002AA144BE9
:103600001248C2E905310523C2E907464FF42451A7
:1036100042F8103F03F097FA5146AD4651F8040BBB
:10362000002307F1100203F082FA054610B988F86A
:10363000B860CBE7074A009023460448494603F0A8
:1036400000F9C4E70E8B0008C3850008D47C00088D
:10365000E4850008048600082DE9F04F83B00A795C
:10366000D0F804B012F01F0802AF064689460BD00E
:10367000794A7A48012103F0D1F86FF01504204609
:103680000437BD46BDE8F08F90064B79897923D584
:103690003BB901295DD002295DD003290ED1202438
:1036A00021E0012B06D1022957D0032957D029B98F
:1036B000602418E0022B09D1032952D0684A0091F6
:1036C0006648012103F0BDF8664AD2E7032BF5D125
:1036D0000229F3D1702406E0032B30D8DFE803F091
:1036E000024335378024604812F0200FEA468CB040
:1036F0005E4A02AD18BF02465D486861C5E908230D
:103700005C48A9622A4640F20243AB855A4BC5E9A0
:1037100006044FF4745142F8103F504803F013FA76
:1037200099F80020A2F10903D5460B2B44D8DFE815
:1037300003F0494B431C4339433B433D3F414F4911
:1037400046481A4603F002FABEE7A024CBE7B024AD
:10375000C9E71C46C7E71024C5E73024C3E7402467
:10376000C1E75024BFE79024BDE704229BF82E3028
:1037700014430BB144F00104B9F8023023B1404ABC
:103780003648022103F04AF899F801209BF82CA052
:103790009BF82D50062A36D8DFE802F03235353551
:1037A0001A3A18000622E1E70822DFE70A22DDE7DD
:1037B0000C22DBE70E22D9E73249284803F0C6F98C
:1037C000314A56E70022D1E70222CFE74FF08008C6
:1037D000BBF82A202D49002331F8230090421AD14A
:1037E0002B4A002112F8239030462246FFF7CEFEE6
:1037F000041E15DA27492246184803F0A7F93EE7C8
:103800004FF0C008E4E72449144803F09FF934E777
:103810004FF04008DCE70133082BDDD11F49F3E707
:10382000EA0042EA4A1202F0F80201213046FFF7AC
:10383000ADFE041E02DA1A492246DDE749EA080213
:1038400002213046FFF7A2FE041E02DA1549224685
:10385000D2E7002413E700BF2F860008D47C0008BD
:103860005D8600089A8600082486000829860008DC
:10387000C6860008F88A0008070000018486000850
:1038800033870008FF86000810870008A081000821
:103890009E810008AB8700087A870008908700089F
:1038A000C7870008E38700082DE9F04F8DB0D0F8F6
:1038B000109002AF05460E4609F140084FF0FF3365
:1038C0004FF0FF32404601F047FD337C2C69182B46
:1038D00010D018220092B648B64A012102F0B1FF7A
:1038E0006FF0150A404603F028F950462C37BD46C4
:1038F000BDE8F08F7168012905D00A46AC48AE4991
:1039000003F024F9ECE7737C33B1AC4AA84802F029
:1039100085FF6FF0850AE5E7336873B19A89013254
:103920009200F36893420AD2A14800920121A44A6E
:1039300002F087FF6FF00B0AD4E70422F1E7D6F814
:1039400008E0C4F890E0B246BAE80F0004F1640C55
:10395000ACE80F00DAF80030CCF800304FF0000C83
:10396000C4F860C03368002B5CD00FCB04F178063C
:1039700086E80F006666A4F888C0002852D0BFF31E
:103980005B8F54E8003F44E800C2002AF9D1BFF33E
:103990005B8FA06F63304CF1000164220023FDF7C0
:1039A00027F80022CDE90001002304F1080002F00D
:1039B00055FA0022002309F1500001F0CDFC8246A7
:1039C00000288FD02C6904F1A8064FF0FF324FF089
:1039D000FF33304601F0C0FC0022002304F19800C0
:1039E00001F0BAFC08212846FFF77EFD824600B3AD
:1039F00029686D4688B002AA7248C2E905014FF4F1
:103A000000719183704942F8101F69484FF4E251E8
:103A100003F099F8AD46C4F860A004F1500003F03B
:103A20008CF85FE7C4F894E004F1A80003F085F88F
:103A3000BFE72869983040F6C412002301F08CFCDF
:103A4000824628B129686D4688B002AA5F48D4E74B
:103A50000423FA18C7E90423FB6007F10803BB61DC
:103A600007F110020123C7E90823FB616968BF6001
:103A700010233B70D4F890B051F8040B07F12003E9
:103A800007F1180203F053F8824638B36E468AB045
:103A9000296802AA4E48C2F81CA0C2E905014FF4E9
:103AA00000794C49A2F82090414842F8101F4FF489
:103AB000115103F048F8B54688B0296802AA464873
:103AC000A2F81C90C2E905013F4942F8101F38488E
:103AD0004FF4E25103F037F8B5469CE7BB797A79A9
:103AE000F9791B0243EA024319431B024CBF41F020
:103AF0007F430B46CBF80030EB468CB0286802AA17
:103B0000DFF8D8C0C2F814C0C2E90813DFF8D0C08B
:103B100040F201331385334BC2E906C04FF45451D0
:103B200042F8103F224803F00EF8D4F890300433E6
:103B3000C4F89030636EDD46B3B3E36FB4F8882009
:103B40003BB104F1640128469847012812D00228AD
:103B500024D0B4F88830B4F884209A421ED90133B6
:103B6000A4F88830A36F53B9D4F89030C4F89430D7
:103B700030465BE7D4F89430C4F89030F2E7BFF3F6
:103B80005B8F54E8003F5A1E44E800210029F8D119
:103B9000BFF35B8F012B7FF70CAFE5E7A36F1BB182
:103BA00004F1080003F027FE04F150003EE700BFD7
:103BB000D47C0008FF87000821880008538800088B
:103BC0006E8800089088000803000001B68800088D
:103BD000DE8800080400000106890008208900082A
:103BE000E48A0008060000012DE9F84F814600AF85
:103BF00045680669994A9A48032102F00FFE9949DF
:103C0000002206F1080003F0EAFD06F14008012257
:103C10000021404603F0C8FC0122002106F15000BB
:103C200003F0C2FC0122002106F1A80003F0BCFC55
:103C30000122002106F1980003F0B6FC286803F089
:103C40008EFCC8B96C4688B0D9F800306A468649FF
:103C50008348C2E905134FF400739383834B42F802
:103C6000103F4FF4E25102F06EFFA5466FF01204D0
:103C70002046BD46BDE8F88F2B7E23B1E86803F0EF
:103C80006EFC0028DED0286A03F069FC28B9784A67
:103C90007348012102F0C2FDE8E7EB8C286A95F831
:103CA000241043F48032D0F810C0D0F808E013F0AC
:103CB000010F4FF00104DCF8003004FA01F414BFE6
:103CC0002343A343CCF80030DEF800309847041EAD
:103CD00005DA68492246624802F038FFC8E795F8DD
:103CE0002430654A4FF0010A0AFA03F3C6E930238B
:103CF000286A8368DB6906F1BC0133B152469847F4
:103D0000041E05DA5D492246E5E76FF05704F9E73E
:103D1000286A95F82410EB8C84680269A469DCB1E8
:103D200012680AFA01FA1AEA020F03F040030CBF04
:103D300043F0B86383F0707323F0794323F47F0377
:103D400023F47F4323F0BF034FF0A072A047041E6B
:103D500005DA4B492246BEE76FF05704F9E73220F7
:103D600003F0E7FC6C4688B0D9F804B06A46454BCE
:103D700053614FF0030A444B9361394842F810AF46
:103D80004FF4C85102F0DFFE0621A5464846FFF772
:103D9000ABFB041E07DA3D493148224602F0D6FE4D
:103DA0003B49224697E79BF82C309BF82D2003EBEC
:103DB00043031344374A52F823004FF47A73400107
:103DC000B0FBF3F0323003F0B4FC334A24485146E0
:103DD00002F024FD06F1B80200214846FFF720FB5F
:103DE0000446B0B906F1B90201214846FFF718FBB5
:103DF000044670B906F1BA0202214846FFF710FBEB
:103E0000044630B906F1BB0251464846FFF708FBAD
:103E10000446002C02DA214922465CE795F8282066
:103E200003214846FFF7B2FB041E02DA1C49224672
:103E300051E705F130014846FFF70EFC041E02DA97
:103E40001849224647E7C82003F073FCB36C13B946
:103E5000404602F072FE00240AE700BF3F890008D6
:103E6000D47C0008576B0008588900080300000143
:103E7000748900088D8900083F6B0008AF8900082D
:103E8000CF890008F6890008508B0008148A0008C2
:103E9000358A0008447E0008508A00087E8A00089F
:103EA000A48A0008C08A0008024B1868C0F380206A
:103EB000704700BF0010024038B52F4B18680B88C0
:103EC000C3F30B030C2B0D46144624D813B96FF023
:103ED000850031E0013B0B2BF9D801A252F823F009
:103EE0002D3F0008673F0008113F0008633F0008AE
:103EF000CF3E0008673F00082D3F00082D3F000817
:103F00002D3F00083B3F00084B3F0008573F00088B
:103F10004FF4FA400AE003F6B873C3F30B03182B0F
:103F2000D5D8164A22FA03F3DB07D0D520602B68D8
:103F3000B3F5805F19D2002038BD00F0BBF8142320
:103F400058430723B0FBF3F0F0E700F0B3F8142375
:103F500058434008EAE700F0ADF8142358438008BE
:103F6000E4E70748E2E70020E0E7C3F31333013357
:103F7000B0FBF3F02060DEE77800002011011101B2
:103F80000024F400F8B5474F474C00F0A9F8384634
:103F900002F08CFE00F0D4FFA368444AC3F303137D
:103FA0001578D35C47FA05F520FA03F6AE4202D243
:103FB000284601F013F8FFF777FF012807D02368A0
:103FC00043F480732360FFF76FFF0128FBD1D4F81F
:103FD000943043F00103C4F89430D4F89430990736
:103FE000FBD5A36803F00C030C2B1AD1FFF75CFF81
:103FF000012807D0236843F480732360FFF754FF40
:104000000128FBD1A36823F0030343F00103A3605D
:10401000A36803F00C03042BFAD1A36823F0F00388
:10402000A360236823F08073236023689A01FCD483
:10403000E36823F4003343F06053E360E36843F440
:104040008033E360E36823F4C003E360E36843F490
:104050008013E36000F032F8236843F0807323603C
:1040600023689B01FCD5A36823F0F003A360A36839
:1040700043F00303A360A36803F00C030C2BFAD1F5
:10408000AE4202D3284600F0A9FF094B1F60A36887
:1040900023F4E063A360A36823F46053A3600020CB
:1040A000F8BD00BF00B4C404001002409F8D00089A
:1040B00078000020004870470024F400054B0649B2
:1040C000DA681140054A0A43DA60DA6842F0807221
:1040D000DA607047001002408C80FFF90214000281
:1040E000064B9A6D42F080529A659B6D82B003F048
:1040F00080530193019B02B0704700BF0010024043
:1041000008B5074803F02BFA38B10648FFF768F8FE
:104110000448FDF769FA002008BD6FF01200FBE7C4
:104120007C790008294100080A2838B5074D044663
:1041300004D1AB680D215B6828469847AB680348FB
:104140005B68E1B29847204638BD00BF7C79000823
:104150002DE9F843D0F80480D0F81090D8F8080082
:1041600017460D461E4602F0C1FCB7F5001F044677
:1041700016D12846D8F80840FFF738F984420CD108
:10418000294602F0B3FC0446FFF7CEF82046FFF7BD
:104190001BF900212046FFF7CFF80020BDE8F88387
:1041A000B7F5800F20D0B6F1806F19D0B6F1C06F8F
:1041B00018D0B6F1007F1AD1022610494A4620468F
:1041C000FFF7E2F8B0B9D8F80810284602F093FCDF
:1041D00020463146FFF7B0F82046FFF78FF8DCE7BE
:1041E0000126EAE70326E8E76FF08500D6E76FF0DF
:1041F0001500D3E76FF00F00D0E700BF1B6F00087A
:1042000008B5036958604168054883681B680C312C
:104210001BB1984700EAE07008BD6FF05700F9E75E
:10422000B87800082DE9F0471E4F044600EBC106A0
:104230000025B44201D1002014E02068C30600F03C
:104240001F0911D4656845F02005C0F3481AC0F372
:104250004420192823D857F82080B8F1000F0DD139
:104260006FF01200BDE8F087B9F1100F04D0B9F17A
:10427000110FEAD16568E8E73025E6E7404603F02C
:104280006EF90028ECD04B462A460AF00F01404652
:1042900002F059FE002804F10804CADAE2E76FF0E0
:1042A0001500DFE7E87E00082DE9F04182B04368A1
:1042B00000AF1E6880460D46002936D0586819693F
:1042C0008368DB686BB13A1D9847041E0CDA1A4A02
:1042D0001A48012102F0A2FA20460837BD46BDE87F
:1042E000F0816FF05704F2E7336823F40043336042
:1042F0007B6803EB5503B3FBF5F30F2B18D86C4623
:104300008AB0D8F800306A460D49D561C2E9051374
:104310004FF4007313840B4B42F8103F07480023FF
:104320004FF41151FEF750F8A5466FF01504D3E78E
:104330009BB2F3600024CFE7C68B0008347D0008F1
:10434000F48B000804000001F8B50C4603694168CD
:104350001D682379012B16D09F1E7E427E41B60236
:104360006279022A9CBF474F37F81270A27988BF42
:104370004FF40057022A09D0042A30D0003B18BF5E
:1043800001231B0306E04FF4C066E9E7B3FA83F3A9
:104390005B091B07E2790968012A14BF4FF0000C82
:1043A0004FF4407CA5421DD10A6822F0805222F4CD
:1043B000B05232431A430A604B6823F440533B43E4
:1043C0004B6043681A68936823F4407343EA0C0314
:1043D00093602968FFF768FF00EAE070F8BD4FF4CA
:1043E0008053D7E7D1F800E00EF4C06E76451FBFCA
:1043F000D1F800E02EF4C06E4EEA06060E60416869
:104400000E68716801F440518F421FBF716821F43A
:1044100040513943716041680E68316801F01021E4
:104420008B421FBF316821F010210B43336043687A
:1044300019688B6803F440739C451FBF8B6823F495
:10444000407343EA0C038B6043681B689968490416
:1044500005D5032A09D09A6822F4804204E0032A91
:1044600003D19A6842F480429A6021682B6899428D
:1044700005D0FFF719FF0028B0DB23682B60002070
:10448000ACE700BFBE8100082DE9F04182B045686D
:1044900006466868296983681B6800AF5BB9594A9A
:1044A0005948012102F0BAF96FF057042046083745
:1044B000BD46BDE8F0819847044618BB686A3A1DBE
:1044C000002102F055FD041EF0DB7B680022197903
:1044D0001868FFF7A7FE041EE8DB756833692C68CF
:1044E000D3F80080236823F001032360A86803F059
:1044F00036F878B9454A4448012102F08FF96FF047
:104500001204D3E73F4A4048012102F087F9002C0A
:10451000CCDBD3E7D5E902018368DB6803B19847B8
:1045200054E8003F43F00C0344E80032002AF7D17E
:1045300041463046FFF708FF002839DB2B7E1BB1D0
:10454000A36843F00803A3606B7E1BB1636843F468
:1045500000436360AB7E1BB1636843F480336360E8
:10456000EB7E1BB1636843F4003363602B7F002B49
:104570003BD0274B9C421ED0A3F574439C421AD0DB
:1045800003F570539C4216D06C4688B033686A4677
:104590002049C2E905134FF4007393831E4B42F880
:1045A000103F194800234FF4E251FDF70DFFA546D7
:1045B0006FF015047AE773681A68936843F48043D0
:1045C000936023686A7F23F0787343EA4253236041
:1045D0002368AA7F23F4F81343EA02432360EB7FA6
:1045E0001BB1A36843F40043A360236843F00103B5
:1045F0002360E3699A02FCD5E3695B02FCD50024E1
:1046000054E700BF0B8C0008347D00082B8C000899
:1046100000380140468C000803000001F8B54368EB
:1046200091F805E01C680369024608791D688B79DA
:1046300001280E4613D1BEF1020F55D9022B1F4699
:104640004FF4C0614FF4005C66D0042B5FD00028AB
:1046500067D0C31E012B5CD86FF08500F8BD02281F
:104660000AD1BEF1020F4BD9022B1F464FF48061D5
:104670000BD04FF4005CE8E7BEF1020F43D9022BE8
:104680001F4642D1002857D00021C31E012BE3D979
:104690000020022703239E45DED102F0B4FCB8427D
:1046A000DAD1F37963B1012B4ED1294B9C4207D06B
:1046B000A3F574439C4203D003F570539C42CBD1C5
:1046C000236823F00103236031461046FFF73CFEC8
:1046D0000028C1DB236843F00103236096E8030050
:1046E00085E803000020B9E74FF4C061194F022BA1
:1046F00037F81EC01F46A8D170B94FF0805010E0A7
:104700004FF48061F2E70021F0E70021B1E70028D3
:10471000A2D14FF4805004E0C31E012B9CD9022784
:104720000020BCF5805F0BD0BCF5405F0AD0BCF127
:10473000000FAFD10123AEE701464FF08050A9E74B
:104740000023A8E70223A6E7032BAED084E700BF2F
:1047500000380140BE810008B0B582B004468068D0
:1047600010F4B87000AF1FD06D468AB06A46104B87
:104770005361104BC2E906304FF4007313840E4BA3
:1047800042F8103F00230D484FF41151FDF71CFE75
:10479000A3685B06AD4605D5E3687B607B68A368CC
:1047A0007B607B686FF004000837BD46B0BD00BF7A
:1047B000838C0008768D000804000001147D000839
:1047C0002DE9F047436805699B6800AF04469847A8
:1047D000284602F098FD6068012102F034FD0028AF
:1047E00002DA10F1860F16D1656826690021284685
:1047F00002F029FD041E0CDB2F48296983681B6821
:1048000063B19847044660B12C4A2D48012102F05B
:1048100005F804EAE470BD46BDE8F0876FF0570480
:10482000F2E7B5684FF00108D6E9023203EBC203A4
:104830009D42EED2286802F092FE0346C0B92A6873
:10484000297910686C468AB06A461E4DD1614FF4D2
:10485000007111841C49C2E9055042F8101F184824
:104860004FF41151FDF7B0FDA5466FF01204D0E7EB
:1048700028682979EB88D0F810E0D0F808A0DEF895
:1048800000C0DA0754BF43F4B01383F4D01323F409
:10489000801208FA01F9DB074CBF4CEA09032CEA45
:1048A0000903CEF80030DAF800309847002801DB21
:1048B0000835B9E70446ACE7B87800088E8C0008E4
:1048C000147D0008A98C0008040000012DE9F04FB8
:1048D00085B0056900AF82460E469846914612B9EA
:1048E000002B00F00C82B3889A042FD44FF0FF32D3
:1048F0004FF0FF3305F1100000F02EFD6E60DAF886
:1049000010307B601B68DAF804B0B288DBF8004036
:104910009E422DD1130540F10181236823F44443C5
:10492000B9F1000F19D043F440432360B388C3F3B7
:104930004513082B00F2F8800126D9F800306B638C
:10494000002B00F0FB80D9F80430F8E0AB69002BB5
:10495000CCD16B689E42C9D1D1E743F400432360B8
:10496000B388C3F34513082B00F2DE800126E3E091
:10497000DBF814100229C2F345131DD003291ED001
:1049800001294FD1043B1C2B8CBF00230123D3B939
:104990006FF085022B6813B19B889B0407D400231A
:1049A0007A606B6005F1100000F0A2FC7A68104696
:1049B0001437BD46BDE8F08F043B0C2BE4E7082B11
:1049C00001D0102BE4D163681004AF484CBF43F012
:1049D000100323F0100363608368DBF81010DB68BA
:1049E00033B307F10C029847002821DBFB68002253
:1049F00030681146013223FA02FC844520D823682E
:104A0000A24A23F040032360236852F8212023F0B8
:104A1000380313432360B38899072AD4236823F00B
:104A2000020329E09A4A9B48012101F0F7FEAFE713
:104A3000994A9848012101F0F1FE6FF00402A9E7BC
:104A4000082AD5D16C468AB06A469449C2E9051055
:104A500059081B0A13620523D16142F8103F8D48A3
:104A600000234FF42151FDF7AFFC6FF01502A5466E
:104A700090E7236843F002032360B38813F0040F28
:104A8000236814BF43F0010323F001032360B388BC
:104A900013F4006F236823F4444305D0B9F1000FE9
:104AA00000F0C78043F440432360B38813F0100F35
:104AB000236814BF43F0800323F08003236023683E
:104AC00023F400532360337D23B99BF818305A0731
:104AD00040F1B280236843F400732360636823F0DD
:104AE00004036360B3886E4913F0010F236814BF99
:104AF00023F4827343F482732360B2886368C2F341
:104B00004512043A23F4706351F822201343636082
:104B1000636843F4805363607B681E60B388C3F3AB
:104B20004513082B40F29780102B8CBF04260226D9
:104B3000B9F1000F7FF401AF00236B630023AB6377
:104B400005F14802334605F1380105F1340002F061
:104B500010FB6864B8F1000F7FD1C5F83C800023DA
:104B60002B6405F15002334605F1400105F13C008C
:104B700002F0FFFA0023E8642B63DAF804302668B9
:104B8000D3F80090D9F8003043F04003C9F8003062
:104B9000DAF810A0DAF8000006F4444650B1037DBC
:104BA00043B10121083002F063FBDAF800301869E4
:104BB00002F0AFFCD9F8043043F02003C9F8043008
:104BC000B8F1000F05D0D9F8043043F04003C9F81C
:104BD0000430D9F8043043F08003C9F804304FF4AE
:104BE000FA584FF00A0905F1200A0023A86B19466C
:104BF00081423BD10021D5F840C0084660453CD1F8
:104C00008B4238BF0B4608FB03F22B681B68B2FBD4
:104C1000F3F2C832A2FB0923504600F09DFB0028A6
:104C200042D0204A1B48012101F0F8FD6FF07302C9
:104C3000B0E643F4004337E7B38813F0010F23686D
:104C400023F400737FF449AF43F480232360636847
:104C500043F0040345E701266AE7D8F80030EB6328
:104C6000002B3FF47CAFD8F8043079E76A6B02EB95
:104C7000C102013152681344BAE7EA6B02EBC00289
:104C8000013052681144B9E7B8780008A47F0008E1
:104C9000CD8C0008147D0008F58C0008478D0008B5
:104CA00020800008218D00082A6B002A7FF472AE54
:104CB000B6F5404F1AD1AB6CABB92B6D9BB1DBF89D
:104CC0000030196821F4444141F400411960196829
:104CD00041F040011960596841F02001596059685C
:104CE00041F040015960266806F44446AB6C002B45
:104CF0007FF47BAF2B6D002B7FF477AF4AE61A462B
:104D000055E600BF10B54FF0E0230F499C691A69C2
:104D100008689B690D4902F4803234B993B903469F
:104D20004AB90A681044C01A10BD002B08BF0346D8
:104D30000AB9A342F5D90A6802440A604FF0E0229A
:104D40001269EEE70446F3E75885002054850020F9
:104D5000094B102283F82320084B4FF4FA521A60B3
:104D6000074B002018604FF0E02341F63F725A6174
:104D7000072298611A61704700ED00E05885002015
:104D800054850020684620F007018D4619B5FFF7CD
:104D9000B9FF114B1149D3E900420868001942F1EB
:104DA0000002C3E900020E4A00230B60D2E9004171
:104DB0004FF4FA53001BB0FBF3F043431B1941F1CE
:104DC0000001C2E9003100F04FFFFDF7F1FDBDE841
:104DD00019408546704700BF90820020548500200E
:104DE000888200202DE9F041DFF8DC8099B1421C77
:104DF0000BD14FF0E022136923F0010313614FF050
:104E00007F43C8F80030BDE8F081D8F80060012881
:104E100007DC00270BE0431CD8F80060F7D14FF403
:104E2000036040F631039842A8BF1846471EEFF3CF
:104E30001185102383F31288BFF36F8FFFF762FF92
:104E4000224C4FF0E0239969D4E90023801843F104
:104E50000003C4E900031E4B00221A601D4B1A68B0
:104E6000831A2ED44FF4FA5C0CFB073303F5F95385
:104E70001F33B3FBFCF7131A0CFB0733B3F5806F3A
:104E8000154A38BF4FF48063934228BF13464FF052
:104E9000E022C8F80030013B906953610023936120
:104EA0008142A1EB0003D4E9001238BF9B195B18C3
:104EB00042F10002C4E9003285F31188BFF36F8F1D
:104EC000A1E74FF48063E2E758850020908200203C
:104ED000548500208882002000DCFF0038B5EFF305
:104EE0001185102383F31288BFF36F8F084B1C6862
:104EF000084B1B68E41AFFF705FF85F31188BFF321
:104F00006F8F4FF4FA532044B0FBF3F038BD00BF6D
:104F1000908200208882002038B5EFF3118510239D
:104F200083F31288BFF36F8F044B1C68FFF7EAFE10
:104F300085F31188BFF36F8F204438BD9082002025
:104F4000224B9A68D96812F00C0205D00C2A15D1B0
:104F500001F00301012918D119681D48090755BF3F
:104F6000D3F894101968C1F30321C1F3031150F869
:104F7000210012B10C2A09D000207047042A22D047
:104F8000082A144818BF002070470020DA6802F091
:104F90000302022A15D00F49032A08BF0846D96820
:104FA000DA68C2F306224243D868C0F34160C1F315
:104FB0000211013001314000B2FBF1F2B2FBF0F01E
:104FC00070470548EBE70448704700BF00100240F7
:104FD0005480000800127A000024F4001F4B421E87
:104FE0009A4201D9012070471D4B1B6803F4C0632E
:104FF000B3F5007F0FD11B4B98421AD81A4B984239
:1050000027D81A4B984226D8194B984294BF0023B0
:105010000123002011E0174B98420CD8A3F5F403AC
:10502000A3F59053984214D8134B984213D8134BBE
:10503000EBE70423EDE70023012011490A6822F081
:1050400007021A430A600A6802F007029342C9D1B4
:1050500070470323DDE70223DBE700BFFFB3C4048F
:10506000007000400090D003006CDC020048E801B2
:105070000024F40080BA8C01001BB700808D5B0017
:1050800000200240014B9868603070475C8500202A
:1050900038B5EFF31185102383F31288BFF36F8FB8
:1050A000064B9C6802F06EFA85F31188BFF36F8F90
:1050B0002046BDE83840FDF7FFBD00BF5C850020FD
:1050C00038B50A4B53F82040013053F82050A54220
:1050D00000D838BD606830B1037EDB0701D402F030
:1050E00026FA0834F3E723689847FAE78480000833
:1050F00070B52A4B2A4C2B4D012286B003201A7022
:10510000FFF7DEFF00F0E2FE0420FFF7D9FF26469E
:10511000AE4204F1300410D300F0CCFA204C224E01
:10512000AC4226D300F0DAFAFBF7CCFD1F4A938994
:1051300023F00103938106B070BD54F80C3C059335
:1051400054F8103C049354F8143C039354F8183C5E
:10515000029354F81C3C019354F8203C009354E90A
:105160000A2354E90C0100F01DF954F8303C5E6547
:10517000CDE7D4E90A23B3F1FF3F08BFB2F1FF3F07
:1051800005D052EA0301206803D100F063FB3034FC
:10519000C6E73146183000F0D7FCF8E78C850020D0
:1051A000687C0008687C0008C1760008188300202D
:1051B00070B5002386B00122CDE90423134E144DAF
:1051C00001930F22CDE902321249142303FB00554B
:1051D00006EBC01604464FF4C07000FB04110E4BE2
:1051E00000954FF4A072304600F0DCF8337C0B4A97
:1051F000EE6023F0040333744FF4046304FB0333C1
:1052000013442C746B6006B070BD00BF9882002000
:105210005C850020409100209375000800890020E3
:10522000BFB50020FFF74CFF294B83F30888294CBA
:10523000294F636943F4007363610025F02384F808
:105240002230E57725766576A57684F82050636A66
:1052500043F4E0236362FDF7FFFCFDF71BFE4FF014
:10526000FF33A362E362FDF7EFFEFDF737FEFCF7C5
:1052700041FF1A481A4C00F0FFF8FCF7F5FD012039
:10528000FFF71EFF0220FFF71BFF00F05BFA154B34
:1052900015495C61154B05930123CDE903534FF488
:1052A00080623B46CDE901550095204600F07AF832
:1052B000227C064622F004022046227402F0C3F942
:1052C0002846FFF775FF3A4631462046FDF7C8FDF0
:1052D0004091002000ED00E0F1500008988300208C
:1052E000188300205C850020C092002026830008DF
:1052F00070B5EFF31186102383F31288BFF36F8F1D
:105300000468A0421AD0CCB1D4E9003213605A60CC
:10531000237C002523F002032374C4E90055A56013
:1053200004F1180002F02DFA2046A56702F08BF96F
:1053300031460848BDE8704000F096B9D0E9023225
:105340009A4218BF0133836086F31188BFF36F8FD1
:1053500070BD00BF8D85002013B5EFF311811024BF
:1053600084F31288BFF36F8F846844B1013C84607A
:1053700081F31188BFF36F8F002002B010BD52EA95
:10538000030406D181F31188BFF36F8F6FF00F0014
:10539000F3E7CDE900230246014800F043F9ECE7CA
:1053A0008D850020F0B5073285B022F00702044653
:1053B0007F320E9D0D9EA581583022F03F02C4E938
:1053C0001600042500203F2AA673C4E90600A06049
:1053D0002574E07301F14007A2F1400605D880F37F
:1053E0001188BFF36F8F284602DFC4E919768D1844
:1053F00000260C9AE66602920B9A01920A9A009293
:1054000020462A46FDF7FAFC044B66659B6803B10B
:105410001B6F2367284605B0F0BD00BF5C850020E8
:10542000F0B587B000250595109D04950F9D039557
:105430000E9D0295DDE912760D9D01950C9D00955E
:105440000446FFF7AFFFB6F1FF3F08BFB7F1FF3FDC
:1054500005D056EA070305D1204600F0FBF92046A7
:1054600007B0F0BD3A46334604F11800014900F098
:105470006BFBF4E7C17600080123037483810023EA
:10548000C0E919330367014B986070475C850020C1
:10549000094A93686FF00A019967084958674B6891
:1054A00043F080534B60002383F31188BFF36F8F69
:1054B0009368986F704700BF5C85002000ED00E0A6
:1054C00070B590F91020037C002A36DBD90634D160
:1054D0001B4C63F07F032246037452F8183FE169C6
:1054E000934207D1C0E900210860E06111E09942D0
:1054F000F8D01B68002BF5D090F90E5093F90E6090
:10550000B542F4D0AE42F2DD5968C0E9003108601E
:105510005860A569954200D005B9E568A3681A7C72
:10552000D20604D1DA897F2A01D9AA6932B1AB4205
:1055300002D0284600F088FA656170BD6361FCE71F
:105540005C85002038B590F91020037C002A0146C4
:1055500004DA03F07F03037402F03BF80D4D2A4692
:10556000AB6852F8184F944200D004B9EC688B42F3
:1055700007D01A7CD20604D1DA897F2A01D9A26920
:105580002AB1A34202D0204600F05EFA23466B61A6
:1055900038BD00BF5C850020B3F1FF3F08BFB2F10A
:1055A000FF3F03D00249183000F0CEBA704700BF69
:1055B000C176000838B5194CA168E0690B688142D2
:1055C00014BF1A46002249680B605960A368E1695C
:1055D0002AB9134AC3E900210B60E3610CE093F997
:1055E0000E0092F90E50A84214D0854212DD516887
:1055F000C3E900210B605360A569094B9D4200D0AF
:1056000005B9E568A3689D4202D0284600F01CFA5F
:10561000656138BD9142DCD01268D9E75C85002015
:1056200074850020F8B50E4B0C4611460D4A98685B
:105630001060DDE90667EFF31182102282F3128811
:10564000BFF36F8F9D68284601F0D5FF284632468C
:105650003B46FFF7A1FF2046BDE8F840FFF718BF23
:105660005C8500207C85002049B9EFF3058030B9C6
:10567000054B5A699B689A4201D0FFF709BF81F335
:105680001188BFF36F8F70475C850020034648B9CF
:10569000EFF3058232B9064A51699268914201D00E
:1056A000FFF7F6BE83F31188BFF36F8F704700BF1B
:1056B0005C850020EFF31181102383F31288BFF380
:1056C0006F8F054B9A68D37B013BD37381F31188AD
:1056D000BFF36F8F704700BF5C85002070B5EFF39C
:1056E0001186102383F31288BFF36F8F144DAB68BC
:1056F000DA7B0132DA732A4652F8184F944200D00E
:1057000004B9EC681A7CD20604D1DA897F2A01D95F
:10571000A2692AB1A34202D0204600F095F923469F
:105720006B6186F31188BFF36F8FEFF31180102345
:1057300083F31288BFF36F8FBDE87040FFF7A6BFF9
:105740005C850020024B03F11802C3E90622704772
:105750005C85002070B5EFF31186102383F3128867
:10576000BFF36F8F1B4CA168E0690B68814214BFC7
:105770001A46002249680B605960A368E1692AB99A
:10578000154AC3E900210B60E3610CE093F90E00B8
:1057900092F90E50A84218D0854216DD5168C3E92F
:1057A00000210B605360A5690B4B9D4200D005B9E9
:1057B000E568A3689D4202D0284600F045F965617E
:1057C0003046BDE87040FFF763BE8A42D8D0126809
:1057D000D5E700BF5C85002074850020F8B550EA4D
:1057E000010306460C4603D1FFF7B4FF0020F8BDC5
:1057F000EFF31187102383F31288BFF36F8F124DDD
:10580000124BA8681860FFF79DFEA8681049234650
:105810003246183000F098F9AA68137C43F004036C
:10582000137404463846FFF733FEAB68D3E90A2306
:10583000B3F1004F08BF002AD8D101F0CAFF201AE7
:1058400020EAE070D3E700BF5C8500207C85002063
:10585000C176000838B50446EFF31185102383F3B1
:105860001288BFF36F8F037C5B070FD5183001F0F0
:1058700088FF237C23F0040320462374FFF720FED7
:1058800029460548BDE83840FFF7EEBE85F311888C
:10589000BFF36F8F38BD00BF8D850020014B986826
:1058A000704700BF5C8500202DE9F84304468789D6
:1058B000EFF31185102383F31288BFF36F8F037CFE
:1058C000190705D585F31188BFF36F8FBDE8F883FD
:1058D000D90943F008025DD10274A36813B12046D0
:1058E00001F07FFE04F1180001F04BFFA66D04F1FA
:1058F0005808B04511D04FF0000976B1304601F09C
:1059000070FE06F1180001F03CFFC6F878903046B2
:10591000FFF7D6FDA66DB045EFD1DFF8C080D8F80F
:1059200008309C423ED1EFF30589B9F1000918BF58
:105930004FF00109D8F81860294A964200D00EB9F4
:10594000D8F80C60B34202D0304600F07DF8204613
:10595000C8F8146001F053F8B9F1000F02D02148E3
:10596000FFF78AFDD8F808309C4231D1EFF3058368
:1059700073BBA289D20718D42846FFF789FDFB071D
:10598000A4D5002383F31188BFF36F8F0423184637
:1059900002DF9BE703F07F0343F00803037401F089
:1059A00018FE9AE74FF00009C4E785F31188BFF3AA
:1059B0006F8F83F31188BFF36F8F0423184602DFC4
:1059C000EFF31180102383F31288BFF36F8FD4E7B6
:1059D00085F31188BFF36F8FD1E700BF5C8500208E
:1059E0007485002098830020027C12F01F02034679
:1059F00010D10A4988420DD00949086868B1D9898F
:105A00007F2909D893F90E20064B1B689A42B8BF2C
:105A10000020704700207047104670479882002091
:105A20007C00002080850020044BC01A044BC0106D
:105A30005843044B01221A54704700BF18840020B9
:105A4000ABAAAAAA8D85002070B50D4B0D4D1E7C0A
:105A5000FFF7CAFF06EB460305EBC30504462846DD
:105A600001F08FFE084B00229A553CB1621E284679
:105A70000649BDE87040D31700F066B870BD00BF9E
:105A80005C850020188400208D850020295A00089C
:105A900038B5EFF31185102383F31288BFF36F8FAE
:105AA0000F4B104A9C681068A04206D1FFF7CCFF4C
:105AB00085F31188BFF36F8F38BD00211B7C116007
:105AC000094AD35C002BF3D02046FFF78DFF002856
:105AD000EED0237CDB0601D1FFF76CFD2046E5E725
:105AE0005C8500207C8500208D850020024B186895
:105AF000984208BF0020704780000020034B1B68BD
:105B00000BB9FFF7EBB90020704700BF8485002078
