:020000040800F2
:1000000000A000205944000855CE000845440008CF
:10001000454400084544000845440008000000002D
:100020000000000000000000000000000D45000876
:100030004544000800000000B9440008F5650008C8
:100040008D4600088D4600088D4600088D46000844
:100050008D4600088D4600088D4600088D46000834
:100060008D4600088D4600088D4600088D46000824
:100070008D4600088D4600088D4600088D46000814
:100080008D4600088D4600088D4600088D46000804
:100090008D4600088D4600088D4600088D460008F4
:1000A0008D4600088D4600088D4600088D460008E4
:1000B0008D4600088D4600088D4600088D460008D4
:1000C0008D4600088D4600088D4600088D460008C4
:1000D0008D4600088D4600088D4600088D460008B4
:1000E0008D4600088D4600088D4600088D460008A4
:1000F0008D4600088D4600088D4600088D46000894
:100100008D4600088D4600088D4600088D46000883
:100110008D4600088D4600088D4600088D46000873
:100120008D4600088D4600088D4600088D46000863
:100130008D4600088D4600088D4600088D46000853
:100140008D4600088D4600088D4600088D46000843
:100150008D4600088D4600088D4600088D46000833
:100160008D4600088D4600088D4600088D46000823
:100170008D4600088D4600088D4600088D46000813
:0C0180008D4600088D4600088D460008E2
:1001C00090F800F06DE9024520F007016FF0000C97
:1001D00010F0070491F820F040F049804FF000043F
:1001E0006FF00700D1E9002391F840F000F108001A
:1001F00082FA4CF2A4FA8CF283FA4CF3A2FA8CF352
:100200004BBBD1E9022382FA4CF200F10800A4FAB8
:100210008CF283FA4CF3A2FA8CF3E3B9D1E904230C
:1002200082FA4CF200F10800A4FA8CF283FA4CF343
:10023000A2FA8CF37BB9D1E9062301F1200182FAFD
:100240004CF200F10800A4FA8CF283FA4CF3A2FA03
:100250008CF3002BC6D0002A04BF04301A4612BA11
:10026000B2FA82F2FDE8024500EBD2007047D1E914
:10027000002304F00305C4F100004FEAC50514F0A3
:10028000040F91F840F00CFA05F562EA05021CBF74
:1002900063EA050362464FF00004A9E7000000008E
:1002A00001F0FF01102A2BDB10F0070F08D010F827
:1002B000013B013A8B422DD010F0070F42B3F6D12B
:1002C000F0B441EA012141EA014122F007047FF044
:1002D00000070023F0E80256083C85EA010586EA9B
:1002E000010685FA47F5A3FA87F586FA47F6A5FAD7
:1002F00087F68EB9EED1F0BC01F0FF0102F00702E3
:1003000032B110F8013B013A83EA010313B1F8D18D
:100310000020704701387047002D06BF354603386E
:10032000073815F0010F07D1013015F4807F02BFA7
:10033000013015F4C03F0130F0BC0138704700BFF8
:10034000844641EA000313F003036DD1403A41D3E0
:1003500051F8043B40F8043B51F8043B40F8043B9F
:1003600051F8043B40F8043B51F8043B40F8043B8F
:1003700051F8043B40F8043B51F8043B40F8043B7F
:1003800051F8043B40F8043B51F8043B40F8043B6F
:1003900051F8043B40F8043B51F8043B40F8043B5F
:1003A00051F8043B40F8043B51F8043B40F8043B4F
:1003B00051F8043B40F8043B51F8043B40F8043B3F
:1003C00051F8043B40F8043B51F8043B40F8043B2F
:1003D000403ABDD2303211D351F8043B40F8043BCF
:1003E00051F8043B40F8043B51F8043B40F8043B0F
:1003F00051F8043B40F8043B103AEDD20C3205D3DF
:1004000051F8043B40F8043B043AF9D2043208D0D6
:10041000D2071CBF11F8013B00F8013B01D30B8848
:1004200003806046704700BF082A13D38B078DD026
:1004300010F003038AD0C3F10403D21ADB071CBFF8
:1004400011F8013B00F8013B80D331F8023B20F862
:10045000023B7BE7043AD9D3013A11F8013B00F89B
:10046000013BF9D20B7803704B7843708B78837023
:100470006046704781F0004102E000BF83F0004316
:1004800030B54FEA41044FEA430594EA050F08BF2F
:1004900090EA020F1FBF54EA000C55EA020C7FEAF3
:1004A000645C7FEA655C00F0E2804FEA5454D4EB70
:1004B0005555B8BF6D420CDD2C4480EA020281EA3A
:1004C000030382EA000083EA010180EA020281EA72
:1004D0000303362D88BF30BD11F0004F4FEA0131C4
:1004E0004FF4801C4CEA113102D0404261EB4101D3
:1004F00013F0004F4FEA03334CEA133302D0524259
:1005000063EB430394EA050F00F0A780A4F1010414
:10051000D5F1200E0DDB02FA0EFC22FA05F280184E
:1005200041F1000103FA0EF2801843FA05F3594134
:100530000EE0A5F120050EF1200E012A03FA0EFCB3
:1005400028BF4CF0020C43FA05F3C01851EBE371DD
:1005500001F0004507D54FF0000EDCF1000C7EEBFA
:1005600000006EEB0101B1F5801F1BD3B1F5001F38
:100570000CD349085FEA30004FEA3C0C04F1010457
:100580004FEA445212F5800F80F09A80BCF1004F80
:1005900008BF5FEA500C50F1000041EB045141EA02
:1005A000050130BD5FEA4C0C404141EB0101013CCB
:1005B00028BFB1F5801FE9D291F0000F04BF0146BA
:1005C0000020B1FA81F308BF2033A3F10B03B3F18C
:1005D00020020CDA0C3208DD02F1140CC2F10C021C
:1005E00001FA0CF021FA02F10CE002F11402D8BF7A
:1005F000C2F1200C01FA02F120FA0CFCDCBF41EA46
:100600000C019040E41AA2BF01EB0451294330BD14
:100610006FEA04041F3C1CDA0C340EDC04F11404F1
:10062000C4F1200220FA04F001FA02F340EA0300C8
:1006300021FA04F345EA030130BDC4F10C04C4F10E
:10064000200220FA02F001FA04F340EA03002946EE
:1006500030BD21FA04F0294630BD94F0000F83F438
:10066000801306BF81F480110134013D4EE77FEA1B
:10067000645C18BF7FEA655C29D094EA050F08BF67
:1006800090EA020F05D054EA000C04BF1946104648
:1006900030BD91EA030F1EBF0021002030BD5FEA8C
:1006A000545C05D14000494128BF41F0004130BDB4
:1006B00014F580043CBF01F5801130BD01F0004508
:1006C00045F0FE4141F470014FF0000030BD7FEA7B
:1006D000645C1ABF194610467FEA655C1CBF0B4676
:1006E000024650EA013406BF52EA033591EA030F8D
:1006F00041F4002130BD00BF90F0000F04BF002185
:10070000704730B54FF4806404F132044FF00005B7
:100710004FF0000150E700BF90F0000F04BF002130
:10072000704730B54FF4806404F1320410F0004596
:1007300048BF40424FF000013EE700BF42004FEA91
:10074000E2014FEA31014FEA02701FBF12F07F430E
:1007500093F07F4F81F06051704732F07F4208BFC5
:10076000704793F07F4F04BF41F40021704730B5CC
:100770004FF4607401F0004521F000411CE700BF18
:1007800050EA010208BF704730B54FF000050AE09B
:1007900050EA010208BF704730B511F0004502D59C
:1007A000404261EB41014FF4806404F132045FEA9E
:1007B000915C3FF4D8AE4FF003025FEADC0C18BF47
:1007C00003325FEADC0C18BF033202EBDC02C2F139
:1007D000200300FA03FC20FA02F001FA03FE40EACB
:1007E0000E0021FA02F11444BDE600BF70B54FF0CF
:1007F000FF0C4CF4E06C1CEA11541DBF1CEA1355AD
:1008000094EA0C0F95EA0C0F00F0DEF82C4481EA14
:10081000030621EA4C5123EA4C5350EA013518BF34
:1008200052EA033541F4801143F4801338D0A0FB21
:1008300002CE4FF00005E1FB02E506F00042E0FBCE
:1008400003E54FF00006E1FB03569CF0000F18BFD4
:100850004EF0010EA4F1FF04B6F5007F64F540747C
:1008600004D25FEA4E0E6D4146EB060642EAC6210F
:1008700041EA55514FEAC52040EA5E504FEACE2E7C
:10088000B4F1FD0C88BFBCF5E06F1ED8BEF1004F7F
:1008900008BF5FEA500E50F1000041EB045170BDFB
:1008A00006F0004646EA010140EA020081EA03013F
:1008B000B4EB5C04C2BFD4EB0C0541EA045170BD3B
:1008C00041F480114FF0000E013C00F3AB8014F1B5
:1008D000360FDEBF002001F0004170BDC4F10004FE
:1008E000203C35DA0C341BDC04F11404C4F120057F
:1008F00000FA05F320FA04F001FA05F240EA0200DA
:1009000001F0004221F0004110EBD37021FA04F60F
:1009100042EB06015EEA430E08BF20EAD37070BDC9
:10092000C4F10C04C4F1200500FA04F320FA05F028
:1009300001FA04F240EA020001F0004110EBD3702A
:1009400041F100015EEA430E08BF20EAD37070BD9A
:10095000C4F1200500FA05F24EEA020E20FA04F373
:1009600001FA05F243EA020321FA04F001F0004122
:1009700021FA04F220EA020000EBD3705EEA430E93
:1009800008BF20EAD37070BD94F0000F0FD101F0C2
:100990000046400041EB010111F4801F08BF013CFB
:1009A000F7D041EA060195F0000F18BF704703F039
:1009B0000046520043EB030313F4801F08BF013DC0
:1009C000F7D043EA0603704794EA0C0F0CEA13557C
:1009D00018BF95EA0C0F0CD050EA410618BF52EA36
:1009E0004306D1D181EA030101F000414FF000003C
:1009F00070BD50EA410606BF1046194652EA43064A
:100A000019D094EA0C0F02D150EA013613D195EABD
:100A10000C0F05D152EA03361CBF104619460AD105
:100A200081EA030101F0004141F0FE4141F470010F
:100A30004FF0000070BD41F0FE4141F4780170BDFF
:100A400070B54FF0FF0C4CF4E06C1CEA11541DBF64
:100A50001CEA135594EA0C0F95EA0C0F00F0A7F866
:100A6000A4EB050481EA030E52EA03354FEA013193
:100A700000F088804FEA03334FF0805545EA1313A6
:100A800043EA12634FEA022245EA111545EA10656E
:100A90004FEA00260EF000419D4208BF964244F105
:100AA000FD0404F5407402D25B084FEA3202B61A24
:100AB00065EB03055B084FEA32024FF480104FF4F8
:100AC000002CB6EB020E75EB030E22BFB61A75466C
:100AD00040EA0C005B084FEA3202B6EB020E75EBFF
:100AE000030E22BFB61A754640EA5C005B084FEA67
:100AF0003202B6EB020E75EB030E22BFB61A754634
:100B000040EA9C005B084FEA3202B6EB020E75EB3E
:100B1000030E22BFB61A754640EADC0055EA060EFF
:100B200018D04FEA051545EA16754FEA06164FEA42
:100B3000C30343EA52734FEAC2025FEA1C1CC0D1EE
:100B400011F4801F0BD141EA00014FF000004FF07B
:100B5000004CB6E711F4801F04BF01430020B4F13C
:100B6000FD0C88BFBCF5E06F3FF6AFAEB5EB030CF4
:100B700004BFB6EB020C5FEA500C50F1000041EBF1
:100B8000045170BD0EF0004E4EEA113114EB5C04BE
:100B9000C2BFD4EB0C0541EA045170BD41F4801191
:100BA0004FF0000E013C90E645EA060E8DE60CEA99
:100BB000135594EA0C0F08BF95EA0C0F3FF43BAFB6
:100BC00094EA0C0F0AD150EA01347FF434AF95EA6D
:100BD0000C0F7FF425AF104619462CE795EA0C0F51
:100BE00006D152EA03353FF4FDAE1046194622E71E
:100BF00050EA410618BF52EA43067FF4C5AE50EAF8
:100C000041047FF40DAF52EA43057FF4EBAE12E7E7
:100C10004FF0FF3C06E000BF4FF0010C02E000BFC8
:100C20004FF0010C4DF804CD4FEA410C7FEA6C5CAB
:100C30004FEA430C18BF7FEA6C5C1BD001B050EA4E
:100C4000410C0CBF52EA430C91EA030F02BF90EA39
:100C5000020F0020704710F1000F91EA030F58BFF8
:100C6000994208BF90422CBFD8176FEAE37040F05A
:100C7000010070474FEA410C7FEA6C5C02D150EAF8
:100C8000013C07D14FEA430C7FEA6C5CD6D152EAB3
:100C9000033CD3D05DF8040B704700BF8446104678
:100CA00062468C461946634600E000BF01B5FFF777
:100CB000B7FF002848BF10F1000F01BD4DF808ED47
:100CC000FFF7F4FF0CBF012000205DF808FB00BF18
:100CD0004DF808EDFFF7EAFF34BF012000205DF872
:100CE00008FB00BF4DF808EDFFF7E0FF94BF0120BF
:100CF00000205DF808FB00BF4DF808EDFFF7CEFFC0
:100D000094BF012000205DF808FB00BF4DF808EDFE
:100D1000FFF7C4FF34BF012000205DF808FB00BFCF
:100D20004FEA410C7FEA6C5C02D150EA013C0AD1E7
:100D30004FEA430C7FEA6C5C02D152EA033C02D1D9
:100D40004FF0000070474FF0010070474FEA41023A
:100D500012F5001215D211D56FF47873B3EB62520D
:100D600012D94FEAC12343F0004343EA505311F034
:100D7000004F23FA02F018BF404270474FF00000C6
:100D8000704750EA013005D111F0004008BF6FF004
:100D9000004070474FF00000704700BF80F00040F7
:100DA00002E000BF81F0004142001FBF5FEA410343
:100DB00092EA030F7FEA226C7FEA236C6AD04FEA43
:100DC0001262D2EB1363C1BFD21841404840414088
:100DD000B8BF5B42192B88BF704710F0004F40F43A
:100DE000000020F07F4018BF404211F0004F41F456
:100DF000000121F07F4118BF494292EA030F3FD022
:100E0000A2F1010241FA03FC10EB0C00C3F1200334
:100E100001FA03F100F0004302D5494260EB4000C3
:100E2000B0F5000F13D3B0F1807F06D340084FEA2E
:100E3000310102F10102FE2A51D2B1F1004F40EB23
:100E4000C25008BF20F0010040EA0300704749008B
:100E500040EB0000013A28BFB0F5000FEDD2B0FA28
:100E600080FCACF1080CB2EB0C0200FA0CF0AABF4B
:100E700000EBC25052421843BCBFD04018437047E9
:100E800092F0000F81F4000106BF80F400000132EF
:100E9000013BB5E74FEA41037FEA226C18BF7FEAC6
:100EA000236C21D092EA030F04D092F0000F08BF08
:100EB0000846704790EA010F1CBF0020704712F0EF
:100EC0007F4F04D1400028BF40F00040704712F12E
:100ED00000723CBF00F50000704700F0004343F093
:100EE000FE4040F4000070477FEA226216BF0846C9
:100EF0007FEA23630146420206BF5FEA412390EA8C
:100F0000010F40F4800070474FF0000304E000BF81
:100F100010F0004348BF40425FEA000C08BF704732
:100F200043F0964301464FF000001CE050EA0102F6
:100F300008BF70474FF000030AE000BF50EA01020B
:100F400008BF704711F0004302D5404261EB4101F8
:100F50005FEA010C02BF84460146002043F0B6431D
:100F600008BFA3F18053A3F50003BCFA8CF2083A42
:100F7000A3EBC25310DB01FA02FC634400FA02FC4B
:100F8000C2F12002BCF1004F20FA02F243EB020052
:100F900008BF20F00100704702F1200201FA02FCB4
:100FA000C2F1200250EA4C0021FA02F243EB0200A7
:100FB00008BF20EADC7070474FF0FF0C1CEAD052EB
:100FC0001EBF1CEAD15392EA0C0F93EA0C0F6FD0AC
:100FD0001A4480EA010C400218BF5FEA41211ED08A
:100FE0004FF0006343EA501043EA5111A0FB013176
:100FF0000CF00040B1F5000F3EBF490041EAD3714B
:101000005B0040EA010062F17F02FD2A1DD8B3F1C6
:10101000004F40EBC25008BF20F00100704790F035
:10102000000F0CF0004C08BF49024CEA502040EA87
:1010300051207F3AC2BFD2F1FF0340EAC25070474D
:1010400040F400004FF00003013A5DDC12F1190F8B
:10105000DCBF00F000407047C2F10002410021FAFD
:1010600002F1C2F1200200FA02FC5FEA310040F115
:10107000000053EA4C0308BF20EADC70704792F08E
:10108000000F00F0004C02BF400010F4000F013AC6
:10109000F9D040EA0C0093F0000F01F0004C02BFC1
:1010A000490011F4000F013BF9D041EA0C018FE730
:1010B0000CEAD15392EA0C0F18BF93EA0C0F0AD036
:1010C00030F0004C18BF31F0004CD8D180EA01005C
:1010D00000F00040704790F0000F17BF90F0004FF5
:1010E000084691F0000F91F0004F14D092EA0C0FD7
:1010F00001D142020FD193EA0C0F03D14B0218BF6A
:10110000084608D180EA010000F0004040F0FE40AF
:1011100040F40000704740F0FE4040F4400070474B
:101120004FF0FF0C1CEAD0521EBF1CEAD15392EACA
:101130000C0F93EA0C0F69D0A2EB030280EA010CBA
:1011400049024FEA402037D04FF0805343EA111153
:1011500043EA10130CF000408B4238BF5B0042F1B1
:101160007D024FF4000C8B4224BF5B1A40EA0C0056
:10117000B3EB510F24BFA3EB510340EA5C00B3EB88
:10118000910F24BFA3EB910340EA9C00B3EBD10F76
:1011900024BFA3EBD10340EADC001B0118BF5FEAC8
:1011A0001C1CE0D1FD2A3FF650AF8B4240EBC250F1
:1011B00008BF20F0010070470CF0004C4CEA5020B2
:1011C0007F32C2BFD2F1FF0340EAC250704740F401
:1011D00000004FF00003013A37E792F0000F00F0F3
:1011E000004C02BF400010F4000F013AF9D040EA71
:1011F0000C0093F0000F01F0004C02BF490011F405
:10120000000F013BF9D041EA0C0195E70CEAD153FC
:1012100092EA0C0F08D142027FF47DAF93EA0C0FE3
:101220007FF470AF084676E793EA0C0F04D14B02C7
:101230003FF44CAF08466EE730F0004C18BF31F079
:10124000004CCAD130F000427FF45CAF31F0004373
:101250007FF43CAF5FE700BF4FF0FF3C06E000BF0C
:101260004FF0010C02E000BF4FF0010C4DF804CD2F
:101270004FEA40024FEA41037FEA226C18BF7FEA3F
:10128000236C11D001B052EA530C18BF90EA010F41
:1012900058BFB2EB030088BFC81738BF6FEAE170D0
:1012A00018BF40F0010070477FEA226C02D15FEA6C
:1012B000402C05D17FEA236CE4D15FEA412CE1D0D8
:1012C0005DF8040B704700BF844608466146FFE79F
:1012D0000FB5FFF7C9FF002848BF10F1000F0FBD81
:1012E0004DF808EDFFF7F4FF0CBF012000205DF87A
:1012F00008FB00BF4DF808EDFFF7EAFF34BF0120FF
:1013000000205DF808FB00BF4DF808EDFFF7E0FF97
:1013100094BF012000205DF808FB00BF4DF808EDE8
:10132000FFF7D2FF94BF012000205DF808FB00BF4B
:101330004DF808EDFFF7C8FF34BF012000205DF82D
:1013400008FB00BF4FEA40024FEA41037FEA226CEC
:1013500002D15FEA402C08D17FEA236C02D15FEA18
:10136000412C02D14FF0000070474FF00100704750
:1013700053B94AB9002908BF00281CBF4FF0FF31FC
:101380004FF0FF3000F00CB8ADF1080C6DE904CE61
:1013900000F008F8DDF804E0DDE9022304B070474E
:1013A000704700BF2DE9F04786468C460846089EE8
:1013B000154674461946002B40F0C2808542B2FAA9
:1013C00082F245D94AB1C2F1200300FA02FC2EFA9A
:1013D00003F3954043EA0C0C94404FEA154EA8B233
:1013E000BCFBFEF8230C0EFB18CC08FB00F943EA0B
:1013F0000C43994528D9EB1808F1FF3704D29945D9
:1014000002D9A8F102072B44A3EB0903A4B2B3FB52
:10141000FEFC0EFB1C330CFB00F044EA0344A0422C
:1014200014D92C190CF1FF3304D2A04202D9ACF12B
:1014300002032C44241A43EA07401EB1D44000237F
:1014400034607360BDE8F0874746DDE76346F1E747
:1014500092BB431B01214FEA154EAFB2B3FBFEFC1A
:10146000200C0EFB1C330CFB07F840EA03439845A5
:1014700062D9EB180CF1FF3004D2984502D9ACF1D7
:1014800002002B44A3EB0803A4B2B3FBFEFC0EFB4B
:101490001C330CFB07F744EA0344A7424ED92C192E
:1014A0000CF1FF3304D2A74202D9ACF102032C4461
:1014B000E41B43EA0040C0E7C2F1200320FA03F135
:1014C000954090402EFA03F303434FEA154EAFB216
:1014D000B1FBFEFC0EFB1C10190C0CFB07F841EADB
:1014E0000041884504FA02F422D969180CF1FF3052
:1014F00004D2884502D9ACF102002944A1EB0801CD
:101500009BB2B1FBFEFC0EFB1C110CFB07F743EA80
:1015100001439F420ED9EB180CF1FF3104D29F42D8
:1015200002D9ACF102012B44DB1B41EA004192E7F6
:101530006046E3E76146F7E76046A3E76346B7E73F
:10154000834206D916B9002108467BE7C6E900E0C8
:10155000F9E7B3FA83F78FB9834201D3724508D80C
:10156000BEEB020460EB030301209C461EB9002180
:1015700068E73846FAE7C6E9004CF8E7C7F1200CFF
:10158000BB4022FA0CF41C432EFA0CF120FA0CF3A7
:10159000B84001434FEA14490EFA07F5B3FBF9F8D6
:1015A0001FFA84FE09FB18300B0C08FB0EFA43EA05
:1015B00000439A4502FA07F240D9E31808F1FF30D8
:1015C00004D29A4502D9A8F102002344A3EB0A03EE
:1015D00089B2B3FBF9F809FB183308FB0EFE41EAA8
:1015E00003418E452CD9611808F1FF3304D28E4592
:1015F00002D9A8F10203214443EA0040A0FB02986B
:10160000A1EB0E014145CE46434602D306D14D45DE
:1016100004D2B9EB020E68EB04030138002EA6D009
:10162000B5EB0E0261EB030101FA0CFC22FA07F3A1
:101630004CEA0303F940C6E9003198E74046C5E7A4
:101640004346D9E7000000002DE9F04F016C9FB040
:1016500016461F46CDE904672B9D039049B1426CA5
:101660004A600123934004468B6008F047FF002343
:101670002364B7F10009B4BF012300232B60764B2C
:10168000BCBF29F00049CDF8149033EA090300F0FB
:10169000AA80DDE904340022184621460023CDE962
:1016A0000801FFF70BFB804668B12A9A01231360FB
:1016B0002C9B13B12C9A694B1360694B0A930A98BF
:1016C0001FB0BDE8F08F1CAB01931DAB00930398D6
:1016D000DDE9082309F046FA5FEA1955824640F031
:1016E0009880DDE91C85454405F23243202B40F308
:1016F0008383C3F1400309FA03F905F2124326FA82
:1017000003F349EA0300FEF7F7FF0123013DA1F1CE
:10171000F8711193534B0022FEF7B0FE48A3D3E9B2
:101720000023FFF763F848A3D3E90023FEF7A8FEE0
:10173000064628460F46FEF7EFFF45A3D3E90023F0
:10174000FFF754F802460B4630463946FEF798FE3E
:1017500006460F46FFF7FAFA00228346002330467A
:101760003946FFF7B5FA002840F01A83A8EB0508C0
:10177000BBF1160F08F1FF3400F28B813A4D05EBF7
:10178000CB05D5E90023DDE90801FFF7A1FA002820
:1017900070D00023002C0BF1FF3B1093C0F27E8130
:1017A00000230B93BBF1000F6ADA0B9BA3EB0B0337
:1017B0000B93CBF10003CDE90EB3289B092B4FF01F
:1017C000000B65D8052B40F31C83043B28930025B0
:1017D000289B023B032B00F22386DFE813F0600412
:1017E0005D04540438042A9AC9F3130942F20F73B2
:1017F00059EA060913601CD12C9B002B00F02B86A4
:101800001A4B0A9308332C9A0A9813601FB0BDE84C
:10181000F08FDDE90812C2F31303084643F07F514D
:10182000CDF84480A5F2FF35DDF8708041F4401119
:1018300070E72C9B002B40F0E7830D4B0A933EE7AB
:1018400061436F63A787D23FB3C8608B288AC63FC6
:10185000FB799F501344D33F0000F07F1DE8000840
:101860001CE800080000F83F88E2000840E8000893
:101870004CE80008B8F1000F40F3608410900B9022
:1018800000230F93289BCDF838B0092B5C4499D9DD
:101890000023CDE9283301254FF0FF330C95069343
:1018A000039B00215964069B1893039808F000FEDF
:1018B0000A90002800F0BD85039B0A9A1A64069BD3
:1018C0000E2B00F21581002D00F012810E9A002AD5
:1018D00040F33B84B24D02F00F0305EBC303D3E9A1
:1018E000008913461511DA0540F1FA83AD4BDDE9A5
:1018F0000801D3E90823FFF7A3F8CDE9120105F0A9
:101900000F0503277DB1A74EEB0708D54046494692
:10191000D6E90023FEF76AFF0137804689466D103D
:1019200006F10806F0D142464B46DDE91201FFF709
:1019300087F880468946109B43B19B4B0022404666
:101940004946FFF7C5F9002840F0F1843846FEF714
:10195000E3FE42464B46FEF749FF944B0022FEF75A
:101960008FFD069B0646A1F15077002B00F0A98061
:101970000E9B1993069B12930A9B894D494640463C
:10198000CDE914675E1CFFF7E1F9129905EBC1037D
:1019900053E902120746CDE91612FEF7BDFE0246D4
:1019A0000B4640464946FEF769FD89460C9930379B
:1019B000DDE916238046FFB2002900F053847C49FC
:1019C0000020FFF73DF8DDE91423FEF757FD0A9DDF
:1019D00002460B46CDE914232F7042464B46FFF7D3
:1019E00095F9002840F09784CDE91AB4CDF858A0B5
:1019F000129DDDE914AB00272AE00137AF4280F2E7
:101A0000DE846C4B504659460022FEF7EFFE694BD0
:101A1000002282468B4640464946FEF7E7FE89464D
:101A20008046FFF793F90446FEF776FE02460B4622
:101A300040464946FEF722FD303406F8014B524637
:101A40005B4680468946FFF743F9002840F0B4849E
:101A500042464B4654490020FEF710FD52465B4675
:101A6000FFF736F90028C8D0199BDDF858A00A9A6C
:101A7000374603F1010802E0974200F07C843E46BD
:101A800017F8013D392BF7D00133DBB23B704546E7
:101A900075E10123002C1093BFF682AEC8F101035B
:101AA0000B9300247EE63846FEF736FE42464B4650
:101AB000FEF79CFE3D4B0022FEF7E2FC0646A1F13C
:101AC00050773D4B404649460022FEF7D7FC324650
:101AD0003B4680468946FFF719F9002840F05A84B2
:101AE00040464946324607F10043FFF7F1F828BB6C
:101AF0001D9B002BC0F292800E9A0E2A00F38E805E
:101B0000274D0E9B05EBC305D5E90034CDE9043420
:101B1000299B002B19DA069B002B16DC0ED1264BD5
:101B20000022DDE90401FEF761FE02460B46DDE915
:101B30000801FFF7D7F8002800F02C844FF00009C7
:101B40000A9E4F46299BDD4325E2DDE90445DDE998
:101B5000088922462B4640464946FEF771FFFFF7AB
:101B6000F5F80646FEF7D8FD22462B46FEF73EFE68
:101B70000A9F0B46024649464046FEF77FFC06F1A7
:101B8000300307F8013B069B012B00F0128301256F
:101B9000CDF818A09946DDE904ABA8462CE000BFBB
:101BA00088E2000860E200080000F03F00001C40EE
:101BB0000000E03F000024400000144052465B4615
:101BC00020462946FEF73CFFFFF7C0F80646FEF721
:101BD000A3FD52465B46FEF709FE08F101080B46DD
:101BE000024629462046FEF749FC06F13003C84567
:101BF00007F8013B00F0DB82B94B0022FEF7F6FD4F
:101C00000022002304460D46FFF758F80028D5D0DF
:101C10000E9DDDF818A001353E46B0E00C9A002A72
:101C200040F0D28000230F9D0B9E0C931F4656B1AF
:101C3000002C08DDA6420B9A3346A8BF2346D21AD1
:101C40000B92F61AE41A0F9B53B10C9B13B1002DA3
:101C500040F0E88251460F9A039808F0DFFD824673
:101C60000398012108F0F6FC8146BBF1000F40F01B
:101C7000B681289B012B40F3CC810120204410F039
:101C80001F0000F09A80C0F12003042B40F3DA819A
:101C90000B9BC0F11C0003440B93064404440B9BB4
:101CA000002B05DD514603981A4608F011FE8246C6
:101CB000002C05DD49460398224608F009FE8146BE
:101CC000109B002B40F07081069B002B40F3488155
:101CD0000C9B002B40F0A4800E9D0135DDF8288080
:101CE000069CDDF80CB0012607E0514600230A22CD
:101CF000584608F00DFC013682464946504608F029
:101D000029F8A64200F1300308F8013BEDDB069A02
:101D1000002AC8BF16460A9AD8BF012602EB060B56
:101D20000024514601220398049308F0D1FD49464E
:101D3000824608F045FE002840F3E3810A9A02E05B
:101D40005A4500F0E9815E460BF1FF3B16F8013C75
:101D5000392BF5D001338BF80030DDF80C80494683
:101D6000404608F0CBFB57B12CB1BC4203D0214612
:101D7000404608F0C3FB0398394608F0BFFB0398C0
:101D8000514608F0BBFB002333702A9B1D602C9B3F
:101D9000002B3FF494AC0A981E601FB0BDE8F08F92
:101DA0005846FEF7B9FC32463B46FEF787FF00284F
:101DB0007FF4DCAC0BF1FF3BD8E41C230B9A1A44F4
:101DC0000B921E441C446AE7289A012A40F3A98119
:101DD000069A0F9B551EAB42C0F26B81002AA3EB03
:101DE000050580F2DD820B9B069A9E1A039801215D
:101DF00008F030FC07461AE7C3F1200306FA03F0A7
:101E000081E40125E4E43946002303980A2208F01E
:101E10007FFB189B002B074640F3EF820E9506933D
:101E2000002E00F33F81BBF1000F40F0DF81B84688
:101E30000A9E069C731E1C44049B0C9403F0010331
:101E4000039C0F934946504607F084FF394683466A
:101E5000504608F0B5FD424649460546204608F082
:101E6000CFFDC26801460BF13003002A3AD1089039
:101E700050460B9308F0A4FD08990690204608F000
:101E80003DFB069A0B9B002A5AD1289A1AB90F9A41
:101E9000002A00F09A82002D45DB0C9AB346B2422C
:101EA0000BF8013B00F0B981514600230A2220467D
:101EB00008F02EFB4745824639464FF000034FF0AD
:101EC0000A02204636D008F023FB4146074600238D
:101ED0000A22204608F01CFB5E468046B2E700BF9F
:101EE000000024400398069308F008FB002D069B91
:101EF00006DB049A289902F001020D432A432AD1F5
:101F0000514601220398049308F0E2FC49468246B8
:101F100008F056FD0028049B40F3E880392B00F0C0
:101F20002F820BF131030E9D06F8013B3C46013533
:101F3000474612E708F0ECFA5E460746804681E71E
:101F4000002DC0F27D8228990D430F990D4300F0BA
:101F50007782002AA1DD392B00F012820133E2E7FB
:101F6000289B022B7FF7B4AE069B002B40F01D810F
:101F700049460522039808F0CBFA014681465046AF
:101F800008F01EFD002840F310810A9E0E9D3123AB
:101F900006F8013B013503984946013508F0AEFAD1
:101FA000002F7FF4E8AEEAE64946504608F008FD07
:101FB0000028BFF689AE5146002303980A2208F094
:101FC000A7FA0E9B5D1E0C9B8246002B7FF41BAF75
:101FD000189B002B40F3FF810E9D06937EE6014681
:101FE0005A46039808F01AFC289B012B81466CDDA9
:101FF0004FF0000BD9F8103009EB8303186908F093
:10200000D7FAC0F1200039E6924B0A930333FFF769
:10201000FABB049B002B7FF430AEDDE90412C2F35F
:102020001303002B7FF429AE8B4B134023B10B9B82
:1020300001330B9301340123BBF1000F40F0AE815B
:102040009B461AE63FF42BAEC0F13C03B6E60123F3
:102050000C93299B0E9A134418930133012B1E46AF
:102060000693B8BF0126172E40F3D5810122042321
:102070005B0003F11400B042114602F10102F7D9EE
:10208000039B596411E401230C93299B002B33DD3E
:10209000189306931E46E6E700230C93D9E7002326
:1020A0000C93F2E739460398324608F011FC0746D4
:1020B000B9E60F9B069A0F95EB1A9B440B9B1E46A5
:1020C000134414440B93002590E6049B002B8FD1FE
:1020D000DDE90401C1F313030A46002B88D1A3E70D
:1020E000DDE908230227CDE912230BE47FF41BAFBF
:1020F000DA077FF518AF11E7012329930693FFF75D
:10210000CFBB03D1049BDB073FF518AE5E461BF83F
:10211000013D302BFAD020E60A9A312301351370A5
:102120001BE6119A002A00F0F98003F233430B9A60
:102130000F9D16461A441C440B9257E6C8F1010342
:1021400004460B931090FFF79BBB00F0EB800E9BB7
:10215000424D5E4206F00F0305EBC303D3E90023B3
:10216000DDE90801FEF742FB3511CDE9120100F06F
:102170004D813B4E0023022780468946E80709D55A
:10218000D6E9002340464946FEF730FB013780463A
:10219000894601236D1006F10806EFD1002B7FF46C
:1021A000CAABDDE91289FFF7C6BB0A9ECAE4DDF8B7
:1021B00018A00E9D02460B46FEF762F902460B463A
:1021C000CDE906230135DDE90423A846FEF79EFD8F
:1021D00040B9DDE90423DDE90601FEF76FFD18B122
:1021E000F10701D50A9A4AE43E46C8E579680398A2
:1021F00008F05EF90546002800F026813B690233AD
:102200009A0007F10C010C30FEF79AF80398294662
:10221000012208F05DFB80460AE60E9D3C46013532
:1022200047467EE5DDF80C8039462A46404608F0F0
:10223000F5FA524601460746404608F039FA51463B
:102240008246404608F05AF90F9B5B1B0F933FF400
:1022500007ADFFE44CE800080000F07F88E20008CA
:1022600060E20008DDE91401FEF7C0FA0A9B1F7066
:10227000129B012BCDE90C0100F0C680129F0A9B36
:10228000CDF844B01F447C4B002240464946FEF73F
:10229000ADFA89468046FEF759FD8346FEF73CFAC3
:1022A0000BF1300B02460B4640464946FEF7E6F876
:1022B00006F801BBB74280468946E4D1DDF844B058
:1022C0006E4B0022DDE90C01FEF7DAF802460B4600
:1022D00040464946FEF71AFD002867D1DDE90C2388
:1022E00066490020FEF7CAF802460B4640464946BA
:1022F000FEF7EEFC48B91D9B002BFFF693AC0E9B3E
:102300000E2B3FF78FACFFF7FCBB3E46013F16F8A4
:10231000013C302BF9D0199D013530E51C9BC3F1F0
:10232000360304E7DDE908890227FFF704BB069BB3
:10233000002B3FF4B8AB189B002B7FF7D9AB0E9A5C
:102340001293013A4C4B1992404600224946FEF73F
:102350004DFA80468946781CFEF7DEF942464B4628
:10236000FEF744FA464B0022FEF78AF80646A1F132
:102370005077FFF701BB08F101083123FFF786BB57
:102380000E9D0A9AB34639233C460BF8013B0135B2
:102390004746D8E44FF000094F46F6E59B4629E64C
:1023A0000B9B1E46134414440B931FE5199B0A9A7A
:1023B00003F10108FFF763BBDDF858A0ABE7DDE9E7
:1023C0001AB4DDF858A0FFF793BB392BD8D0002DF5
:1023D0003FF7A7ADA7E5289B022B0ADC189B0693C5
:1023E00049460E9D07F0B6FC0A9A00F130031370BF
:1023F0008DE4189B06930E95B6E5289B022BF8DC1E
:10240000189B0E9506930BE5374659E7DDE91289CF
:102410000227FFF790BA039B00215964FFF745BAE2
:10242000039B00255D642946184608F041F80A9090
:10243000A8B9144B144800224FF4D57109F0D6FB0B
:10244000002A7FF770AD5BE50E4B0F482A4640F23D
:10245000EA2109F0CBFB0D4B0A93FFF730B9039B40
:102460000A9A1A644FF0FF330122299518930C92AF
:102470000693FFF73DBB00BF000024400000E03F93
:1024800000001C4050E8000864E8000840E800082C
:102490002DE9F0438DB0584C20460BF0C3FAA8B19B
:1024A0002269A168136823F0080313600B684FF4D6
:1024B000C02203212046984750480AF08EF8504821
:1024C0000BF0B0FA38B94F480AF087F86FF01200F5
:1024D0000DB0BDE8F0834C480BF0A4FA0028F2D010
:1024E0001422002102A805F0ADFD042601271825BD
:1024F0001422002107A803970596CDF810D08DF877
:10250000185005F09FFD0DEB060340480897CDE9F4
:1025100009368DF82C500AF060F83D4FDFF8F48052
:102520003D4EA36834485B69082198473448836866
:1025300002A95B68984780BBDDF800904846FEF72B
:10254000E7FC3946FEF738FD4146FEF735FD3146DA
:10255000FEF7E6FD3149FEF7E3FD01464FF07E5000
:10256000FEF720FC2E49FEF727FD2E49FEF71CFC46
:1025700005F020FA494605462B4805F0C1FD2B49D8
:102580002846FEF70FFC2A49FEF7CAFDFEF7D6F8EB
:1025900002460B46274805F0B3FD1B48836807A990
:1025A0005B68984710BB0199234805F0A9FD019885
:1025B000FEF7AEFC3146FEF7B3FD2049FEF7FCFC0A
:1025C0000546FEF7BBF802460B461D4805F098FD90
:1025D00012492846FEF7F0FC1A49FEF7A1FDFEF766
:1025E000ADF802460B46184805F08AFD002142F27C
:1025F00010700BF0F1FA94E730DE0008E4E900080F
:10260000A0DE0008F0E9000884DE000806EA000801
:1026100000E89E45000080BEFEFFFF4A00007A44AD
:102620007F051B366622803715EA00083211803B91
:102630007F059BB525EA00083BEA00086F12833F3F
:1026400049EA0008000020415FEA00082DE9F04F48
:1026500091B08407009302F004030293C2F3C20313
:1026600003F10103DDF86880039205460E460593E9
:1026700040F0BA81041D30B1072909D86FF01B0062
:1026800011B0BDE8F08F01F007063444C6F108062A
:10269000009B4FF00009591E4FF0040A4FF0FF3322
:1026A0000193CDF810904F46CB4653460DB1009A9A
:1026B00022600598002800F3E8809848009A82423A
:1026C00003D397488242C0F0E080039AA4EB050E42
:1026D00092074FEA9E0000F103810F2F00F2B180B4
:1026E000002D00F0058107F140020DEB020C019A6C
:1026F0000CF8200C0CF8102C049801300490E7E042
:102700007A285DD84B280ED8472859D829282DD8A3
:10271000252852D054D820287AD02338D0F1000B65
:102720004BEB000B74E04C382E2849D8DFE800F062
:102730007048484848484848484848484B484848EE
:10274000484848484859484B4B595959704B6D486F
:102750007048184B184848827F4B48484B487F00C8
:1027600000204FF0000B4FF0040A38E02A38C0B2C6
:10277000012202FA00F010EA0E0F49D110F0625C5B
:102780002FD110EA020B43D06046013C5444B4FB05
:10279000FAF40AFB04F4002D61D0A3EB050CA44469
:1027A000B4453FF66BAF002868D1042B47D158F8E9
:1027B000043B2360043404232AE0019A013A019285
:1027C0004FF0000B24E011F8010C6C2834D111F803
:1027D000023C00206C2B8346C5D14FF0080A5346BB
:1027E000D3E708F1070828F007080734F8E802AB38
:1027F00024F0070435B106982044B0423FF63EAFBE
:10280000C4E900AB08344FF0000B4FF0080A534600
:1028100011F8010F002878D0BBF1000F7FF470AFE2
:102820002528F5D1019B013301934FF0010B4FF0A7
:10283000040AECE7584694E700208346A5E7082BF6
:1028400002D06FF015001BE708F1070828F0070811
:10285000F8E80223C4E9002308340823D8E768B95C
:10286000042B02D108F10408A4E7082BE9D108F1F0
:10287000070828F0070808F10808EDE7059A013A6B
:10288000059258F8042B009210E7039A900720D580
:10289000A4EB050E4FEA9E004FF0010CBEF5007F41
:1028A000CFD20F2FCDD8F5B107F140020DEB020EBC
:1028B000C0B2019A0EF8200C0EF8102CBCF1000FDB
:1028C0003FF41AAF60F07F000EF8200C09F1010907
:1028D0000137C5F10802043406924FF6DA7E97E715
:1028E0004FF0000CDAE7BCF1000F01D00136EFE742
:1028F000029802360028EBD10098CDE90631FDF7A9
:102900005FFCDDE906310644E2E7631BB3F5806F47
:1029100097D23DB9A6F10804E018B1E61CDD000825
:1029200020F60008029A28609B082B709DF8103052
:10293000C2B1EB7085F80290B9F1000F05D008A87C
:102940000022C5F1010C97420ED1C5F101030DF132
:1029500020084FF0000A01930DF1300B574512D1BA
:10296000601B8DE66B70E5E710F8013B190608D592
:102970000CEB040EB64503F07F033FF67FAE04F880
:10298000013B0132DFE7B9F1000F03D098F90020D5
:10299000002A17DB029BD3B11AF80B2004F8012B95
:1029A0000022019B18191044B0423FF667AE98F818
:1029B000000004F8010B009903922046FDF7C0FCCB
:1029C000039A14440AF1010A08F10108C6E798F8CD
:1029D000002055F822300093029B45F822300098E1
:1029E000FDF7EEFB421CDCE76FF00D0048E600BF90
:1029F0002DE9F04F97B000AF90F802A0D7F880B063
:102A00003B62CBF3C0030446FA62BB61894641B91D
:102A1000457800780AEB800020444D4517D8A0EB9C
:102A20000409E378FB61BAF1000F02D01BF0010F3B
:102A300016D1FB6953BBFB6A1BB13A6A4946204673
:102A400098474D4628465C37BD46BDE8F08F461C8A
:102A50003046FDF7B5FB0130304409F10109DCE7F0
:102A6000237862687A62FA6A9900796104EB8301DB
:102A7000002A40F000814D460E4601EB0A094FF056
:102A800000084E454CD101EB0A0610E01BF0020F86
:102A9000D1D023789A007A6162687A62FA6A04EB8C
:102AA0008301002A77D14D4601EB0A0690461BF0C0
:102AB000050F0CBF02230123FB62FB6906EB430AEF
:102AC0000BF00203BB625645BCD016F8021B16F889
:102AD000013C54F82390994B994502D3984B994562
:102AE00036D3BB69002B40D0786A09F03DFD002841
:102AF0003BD0E9468AB06A46924B53617B6AC2E991
:102B000006314FF4007313848F4B42F8103F8F4807
:102B100000234FF4125101F041F8023DCD46D2E7B7
:102B200016F8013BF96254F82300FDF749FBD7F88A
:102B30008430F96A01304BB1D7F8883098453EBFF0
:102B4000D7F8843023F8180008F10108054498E705
:102B5000BB6923B1786A09F007FD0028C9D11BF0D1
:102B6000010F05D1FB6AED1AADE7BB6A002BAAD0B5
:102B70004846FDF725FBD7F8843053B1D7F88830A5
:102B800098453FBFD7F88420431C22F8183008F13D
:102B90000108054497E7BAF1000F72D01BF0040654
:102BA00072D0D046002607F1480052463B61B96218
:102BB000FDF7C6FBB96A3B6901EB0A02BA62FA6922
:102BC000F9695200FA60BA6A02EB41023A610BF00D
:102BD0000202BA603A69B96A8A4257D162787A6267
:102BE0001BF0020F32440CBF4FEA580100211BF0CA
:102BF000010FD2B240F09F801BF0040F14BF40467B
:102C00000020BB616270A070E1703A6A7969FB6A6A
:102C100020469847051EFFF615AFBB6923707B6AF7
:102C20006370FB69E37041463A6AFB6A84F802A06C
:102C300007F148009847B0F10008C0F2BB807B69FB
:102C40003A6AA9EB0A01C91AFB68C91AD7E90A034B
:102C500098470028C0F2B080A84408EB00054FF068
:102C6000000B07F1380AB34572D300213A6AFB6AB8
:102C700008469847E6E656464FF0000807F1380048
:102C800093E75646D04697E7B04695E7BA6A12F8FA
:102C9000021BBA6212F8015C284A54F825009042DF
:102CA00002D3274A90421ED3BA6932B1786A7B6058
:102CB00009F05AFC7B6800288CD1BA6802BB08F185
:102CC000280207F1300C08F10100944407F1580282
:102CD00052FA80F008F102080CF8101C5FFA88F82C
:102CE00000F8105C76E7BA693AB1786A7B6009F05F
:102CF0003BFC7B6800287FF46DAF1BF0010F09D00F
:102D000006F1280207F13000711C161806F8205C45
:102D1000CEB25FE71BF0040F3FF45CAF08F128026E
:102D200007F1300008F1010102EB000808F8105C1F
:102D30005FFA81F84EE7002063E700BF1CDD000862
:102D400020F6000873EA000804000001E4E100082E
:102D50001BF80A3087F8373054F82390D7F88430BE
:102D60002BB3D7F888309B4521D2D7F8843033F87D
:102D70001B803A6AFB6A012107F137009847002857
:102D80001ADB0544B8F1000F06D14846FDF718FAE2
:102D900000F101081FFA88F83A6AFB6A4146484682
:102DA0009847002808DB05440BF1010B5BE74FF067
:102DB0000008DEE7454645E6054643E6014B186058
:102DC000704700BF9806002030B587B00025CDE9D8
:102DD00003010446009503A90548059500F06EF827
:102DE000DDE904309842B8BF255407B030BD00BFBC
:102DF000B7C50008F0B5094E016802460A27002051
:102E00000B4601311C78355D6D0701D41360F0BDB0
:102E100007FB0043A3F13000F2E700BFD9E600084A
:102E20002DE9F84F15469A46D378234A12F803B095
:102E30006F2B81460F460BF0030B2BD026D8582B57
:102E40000CBF10260A26DDF82880324600234846AB
:102E50003946FEF78DFA092A08F1FF38D4B21ED898
:102E60003034B145E4B277F1000788F8004001D36F
:102E7000D04511D82B789B0605D5082E15D1AB78F7
:102E800043F00803AB704046BDE8F88F03F0F7034A
:102E9000702BD5E70826D6E781460F46D5E7BBF16C
:102EA000010F0CBF37345734DBE7102EEBD1AB7872
:102EB00043F01003E6E700BFD9E600082DE9F04F24
:102EC00097B08A46039016461C460025307808B90C
:102ED000284656E325280AD0039B514698470028E8
:102EE000C0F24F83731C01350493049EEEE7182251
:102EF000002110A805F0A6F87378252B00F0A38018
:102F00000023711C98469E469C4618460F4611F8B1
:102F1000012B2B2A00F0C68000F2BD80202A00F091
:102F2000C480232A00F0C4802BB19DF8483043F0C0
:102F300040038DF84830B8F1000F05D09DF84830B7
:102F400043F020038DF84830BEF1000F05D09DF806
:102F5000483043F010038DF84830BCF1000F05D025
:102F60009DF8483043F008038DF8483028B19DF8AB
:102F7000483043F004038DF848309DF8483003F0A2
:102F80004401442903D16FF386138DF848309DF82E
:102F90004830099743F080032A2A8DF8483040F0E2
:102FA0008C809DF8493043F001038DF849307B1C3B
:102FB0001A782E2A9DF849200CBF0121002161F3C7
:102FC00041028DF849200CD15A1C09925A782A2ABC
:102FD00040F083809DF8492042F004028DF849209A
:102FE00002331A786C2A00F0A48000F28680682AE6
:102FF00000F08C806A2A00F0A5804C2A00F0AA809C
:103000001A4612F8013B0492782B9DF849208DF85E
:103010004B3000F217816D2B00F2A980692B00F272
:103020001181572B00F2BE80412B03D0453B022B70
:1030300000F208819DF84A30042262F302038DF801
:103040004A300123CAE08DF84B30B31C04939DF83D
:103050004930D90740F1FD8054F8048BB8F1000FD6
:1030600007DA9DF8482042F004028DF84820C8F1A4
:1030700000085A0740F1F68054F804BBBBF1000F7A
:1030800080F2F5809DF849306FF341038DF84930A7
:103090004FF0FF3BEBE02D2A0DD0302A7FF444AFF8
:1030A000012333E74FF0010C30E74FF0010E2DE71D
:1030B0004FF001082AE7012028E709A8FFF79AFE48
:1030C000099BBB423FF474AF9DF848201390C00F9A
:1030D00060F341028DF848206AE709A8FFF78AFEED
:1030E0009DF848301490C3F3400242EAD07262F374
:1030F00041038DF84830099B73E7742A26D07A2A59
:103100007FF47EAF9DF8492006210CE05A78682AAA
:103110009DF8492006D1012161F3C6028DF84920AE
:1031200002336DE7022161F3C6028DF849200133B5
:1031300066E75A786C2A9DF8492001D10421EBE713
:103140000321F0E79DF849200521ECE79DF849208F
:103150000721E8E7BDF8482022F4F04222F00202FD
:1031600042F4804242F00202ADF84820DFE76E3BB5
:10317000D9B201238B4040F282410B4238D113F087
:10318000240F52D1DF075DD59DF84A30032161F34A
:1031900002038DF84A3002F07803A3F14000434265
:1031A00043411BE0A3F15801C9B2012000FA01F12B
:1031B00011F4624F7FF43EAF40F6010739421DD152
:1031C00011F4043F3ED09DF84A3060F3020302F050
:1031D0007802402A8DF84A3034D000239DF84820E8
:1031E000C2F340010B4363F341028DF848202EE700
:1031F0009DF84A30022161F30203E8E79DF84A1086
:10320000022002F0780260F30201402A8DF84A1091
:1032100002BF9DF8481041F001018DF84810632B62
:10322000DBD1131E18BF0123D8E79DF84A300321D4
:1032300061F3020312F0780F8DF84A3014BF0123B6
:103240000023CBE79DF8483043F001038DF8483068
:10325000C3E79DF94820002AB4BFDDF84C804FF049
:10326000FF3806E79F077FF513AFDDF850B09DF8F4
:1032700049100023CDE913339DF84A3003F00703CA
:10328000012BC1F3C30132D1CB1E042B04D8DFE8DC
:1032900003F0204545202000236801294FEAE3720E
:1032A000CDE910321BD19DF94030DA17CDE910324B
:1032B00004349DF8483013F003074FD0049B039863
:1032C0003246514609F0ADF90028C0F25A81054452
:1032D0000BE654F8043BDA17CDE91032E9E702298E
:1032E000E6D11AB243F3C033CDE91023E0E7022B55
:1032F00024D1CB1E042B04D8DFE803F018101018DB
:103300001800012954F8043B4FF0000214D00229A0
:10331000CDE91032CDD19BB21093CAE7073424F027
:103320000704F4E80223CDE91023C2E754F8043B74
:10333000109300231193BCE7DBB2CDE7042B08D137
:10334000073424F00704D4E900230834CDE910231E
:10335000AFE7032BADD154F8043BDDE79DF84B00FC
:1033600078283FF6C2AD62281ED8252850D05828AC
:103370007FF4BBAD0DF13E030093DDE910010AAB14
:1033800012AAFFF74DFDBBF1000F814680F2C2800B
:10339000B9F1000F3FF4A9AD0DF13E06A6EB09030C
:1033A000002F7BD0013379E0633815283FF69DADBF
:1033B00001A252F820F000BF8B340008E934000865
:1033C000EB2E0008EB2E0008EB2E0008EB2E000879
:1033D000E9340008EB2E0008EB2E0008EB2E000865
:1033E000EB2E0008373500080F3500084934000877
:1033F000EB2E0008EB2E000821340008EB2E00080D
:103400000F350008EB2E0008EB2E00080F350008E2
:10341000039B514698470028C0F2B380013564E50C
:10342000BBF1000FDDF840900ADB5946484604F036
:103430008DFEB9F1000F3FF458AD09EB000620E016
:103440004846FCF7BDFEF8E71098002800F087809A
:103450000DF13E060AAB009612AA0021FFF7E0FC30
:10346000BDF84A3003F0EF0343F4F04343F0100398
:10347000BBF1000F8146ADF84A304ADA00283FF42C
:1034800034ADA6EB0903002708E0109B8DF8283027
:1034900000270DF129060DF1280901239DF84A1096
:1034A00011F01002069260D00233139A0592134471
:1034B0004A0644BF14995B18B8F1000F6EDDA8EB03
:1034C00003089DF848305807C3F3800B66D45906AB
:1034D0005AD53FB1039B514638469847002850DBE8
:1034E00001355F46302350E01E075CBFC3F3001375
:1034F0005F01DDE9102348BF2B27002BBFF63AAF51
:10350000524263EB4303CDE910232D2732E7002716
:1035100030E700279DF848100DF13E03A3EB0903A7
:103520006FF386119B458DF848107FF631AFABEBFA
:10353000030313932CE7109B07293FF6D6ACDFE873
:1035400001F00C04060C08080C0C1D70CDE41D8065
:10355000CBE4EA17C3E90052C7E41D60C5E4314E6D
:103560000746A6F10509052398E7080748BF013378
:103570009BE7184607935146039B98470028079BF3
:1035800004DA17B0BDE8F08F2023C346594600295E
:103590000BF1FF3BEDDC45446D1AD84637B1039B78
:1035A0005146384698470028EBDB01359DF84A30F4
:1035B000DA0601D41B0706D5039B514630209847F5
:1035C0000028DEDB0135069B3BB19DF84B00039BD9
:1035D000514698470028D4DB0135059F2F4406E06B
:1035E000039B5146302098470028CADB01357B1BDE
:1035F000002BF5DC039833464A46514609F011F892
:103600000028BEDB0544A844A8EB0503002B7FF788
:103610006CAC039B5146202098470028B1DB013554
:10362000F2E700BF2CEB0008034A536823F00203C3
:1036300053600020704700BF002004E0084B1A6868
:1036400042F400721A601A6842F480621A601A68C2
:1036500042F480721A60034B034A1A60704700BF3D
:10366000002002401407002000093D002DE9F0472A
:10367000DFF85880044607464FF0010914B9384670
:10368000BDE8F08794FAA4F5B5FA85F509FA05F3D3
:103690002E0108EB05156FEA030A24EA03042B7BCD
:1036A000002BEBD058F806301B694BB94644042276
:1036B00073682846196807EA0A0709F075FADDE712
:1036C000284698470028D9D1F0E700BF44E2000817
:1036D00030B51049104889B000220AF0F2FA0F4DB7
:1036E0000F4900220023CDE9062300240E23CDE953
:1036F0000334CDE901440B4B00944FF4407228464B
:1037000003F08AFB084928460AF0D2F9204609B09E
:1037100030BD00BF2D370008C889002040090020B7
:10372000008F0020493A000850EB0008014803F0E0
:10373000DBBA00BF2C0900202DE9F0478046204865
:103740000F4609F009FA0646002832D0002528461F
:10375000BDE8F087237B83B12368DB680BB120468B
:103760009847636883F8069023681B69CBB9636840
:1037700004221968204609F017FA0136103454451E
:10378000E8D3B8F1000FE2D0002DDFD02846FFF7D4
:103790006DFF0546002FF7D0002164200AF01CFAC7
:1037A000F2E7204698470028E1D009FA06F31D43C6
:1037B000E3E7044CDFF810A005464FF00109DEE70F
:1037C000508D002044E2000854E20008014B53F8F9
:1037D0002000704764E3000808B5034608462BB193
:1037E000044A136000F074FC002008BD6FF015005F
:1037F000FBE700BF9C06002010B5044C237813B9EA
:10380000034803F071FA0123237010BDCC8E002011
:103810002C09002010B504460B4809F09DF95CB155
:10382000BFF35B8F094B53E8001F013943E80012D7
:10383000002AF8D1BFF35B8F05480AF04EFA05481D
:10384000BDE8104003F050BA488D00204C8D002098
:10385000C88900202C0900200020064BBFF35B8F95
:10386000014653E8000F43E80012002AF9D1BFF3E4
:103870005B8F7047488D002070B5FFF7EDFF084C57
:10388000084E0546B44200D370BD63685B792BB126
:1038900023685B6813B12946204698471034F1E746
:1038A00044E2000854E2000810B5044C04492046E4
:1038B00008F0D1FF034B1C6010BD00BFC8080020FA
:1038C00050E30008408D00200D4A0E48002310B53B
:1038D00013700D4A13600D4A4FF47A711360FFF7AD
:1038E0007BFFFFF7E1FF0A4B0A4918468B4200D3E2
:1038F00010BD1A1A5C681211013222711033F5E7FB
:10390000CD8E002073CB0008488D00204C8D002008
:1039100044E2000854E20008014600220148002366
:1039200008F0BABFC8080020014809F053B800BF2A
:10393000C8080020024B0146186809F0A6B800BF6D
:10394000408D0020014809F0DBB800BFC808002006
:1039500070B5264B1878002846D0FFF7E5FF0546DE
:1039600000283ED1224B234C1B68002B12DD0AF0AD
:10397000A6F90A220023FDF7FBFCD4E90032C01AA5
:1039800040F2E93361EB0201984271F1000101D389
:10399000FFF772FFD4E9003213F57A7342F10002A7
:1039A000C4E90032BDE87040FFF7CCBF63685B79C3
:1039B00023B1236829461B68204698471034B44237
:1039C000F4D32846FFF7B6FFBFF35B8F0A4B53E8EB
:1039D000001F013943E80012002AF8D1BFF35B8FC2
:1039E000C0E7064C064EEAE770BD00BFCC8E002053
:1039F000488D0020C08900204C8D002044E2000842
:103A000054E2000870B50D4D297861B90120FFF727
:103A100093FE0B4C0B4EB44206D3FFF799FF0028E0
:103A2000FBD101232B7070BD63685B791BB12368E8
:103A300020469B6898471034EDE700BFCD8E0020EC
:103A400044E2000854E2000800212DE9F04708464E
:103A5000FFF772FE044648B34FF4FA784FF00009BE
:103A600003F08AFC1A4B186030B11A4B1B68092B03
:103A700002DD194803F038F9184FDFF85CA0002583
:103A800044B12046FFF7F2FD044618B94FF0FF3865
:103A90004FF0FF39FFF75CFF064628B9B5B942463B
:103AA0004B46504603F054F93546E9E74FF0FF38EE
:103AB0004FF0FF39D4E72B689B691BB100221146F8
:103AC000284698471035BD42F5D3E8E7044DFAE79C
:103AD000448D00204C8D00202C09002054E2000869
:103AE00044E2000813B5184809F036F8174B1B7864
:103AF00073B1EFF31184102383F31288BFF36F8F38
:103B0000FFF726FF84F31188BFF36F8F02B010BD5B
:103B10000F4B1B68002BF9D050B900220023CDE9D0
:103B200000230C4842F21072002303F005FFEDE77A
:103B30000928EBD107480AF0D0F8074802B0BDE8E1
:103B4000104003F0D1B800BF4C8D0020CD8E002076
:103B5000448D0020C88900202C09002010B5064B98
:103B60001B68044698472146A060044808F013FFEC
:103B7000BDE81040FFF7B6BF9C060020C808002033
:103B8000044A054B9B1AB1EBD30F34BF52F83100F6
:103B900000207047DCE1000844E200082DE9F04F06
:103BA0008FB004AFC1F34A28B8600D4691467B60E0
:103BB0000C0DB8F1000F63D0002607F114034FF08D
:103BC000040B4FF00A0AC7F80C80C7E907667E624B
:103BD0000193CDF808B0CDF800A007F11C03F968F7
:103BE00032464846FEF704FFB0F5006F03461CD38B
:103BF0006C468AB0D9F8041004AB2648C3E9050125
:103C000040F2FF71D9611A464FF400711984224BBA
:103C100042F8103F214833464FF41251FFF7BEFFE0
:103C2000A5462C37BD46BDE8F08FC0F30A0804F165
:103C30001700184420F0070080083B60FFF76CFE77
:103C400068F35325044690B13B68154AC7E9083626
:103C500000F1100107F11403F961CDE900A3CDF8DB
:103C600008B0F96807F11C034846FEF7C1FE68F387
:103C700053257B68B9682A46204608F0B5FFD0E78F
:103C800004F1170020F007008008FFF745FE044606
:103C9000EDE700BF65EB000804000001F4E1000857
:103CA000BBCB00082DE9F04F87B0DDE91279DDE9E3
:103CB000105A0446039193469846BFB1CDF8009040
:103CC0003B46524610210020CDF81490FEF7BEFC72
:103CD000B0F5006F06460AD3184A194840F2FF7340
:103CE000022107B0BDE8F04F08F0D7BF3E4605F10E
:103CF0001700304420F0070004F007048008FFF7A5
:103D00000BFE0BF0070BE40044EA8B1444EA462454
:103D100044EA0554054640B13FB1CDF800903B461A
:103D2000524631461030FEF791FC03994346224635
:103D3000284607B0BDE8F04F08F056BFA4EB0008D6
:103D4000F4E10008406820B1034BC01A40F3CF00F3
:103D500070474FF0FF307047DCE100080EB403B548
:103D600003AB014653F8042B0448019308F0C6FF47
:103D700002B05DF804EB03B0704700BF0BCD000844
:103D8000CA0605D48B064CBF02490349FFF7E6BFBC
:103D9000704700BF39EA0008DCEB00082DE9F04F5E
:103DA00089B09A46149B06939DF84CB0159B0593D9
:103DB000169B179E049304460D469046BBF1000FD8
:103DC00000F09D8006F48073079308F0EBFE06F088
:103DD0000209024600283ED092492046FFF7BEFF66
:103DE0000746B9F1000F08D016F0440F35D18E49BF
:103DF0002A462046FFF7B2FF074406F0010353B1FD
:103E00008A4B8B4953F82B208A4B2046002A08BF47
:103E10001A46FFF7A3FF06F48073002B49D006F083
:103E20000803002B63D1B8F1000F66D082494246E7
:103E30002046FFF793FF0546069B3D44002B6DD1BE
:103E4000049B002B73D1F30700F1E5803146204637
:103E5000FFF796FFD9E00746C3E7784B18680028BC
:103E6000CAD0774B4FF47A791B68B5FBF3F54FF462
:103E70006163B5FBF0F100FB115509FB05F54FF04F
:103E80003C0CB1FBF3F203FB1211B5FBF0FEB1FBEE
:103E9000FCF300FB1E550CFB131109FB05F500910B
:103EA000B5FBF0F56749CDE901E52046FFF756FF80
:103EB000A2E706F00803EBB1634B644953F82B20EB
:103EC0002046FFF74BFF0546B8F1000F05D05A49D1
:103ED00042462046FFF742FF0544BAF1000FABD03F
:103EE0005B4952462046FFF739FF0544A4E74FF0EF
:103EF000000AE1E706F00805E6E745469CE7BAF167
:103F0000010F069B06D1002B65D1049B002B7CD0B2
:103F100000250CE0002BF8D04E485DE04E48069B93
:103F20004E49224608F0EFFA049B002B69D0DFF8D7
:103F30003081DFF83091049F3146102F204628BF92
:103F40001027FFF71DFF4FF0000A554546DC059B83
:103F500049461A782046FFF701FF4FF0010A1AF090
:103F6000070F03D141462046FFF7F8FE57453CD9DD
:103F7000059B494613F80A202046FFF7EFFE0AF199
:103F8000010ABAF1100FEAD1374920464FF0000A72
:103F9000FFF7E4FE5246059B9A5C344B995C11F0A6
:103FA000970F08BF2E2232492046FFF7D7FE0AF1AD
:103FB000010ABAF1100F1DD01AF0070F03D14146C4
:103FC0002046FFF7CBFE57455246E4D841462046EF
:103FD000FFF7C4FEEBE720485D46A0E741462046D8
:103FE000FFF7BCFE0AF1010AAFE722492046FFF7BE
:103FF000B5FEC4E7059B3B440593049BDB1B049380
:1040000099D1BBF1000F7FF41EAF204609B0BDE887
:10401000F04F08F066BE074A05492046FFF79EFEAE
:1040200014E700BFE4EB0008E8EB000874E30008C5
:104030000DEC0008DFEB000810EC0008588D0020A4
:10404000548D0020F1EB000888E3000814EC000810
:104050001AEC000841CD00080BCD0008FDCC00088B
:1040600027EC00081FEC000829EC0008D9E600083E
:104070002BEC000825EC000873B542F20F738B425D
:1040800028BF0B4605680F4A04460521684608F01C
:10409000B1FA63680C495B6806460B22284608F0B3
:1040A00012FE63683246694628465B6808F00BFEDC
:1040B000636806495B681B22284608F004FE02B0CC
:1040C00070BD00BFEEEF00084AEC00082EEC0008BF
:1040D000074A00210123904206D8064A01B901236C
:1040E0001360054B1860704740085B000121F2E740
:1040F00040420F00548D0020588D0020F8B5074F26
:104100000D4604464618B44201D12846F8BD14F8BD
:10411000011BBB6801485B689847F4E768DE00084C
:10412000014B036000207047D0E3000808B5034846
:10413000034A0021121A08F07FFE08BD4009002042
:10414000D48E00200748084A084908B5121A08F01A
:1041500075FE0748074A0849BDE80840121A08F0EA
:104160006DBE00BF000000203C09002020F60008C2
:10417000000000200000002020F6000830BFFFF7FC
:10418000FDBF00BF054B5A699B689A421FBF044A96
:10419000536843F080535360704700BF688E00201F
:1041A00000ED00E070B5264B15469A6A12F0100F2C
:1041B0009A6A14BF1124102412F0080F9A6A18BFCB
:1041C0001224920706460AD5586B9A6A140634D50B
:1041D00019B19A6A22F080029A62132401E06FF00A
:1041E0001500174B9A6A12F0010F9A6A18BF14242F
:1041F00012F0200F9A6A18BF1524D20602D49B6AC7
:104200009B070AD50E4B5B68190506D5314600F0B1
:10421000FBF910B180F309880224094B9A6A9206CF
:1042200042BF5A6A22F400525A629A6A42F0FF026E
:104230009A6200232B70204670BD6FF01500CCE70A
:1042400000ED00E0134B9A6A12F0007F9A6A14BFE7
:104250001E201D2012F0807F9A6A18BF1F2012F4C2
:10426000002F9A6A18BF212012F4802F9A6A18BF73
:10427000222012F4003F9A6A18BF232012F4803FD4
:104280009A6A6FEA02426FEA12429A6218BF2420C9
:10429000704700BF00ED00E010B5194B0246986A68
:1042A0009C6A10F4805F14BF1720162014F4006F6E
:1042B0009C6A18BF1820A40509D5986B986A000459
:1042C00004D51AB19A6A22F400429A6219200C4B62
:1042D0009A6A12F4806F9A6A18BF1A20D2050CD419
:1042E0009B6A13F4005F18BF1C20054A936A43F4CD
:1042F0007F43936200230B7010BD1B20F5E700BFC6
:1043000000ED00E0F0B5484B5B688BB00446C3F3AA
:104310000803002585F31188BFF36F8F02F07F40FB
:10432000B0F17F4F11D102F00C0008280DD010071A
:104330004CBF0C4601250022033B8DF80720032BC0
:1043400005D8DFE803F0246367602C46F3E7002319
:104350009DF80720CAB902AE04F120072068616801
:10436000324603C20834BC421646F7D1099A002DE2
:1043700054D0C2F3080121B96FEA52226FEA4222F7
:10438000099202A9184608F05BFD0BB0F0BD264B60
:10439000DA6A9107DBD4DA6A002AD8DBDA6A5200DB
:1043A000D5D55A69A16942F480725A61BFF34F8F23
:1043B000BFF36F8F5A6931F8021C22F480725A6180
:1043C000BFF34F8FBFF36F8F4DF6027291420AD049
:1043D0009A6AD2B24AB10DF1070201212046FFF7D5
:1043E000E1FE0346B4E72368B2E79A6A12F47F4F0E
:1043F00005D00DF107010120FFF74EFFF1E79B6AA1
:10440000B3F5803FA3D3FFF71DFFEAE70DF10702E5
:104410000021E3E70DF107010020EDE722F4FF7230
:1044200022F00102ACE700BF00ED00E0044B5A6946
:1044300042F010025A615A6922F008025A6170472C
:1044400000ED00E0EFF30880EFF3098101B572465B
:10445000FFF758FF01BD00BF0A4880F3088810200D
:1044600080F3118808484FF40461401880F30988EC
:10447000EFF314800221084380F31488BFF36F8F99
:1044800000F08AF800A0002040920020084B9B68B2
:1044900083420BD1EFF3058343B1064B5A6842F0D8
:1044A00080525A605A6A22F400425A6202F06ABF8D
:1044B000688E002000ED00E012498A684FF030005D
:1044C0001044EFF3098C80E8F01F102080F312886D
:1044D000BFF36F8F0C4F4FF000664A698A603E60F1
:1044E000506F0023536780F3118804B5104600F025
:1044F000EBF8BDE8044002F1300090E8F01F8CF3C7
:1045000009887047688E002004ED00E01EF0040F5B
:104510000CBFEFF30880EFF30980816911F8021CEA
:104520000229FFD001B5724608F090FC01BD00BF22
:1045300040B2002807DB044A4109012300F01F00B4
:10454000834042F82130704700E100E040B200288B
:10455000A8BF00F1604001F10101B8BF064B4FEA6E
:104560000111ACBF00F5614000F00F00C9B2B4BF4B
:10457000195480F80013704714ED00E0044B054A0D
:1045800023F07F039360BFF34F8FBFF36F8F7047AC
:104590000000000800ED00E008B5FFF7EFFF0B4A50
:1045A000D2F8883023F47003C2F88830EFF3148314
:1045B00023F0040383F31488BFF36F8FFFF7B6FD76
:1045C000FFF7C0FD00F056F802F062FA00ED00E0DF
:1045D00042F8203C009B42F81C3C0A49019B42F8EF
:1045E000183C029B42F8143C21F001014FF080730B
:1045F00042F8043C42F8081C0023203A0265436755
:10460000704700BF0FC60008094A0346906870B1A2
:1046100013F1160F406E05D0A0F140029A4205D862
:10462000834203D2814228BF002070470020704798
:10463000688E002008B50B4B0E461546986000F0BA
:1046400043F82C4686F309880020044B98472046FF
:10465000002100220023024C2047000071CE0008F8
:104660000FC60008688E0020014B10221A617047A7
:1046700000ED00E0044800231021C2180133532B41
:1046800082F80013F9D1704700E100E008B5EFF3BC
:104690000583064A103B02EBC30152F83300496818
:1046A0008847BDE80840FFF76DBD00BFD8DE0008B1
:1046B000024B034A0348012100F08AB800000120A0
:1046C00000000020D0E30008426E054B403A1A601B
:1046D000044A4021C3E901121846012100F082B8C2
:1046E000808D002000000B1508B503461048D0F857
:1046F0009020C2F30722013A934207D90D480E4A8F
:10470000012108F0CAFA6FF0150008BDC0F8983012
:104710000A6822F01F021A4342F01002C0F89C20DF
:104720008A6842F00102C0F8A0201846EDE700BFF9
:1047300000ED00E00CE2000894EC0008F0B50E4635
:1047400085B01F4604460025B5420DDA606810B3F7
:1047500097B1431E18420AD0104A11482B46012136
:1047600008F09BFA6FF01502104605B0F0BD1F2847
:10477000F2D921680B42EFD12368019308F08CFB3A
:10478000A36801A90343D0B20393FFF7ADFF10F173
:10479000160FE7D0421C01350C34D5E7BAEC0008FF
:1047A0000CE20008044B0522C3F89420BFF34F8F9E
:1047B000BFF36F8F704700BF00ED00E0BFF35F8F66
:1047C000024B0022C3F89420704700BF00ED00E0C8
:1047D00010B5034C01232278FFF7B0FF207010BD05
:1047E000CF8E002008B50B4A00231278FFF7A6FFF2
:1047F00010F1160F07D0084A0021D2F89030C3F309
:104800000723984200DB08BDC2F89800C2F8A01048
:104810000130F2E7CF8E002000ED00E02DE9F043FB
:104820005E485F49D0F890300D68C3F307239D427E
:1048300085B000F2B080FFF7C1FF496800229542C1
:1048400001F10C011BD1574C574F25706846FFF7FB
:1048500067FCDFF85881DFF8589106460025AE4224
:1048600020D123784D490020D1F89020C2F30722AF
:104870009342C0F28A80FFF795FF00204FE0C0F816
:10488000982051F80C3C23F01F03134343F010030E
:10489000C0F89C3051F8043C43F00103C0F8A0304C
:1048A0000132CCE7009800EB05114FEA051CCB68FC
:1048B0003B40B3F5000F49D00AD8B3F5001F31D003
:1048C000B3F5800F37D0B3F5801F13D00135C6E79D
:1048D000B3F1007F43D0B3F1805F49D0B3F1807F63
:1048E000F4D150F80C3088684A6808F0D5FA40F0E6
:1048F000887009E050F80C3088684A6808F0CCFAF3
:1049000040F0885040F43020039001A92078CDE990
:104910000123FFF7E9FE002833DA6FF0150005B038
:10492000BDE8F08350F80C3088684A6808F0B4FAA3
:1049300040EA0900E8E750F80C3088684A6808F057
:10494000ABFA40F0C06040F40030DDE750F80C30C6
:1049500088684A6808F0A0FA40F08270D4E750F8FE
:104960000C3088684A6808F097FA40F48020CBE75A
:1049700050F80C3088684A6808F08EFA40EA08005F
:10498000C2E7237801332370A0E7C1F89830C1F85B
:10499000A000013368E74FF0FF30C0E700ED00E012
:1049A000DCE30008CF8E00200000F0FF00000211C1
:1049B00000000811014B1860704700BFAC060020D2
:1049C000F8B5084F06460D460024AC4208DA3B68AD
:1049D00098470A28305504F1010401D00D28F4D17C
:1049E0002046F8BDA8060020F8B50A4F0D46461E21
:1049F000C0F10104A3199D4201DC2846F8BD73787B
:104A00000A2B02D13B680D2098473B6816F8010F2E
:104A10009847EFE7AC06002010B5074C2368C21892
:104A20000648C0F1005101F580318A423ABF226048
:104A3000C0184FF0FF3010BD8C8D002040A000202A
:104A400008B5054807F0C9FD002383F31188BFF3BB
:104A50006F8F0423184602DFEFEC000807B5094A00
:104A600092E803006B4683E80300074882681268F7
:104A700022B11946904703B05DF804FB6FF0570070
:104A8000F9E700BF58E20008A4DD000800F01F02AB
:104A900001213F2808B501FA02F2034605D908486A
:104AA000084A08F0FAF8002008BD074B1F2894BFF9
:104AB0005B695B6B9A430CBF01200020F4E700BFE9
:104AC000ECE10008F8EC00080004014000F01F02CF
:104AD00001213F2808B501FA02F2034606D907482A
:104AE000074A08F0DAF86FF0150008BD1F28054BDB
:104AF00002D85A610020F8E75A63FBE7ECE10008AE
:104B0000F8EC000800040140044B18440023013372
:104B1000994200F8012BFADC704700BF9C08002086
:104B20002DE9F041104F054600264FF001086B7843
:104B3000F4B2A34201D8BDE8F0812B781C44204692
:104B4000FFF7A4FF68B12046FFF7C0FF57F83430E5
:104B50003BB107EBC40204F01F04516808FA04F0EB
:104B600098470136E3E700BF908D0020034660B10F
:104B7000B0FA80F2C2F11F02D2B205498856054A46
:104B800011680B431360FFF7D3BCFF22F5E700BFAA
:104B90009C08002000040140024A136823EA000335
:104BA0001360704700040140032921D8DFE801F0B9
:104BB000020C10190F4B9A6822EA00029A60DA6818
:104BC00022EA0002DA6070470A4B9A680243F5E76E
:104BD000084BDA680243DA609A6822EA00029A60B7
:104BE0007047044B9A6802439A60DA681043D860B1
:104BF000704700BF0004014030B5B0B1B0FA80F397
:104C0000C3F11F03DBB20B4850F833408C4204D190
:104C100000EBC3056D68954205D044B940F83310E8
:104C200000EBC3004260002030BDFF23EBE76FF0D4
:104C30000F00F9E7908D002060B1B0FA80F3C3F166
:104C40001F03DBB2044A002142F8331002EBC30217
:104C500051607047FF23F5E7908D002000F00302BC
:104C6000043292000F23934043EA900000F00303C4
:104C70000233064A52F82320030C02EA104093FA4A
:104C8000A3F3B3FA83F3D840704700BF000001409C
:104C90002DE9F0418AB000AF022390463A1DC7E9E2
:104CA0000423FB6007F10803BB6107F11002012335
:104CB000C7E90823FB618B000E4643F020034168DF
:104CC000BF603B70002305467B7051F8040B07F171
:104CD000200307F1180208F08DF90446C0B12B68D3
:104CE0006D468AB06A461649D061C2E905134FF491
:104CF00000731384134B42F8103F4FF411511248C4
:104D000008F084F92046AD462837BD46BDE8F0815D
:104D10007B7988F8003029686D468CB06A460B486C
:104D20005061C2E908630A4840F201331385094B18
:104D3000C2E9060142F8103F4FF45451DFE700BFCB
:104D400046ED000804000001DCE100087CED0008ED
:104D50004FF3000806000001F0B587B000AF3B1D1F
:104D600007F10802BB606E4601238AB0C7E904233D
:104D7000FB6044680368397105466A46194850610A
:104D800019481162C2E9060340F201339384174BBC
:104D900042F8103F16484FF4345108F037F92146D5
:104DA000B54651F8040B002307F1100208F022F970
:104DB000044690B18AB02B686A460E49D061C2E9B8
:104DC00005134FF4007313840B4B42F8103F08484F
:104DD0004FF4115108F01AF9B54620461C37BD466C
:104DE000F0BD00BFABED000865F300080500000151
:104DF000DCE10008CAED0008040000012DE9F047DD
:104E000088B00369D0F804A003EB01080C4698F8B9
:104E1000B8302849934202AF164615D16D4688B086
:104E200002AA254BD461C2E90531042342F8103FA0
:104E300022484FF4045108F0E9F8AD460025284611
:104E40001837BD46BDE8F087A30043F040033B712F
:104E50003B1DBB600223FB604FF0010907F1080313
:104E60006D468AB07A713B61C7F8149002AA144B60
:104E70001248C2E905310523C2E907464FF424511F
:104E800042F8103F08F0C2F85146AD4651F8040B05
:104E9000002307F1100208F0ADF8054610B988F8B4
:104EA000B860CBE7074A009023460448494607F01C
:104EB000FEFEC4E738F30008EDED0008DCE1000871
:104EC0000EEE00082EEE00082DE9F04F83B00A79AF
:104ED000D0F804B012F01F0802AF064689460BD086
:104EE000794A7A48012107F0CFFE6FF01504204679
:104EF0000437BD46BDE8F08F90064B79897923D5FC
:104F00003BB901295DD002295DD003290ED12024AF
:104F100021E0012B06D1022957D0032957D029B906
:104F2000602418E0022B09D1032952D0684A00916D
:104F30006648012107F0BBFE664AD2E7032BF5D194
:104F40000229F3D1702406E0032B30D8DFE803F008
:104F5000024335378024604812F0200FEA468CB0B7
:104F60005E4A02AD18BF02465D486861C5E9082384
:104F70005C48A9622A4640F20243AB855A4BC5E918
:104F800006044FF4745142F8103F504808F03EF8C0
:104F900099F80020A2F10903D5460B2B44D8DFE88D
:104FA00003F0494B431C4339433B433D3F414F4989
:104FB00046481A4608F02DF8BEE7A024CBE7B024F7
:104FC000C9E71C46C7E71024C5E73024C3E74024DF
:104FD000C1E75024BFE79024BDE704229BF82E30A0
:104FE00014430BB144F00104B9F8023023B1404A34
:104FF0003648022107F048FE99F801209BF82CA0C2
:105000009BF82D50062A36D8DFE802F032353535C8
:105010001A3A18000622E1E70822DFE70A22DDE754
:105020000C22DBE70E22D9E73249284807F0F1FFCE
:10503000314A56E70022D1E70222CFE74FF080083D
:10504000BBF82A202D49002331F8230090421AD1C1
:105050002B4A002112F8239030462246FFF7CEFE5D
:10506000041E15DA27492246184807F0D2FF3EE70A
:105070004FF0C008E4E72449144807F0CAFF34E7BA
:105080004FF04008DCE70133082BDDD11F49F3E77F
:10509000EA0042EA4A1202F0F80201213046FFF724
:1050A000ADFE041E02DA1A492246DDE749EA08028B
:1050B00002213046FFF7A2FE041E02DA15492246FD
:1050C000D2E7002413E700BF59EE0008DCE1000836
:1050D00087EE0008C4EE00084EEE000853EE00080C
:1050E000F0EE000822F3000807000001AEEE000811
:1050F0005DEF000829EF00083AEF0008C0E900085A
:10510000BEE90008D5EF0008A4EF0008BAEF0008D8
:10511000F1EF00080DF000082DE9F04F8DB0D0F848
:10512000109002AF05460E4609F140084FF0FF33DC
:105130004FF0FF32404601F00BFE337C2C69182BF8
:1051400010D018220092B648B64A012107F0AFFDF0
:105150006FF0150A404607F053FF50462C37BD4606
:10516000BDE8F08F7168012905D00A46AC48AE4908
:1051700007F04FFFECE7737C33B1AC4AA84807F067
:1051800083FD6FF0850AE5E7336873B19A890132D0
:105190009200F36893420AD2A14800920121A44AE6
:1051A00007F085FD6FF00B0AD4E70422F1E7D6F88B
:1051B00008E0C4F890E0B246BAE80F0004F1640CCD
:1051C000ACE80F00DAF80030CCF800304FF0000CFB
:1051D000C4F860C03368002B5CD00FCB04F17806B4
:1051E00086E80F006666A4F888C0002852D0BFF396
:1051F0005B8F54E8003F44E800C2002AF9D1BFF3B6
:105200005B8FA06F63304CF1000164220023FCF738
:10521000AFF80022CDE90001002304F1080002F0FC
:105220008BFB0022002309F1500001F091FD824622
:1052300000288FD02C6904F1A8064FF0FF324FF000
:10524000FF33304601F084FD0022002304F1980072
:1052500001F07EFD08212846FFF77EFD824600B35F
:1052600029686D4688B002AA7248C2E905014FF468
:1052700000719183704942F8101F69484FF4E25160
:1052800007F0C4FEAD46C4F860A004F1500007F07A
:10529000B7FE5FE7C4F894E004F1A80007F0B0FEA1
:1052A000BFE72869983040F6C412002301F050FD92
:1052B000824628B129686D4688B002AA5F48D4E7C3
:1052C0000423FA18C7E90423FB6007F10803BB6154
:1052D00007F110020123C7E90823FB616968BF6079
:1052E00010233B70D4F890B051F8040B07F1200361
:1052F00007F1180207F07EFE824638B36E468AB088
:10530000296802AA4E48C2F81CA0C2E905014FF460
:1053100000794C49A2F82090414842F8101F4FF400
:10532000115107F073FEB54688B0296802AA4648B5
:10533000A2F81C90C2E905013F4942F8101F384805
:105340004FF4E25107F062FEB5469CE7BB797A79EB
:10535000F9791B0243EA024319431B024CBF41F097
:105360007F430B46CBF80030EB468CB0286802AA8E
:10537000DFF8D8C0C2F814C0C2E90813DFF8D0C003
:1053800040F201331385334BC2E906C04FF4545148
:1053900042F8103F224807F039FED4F89030043329
:1053A000C4F89030636EDD46B3B3E36FB4F8882081
:1053B0003BB104F1640128469847012812D0022825
:1053C00024D0B4F88830B4F884209A421ED901332E
:1053D000A4F88830A36F53B9D4F89030C4F894304F
:1053E00030465BE7D4F89430C4F89030F2E7BFF36E
:1053F0005B8F54E8003F5A1E44E800210029F8D191
:10540000BFF35B8F012B7FF70CAFE5E7A36F1BB1F9
:1054100004F1080008F061FC04F150003EE700BF11
:10542000DCE1000829F000084BF000087DF00008DE
:1054300098F00008BAF0000803000001E0F000084E
:1054400008F100080400000130F100084AF10008EA
:105450000EF30008060000012DE9F84F814600AF69
:1054600045680669994A9A48032107F00DFC994955
:10547000002206F1080008F024FC06F14008012291
:105480000021404608F002FB0122002106F15000F5
:1054900008F0FCFA0122002106F1A80008F0F6FA53
:1054A0000122002106F1980008F0F0FA286808F0BF
:1054B000B9FAC8B96C4688B0D9F800306A4686494E
:1054C0008348C2E905134FF400739383834B42F87A
:1054D000103F4FF4E25107F099FDA5466FF012041A
:1054E0002046BD46BDE8F88F2B7E23B1E86808F062
:1054F00099FA0028DED0286A08F094FA28B9784A88
:105500007348012107F0C0FBE8E7EB8C286A95F8A7
:10551000241043F48032D0F810C0D0F808E013F023
:10552000010F4FF00104DCF8003004FA01F414BF5D
:105530002343A343CCF80030DEF800309847041E24
:1055400005DA68492246624807F063FDC8E795F826
:105550002430654A4FF0010A0AFA03F3C6E9302302
:10556000286A8368DB6906F1BC0133B1524698476B
:10557000041E05DA5D492246E5E76FF05704F9E7B6
:10558000286A95F82410EB8C84680269A469DCB160
:1055900012680AFA01FA1AEA020F03F040030CBF7C
:1055A00043F0B86383F0707323F0794323F47F03EF
:1055B00023F47F4323F0BF034FF0A072A047041EE3
:1055C00005DA4B492246BEE76FF05704F9E732206F
:1055D00008F021FB6C4688B0D9F804B06A46454B08
:1055E00053614FF0030A444B9361394842F810AFBE
:1055F0004FF4C85107F00AFD0621A5464846FFF7BB
:10560000ABFB041E07DA3D493148224607F001FD95
:105610003B49224697E79BF82C309BF82D2003EB63
:1056200043031344374A52F823004FF47A7340017E
:10563000B0FBF3F0323008F0EEFA334A244851461A
:1056400007F022FB06F1B80200214846FFF720FBD5
:105650000446B0B906F1B90201214846FFF718FB2C
:10566000044670B906F1BA0202214846FFF710FB62
:10567000044630B906F1BB0251464846FFF708FB25
:105680000446002C02DA214922465CE795F82820DE
:1056900003214846FFF7B2FB041E02DA1C492246EA
:1056A00051E705F130014846FFF70EFC041E02DA0F
:1056B0001849224647E7C82008F0ADFAB36C13B981
:1056C000404607F09DFC00240AE700BF69F100088E
:1056D000DCE100081DD0000882F100080300000191
:1056E0009EF10008B7F1000805D00008D9F10008C4
:1056F000F9F1000820F200087AF300083EF20008F1
:105700005FF2000878E400087AF20008A8F20008C6
:10571000CEF20008EAF20008024B1868C0F38020BD
:10572000704700BF0010024038B52F4B18680B8837
:10573000C3F30B030C2B0D46144624D813B96FF09A
:10574000850031E0013B0B2BF9D801A252F823F080
:105750009D570008D757000881570008D357000805
:105760003F570008D75700089D5700089D5700086D
:105770009D570008AB570008BB570008C7570008E3
:105780004FF4FA400AE003F6B873C3F30B03182B87
:10579000D5D8164A22FA03F3DB07D0D520602B6850
:1057A000B3F5805F19D2002038BD00F0BBF8142398
:1057B00058430723B0FBF3F0F0E700F0B3F81423ED
:1057C00058434008EAE700F0ADF814235843800836
:1057D000E4E70748E2E70020E0E7C3F313330133CF
:1057E000B0FBF3F02060DEE7140700201101110187
:1057F0000024F400F8B5474F474C00F0A9F83846AC
:1058000007F0B7FC00F0D4FFA368444AC3F30313C6
:105810001578D35C47FA05F520FA03F6AE4202D2BA
:10582000284601F013F8FFF777FF012807D0236817
:1058300043F480732360FFF76FFF0128FBD1D4F896
:10584000943043F00103C4F89430D4F894309907AD
:10585000FBD5A36803F00C030C2B1AD1FFF75CFFF8
:10586000012807D0236843F480732360FFF754FFB7
:105870000128FBD1A36823F0030343F00103A360D5
:10588000A36803F00C03042BFAD1A36823F0F00300
:10589000A360236823F08073236023689A01FCD4FB
:1058A000E36823F4003343F06053E360E36843F4B8
:1058B0008033E360E36823F4C003E360E36843F408
:1058C0008013E36000F032F8236843F080732360B4
:1058D00023689B01FCD5A36823F0F003A360A368B1
:1058E00043F00303A360A36803F00C030C2BFAD16D
:1058F000AE4202D3284600F0A9FF094B1F60A368FF
:1059000023F4E063A360A36823F46053A360002042
:10591000F8BD00BF00B4C40400100240D3F5000875
:1059200014070020004870470024F400054B064986
:10593000DA681140054A0A43DA60DA6842F0807298
:10594000DA607047001002408C80FFF902140002F8
:10595000064B9A6D42F080529A659B6D82B003F0BF
:1059600080530193019B02B0704700BF00100240BA
:1059700008B5074808F056F838B10648FFF71AF896
:105980000448FDF71BFA002008BD6FF01200FBE78A
:1059900068DE0008995900080A2838B5074D044602
:1059A00004D1AB680D215B6828469847AB68034873
:1059B0005B68E1B29847204638BD00BF68DE00084A
:1059C0002DE9F843D0F80480D0F81090D8F80800FA
:1059D00017460D461E4607F0ECFAB7F5001F0446C1
:1059E00016D12846D8F80840FFF738F984420CD180
:1059F000294607F0DEFA0446FFF7CEF82046FFF707
:105A00001BF900212046FFF7CFF80020BDE8F883FE
:105A1000B7F5800F20D0B6F1806F19D0B6F1C06F06
:105A200018D0B6F1007F1AD1022610494A46204606
:105A3000FFF7E2F8B0B9D8F80810284607F0BEFA28
:105A400020463146FFF7B0F82046FFF78FF8DCE735
:105A50000126EAE70326E8E76FF08500D6E76FF056
:105A60001500D3E76FF00F00D0E700BFE1D30008C7
:105A700008B5036958604168054883681B680C31A4
:105A80001BB1984700EAE07008BD6FF05700F9E7D6
:105A9000A4DD00082DE9F0471E4F044600EBC106C7
:105AA0000025B44201D1002014E02068C30600F0B4
:105AB0001F0911D4656845F02005C0F3481AC0F3EA
:105AC0004420192823D857F82080B8F1000F0DD1B1
:105AD0006FF01200BDE8F087B9F1100F04D0B9F1F2
:105AE000110FEAD16568E8E73025E6E7404607F0A0
:105AF00099FF0028ECD04B462A460AF00F01404699
:105B000007F084FC002804F10804CADAE2E76FF029
